:020000040800F2
:100000000000022031620008F5080008FD08000821
:10001000050900080D090008150900080000000086
:100020000000000000000000000000001D090008A2
:100030002B090008000000003909000847090008E2
:1000400085620008856200088562000885620008F4
:1000500085620008856200088562000885620008E4
:1000600085620008856200088562000885620008D4
:1000700085620008856200088562000885620008C4
:1000800085620008856200088562000885620008B4
:1000900085620008856200088562000885620008A4
:1000A0008562000885620008856200088562000894
:1000B0008562000885620008856200088562000884
:1000C0008562000885620008856200088562000874
:1000D0008562000855090008690900087D090008C3
:1000E0008562000885620008000000008562000843
:1000F0008562000885620008856200088562000844
:100100008562000885620008856200088562000833
:1001100091090008A5090008B909000885620008CE
:100120008562000885620008856200088562000813
:100130008562000885620008856200088562000803
:1001400000000000000000000000000000000000AF
:1001500085620008856200088562000885620008E3
:1001600085620008856200088562000885620008D3
:1001700085620008856200088562000800000000B2
:10018000856200088562000885620008CD090008C4
:1001900085620008856200088562000885620008A3
:1001A0008562000885620008856200080000000082
:1001B0008562000885620008856200088562000883
:1001C0008562000885620008000000000000000051
:1001D0000000000000000000856200080000000030
:1001E000000000000000000000000000000000000F
:1001F0000000000000000000856200088562000821
:100200008562000885620008000000008562000821
:100210008562000885620008856200088562000822
:1002200085620008000000008562000800000000F0
:1002300085620008856200080000000085620008F1
:1002400085620008856200088562000885620008F2
:1002500085620008856200088562000885620008E2
:1002600085620008856200088562000885620008D2
:1002700085620008856200088562000800000000B1
:1002800085620008856200088562000885620008B2
:100290000000000085620008856200080000000080
:1002A0000000000085620008856200088562000881
:1002B0008562000885620008856200088562000882
:0C02C00085620008856200088562000865
:1002CC007BB972B90029BEBF00204FF0004106E097
:1002DC0008BF00281CBF6FF000414FF0FF3000F04A
:1002EC0057B8ADF1080C6DE904CE002909DB002BE1
:1002FC001ADB0EF09DFFDDF804E0DDE9022304B00B
:10030C007047404261EB4101002B1BDB0EF090FF6C
:10031C00DDF804E0DDE9022304B0404261EB410169
:10032C00524263EB43037047524263EB43030EF0BC
:10033C007FFFDDF804E0DDE9022304B0404261EB0D
:10034C0041017047524263EB43030EF071FFDDF83D
:10035C0004E0DDE9022304B0524263EB430370472F
:10036C0053B94AB9002908BF00281CBF4FF0FF3110
:10037C004FF0FF3000F00CB8ADF1080C6DE904CE75
:10038C000EF056FFDDF804E0DDE9022304B07047FF
:10039C00704700BF0348044B834202D0034B03B1A8
:1003AC00184770476800002068000020000000001B
:1003BC000548064B1B1AD90F01EBA301491002D0BB
:1003CC00034B03B1184770476800002068000020F9
:1003DC000000000010B5064C237843B9FFF7DAFF94
:1003EC00044B13B10448AFF300800123237010BDFC
:1003FC006800002000000000F8F4000808B5054B68
:10040C001BB105490548AFF30080BDE80840FFF774
:10041C00CFBF00BF000000006C000020F8F4000803
:10042C0080B58CB000AF07F11C0300221A605A6033
:10043C009A60DA601A615E4BD3F8E0305C4A43F0A4
:10044C000403C2F8E0305A4BD3F8E03003F0040355
:10045C00BB61BB69564BD3F8E030554A43F080037F
:10046C00C2F8E030524BD3F8E03003F080037B61EC
:10047C007B694F4BD3F8E0304D4A43F00103C2F88F
:10048C00E0304B4BD3F8E03003F001033B613B69A8
:10049C00474BD3F8E030464A43F00203C2F8E03051
:1004AC00434BD3F8E03003F00203FB60FB68404B96
:1004BC00D3F8E0303E4A43F02003C2F8E0303C4B26
:1004CC00D3F8E03003F02003BB60BB68384BD3F8A3
:1004DC00E030374A43F01003C2F8E030344BD3F825
:1004EC00E03003F010037B607B68314BD3F8E030D5
:1004FC002F4A43F00803C2F8E0302D4BD3F8E0301C
:10050C0003F008033B603B6800224FF40C51294870
:10051C0006F09AFA00220321274806F095FA0022E9
:10052C004FF40041254806F08FFA00221821244888
:10053C0006F08AFA4FF40C53FB6101233B62022351
:10054C007B620023BB6207F11C031946194806F0B5
:10055C00D3F80323FB6101233B6202237B6200235C
:10056C00BB6207F11C031946134806F0C5F84FF49B
:10057C000043FB6101233B6202237B620023BB62CD
:10058C0007F11C0319460D4806F0B6F81823FB6159
:10059C0001233B6202237B620023BB6207F11C0335
:1005AC001946074806F0A8F800BF3037BD4680BD95
:1005BC000044025800080258000402580010025867
:1005CC00000C025880B500AF1B4B1C4A1A601A4B2A
:1005DC001B4A5A60184B00229A60174B0122DA60B2
:1005EC00154B00221A61144B00225A61124B002247
:1005FC009A61114B0022DA610F4B00221A620E48ED
:10060C0006F03CFA0346002B01D000F04DF9002116
:10061C00094806F083FF0346002B01D000F044F993
:10062C000021054806F0C5FF0346002B01D000F061
:10063C003BF900BF80BD00BF840000200054004087
:10064C00724E406080B5B8B000AF786007F1CC0353
:10065C0000221A605A609A60DA601A6107F110037E
:10066C00B822002118460EF011FD7B681B68264A43
:10067C00934245D14FF008024FF00003C7E9042321
:10068C000023C7F8903007F11003184607F07EFFDF
:10069C000346002B01D000F007F91C4BD3F8E030D7
:1006AC001A4A43F00203C2F8E030184BD3F8E0309A
:1006BC0003F00203FB60FB68C023C7F8CC301223A5
:1006CC00C7F8D0300023C7F8D4300023C7F8D8308F
:1006DC000423C7F8DC3007F1CC0319460C4806F0AC
:1006EC000BF80A4BD3F8E830084A43F40013C2F86D
:1006FC00E830064BD3F8E83003F40013BB60BB685A
:10070C0000BFE037BD4680BD005400400044025895
:10071C000004025880B500AF00F09AF805F0AEFD69
:10072C0000F028F8FFF77CFEFFF74CFF00F054FFB9
:10073C0000F028FD01F034F800F08AFB01F07CF8A1
:10074C0000F096FF00F048FA00F0FAFB00F0E2FC33
:10075C0000F0FCFA00F08EFC01F0BAF800F0D4FFC7
:10076C0002F0C4FE024809F0D1FD00BFFDE700BF56
:10077C005802002080B59CB000AF07F124034C2236
:10078C00002118460EF082FC3B1D20220021184649
:10079C000EF07CFC022006F059FF00233B602B4B33
:1007AC009B692A4A23F440439361284B9B6903F4C9
:1007BC0040433B603B6800BF244B9B6903F40053F0
:1007CC00B3F5005FF8D101237B624FF48033BB6239
:1007DC000223BB640223FB6402233B652C237B6551
:1007EC000123BB650223FB6502233B660C237B665E
:1007FC000023BB660023FB6607F12403184606F0B2
:10080C005FFF0346002B01D000F04EF83F237B60C6
:10081C000323BB600023FB6008233B6140237B6107
:10082C004023BB614FF48063FB6140233B623B1D63
:10083C000321184607F01EFB0346002B01D000F0E5
:10084C0033F800BF7037BD4680BD00BF004802586A
:10085C0080B584B000AF3B4600221A605A609A60A3
:10086C00DA6005F0D1FE01233B7000237B7000237E
:10087C007B601F233B7287237B720023BB72002398
:10088C00FB7201233B7301237B730023BB73002397
:10089C00FB733B46184605F0EFFE042005F0CCFE3A
:1008AC0000BF1037BD4680BD80B400AF72B600BF2C
:1008BC0000BFFDE780B483B000AF0A4BD3F8F4302F
:1008CC00084A43F00203C2F8F430064BD3F8F43074
:1008DC0003F002037B607B6800BF0C37BD465DF8FC
:1008EC00047B70470044025880B400AF00BFFDE7A2
:1008FC0080B400AF00BFFDE780B400AF00BFFDE7E0
:10090C0080B400AF00BFFDE780B400AF00BFFDE7CF
:10091C0080B400AF00BFBD465DF8047B704780B467
:10092C0000AF00BFBD465DF8047B704780B400AFDC
:10093C0000BFBD465DF8047B704780B500AF05F085
:10094C000FFD00BF80BD000080B500AF02480BF06A
:10095C00D3F800BF80BD00BFAC04002080B500AF51
:10096C0002480BF0C9F800BF80BD00BF4005002055
:10097C0080B500AF02480BF0BFF800BF80BD00BFD0
:10098C00D405002080B500AF02480BF0B5F800BFCD
:10099C0080BD00BFF002002080B500AF02480BF014
:1009AC00ABF800BF80BD00BF8403002080B500AF52
:1009BC00024809F0AFFE00BF80BD00BF5802002006
:1009CC0080B500AF02480BF097F800BF80BD00BFA8
:1009DC001804002080B400AF01231846BD465DF812
:1009EC00047B704780B582B000AF786039600EF040
:1009FC00A9FB034616221A604FF0FF33184608373E
:100A0C00BD4680BD80B582B000AF78604FF0FF313D
:100A1C007868FFF7E7FF00BFFDE7000080B586B000
:100A2C0000AF7860144A154BD31A7B617B693B612C
:100A3C00134B1B68002B02D1114B124A1A60104B3E
:100A4C001A687B6813443A699A4207D20EF07AFB13
:100A5C0003460C221A604FF0FF3309E0084B1B6869
:100A6C00FB60074B1A687B681344054A1360FB68EC
:100A7C0018461837BD4680BD000002200004000057
:100A8C00D8000020B808002080B400AF3E4BD3F84B
:100A9C0088303D4A43F47003C2F888303B4B1B68E6
:100AAC0003F00F03062B07D8384B1B6823F00F03FA
:100ABC00364A43F007031360354B1B68344A43F046
:100ACC0001031360324B00221A61314B1A68304912
:100ADC00304B13400B602D4B1B6803F00803002BAD
:100AEC0007D02A4B1B6823F00F03284A43F0070357
:100AFC001360274B00229A61254B0022DA61244BAC
:100B0C0000221A62224B244A9A62214B234ADA624F
:100B1C001F4B234A1A631E4B00225A631C4B204A5C
:100B2C009A631B4B0022DA63194B1D4A1A64184B4B
:100B3C0000225A64164B1B68154A23F48023136059
:100B4C00134B00221A66124BD3F8D43003F48053A3
:100B5C00002B13D10E4BD3F8D4300D4A43F48053F1
:100B6C00C2F8D4300F4B43F2D2021A60084BD3F8C0
:100B7C00D430074A23F48053C2F8D43000BFBD46AA
:100B8C005DF8047B704700BF00ED00E000200052D0
:100B9C00004402587FEDF6EA000202020000FF0159
:100BAC00800201010040005280B400AF094BDB68A9
:100BBC00084A43F00203D36000BF064B5B6803F4A2
:100BCC000053002BF9D000BF00BFBD465DF8047B7D
:100BDC00704700BF0048025880B59CB000AF07F1C9
:100BEC00600300221A605A609A60DA6007F15403BD
:100BFC0000221A605A609A6007F1380300221A60CA
:100C0C005A609A60DA601A615A619A613B1D34220B
:100C1C00002118460EF03AFA4A4B4B4A1A60494BDF
:100C2C004FF489725A60474B00229A60454B44F648
:100C3C001F62DA60434B00221A61424B00225A6158
:100C4C00404B00229A613F4809F062FA0346002BA0
:100C5C0001D0FFF729FE4FF480533B6607F1600388
:100C6C001946384809F072FF0346002B01D0FFF7F4
:100C7C001BFE344809F0D0FB0346002B01D0FFF7D4
:100C8C0013FE00237B650023BB650023FB6507F186
:100C9C00540319462B480AF0BFFC0346002B01D025
:100CAC00FFF702FE6023BB630023FB6300233B645E
:100CBC0000237B640023BB640023FB6400233B659F
:100CCC0007F13803082219461E4809F02BFE03468B
:100CDC00002B01D0FFF7E8FD07F138030C22194671
:100CEC00184809F01FFE0346002B01D0FFF7DCFD6E
:100CFC0000237B600023BB600023FB6000233B616F
:100D0C0000237B614FF40053BB610023FB61002384
:100D1C007B624FF00073BB620023FB6200237B639A
:100D2C003B1D194607480AF013FD0346002B01D062
:100D3C00FFF7BAFD034800F06FFB00BF7037BD46EC
:100D4C0080BD00BFDC0000200000014080B58EB0EB
:100D5C0000AF07F1280300221A605A609A60DA602B
:100D6C0007F11C0300221A605A609A603B4600226D
:100D7C001A605A609A60DA601A615A619A61334B50
:100D8C004FF080421A60314B4FF489725A602F4BEE
:100D9C0000229A602D4B6322DA602C4B00221A61E0
:100DAC002A4B00229A61294809F0B2F90346002B1C
:100DBC0001D0FFF779FD4FF48053BB6207F1280394
:100DCC001946224809F0C2FE0346002B01D0FFF75A
:100DDC006BFD1E4809F020FB0346002B01D0FFF7EA
:100DEC0063FD0023FB6100237B6207F11C031946A2
:100DFC0016480AF011FC0346002B01D0FFF754FDF6
:100E0C0060233B6000237B600023BB6000233B61BD
:100E1C003B46042219460D4809F084FD0346002B7D
:100E2C0001D0FFF741FD3B4608221946074809F05F
:100E3C0079FD0346002B01D0FFF736FD034800F087
:100E4C00EBFA00BF3837BD4680BD00BF280100203B
:100E5C0080B58EB000AF07F1280300221A605A60EB
:100E6C009A60DA6007F11C0300221A605A609A60DB
:100E7C003B4600221A605A609A60DA601A615A6125
:100E8C009A612D4B2D4A1A602B4B4FF489725A6084
:100E9C00294B00229A60284B4FF6FF72DA60264BE2
:100EAC0000221A61244B00229A61234809F030F980
:100EBC000346002B01D0FFF7F7FC4FF48053BB62C5
:100ECC0007F1280319461C4809F040FE0346002B85
:100EDC0001D0FFF7E9FC184809F09EFA0346002BF5
:100EEC0001D0FFF7E1FC0023FB6100237B6207F1DB
:100EFC001C03194610480AF08FFB0346002B01D047
:100F0C00FFF7D2FC60233B6000237B600023BB60B7
:100F1C0000233B613B4600221946074809F002FDBD
:100F2C000346002B01D0FFF7BFFC034800F074FA16
:100F3C0000BF3837BD4680BD74010020000400405E
:100F4C0080B58EB000AF07F1280300221A605A60FA
:100F5C009A60DA6007F11C0300221A605A609A60EA
:100F6C003B4600221A605A609A60DA601A615A6134
:100F7C009A613E4B3E4A1A603C4B4FF489725A6060
:100F8C003A4B00229A60394B44F61F62DA60374BB9
:100F9C0000221A61354B00229A61344809F0B8F8E6
:100FAC000346002B01D0FFF77FFC4FF48053BB624C
:100FBC0007F1280319462D4809F0C8FD0346002BFC
:100FCC0001D0FFF771FC294809F026FA0346002BE3
:100FDC0001D0FFF769FC0023FB6100237B6207F162
:100FEC001C03194621480AF017FB0346002B01D0BD
:100FFC00FFF75AFC60233B6000237B600023BB603F
:10100C0000233B613B4600221946184809F08AFC34
:10101C000346002B01D0FFF747FC3B460422194640
:10102C00124809F07FFC0346002B01D0FFF73CFC73
:10103C003B46082219460D4809F074FC0346002B68
:10104C0001D0FFF731FC3B460C221946074809F04A
:10105C0069FC0346002B01D0FFF726FC034800F087
:10106C00DBF900BF3837BD4680BD00BFC001002092
:10107C000008004080B588B000AF07F110030022D3
:10108C001A605A609A60DA603B1D00221A605A603E
:10109C009A601E4B1E4A1A601C4B4FF489725A60A0
:1010AC001A4B00229A60194B4FF0FF32DA60174B43
:1010BC0000221A61154B00229A61144809F028F895
:1010CC000346002B01D0FFF7EFFB4FF480533B613D
:1010DC0007F1100319460D4809F038FD0346002BA3
:1010EC0001D0FFF7E1FB00237B600023FB603B1D7D
:1010FC00194606480AF090FA0346002B01D0FFF778
:10110C00D3FB00BF2037BD4680BD00BF0C020020C2
:10111C00000C004080B584B000AF3B1D00221A606B
:10112C005A609A60154B164A1A60144B4FF4897228
:10113C005A60124B00229A60104B42F20F72DA6026
:10114C000E4B00229A610D4808F0E2FF0346002B7B
:10115C0001D0FFF7A9FB00237B600023FB603B1D44
:10116C00194606480AF058FA0346002B01D0FFF73F
:10117C009BFB00BF1037BD4680BD00BF580200204E
:10118C000010004080B58EB000AF07F1280300229C
:10119C001A605A609A60DA6007F11C0300221A6028
:1011AC005A609A603B4600221A605A609A60DA6074
:1011BC001A615A619A613E4B3E4A1A603C4B4FF49D
:1011CC0089725A603A4B00229A60394B44F61F627E
:1011DC00DA60374B00221A61354B00229A61344891
:1011EC0008F096FF0346002B01D0FFF75DFB4FF490
:1011FC008053BB6207F1280319462D4809F0A6FC61
:10120C000346002B01D0FFF74FFB294809F004F9E6
:10121C000346002B01D0FFF747FB0023FB610023A3
:10122C007B6207F11C03194621480AF0F5F90346C5
:10123C00002B01D0FFF738FB60233B6000237B6061
:10124C000023BB6000233B613B4600221946184833
:10125C0009F068FB0346002B01D0FFF725FB3B464A
:10126C0004221946124809F05DFB0346002B01D0FD
:10127C00FFF71AFB3B46082219460D4809F052FBB2
:10128C000346002B01D0FFF70FFB3B460C221946FF
:10129C00074809F047FB0346002B01D0FFF704FB7E
:1012AC00034800F0B9F800BF3837BD4680BD00BF19
:1012BC00A402002000E4004080B58AB000AF786042
:1012CC007B681B684D4A93420FD14D4BD3F8F030DD
:1012DC004B4A43F00103C2F8F030494BD3F8F030DD
:1012EC0003F001037B627B6A84E07B681B68B3F1CB
:1012FC00804F0FD1424BD3F8E830414A43F0010301
:10130C00C2F8E8303E4BD3F8E83003F001033B62FF
:10131C003B6A6FE07B681B683A4A93420FD1384BAB
:10132C00D3F8E830364A43F00203C2F8E830344BC5
:10133C00D3F8E83003F00203FB61FB695AE07B68E9
:10134C001B68314A93420FD12D4BD3F8E8302C4A0D
:10135C0043F00403C2F8E830294BD3F8E83003F02B
:10136C000403BB61BB6945E07B681B68274A934259
:10137C000FD1234BD3F8E830214A43F00803C2F8CD
:10138C00E8301F4BD3F8E83003F008037B617B692E
:10139C0030E07B681B681E4A934217D1184BD3F878
:1013AC00E830174A43F01003C2F8E830144BD3F876
:1013BC00E83003F010033B613B6900220F2136201B
:1013CC0005F0EDF8362005F004F913E07B681B6896
:1013DC00104A93420ED10A4BD3F8EC30084A43F032
:1013EC000073C2F8EC30064BD3F8EC3003F000730A
:1013FC00FB60FB6800BF2837BD4680BD0000014084
:10140C00004402580004004000080040000C00405A
:10141C000010004000E4004080B58CB000AF786054
:10142C0007F11C0300221A605A609A60DA601A6194
:10143C007B681B685E4A934220D15E4BD3F8E03048
:10144C005C4A43F01003C2F8E0305A4BD3F8E0305A
:10145C0003F01003BB61BB694FF4C043FB61022373
:10146C003B6200237B620023BB620123FB6207F11A
:10147C001C031946504805F03FF994E07B681B6843
:10148C00B3F1804F1FD14B4BD3F8E030494A43F0B6
:10149C000103C2F8E030474BD3F8E03003F001030E
:1014AC007B617B690623FB6102233B6200237B6229
:1014BC000023BB620123FB6207F11C0319463F4862
:1014CC0005F01AF96FE07B681B683D4A93421FD107
:1014DC00384BD3F8E030374A43F00403C2F8E0301D
:1014EC00344BD3F8E03003F004033B613B694023F9
:1014FC00FB6102233B6200237B620023BB6202235D
:10150C00FB6207F11C0319462E4805F0F5F84AE07A
:10151C007B681B682C4A934220D1264BD3F8E030D1
:10152C00244A43F00803C2F8E030224BD3F8E030F1
:10153C0003F00803FB60FB684FF47043FB6102236C
:10154C003B6200237B620023BB620223FB6207F138
:10155C001C0319461D4805F0CFF824E07B681B6876
:10156C001B4A93421FD1134BD3F8E030114A43F07E
:10157C002003C2F8E0300F4BD3F8E03003F0200327
:10158C00BB60BB684FF4F043FB6102233B6200235A
:10159C007B620023BB620E23FB6207F11C0319461E
:1015AC000C4805F0A9F800BF3037BD4680BD00BF20
:1015BC00000001400044025800100258000002587C
:1015CC00000400400008025800080040000C0258BB
:1015DC0000E400400014025880B500AF224B234AAF
:1015EC001A60214B4FF4E1325A601F4B00229A6073
:1015FC001D4B0022DA601C4B00221A611A4B0C2284
:10160C005A61194B00229A61174B0022DA61164B72
:10161C0000221A62144B00225A62134B00229A6267
:10162C0011480AF03FF90346002B01D0FFF73CF9B3
:10163C0000210D480CF0B9FD0346002B01D0FFF73B
:10164C0033F9002108480CF0EEFD0346002B01D0C5
:10165C00FFF72AF904480CF06FFD0346002B01D06C
:10166C00FFF722F900BF80BDF0020020004C0040C3
:10167C0080B500AF224B234A1A60214B4FF4E13264
:10168C005A601F4B00229A601D4B0022DA601C4BE3
:10169C0000221A611A4B0C225A61194B00229A61D2
:1016AC00174B0022DA61164B00221A62144B0022EF
:1016BC005A62134B00229A6211480AF0F3F803465F
:1016CC00002B01D0FFF7F0F800210D480CF06DFD58
:1016DC000346002B01D0FFF7E7F8002108480CF077
:1016EC00A2FD0346002B01D0FFF7DEF804480CF0F6
:1016FC0023FD0346002B01D0FFF7D6F800BF80BDB9
:10170C00840300200050004080B500AF224B234AD8
:10171C001A60214B4FF4E1325A601F4B00229A6041
:10172C001D4B0022DA601C4B00221A611A4B0C2252
:10173C005A61194B00229A61174B0022DA61164B41
:10174C0000221A62144B00225A62134B00229A6236
:10175C0011480AF0A7F80346002B01D0FFF7A4F8B4
:10176C0000210D480CF021FD0346002B01D0FFF7A2
:10177C009BF8002108480CF056FD0346002B01D0C5
:10178C00FFF792F804480CF0D7FC0346002B01D06D
:10179C00FFF78AF800BF80BD18040020007C0040D1
:1017AC0080B500AF224B234A1A60214B4FF41652DE
:1017BC005A601F4B00229A601D4B0022DA601C4BB2
:1017CC0000221A611A4B0C225A61194B00229A61A1
:1017DC00174B0022DA61164B00221A62144B0022BE
:1017EC005A62134B00229A6211480AF05BF80346C6
:1017FC00002B01D0FFF758F800210D480CF0D5FC58
:10180C000346002B01D0FFF74FF8002108480CF0DD
:10181C000AFD0346002B01D0FFF746F804480CF0F4
:10182C008BFC0346002B01D0FFF73EF800BF80BDB8
:10183C00AC0400200010014080B500AF224B234ABD
:10184C001A60214B4FF4E1325A601F4B00229A6010
:10185C001D4B0022DA601C4B00221A611A4B0C2221
:10186C005A61194B00229A61174B0022DA61164B10
:10187C0000221A62144B00225A62134B00229A6205
:10188C0011480AF00FF80346002B01D0FFF70CF8B3
:10189C0000210D480CF089FC0346002B01D0FFF70A
:1018AC0003F8002108480CF0BEFC0346002B01D0C5
:1018BC00FEF7FAFF04480CF03FFC0346002B01D066
:1018CC00FEF7F2FF00BF80BD400500200044004041
:1018DC0080B500AF224B234A1A60214B4FF4E13202
:1018EC005A601F4B00229A601D4B0022DA601C4B81
:1018FC0000221A611A4B0C225A61194B00229A6170
:10190C00174B0022DA61164B00221A62144B00228C
:10191C005A62134B00229A62114809F0C3FF034626
:10192C00002B01D0FEF7C0FF00210D480CF03DFC50
:10193C000346002B01D0FEF7B7FF002108480CF03E
:10194C0072FC0346002B01D0FEF7AEFF04480CF0EE
:10195C00F3FB0346002B01D0FEF7A6FF00BF80BDB2
:10196C00D40500200048004080B5C6B000AF07F594
:10197C008C73A3F58A73186007F5827300221A60C2
:10198C005A609A60DA601A6107F14803B8220021A4
:10199C0018460DF07BFB07F58C73A3F58A731B6857
:1019AC001B68D24A934273D14FF002024FF00003EE
:1019BC00C7E912230023C7F8BC3007F148031846C7
:1019CC0006F0E4FD0346002B01D0FEF76DFFC84B7B
:1019DC00D3F8E830C64A43F40023C2F8E830C44BCD
:1019EC00D3F8E83003F400237B647B6CC04BD3F852
:1019FC00E030BF4A43F00103C2F8E030BC4BD3F8EF
:101A0C00E03003F001033B643B6CB94BD3F8E0309E
:101A1C00B74A43F00403C2F8E030B54BD3F8E030DA
:101A2C0003F00403FB63FB6B0123C7F804310223AF
:101A3C00C7F808310023C7F80C310023C7F8103160
:101A4C000823C7F8143107F582731946A94804F026
:101A5C0053FE4FF40063C7F804310223C7F8083172
:101A6C000023C7F80C310023C7F810310823C7F83E
:101A7C00143107F5827319469F4804F03DFE00228D
:101A8C000221342004F08BFD342004F0A2FD64E22A
:101A9C0007F58C73A3F58A731B681B68974A9342EE
:101AAC0073D14FF002024FF00003C7E91223002359
:101ABC00C7F8BC3007F14803184606F067FD03462B
:101ACC00002B01D0FEF7F0FE894BD3F8E830884AA2
:101ADC0043F48013C2F8E830854BD3F8E83003F4B4
:101AEC008013BB63BB6B824BD3F8E030804A43F06E
:101AFC000403C2F8E0307E4BD3F8E03003F004036B
:101B0C007B637B6B7A4BD3F8E030794A43F0080364
:101B1C00C2F8E030764BD3F8E03003F008033B63B7
:101B2C003B6B4FF48053C7F804310223C7F80831DC
:101B3C000023C7F80C310023C7F810310823C7F86D
:101B4C00143107F5827319466B4804F0D5FD042354
:101B5C00C7F804310223C7F808310023C7F80C3149
:101B6C000023C7F810310823C7F8143107F5827326
:101B7C001946634804F0C0FD00220121352004F011
:101B8C000EFD352004F025FDE7E107F58C73A3F578
:101B9C008A731B681B685B4A93424ED14FF002025A
:101BAC004FF00003C7E912230023C7F8BC3007F13C
:101BBC004803184606F0EAFC0346002B01D0FEF75A
:101BCC0073FE4B4BD3F8E830494A43F00043C2F85C
:101BDC00E830474BD3F8E83003F00043FB62FB6A74
:101BEC00434BD3F8E030424A43F01003C2F8E030E4
:101BFC003F4BD3F8E03003F01003BB62BB6A032306
:101C0C00C7F804310223C7F808310023C7F80C3198
:101C1C000023C7F810310823C7F8143107F5827375
:101C2C001946394804F068FD00220021532004F0C5
:101C3C00B6FC532004F0CDFC8FE107F58C73A3F5B3
:101C4C008A731B681B68314A934263D14FF00102BF
:101C5C004FF00003C7E912230023C7F8C03007F187
:101C6C004803184606F092FC0346002B01D0FEF701
:101C7C001BFE1F4BD3F8F0301D4A43F01003C2F883
:101C8C00F0301B4BD3F8F03003F010037B627B6A0F
:101C9C00174BD3F8E030164A43F00203C2F8E03099
:101CAC00134BD3F8E03003F002033B623B6A4FF472
:101CBC004043C7F804310223C7F808310023C7F8A2
:101CCC000C310023C7F810310423C7F8143107F581
:101CDC00827319460E4804F00FFD002200212520C6
:101CEC0004F05DFC252004F074FC36E1004C00404F
:101CFC0000440258000002580008025800500040EE
:101D0C00000C0258007C00400010025800100140EA
:101D1C000004025807F58C73A3F58A731B681B68C3
:101D2C00904A934240F083804FF002024FF0000340
:101D3C00C7E912230023C7F8BC3007F14803184643
:101D4C0006F024FC0346002B01D0FEF7ADFD864BBC
:101D5C00D3F8E830844A43F40033C2F8E830824BBD
:101D6C00D3F8E83003F40033FB61FB697E4BD3F806
:101D7C00E0307D4A43F00103C2F8E0307A4BD3F8EF
:101D8C00E03003F0010207F58C73A3F580731A6041
:101D9C0007F58C73A3F580731B68734BD3F8E03095
:101DAC00714A43F00803C2F8E0306F4BD3F8E030CF
:101DBC0003F0080207F58C73A3F582731A6007F51C
:101DCC008C73A3F582731B680823C7F804310223B4
:101DDC00C7F808310023C7F80C310023C7F81031BD
:101DEC000723C7F8143107F5827319465F4804F0CE
:101DFC0083FC2023C7F804310223C7F808310023E1
:101E0C00C7F80C310023C7F810310723C7F8143179
:101E1C0007F582731946564804F06EFC0022052122
:101E2C00262004F0BCFB262004F0D3FB95E007F53C
:101E3C008C73A3F58A731B681B684E4A934240F05F
:101E4C008C804FF002024FF00003C7E912230023ED
:101E5C00C7F8BC3007F14803184606F097FB034659
:101E6C00002B01D0FEF720FD3F4BD3F8E8303E4A63
:101E7C0043F48023C2F8E8303B4BD3F8E83003F44A
:101E8C00802207F58C73A3F584731A6007F58C73A5
:101E9C00A3F584731B68344BD3F8E030324A43F01B
:101EAC000203C2F8E030304BD3F8E03003F002020A
:101EBC0007F58C73A3F586731A6007F58C73A3F57D
:101ECC0086731B68284BD3F8E030274A43F008038D
:101EDC00C2F8E030244BD3F8E03003F0080207F5E9
:101EEC008C73A3F588731A6007F58C73A3F588734C
:101EFC001B684FF48063C7F804310223C7F808311C
:101F0C000023C7F80C310023C7F810310723C7F89A
:101F1C00143107F582731946174804F0EDFB4FF4A2
:101F2C000073C7F804310223C7F808310023C7F83F
:101F3C000C310023C7F810310723C7F8143107F50B
:101F4C00827319460A4804F0D7FB0022042127208B
:101F5C0004F025FB272004F03CFB00BF07F58C7731
:101F6C00BD4680BD004400400044025800000258A9
:101F7C00000C0258004800400004025880B483B0A2
:101F8C0000AF78607B689B6807EE903AB0EE670A0A
:101F9C000C37BD465DF8047B7047000080B582B0FD
:101FAC0000AF786039607B683A685A64002210216F
:101FBC00094804F049FD00220821074804F044FDBB
:101FCC007B68586C7B680C330122194609F048FD7C
:101FDC0000BF0837BD4680BD000C025880B586B0E6
:101FEC0000AF78607B681B7BFF2B03D07B681B7B6F
:101FFC00FE2B06D17B680022DA757B6806221A76E6
:10200C001CE07B681B7BFD2B06D17B680022DA75FC
:10201C007B6804221A7611E07B681B7BFC2B07D0B3
:10202C007B681B7BFB2B03D07B681B7BFA2B05D1BE
:10203C007B680022DA757B6803221A767B68DB7D6D
:10204C0019467B681A7B7B680B445A737B68DB7D73
:10205C000133DAB27B68DA757B68DB7D092B02D938
:10206C007B680022DA757B68DA7D7B681B7E9A427E
:10207C0040F001817B685B7BFF2B1FD07B685B7B17
:10208C00FE2B1BD07B685B7BFD2B17D07B685B7BAF
:10209C00FC2B13D07B685B7BFB2B0FD07B685B7BB3
:1020AC00FA2B0BD07B680022DA757B68586C7B6846
:1020BC000C330122194609F0D3FCE4E00023FB7534
:1020CC0001233B610AE07A683B6913440D331A78AB
:1020DC00FB7D1344FB753B6901333B617B681B7EC5
:1020EC00013B3A699A42EEDB7B681B7E013B7A68C6
:1020FC0013445B7BFA7D9A4215D0FA7D7B681B7E7C
:10210C00013B79680B445B7B0F3B9A420BD07B689D
:10211C000022DA757B68586C7B680C3301221946F7
:10212C0009F09EFCAFE07B685B7BFA3B052B00F271
:10213C009B8001A252F823F053220008372200089A
:10214C001B220008EB210008BB2100085D210008C0
:10215C007B689B7B1BB21B021AB27B68DB7B1BB2BE
:10216C001343FB817B681B7C1BB21B021AB27B687E
:10217C005B7C1BB21343BB81B7F90E3007EE903A70
:10218C00B8EEE77ADFED416AC7EE267A7B68C3EDDD
:10219C000C7AB7F90C3007EE903AB8EEE77ADFED2F
:1021AC003B6AC7EE267A7B68C3ED0D7A63E07B68E9
:1021BC009B7B1BB21B021AB27B68DB7B1BB21343EB
:1021CC007B81B7F90A3007EE903AB8EEE77ADFED8B
:1021DC002F6AC7EE267A7B68C3ED0E7A4BE07B68DC
:1021EC009B7B1BB21B021AB27B68DB7B1BB21343BB
:1021FC003B81B7F9083007EE903AB8EEE77ADFED9D
:10220C00236AC7EE267A7B68C3ED0F7A33E07B68CE
:10221C009B7B012B2AD17B6893F8403083F0010320
:10222C00DAB27B6883F8402020E07B689B7B012B33
:10223C001ED17B6893F8413083F00103DAB27B68DE
:10224C0083F8412014E07B689B7B012B12D17B68C7
:10225C0093F84230002B0CBF01230023DBB21A464B
:10226C007B6883F8422005E000BF04E000BF02E079
:10227C0000BF00E000BF7B68586C7B680C33012208
:10228C00194609F0EDFB1837BD4680BD00EAFF4644
:10229C0080B582B000AF786003F02AFC0346002BB7
:1022AC0014BF01230023DAB27B681A7500BF08370C
:1022BC00BD4680BD80B582B000AF78607B689A68FF
:1022CC007B68DA607B681A687B689A6003F07EFF33
:1022DC00F0EE407A7B68C3ED007A7B6893ED037A6D
:1022EC007B68D3ED027A37EE277A7B68D3ED007AE0
:1022FC0077EE277AF0EE086A87EEA67A7B68D3ED44
:10230C00017A77EE677A9FED077A27EE877ADFED11
:10231C00066AC7EE267A7B68C3ED047A00BF0837DD
:10232C00BD4680BD0000C8420048194680B483B049
:10233C0000AF78607B681B6907EE903AB0EE670AD5
:10234C000C37BD465DF8047B704780B582B000AF9A
:10235C00786039607B683A685A617B6858697B6839
:10236C000D330122194609F07BFB00BF0837BD462F
:10237C0080BD80B582B000AF78607B6858697B689F
:10238C0003F10C014FF6FF73012209F0DBFA00BFD9
:10239C000837BD4680BD80B582B000AF78607B68E1
:1023AC005B7BFF2B02D17B6800229A747B689B7C41
:1023BC0019467B685A7B7B680B449A737B689B7CC1
:1023CC000133DAB27B689A747B689B7C042B59D1FD
:1023DC007B689B7BFF2B32D17B689B7B1A467B688F
:1023EC00DB7B13447A68127C1344DBB27A68527C30
:1023FC00934224D17B685A887B681A807B689A88C0
:10240C007B685A807B68DB7B1BB21B021AB27B6831
:10241C001B7C1BB213431BB29AB27B689A807B68FD
:10242C009B8807EE903AB8EEE76BB2EE045B86EE53
:10243C00057BF7EEC77B7B68C3ED027A02E07B6815
:10244C0000229A747B681A887B685B889A4209D14F
:10245C007B685A887B689B889A4203D17B680022F0
:10246C001A760FE07B689B881A467B685B88D31AC8
:10247C00B3F57A7F03DD7B6800221A7602E07B6875
:10248C0001221A767B6858697B680D330122194644
:10249C0009F0E6FA00BF0837BD4680BD80B483B0B2
:1024AC0000AF87ED010AD7ED017AF0EEE77AB0EED6
:1024BC00670A0C37BD465DF8047B704780B586B063
:1024CC0000AF78613961FA60BB6087ED010A7B6906
:1024DC003A691A607B69FA685A607B694FF00002AE
:1024EC009A607B697A681A617B69BA685A617B6900
:1024FC003A6A9A617B6997F824201A777B691A6883
:10250C007B695B681946104607F0E8FF7B695B68DE
:10251C00002B06D17B691B681B6840F2DC525A63A6
:10252C0031E07B695B68042B06D17B691B681B68F7
:10253C0040F2DC529A6326E07B695B68082B06D17B
:10254C007B691B681B6840F2DC52DA631BE07B6919
:10255C005B680C2B06D17B691B681B6840F2DC5254
:10256C001A6410E07B695B68102B06D17B691B68D1
:10257C001B6840F2DC529A6505E07B691B681B689E
:10258C0040F2DC52DA650A2003F00AFF00BF18376C
:10259C00BD4680BD80B588B000AFF86087ED020AFB
:1025AC00C7ED010A87ED001A97ED007AD7ED017A95
:1025BC00B4EEE77AF1EE10FA01D8012334E097ED8E
:1025CC00027AD7ED017A77EE676A97ED007AD7ED4C
:1025DC00017A37EE677AC6EE877AC7ED067AD7EDC1
:1025EC00067A9FED137A67EE877A9FED127A77EE73
:1025FC00C77AC7ED057A97ED050A0CF033FCF0EEBF
:10260C00407AFDEEE77A17EE903AFB61FB6913F521
:10261C00FA7F01DA084BFB61FB69B3F5FA7F02DD47
:10262C004FF4FA73FB61FB6918462037BD4680BD39
:10263C0000007A440000FA430CFEFFFF80B582B024
:10264C0000AF786087ED000A7B683A689A607B6817
:10265C00D3ED027AF5EEC07AF1EE10FA38DD7B6834
:10266C0093ED027A7B68D3ED047AB4EEE77AF1EE5F
:10267C0010FA03DD7B681A697B689A607B6893EDBE
:10268C00027A7B68D3ED047AF1EE677A7B68D3ED3E
:10269C00046AB0EE661AF0EE670AB0EE470A786884
:1026AC00FFF778FF02467B685B691A447B68DA6047
:1026BC007B681B7F002B04D17B68DB685A427B68EC
:1026CC00DA607B68DB6803F2DC527B68DA603DE041
:1026DC007B6893ED027A7B68D3ED047AF1EE677A2E
:1026EC00B4EEE77AF1EE10FA07D57B68D3ED047AF5
:1026FC00F1EE677A7B68C3ED027A7B6893ED027A20
:10270C007B68D3ED047AF1EE677A7B68D3ED046ACB
:10271C00B0EE661AF0EE670AB0EE470A7868FFF77B
:10272C0039FF02467B689B69D21A7B68DA607B684A
:10273C001B7F002B04D17B68DB685A427B68DA6014
:10274C007B68DB6803F2DC527B68DA607B685B6871
:10275C00002B06D17B68DA687B681B681B685A63A0
:10276C0031E07B685B68042B06D17B68DA687B6898
:10277C001B681B689A6326E07B685B68082B06D194
:10278C007B68DA687B681B681B68DA631BE07B6814
:10279C005B680C2B06D17B68DA687B681B681B684E
:1027AC001A6410E07B685B68102B06D17B68DA68D2
:1027BC007B681B681B689A6505E07B68DA687B6838
:1027CC001B681B68DA6500BF0837BD4680BD80B446
:1027DC0083B000AF78607B685B68002B06D17B68A8
:1027EC001B681B6840F2DC525A6331E07B685B6803
:1027FC00042B06D17B681B681B6840F2DC529A6381
:10280C0026E07B685B68082B06D17B681B681B681D
:10281C0040F2DC52DA631BE07B685B680C2B06D160
:10282C007B681B681B6840F2DC521A6410E07B6802
:10283C005B68102B06D17B681B681B6840F2DC526E
:10284C009A6505E07B681B681B6840F2DC52DA6510
:10285C0000BF0C37BD465DF8047B704780B582B075
:10286C0000AF786039607B683A681A657B68186DD0
:10287C007B682C330122194609F0F2F800BF0837A7
:10288C00BD4680BD80B487B000AFF860B960134618
:10289C00FB804FF6FF73FB820023BB8226E0BB8AD2
:1028AC00BA6813441B781A46FB8A5340FB820023F8
:1028BC00FB7415E0FB8A03F00103002B0AD0FB8AA2
:1028CC005B08FB82FB8A83F4BF4383F07E03DB430C
:1028DC00FB8202E0FB8A5B08FB82FB7C0133FB740E
:1028EC00FB7C072BE6D9BB8A0133BB82BA8AFB88F7
:1028FC009A42D4D3FB8A18461C37BD465DF8047B3C
:10290C007047000080B584B000AF78607B6893F8A6
:10291C004B30002B05D17B6893F82C30802B40F08A
:10292C003B817B6893F84B30012B09D17B6893F882
:10293C002C30012B04D07B68002283F84B202CE137
:10294C007B6893F82C107B6893F84B305A1CD0B2F0
:10295C007A6882F84B001A467B6813440A4683F85F
:10296C002D207B6893F84B301D2B40F20C817B683B
:10297C0093F849300D2B04D17B6893F84A300A2B1D
:10298C0004D07B68002283F84B2006E17B682F3350
:10299C00182219467868FFF775FF0346FB817B68A0
:1029AC0093F848301BB21B021AB27B6893F847307D
:1029BC001BB213431BB2BB81FA89BB899A4240F00C
:1029CC00DE807B6893F834301BB21B021AB27B6832
:1029DC0093F833301BB213431BB207EE903AB8EEA8
:1029EC00E77ADFED6F6AC7EE267A7B68C3ED007A73
:1029FC007B6893F836301BB21B021AB27B6893F8D3
:102A0C0035301BB213431BB207EE903AB8EEE77A9F
:102A1C00DFED636AC7EE267A7B68C3ED017A7B68CB
:102A2C0093F838301BB21B021AB27B6893F837301C
:102A3C001BB213431BB207EE903AB8EEE77ADFED08
:102A4C00586AC7EE267A7B68C3ED027A7B6893F8E6
:102A5C003A301BB21B021AB27B6893F839301BB2A6
:102A6C0013431BB207EE903AF8EEE77A7B68C3ED9E
:102A7C00037A7B6893F83C301BB21B021AB27B685A
:102A8C0093F83B301BB213431BB207EE903AF8EEAF
:102A9C00E77A7B68C3ED047A7B6893F83E301BB20F
:102AAC001B021AB27B6893F83D301BB213431BB266
:102ABC0007EE903AF8EEE77A7B68C3ED057A7B680F
:102ACC0093F840301BB21B021AB27B6893F83F306C
:102ADC001BB213431BB207EE903AB8EEE77ADFED68
:102AEC00316AC7EE267A7B68C3ED067A7B6893F869
:102AFC0042301BB21B021AB27B6893F841301BB2F6
:102B0C0013431BB207EE903AB8EEE77ADFED256A75
:102B1C00C7EE267A7B68C3ED077A7B6893F844305E
:102B2C001BB21B021AB27B6893F843301BB21343DF
:102B3C001BB207EE903AB8EEE77ADFED1A6AC7EEF1
:102B4C00267A7B68C3ED087A7B6893F846301BB213
:102B5C001B021AB27B6893F845301BB213431BB2AD
:102B6C0007EE903AB8EEE77ADFED0E6AC7EE267AFA
:102B7C007B68C3ED0A7A7B68012283F84C207B6862
:102B8C00002283F84B207B68186D7B682C33012264
:102B9C00194608F065FF00E000BF1037BD4680BD48
:102BAC00000080420000C84280B584B000AF78605D
:102BBC000B4A07F1080392E8030083E803007B68E3
:102BCC00186D07F108014FF0FF33082208F0BAFE28
:102BDC007B684FF000025A6200BF1037BD4680BDC3
:102BEC0010F5000880B584B000AF7860094A07F191
:102BFC00080392E8030083E803007B68186D07F173
:102C0C0008014FF0FF33082208F09CFE00BF10377C
:102C1C00BD4680BD18F5000880B582B000AF786065
:102C2C0039607B683A689A607B689B687968012296
:102C3C00184608F015FF00BF0837BD4680BD0000E0
:102C4C0080B586B000AF78607B681B78FF2B02D113
:102C5C007B680022DA717B681B78FE2B02D17B68C3
:102C6C0000221A757B68DB7919467B681A787B68B9
:102C7C000B445A707B68DB790133DAB27B68DA710A
:102C8C007B68DB79062B76D17B685A787B689B78DE
:102C9C001344DAB27B68DB781344DAB27B681B79B5
:102CAC001344DAB27B685B791344FB757B685B7801
:102CBC00FF2B5DD17B689B79FA7D9A4258D17B685A
:102CCC009B781BB21B021AB27B68DB781BB21343D6
:102CDC00BB82B7F9143007EE903AB8EEE77ADFED25
:102CEC002B6AC7EE267AC7ED047A7B681B791BB278
:102CFC001B021AB27B685B791BB21343FB81B7F9D9
:102D0C000E3007EE903AB8EEE77ADFED206AC7EEA8
:102D1C00267AC7ED027AD7ED047ABFEE007AF4EE8C
:102D2C00C77AF1EE10FA23DBD7ED047AB7EE007A0E
:102D3C00F4EEC77AF1EE10FA1AD8D7ED027ABFEE9C
:102D4C00007AF4EEC77AF1EE10FA11DBD7ED027AC5
:102D5C00B7EE007AF4EEC77AF1EE10FA08D87B6879
:102D6C003A69DA607B68BA681A617B6801221A7565
:102D7C007B680022DA717B689B68796801221846AF
:102D8C0008F06EFE00BF1837BD4680BD0078FF46C8
:102D9C0080B483B000AF78607B684FF000021A609B
:102DAC007B684FF000025A607B684FF000029A601B
:102DBC007B684FF00002DA607B684FF000021A610A
:102DCC007B684FF000025A617B684FF000029A61F9
:102DDC007B684FF00002DA617B684FF000021A62E8
:102DEC007B6818460C37BD465DF8047B704780B590
:102DFC0088B000AFF86187ED060AC7ED050A87EDCC
:102E0C00041AC7ED031A87ED022AC7ED012AFB69E4
:102E1C00BA691A60FB697A695A60FB693A699A6007
:102E2C00D7ED037AF0EEE77AFB69C3ED037AD7EDC1
:102E3C00027AF0EEE77AFB69C3ED047AD7ED017AFA
:102E4C00F0EEE77AFB69C3ED057AF86900F004F857
:102E5C0000BF2037BD4680BD80B483B000AF786022
:102E6C007B684FF000029A617B684FF00002DA61D8
:102E7C007B684FF000021A6200BF0C37BD465DF84C
:102E8C00047B704780B489B000AFF86087ED020A0C
:102E9C00C7ED010A87ED001AD7ED007AF5EEC07A7E
:102EAC00F1EE10FA02D8FB681B6AB0E097ED027ADB
:102EBC00D7ED017A77EE677AC7ED077AD7ED077A07
:102ECC00B0EEE77AFB68D3ED057AB4EEE77AF1EE73
:102EDC0010FA02D84FF00003FB61FB68D3ED007AC7
:102EEC0097ED077A67EE277AC7ED047AFB6893EDC6
:102EFC00067AFB68D3ED016AD7ED077A66EEA76A0E
:102F0C00D7ED007A66EEA77A77EE277AFB68C3EDE9
:102F1C00067AFB68D3ED047AF5EEC07AF1EE10FA7E
:102F2C0024DDFB6893ED067AFB68D3ED047AB4EEEE
:102F3C00E77AF1EE10FA04DDFB681A69FB689A6116
:102F4C0014E0FB6893ED067AFB68D3ED047AF1EE9E
:102F5C00677AB4EEE77AF1EE10FA07D5FB68D3ED99
:102F6C00047AF1EE677AFB68C3ED067A4FF0000342
:102F7C00BB61D7ED007AF5EEC07AF1EE10FA11DDF7
:102F8C00FB6893ED027AFB68D3ED077AD7ED076AFD
:102F9C0076EEE77A67EE276A97ED007AC6EE877AC7
:102FAC00C7ED067AFB68FA69DA61FB6893ED067A7D
:102FBC00D7ED047A77EE277A97ED067A77EE277AB3
:102FCC00C7ED057AFB68D3ED037A97ED057AB4EE7D
:102FDC00E77AF1EE10FA03DDFB68DB687B6112E047
:102FEC00FB68D3ED037AF1EE677A97ED057AB4EED0
:102FFC00E77AF1EE10FA06D5FB68D3ED037AF1EE21
:10300C00677AC7ED057AFB687A691A627B6907EE05
:10301C00903AB0EE670A2437BD465DF8047B7047E2
:10302C0080B400AF00231846BD465DF8047B7047A2
:10303C0080B400AF00231846BD465DF8047B704792
:10304C0080B483B000AF786039603B6818460C37A9
:10305C00BD465DF8047B704780B483B000AF7860E8
:10306C007B68B3F5007F05D24FF400727B68B2FB2E
:10307C00F3F300E0012318460C37BD465DF8047BE2
:10308C007047000080B483B000AF78607B684FF06D
:10309C0000021A607B680C4A5A607B684FF0000291
:1030AC009A607B684FF00002DA607B684FF0000298
:1030BC001A617B6800221A757B6818460C37BD466E
:1030CC005DF8047B704700BF00CCBF4780B483B071
:1030DC0000AF78607B6800221A807B6800225A80DF
:1030EC007B6800229A807B684FF000029A607B68B4
:1030FC00FF221A737B6800229A747B6800225A6143
:10310C007B6801221A767B6818460C37BD465DF841
:10311C00047B704780B483B000AF78607B68D3EDDC
:10312C00037A9FED067AC7EE876AF0EE667AB0EE08
:10313C00670A0C37BD465DF8047B704700007A4483
:10314C0080B483B000AF78607B68D3ED047A9FEDD8
:10315C00067AC7EE876AF0EE667AB0EE670A0C372D
:10316C00BD465DF8047B704700007A4480B483B0A0
:10317C0000AF78607B689B6907EE903AB0EE670A07
:10318C000C37BD465DF8047B7047000080B485B0F9
:10319C0000AF78607B6893ED087A7B68D3ED097A91
:1031AC0077EE677AC7ED037AD7ED037A9FED157A40
:1031BC00F4EEC77AF1EE10FA08DDD7ED037A9FED45
:1031CC00127A77EEC77AC7ED037A10E0D7ED037A5F
:1031DC009FED0E7AF4EEC77AF1EE10FA07D5D7ED23
:1031EC00037A9FED097A77EE877AC7ED037AFB684D
:1031FC0007EE903AB0EE670A1437BD465DF8047BD3
:10320C00704700BF000034430000B443000034C3D7
:10321C0080B483B000AF78607B68EF221A707B6853
:10322C004FF000025A607B684FF000029A607B6896
:10323C004FF00002DA607B6800221A747B6800226F
:10324C005A747B6800229A747B6818460C37BD460A
:10325C005DF8047B704780B483B000AF78607B6806
:10326C004FF000021A607B684FF000025A607B68D6
:10327C004FF000029A607B684FF00002DA607B68C6
:10328C0000221A747B6800225A747B6801229A749B
:10329C007B6818460C37BD465DF8047B704780B5DB
:1032AC0082B000AF78607B6800221A607B680022D5
:1032BC005A607B6800229A607B680022DA757B6812
:1032CC0000221A767B681C331846FFF7A1FF7B6837
:1032DC0030331846FFF7BFFF7B6800225A647B68C7
:1032EC0018460837BD4680BD80B483B000AF786007
:1032FC0039607B683A681A6000BF0C37BD465DF8D0
:10330C00047B704780B483B000AF786039607B6811
:10331C003A685A6000BF0C37BD465DF8047B7047B5
:10332C0080B483B000AF786039607B683A689A608B
:10333C0000BF0C37BD465DF8047B704780B483B08A
:10334C0000AF78607B6800221A607B6800225A60AC
:10335C007B684FF000029A607B680022DA607B6821
:10336C004FF000021A617B6800225A617B680022D0
:10337C009A617B6801221A777B6818460C37BD4628
:10338C005DF8047B704780B483B000AF78607B68D5
:10339C004FF000021A607B684FF000025A607B68A5
:1033AC0018460C37BD465DF8047B704780B582B07B
:1033BC0000AF78607B680022DA717B6800229A602B
:1033CC007B680C331846FFF7DEFF7B6800221A750A
:1033DC007B6818460837BD4680BD80B483B000AF0B
:1033EC0078607B684FF000021A607B684FF0000237
:1033FC005A607B684FF000029A607B684FF00002C5
:10340C00DA607B684FF000021A617B684FF00002B3
:10341C005A617B684FF000029A617B684FF00002A2
:10342C00DA617B684FF000021A627B684FF0000291
:10343C005A627B684FF000029A627B68002283F824
:10344C004B207B68002283F84C207B6800221A6595
:10345C007B6818460C37BD465DF8047B704780B519
:10346C0082B000AF78607B68184601F060FA7B6828
:10347C0018460837BD4680BD80B500AF064806F03B
:10348C009FFE054B1B6800225A62034B1B685B6A4C
:10349C00024A136000BF80BD0C0200206C060020A5
:1034AC0080B500AF0D4B1B685B6A0D4A13600B486F
:1034BC0006F004FF0A4B1A680A4B1B68D31A07EE76
:1034CC00903AF8EE677A084BC3ED007A064B1B680E
:1034DC0007EE903AB0EE670A80BD00BF0C020020E8
:1034EC00700600206C0600207406002080B582B0A7
:1034FC0002AF01224FF40051994803F0A5FA0122C2
:10350C004FF40041974803F09FFA01224FF40071E9
:10351C00934803F099FA01220121934803F094FA9D
:10352C0001220221904803F08FFA904B1B68322243
:10353C009A6304218D4806F0D1FF0A2002F030FF77
:10354C0001F008F98A4B1B681846FEF7A1FE894B5F
:10355C001B6889491846FEF7F8FE884B1B6888499A
:10356C001846FEF7F2FE874B1B6887491846FFF793
:10357C0075F9844B1B681846FFF734FB834B1B68AB
:10358C007B4A126811461846FFF7AEFE7F4B1B684C
:10359C00784A126811461846FFF7B4FE7B4B1B683D
:1035AC00764A126811461846FFF7BAFE774B1B682D
:1035BC0077491846FEF7F2FC764B1B68764918469D
:1035CC00FFF72AFB754B1868002301930323009324
:1035DC009FED730A142300227249FEF76FFF6F4BA5
:1035EC001B6803F1200000230193032300939FED3C
:1035FC006C0A14230C226B49FEF760FF674B1B68A7
:10360C0003F1400000230193032300939FED640A10
:10361C00142304226349FEF751FF604B1B6803F12E
:10362C00600000230193032300939FED5D0A19238F
:10363C0008225D49FEF742FF584B1B6803F18000DE
:10364C0001230193142300939FED550A03230822B1
:10365C005449FEF733FF514B1B6803F1A0000123C3
:10366C000193192300939FED4E0A05230C224E491A
:10367C00FEF724FF40F6B83002F092FE4B4B1B686D
:10368C00DFED4B2A9FED462ADFED451A9FED481AD8
:10369C00DFED480AB0EE000A1846FFF7A8FB464BD0
:1036AC001B68DFED432A9FED3E2ADFED3D1A9FEDAF
:1036BC00401ADFED400A9FED410A1846FFF797FBD1
:1036CC003F4B1B68DFED3A2A9FED352ADFED341AAC
:1036DC009FED3C1ADFED360AB6EE000A1846FFF7EE
:1036EC0086FB394B1B68DFED322A9FED2D2ADFED6F
:1036FC002C1A9FED2F1ADFED2E0AB0EE000A184699
:10370C00FFF775FB314B1B68DFED292A9FED242A4F
:10371C00DFED231A9FED261ADFED250AB0EE000A25
:10372C001846FFF764FB174B1B681846FFF71EFD86
:10373C00F0EE407A264BC3ED007A144B1B68012245
:10374C0083F84020114B1B68002283F842200D4B5C
:10375C001B681846FFF728FA00BFBD4680BD00BFA6
:10376C0000080258001002580004025828010020DA
:10377C008006002084060020F0020020880600202D
:10378C00840300208C060020AC040020940600204A
:10379C004005002098060020D4050020900600204B
:1037AC0000004842C0010020DC0000209C060020E4
:1037BC00000000000AD7233CA0060020CDCCCC3E54
:1037CC00A4060020CDCCCC3DA8060020AC060020E1
:1037DC00F006002080B500AFFFF74EFE00F086F833
:1037EC0000F068F9FFF75CFEF0EE407A024BC3ED97
:1037FC00007A00BF80BD00BF68060020B0B582B063
:10380C0000AF78607B680D4A934213D1FFF734FE0A
:10381C000B4BD3E90023541C43F10005084BC3E9BF
:10382C000045FFF7D7FFFFF73BFEF0EE407A054B64
:10383C00C3ED007A00BF0837BD46B0BD580200206A
:10384C00780600206806002080B582B000AF786052
:10385C007B681B681B4A934205D11B4B1B6818469F
:10386C00FFF750F82AE07B681B68184A934205D191
:10387C00174B1B681846FEF7B1FB1FE07B681B68F3
:10388C00144A934205D1144B1B681846FFF7D8F91C
:10389C0014E07B681B68114A934205D1104B1B68DE
:1038AC001846FEF778FD09E07B681B680D4A9342C9
:1038BC0004D10D4B1B681846FEF76DFD00BF083791
:1038CC00BD4680BD001001408C0600200044004025
:1038DC00940600200048004098060020004C004050
:1038EC00840600200050004088060020B0B500AFD0
:1038FC005E4B1B681846FEF7DDFC5D4BD3E90023DD
:10390C0002F00104002554EA050305D0594B1B684D
:10391C001846FEF72EFD04E0574B1B681846FEF7C1
:10392C0028FD554B1B681846FEF723FD534B1B68AF
:10393C0093F84130012B05D101220121504803F0AD
:10394C0083F804E0002201214D4803F07DF84D4B33
:10395C001B684D4A13604D4B1B681846FFF716FC4D
:10396C00F0EE407A474BC3ED007A494B93ED007A69
:10397C00444BD3ED007A77EE277A454BC3ED007AB2
:10398C00444B1B8801339AB2424B1A80384BD3E913
:10399C0000014FF496724FF00003FCF7E1FC134367
:1039AC0014D13B4BD3ED006A3A4B1B8807EE903A8F
:1039BC00B8EEE77AC6EE877A334BC3ED007A344B18
:1039CC004FF000021A60334B00221A802F4B1B68F9
:1039DC001846FFF7CBFBF0EE407A2F4BC3ED007A85
:1039EC00224B1B681846FEF7A1FCF0EE407A2B4BDD
:1039FC00C3ED007A254B1B681846FFF78BFBF0EEE6
:103A0C00407A9FED277A27EE877A264BD3ED007A02
:103A1C0077EE277A234BC3ED007A1C4B1B681846B4
:103A2C00FFF78EFBF0EE407A9FED1D7A27EE877A3A
:103A3C001D4BD3ED007A77EE277A1B4BC3ED007A42
:103A4C000C4B1B681846FEF799FAF0EE407A174BB0
:103A5C00C3ED007A084B1B681846FEF78FFAF0EEA0
:103A6C00407A134BC3ED007A00BFB0BD8006002036
:103A7C00780600208406002088060020940600208A
:103A8C0000040258D8060020E00600208C06002016
:103A9C00E4060020E8060020EC060020B00600201A
:103AAC000AD7233CB8060020C0060020C806002018
:103ABC00D006002080B500AF0A4B1B6893F840304D
:103ACC00002B0BD0074B1B6893F84230012B02D113
:103ADC0000F00AF804E000F09FF901E000F0F4FDBA
:103AEC0000BF80BD9406002080B58AB000AFB94BF2
:103AFC0093ED007AB84B1B68D3ED0F7AF1EE006AA8
:103B0C0067EEA67ADFEDB56A67EEA67A77EE677A8E
:103B1C00B04BC3ED007AB24B93ED007AAE4B1B6801
:103B2C00D3ED0E7AF3EE046A67EEA67ADFEDAB6A9C
:103B3C0067EEA67A77EE677AA94BC3ED007AA94BAC
:103B4C004FF000021A60A44B1B68D3ED0C7AB2EE56
:103B5C000E7A67EE877AA44BC3ED007A9E4B1B68F6
:103B6C00D3ED0D7AB2EE0E7A67EE877A9F4BC3EDEA
:103B7C00007A3B4600221A605A609A60DA601A6139
:103B8C005A619B4B1B68934AD2ED007A994A92ED8D
:103B9C00007A9FED921AF0EE470AB0EE670A1846CB
:103BAC00FFF770F987ED080A97ED017AD7ED087ADF
:103BBC0077EE677AC7ED017A97ED047AD7ED087A3C
:103BCC0077EE677AC7ED047A97ED017A8A4BD3EDDD
:103BDC00007A77EE277AC7ED017A97ED047A864B57
:103BEC00D3ED007A77EE277AC7ED047A834B1B6806
:103BFC007B4AD2ED007A824A92ED007A9FED771AD9
:103C0C00F0EE470AB0EE670A1846FFF73BF987ED6E
:103C1C00070A97ED007AD7ED077A77EE677AC7ED4A
:103C2C00007A97ED027AD7ED077A77EE277AC7ED0F
:103C3C00027A97ED037AD7ED077A77EE277AC7EDFC
:103C4C00037A97ED057AD7ED077A77EE677AC7EDA9
:103C5C00057A6C4B1B68634AD2ED007A6A4A92ED86
:103C6C00007A9FED5E1AF0EE470AB0EE670A18462E
:103C7C00FFF708F987ED060A97ED017AD7ED067A7A
:103C8C0077EE677AC7ED017A97ED047AD7ED067A6D
:103C9C0077EE277AC7ED047A97ED007A524BD3ED85
:103CAC00007A77EE277AC7ED007A97ED027A4E4BC1
:103CBC00D3ED007A77EE677AC7ED027A97ED037A47
:103CCC00494BD3ED007A77EE277AC7ED037A97ED5F
:103CDC00057A454BD3ED007A77EE677AC7ED057A16
:103CEC0097ED007A414BD3ED007A77EE277AC7ED4A
:103CFC00007A97ED027A3D4BD3ED007A77EE277A76
:103D0C00C7ED027A97ED037A384BD3ED007A77EE54
:103D1C00277AC7ED037A97ED057A344BD3ED007A09
:103D2C0077EE277AC7ED057A00237B624AE07B6A3F
:103D3C00012B02D07B6A042B18D17B6A9B002833A1
:103D4C003B44283BD3ED007A9FED301ADFED300A6F
:103D5C00B0EE670A00F052FDF0EE407A7B6A9B00F1
:103D6C0028333B44283BC3ED007A17E07B6A9B0069
:103D7C0028333B44283BD3ED007AB3EE0E1AFBEE0E
:103D8C000E0AB0EE670A00F039FDF0EE407A7B6A5D
:103D9C009B0028333B44283BC3ED007A1D4B1A682B
:103DAC007B6A5B011A447B6A9B0028333B44283BAB
:103DBC00D3ED007AB0EE670A1046FEF73FFC7B6A43
:103DCC0001337B627B6A052BB1DD00BF00BF283756
:103DDC00BD4680BD0C000020940600200AD7233C71
:103DEC00DC060020F0060020BC060020C4060020E3
:103DFC009C060020B0060020B4060020A00600207F
:103E0C00D8060020A4060020EC060020000020426A
:103E1C00000020C29006002080B58CB000AFB64BDD
:103E2C001B78002B02D100F095F90CE0B24B1B78FB
:103E3C00012B02D100F044FA05E0AF4B1B78022BAA
:103E4C0001D100F045FB3B4600221A605A609A6093
:103E5C00DA601A615A61A94B1B68A94AD2ED007A43
:103E6C00A84A92ED007A9FEDA81AF0EE470AB0EE40
:103E7C00670A1846FFF706F887ED0A0A97ED017AEC
:103E8C00D7ED0A7A77EE677AC7ED017A97ED047A67
:103E9C00D7ED0A7A77EE677AC7ED047A97ED017A57
:103EAC009A4BD3ED007A77EE277AC7ED017A97ED2E
:103EBC00047A964BD3ED007A77EE277AC7ED047A25
:103ECC00934B1B68934AD2ED007A934A92ED007A99
:103EDC009FED8D1AF0EE470AB0EE670A1846FEF712
:103EEC00D1FF87ED090A97ED007AD7ED097A77EEC5
:103EFC00677AC7ED007A97ED027AD7ED097A77EEFB
:103F0C00277AC7ED027A97ED037AD7ED097A77EE27
:103F1C00277AC7ED037A97ED057AD7ED097A77EE14
:103F2C00677AC7ED057A7D4B1B687D4AD2ED007A26
:103F3C007C4A92ED007A9FED741AF0EE470AB0EECF
:103F4C00670A1846FEF79EFF87ED080A97ED017A7F
:103F5C00D7ED087A77EE677AC7ED017A97ED047A98
:103F6C00D7ED087A77EE277AC7ED047A6E4B1B688B
:103F7C001B7E002B32D06D4B1B686D4AD2ED007A44
:103F8C006C4A92ED007A9FED601AF0EE470AB0EEA3
:103F9C00670A1846FEF776FF87ED070A97ED007A59
:103FAC00D7ED077A77EE277AC7ED007A97ED027A8C
:103FBC00D7ED077A77EE677AC7ED027A97ED037A39
:103FCC00D7ED077A77EE277AC7ED037A97ED057A66
:103FDC00D7ED077A77EE677AC7ED057A564B1B68F3
:103FEC001B7E002B32D0554B1B68554AD2ED007A04
:103FFC00544A92ED007A9FED441AF0EE470AB0EE67
:10400C00670A1846FEF73EFF87ED060A97ED007A21
:10401C00D7ED067A77EE277AC7ED007A97ED027A1C
:10402C00D7ED067A77EE277AC7ED027A97ED037A09
:10403C00D7ED067A77EE277AC7ED037A97ED057AF6
:10404C00D7ED067A77EE277AC7ED057A0023FB6267
:10405C004AE0FB6A012B02D0FB6A042B18D1FB6AE5
:10406C009B0030333B44303BD3ED007A9FED361A46
:10407C00DFED360AB0EE670A00F0C0FBF0EE407AD6
:10408C00FB6A9B0030333B44303BC3ED007A17E0B6
:10409C00FB6A9B0030333B44303BD3ED007AB3EEEC
:1040AC000E1AFBEE0E0AB0EE670A00F0A7FBF0EE5C
:1040BC00407AFB6A9B0030333B44303BC3ED007AC3
:1040CC00234B1A68FB6A5B011A44FB6A9B00303372
:1040DC003B44303BD3ED007AB0EE670A1046FEF756
:1040EC00ADFAFB6A0133FB62FB6A052BB1DD00BF45
:1040FC0000BF3037BD4680BD080700209C0600205D
:10410C000C000020B00600200AD7233CB406002087
:10411C00A0060020DC060020D8060020A406002003
:10412C00F0060020EC06002084060020A8060020E3
:10413C00CC060020C806002088060020AC06002013
:10414C00D4060020D006002000002042000020C22F
:10415C009006002080B500AF4E4B4F4A1A604F4B73
:10416C004FF000021A604E4B1B7819464D4800F078
:10417C0011FC034693ED007A4B4BD3ED007A77EEAE
:10418C00677AB0EE670AFEF789F9F0EE407AB0EE86
:10419C00087AF4EEC77AF1EE10FA1CD5404B1B7876
:1041AC001946404800F0F6FB034693ED017A3F4B6D
:1041BC00D3ED007A77EE677AB0EE670AFEF76EF908
:1041CC00F0EE407AB0EE087AF4EEC77AF1EE10FA1F
:1041DC0001D5012300E00023002B1FD0304B1B78AE
:1041EC001946304800F0D6FB03461B7A002B0CBF57
:1041FC0001230023DBB2002B0DD0294B1B7801339C
:10420C00DAB2274B1A70264B1B78022B06D9244B9B
:10421C0000221A7002E0264B01221A70204B1B78E8
:10422C001946204800F0B6FB03461B68214A136070
:10423C001B4B1B7819461B4800F0ACFB03465B6814
:10424C001D4A13601B4BD3ED007A174B93ED007A8C
:10425C009FED1A1AF0EE470AB0EE670A00F00AFB5F
:10426C00F0EE407A134BC3ED007A134BD3ED007A8A
:10427C000E4B93ED007A9FED111AF0EE470AB0EE5B
:10428C00670A00F0F7FAF0EE407A0B4BC3ED007AB8
:10429C0000BF80BD0C00002000007041DC06002037
:1042AC00F40600200C070020C8060020D0060020D1
:1042BC0008070020CC060020D4060020000048434C
:1042CC0080B500AF734B1B78002B7CD1724B734ABB
:1042DC001A60734B4FF000021A60724B1B78194630
:1042EC00714800F057FB03461B68704A13606D4B16
:1042FC001B7819466C4800F04DFB03465B686C4A12
:10430C0013606A4BD3ED007A6A4B93ED007A9FED04
:10431C006A1AF0EE470AB0EE670A00F0ABFAF0EE5C
:10432C00407A624BC3ED007A614BD3ED007A634B5C
:10433C0093ED007A9FED601AF0EE470AB0EE670A33
:10434C0000F098FAF0EE407A594BC3ED007A00F089
:10435C003DFA5B4BD3ED007AB3EE0E7A77EEC77A6B
:10436C00B0EE670AFEF79AF8F0EE407AB0EE087AF3
:10437C00F4EEC77AF1EE10FA4CBF01230023DBB246
:10438C00002B09D04F4BB3F900309BB201339BB2D9
:10439C001AB24C4B1A8009E04A4BB3F90030002B8F
:1043AC0000DA01335B101AB2464B1A80454BB3F955
:1043BC000030B3F5FA7F6ADD424B00221A80354B90
:1043CC0002221A7063E0334B1B78022B5FD1324B05
:1043DC003D4A1A60324B4FF000021A60314B1B7889
:1043EC001946314800F0D6FA03461B682F4A136071
:1043FC002C4B1B7819462C4800F0CCFA03465B6812
:10440C002B4A1360294BD3ED007A2A4B93ED007A9B
:10441C009FED291AF0EE470AB0EE670A00F02AFA6F
:10442C00F0EE407A214BC3ED007A214BD3ED007AAC
:10443C00224B93ED007A9FED201AF0EE470AB0EE76
:10444C00670A00F017FAF0EE407A194BC3ED007AC8
:10445C001B4BD3ED007AB2EE0E7A77EEC77AB0EE44
:10446C00670AFEF71BF8F0EE407AB0EE087AF4EE2D
:10447C00C77AF1EE10FA4CBF01230023DBB2002BFC
:10448C0005D0044B00221A70104B02221A7000BF88
:10449C0080BD00BF090700200C0000200000F04187
:1044AC00DC060020F40600200C070020CC060020BF
:1044BC00D4060020C806002000004843D006002087
:1044CC00B0060020F606002000007041080700200E
:1044DC0080B500AF6F4B1B78002B40F085806E4B86
:1044EC006E4A1A606E4B4FF000021A606D4B1B68DF
:1044FC006D4A13606B4B5B686C4A13606A4BD3ED6F
:10450C00007A6B4B93ED007A9FED6A1AF0EE470A36
:10451C00B0EE670A00F0AEF9F0EE407A624BC3EDF4
:10452C00007A624BD3ED007A634B93ED007A9FEDEA
:10453C00611AF0EE470AB0EE670A00F09BF9F0EE54
:10454C00407A5A4BC3ED007A564B93ED007A584B98
:10455C00D3ED007A77EE677AB0EE670AFDF79EFF2F
:10456C00F0EE407AB0EE087AF4EEC77AF1EE10FA7B
:10457C0016D54C4B93ED017A4F4BD3ED007A77EE79
:10458C00677AB0EE670AFDF789FFF0EE407AB0EE7D
:10459C00087AF4EEC77AF1EE10FA01D5012300E0A7
:1045AC000023002B09D0454BB3F900309BB20133EB
:1045BC009BB21AB2414B1A8009E0404BB3F9003060
:1045CC00002B00DA01335B101AB23C4B1A803B4BC8
:1045DC00B3F90030B3F5FA7F59DD384B00221A805D
:1045EC002C4B01221A7052E02A4B1B78012B4ED116
:1045FC00294B2A4A1A602A4B4FF000021A60294BA9
:10460C001B68294A1360274B5B68284A1360264BAA
:10461C00D3ED007A264B93ED007A9FED261AF0EE3F
:10462C00470AB0EE670A00F025F9F0EE407A1E4B0F
:10463C00C3ED007A1D4BD3ED007A1F4B93ED007A3E
:10464C009FED1C1AF0EE470AB0EE670A00F012F963
:10465C00F0EE407A154BC3ED007A00F0C3F8184B1E
:10466C00B3F900309BB201339BB21AB2144B1A80CF
:10467C00134BB3F90030B3F5967F08DD104B0022D5
:10468C001A80044B00221A700E4B00221A7000BFC5
:10469C0080BD00BF0A0700200C0000200000704104
:1046AC00DC060020FC060020CC060020D4060020EE
:1046BC00C806002000004843D0060020F806002061
:1046CC00FA0600200807002080B582B000AF002356
:1046DC007B600CE00A4B1A687B685B01134418463C
:1046EC00FEF775F800F00EF87B6801337B607B6891
:1046FC00052BEFDD00BF00BF0837BD4680BD00BFF6
:10470C009006002080B500AF0D4B1B681846FEF7D5
:10471C00A3FB0C4B1B681846FEF79EFB0A4B1B6851
:10472C001846FEF799FB094B1B681846FEF794FBDD
:10473C00074B1B681846FEF78FFB00BF80BD00BF00
:10474C009C060020A0060020A4060020A80600203D
:10475C00AC06002080B58AB000AF164B164A1A6022
:10476C00144B154A5A60154A3B1D07CA83E80700CB
:10477C003B1D1946124800F01EF9124A07F11003AE
:10478C0007CA83E8070007F1100319460C4800F02C
:10479C0012F90D4A07F11C0307CA83E8070007F159
:1047AC001C031946064800F006F900BF2837BD4621
:1047BC0080BD00BFFC0600200000A04138F50008B9
:1047CC000C07002044F5000850F5000880B500AF38
:1047DC0001220221024802F037F900BF80BD00BF60
:1047EC000004025880B500AF00220221024802F0FA
:1047FC002BF900BF80BD00BF0004025880B487B005
:10480C0000AF87ED030AC7ED020A87ED011A97ED99
:10481C00027AD7ED017AB4EEE77AF1EE10FA04DB06
:10482C00BB687B617B683B6103E07B687B61BB6839
:10483C003B6197ED037AD7ED057AB4EEE77AF1EEAA
:10484C0010FA01DD7B690BE097ED037AD7ED047A62
:10485C00B4EEE77AF1EE10FA01D53B6900E0FB68A3
:10486C0007EE903AB0EE670A1C37BD465DF8047B44
:10487C007047000080B487B000AF87ED030AC7ED26
:10488C00020A87ED011A97ED037AD7ED027A77EEDB
:10489C00677AC7ED057AD7ED017A9FED1D7A67EE41
:1048AC00877A97ED057AB4EEE77AF1EE10FA08DD27
:1048BC00D7ED017A9FED167A67EE877AC7ED057A08
:1048CC0018E0D7ED017AF1EE677A9FED117A67EE79
:1048DC00877A97ED057AB4EEE77AF1EE10FA09D5FE
:1048EC00D7ED017AF1EE677A9FED097A67EE877A58
:1048FC00C7ED057A97ED027AD7ED057A77EE277A30
:10490C00B0EE670A1C37BD465DF8047B704700BFEC
:10491C000AD7233C80B485B000AF78607B68FB601D
:10492C007B6818461437BD465DF8047B704780B52C
:10493C0082B000AF78607B68184600F04DF800211B
:10494C00786800F05AF87B6818460837BD4680BD79
:10495C0080B582B000AF78607B681B68002B10D0EC
:10496C007B6859697B685B6A04331A46786800F087
:10497C00AAF87B6819687B685B681A46786800F04F
:10498C00BDF87B681846FFF7C5FF7B6818460837EB
:10499C00BD4680BD80B582B000AF786039607B6861
:1049AC0008333A681146184600F0D2F80346184608
:1049BC000837BD4680BD80B582B000AF78603960E5
:1049CC00386800F0DBF803461946786800F0E1F827
:1049DC0000BF0837BD4680BD80B584B000AF78609D
:1049EC007B68FB60FB68BB607B68184600F007F9CE
:1049FC007B6818461037BD4680BD90B589B000AFB6
:104A0C00786039600C20FEF727FB02463B68B3FB4D
:104A1C00F2F30133FB610823FB60FB6902333B615A
:104A2C0007F1100207F10C031146184600F000F9CB
:104A3C0003461A687B685A607B685B68194678681D
:104A4C0000F00AF902467B681A607B681A687B687A
:104A5C005968FB69CB1A5B089B001344BB61FB696B
:104A6C009B00BA6913447B617A69B969786800F074
:104A7C002FF97B680833B969184600F044F97B6854
:104A8C0003F118027B69043B1946104600F03BF910
:104A9C007B68DA687B689A607B68DC690C20FEF7BF
:104AAC00DBFA02463B68B3FBF2F101FB02F29A1A05
:104ABC0013465B0013449B00E2187B689A6100BFAD
:104ACC002437BD4690BD80B586B000AFF860B960A4
:104ADC007A60BB687B6108E07B691B681946F868E3
:104AEC0000F02DF97B6904337B617A697B689A420B
:104AFC00F2D300BF00BF1837BD4680BD80B58AB069
:104B0C0000AFF860B9607A6007F11003F9681846D5
:104B1C0000F03CF9BB687B627B683B6207F11003D9
:104B2C00FB617B6ABB613B6A7B61FEF779FA0346EA
:104B3C00002B03D0B8690AF06CF904E07A69B96902
:104B4C00F86900F034FB00BF00BF2837BD4680BDBC
:104B5C0080B586B000AF7860396007F108033A6819
:104B6C007968184600F025F907F10803184600F09B
:104B7C0033F9034618461837BD4680BD80B483B060
:104B8C0000AF78607B6818460C37BD465DF8047B37
:104B9C007047B0B586B000AF786039607B689A69B1
:104BAC007B681B6A0C3B9A4219D07D687B689C69B8
:104BBC00386800F01DF903467D613C61FB60F868C4
:104BCC0000F016F903461946386900F06BFA00BF7D
:104BDC007B689B6903F10C027B689A6107E038687B
:104BEC0000F006F903461946786800F00DF978686C
:104BFC0000F056F9034618461837BD46B0BD80B5CF
:104C0C0082B000AF78607B6800221A607B6800225B
:104C1C005A607B680833184600F05BF97B681833E0
:104C2C00184600F056F97B6818460837BD4680BD1B
:104C3C0080B483B000AF786039607B681A683B68D9
:104C4C001B689A4201D23B6800E07B6818460C371F
:104C5C00BD465DF8047B704780B586B000AF7860C8
:104C6C00396007F10C037968184600F08FF83B683F
:104C7C007B6107F10C033B617B69BB60FEF7D0F9EC
:104C8C000346002B16D0BB68002299009B0F002B0B
:104C9C0000D001220B46BB60134603F00103DBB2CC
:104CAC00002B01D00AF0CFF8BB6818460AF0B5F813
:104CBC00034607E0BB6800221946386900F070FB18
:104CCC00034600BF00BF00BF18461837BD4680BD65
:104CDC0080B586B000AFF860B9607A60BB687B6164
:104CEC0008E0F86800F00CF902467B691A607B69F1
:104CFC0004337B617A697B689A42F2D300BF00BFB0
:104D0C001837BD4680BD90B583B000AF7860396070
:104D1C007B683A68DA603B681A687B685A607B6823
:104D2C005C6800F02CF9024613465B0013449B00B0
:104D3C00E2187B689A6000BF0C37BD4690BD90B5F9
:104D4C0089B000AF786039607C680C20FEF784F97C
:104D5C000246FC613B68BB617A61FB693B61BB69E4
:104D6C00FB607B69BB60FEF75BF90346002B03D04D
:104D7C00F8680AF04EF804E0BA68F968386900F08F
:104D8C0039FB00BF00BF2437BD4690BD80B586B04F
:104D9C0000AF78603960386800F0F9F802467B683B
:104DAC007B613A617B69FB6000BF78681837BD4650
:104DBC0080BD80B584B000AFF860B9607A60B96826
:104DCC00F86800F0EFF87968F86800F007F900BFB0
:104DDC00F8681037BD4680BD80B483B000AF7860F2
:104DEC007B681B6818460C37BD465DF8047B704722
:104DFC0080B483B000AF78607B6818460C37BD4632
:104E0C005DF8047B70470000B0B586B000AF7860E9
:104E1C003960786800F05EF90446786800F06CF947
:104E2C0003469C420CBF01230023DBB2002B02D0B3
:104E3C001A480AF00BF80121786800F06EF97A68CC
:104E4C007B685B6A1C1D104600F05AF80346236011
:104E5C007D687B689C693868FFF7CAFF03467D61F3
:104E6C003C61FB60F868FFF7C3FF034619463869DD
:104E7C0000F018F900BF7B6803F118027B685B6ACD
:104E8C00043319461046FFF73EFF7B68DA697B68EE
:104E9C009A6100BF1837BD46B0BD00BF5CF5000875
:104EAC0080B586B000AF786007F1080379681846C2
:104EBC0000F04EF907F10803184600F058F907F115
:104ECC0008031846FFF788FF034618461837BD46F7
:104EDC0080BD80B483B000AF78607B6800221A601C
:104EEC007B6800225A607B6800229A607B680022F3
:104EFC00DA607B6818460C37BD465DF8047B70475A
:104F0C00F0B587B000AF78607E680C20FEF7A4F88F
:104F1C0003467E613B617B69FB603B69BB60FEF7CE
:104F2C007FF80346002B1DD0BB6800210C22A3FB8D
:104F3C0002454FF000024FF000032A000023002A24
:104F4C0000D001212346BB600B4603F00103DBB20A
:104F5C00002B01D009F077FFBB68184609F05DFF04
:104F6C00034607E0BB6800221946F86800F098FA7F
:104F7C00034600BF00BF18461C37BD46F0BD80B5C8
:104F8C0000AF0C20FEF768F80346184680BD80B4CD
:104F9C0083B000AF78607B6818460C37BD465DF86F
:104FAC00047B704780B483B000AF786039603B6895
:104FBC001A687B681A603B685A687B685A603B6861
:104FCC009A687B689A603B68DA687B68DA607B6811
:104FDC0018460C37BD465DF8047B704790B585B01C
:104FEC0000AF786039607B681A687B685B68D31A9D
:104FFC009B102B4A02FB03F31A463B681344FB60DD
:10500C00FB68002B08DBFFF7BAFF03461A46FB6868
:10501C00934201DA012300E00023002B0AD07B68C5
:10502C0019683A6813465B0013449B00CA187B68E6
:10503C001A602FE0FB68002B07DDFFF7A0FF03468B
:10504C001A46FB6893FBF2F307E0FB68DC43FFF7BF
:10505C0096FF0346B4FBF3F3DB43BB607B68DA6873
:10506C00BB689B00134419467868FFF74CFE7B68BD
:10507C005C68FFF784FF03461A46BB6802FB03F328
:10508C00FA68D31A1A4613465B0013449B00E218C5
:10509C007B681A607B6818461437BD4690BD00BF0C
:1050AC00ABAAAAAA90B583B000AF786039607B68D0
:1050BC0019460C20FDF7C4FF04463868FFF798FE2C
:1050CC000246234607CA83E80700234618460C37D6
:1050DC00BD4690BD80B582B000AF78607B6803F1AF
:1050EC0018027B6808331946104600F06FF8034627
:1050FC0018460837BD4680BD80B582B000AF7860D9
:10510C007B681846FFF743FF0346184600F092F8F9
:10511C00034618460837BD4680BD80B582B000AF47
:10512C00786039603B685A1C7B685B687968486AB0
:10513C0079680968411A89105B1A9A4204D90022CD
:10514C003968786800F092F800BF0837BD4680BD1A
:10515C0080B582B000AF786039603B68183319466F
:10516C007868FFF71FFF78680837BD4680BD80B5AB
:10517C0082B000AF78607B681A687B685B689A4283
:10518C000AD17B68DB68043B19467868FFF7BBFDE6
:10519C007B689A687B681A607B681B68A3F10C02B9
:1051AC007B681A607B6818460837BD4680BD80B5A1
:1051BC0084B000AFF860B9607A607B689B001946D8
:1051CC00B86809F028FE1037BD4680BD80B582B0A6
:1051DC0000AF78603960FFF7D2FE034619467B6852
:1051EC00DA683B68DB68D31A9B101A467B68DB686D
:1051FC00002B14BF01230023DBB2D31A01FB03F3F2
:10520C007A6811687A6852688A1A9210084901FB08
:10521C0002F213443A6891683A6812688A1A92103A
:10522C00034901FB02F2134418460837BD4680BD02
:10523C00ABAAAAAA80B586B000AF78606FF0004325
:10524C003B617B687B61084BFB6007F10C0207F14B
:10525C0010031146184600F0DFF803461B68184689
:10526C001837BD4680BD00BF5555551590B58BB050
:10527C0000AFF860B9601346FB71FB685A6AFB68B3
:10528C005B69D31A9B1001333B62BB683A6A1344C7
:10529C00FB61FB685A68FB695B009A422DD9FB687D
:1052AC001A68FB685968FB69CB1A5B089900FB7993
:1052BC00002B02D0BB689B0000E000230B4413447E
:1052CC007B62FB685B697A6A9A4209D2FB6858690F
:1052DC00FB685B6A04337A6A194600F0B1F848E05F
:1052EC00FB685869FB685B6A191D3B6A9B007A6A0C
:1052FC0013441A4600F0BCF83BE0FB685C68FB68A2
:10530C00043307F1080211461846FFF791FC0346D7
:10531C001B6823440233BB61FB68B9691846FFF76D
:10532C009BFC7861BA69FB69D31A5B089A00FB791C
:10533C00002B02D0BB689B0000E0002313447A6969
:10534C0013447B62FB685869FB685B6A04337A6AB6
:10535C00194600F075F8F868FB681968FB685B681B
:10536C001A46FFF7CBFBFB687A691A60FB68BA69CF
:10537C005A60FB680833796A1846FFF7C4FCFB686F
:10538C0003F118003A6A6FF0404313449B007A6AA9
:10539C0013441946FFF7B7FC00BF2C37BD4690BD30
:1053AC0080B586B000AFF860B9607A60FB687B614D
:1053BC006FF06042BB6893428CBF01230023DBB2C9
:1053CC00002B14BF01230023DBB2002B07D0BB68DA
:1053DC00B3F1804F01D309F036FD09F031FDBB6804
:1053EC009B00184609F019FD034600BF18461837F4
:1053FC00BD4680BD80B584B000AFF860B9607A60FE
:10540C007A6813465B0013449B001946B86809F090
:10541C0002FD1037BD4680BD80B483B000AF78600C
:10542C0039603B681A687B681B689A4201D23B68FA
:10543C0000E07B6818460C37BD465DF8047B70476E
:10544C0090B585B000AFF860B9607A60F86800F08C
:10545C0057F80446B86800F053F803467A681946C2
:10546C00204600F058F8034618461437BD4690BD48
:10547C0090B585B000AFF860B9607A60F86800F05C
:10548C003FF80446B86800F03BF803467A681946C2
:10549C00204600F063F8034618461437BD4690BD0D
:1054AC0080B586B000AFF860B9607A60FB687B614C
:1054BC00114ABB6893428CBF01230023DBB2002B43
:1054CC0014BF01230023DBB2002B07D0BB680B4AAF
:1054DC00934201D909F0B7FC09F0B2FCBA68134643
:1054EC005B0013449B00184609F097FC034600BF71
:1054FC0018461837BD4680BDAAAAAA0A5555551597
:10550C0080B483B000AF78607B6818460C37BD461A
:10551C005DF8047B7047B0B584B000AFF860B9603B
:10552C007A60F86800F03DF80446B86800F039F885
:10553C0005467B68184600F034F803461A4629469F
:10554C00204600F039F802463B1D1146184600F083
:10555C0043F8034618461037BD46B0BDB0B584B00D
:10556C0000AFF860B9607A60F86800F01AF8044689
:10557C00B86800F016F805467B68184600F011F87C
:10558C0003461A462946204600F032F802463B1DD7
:10559C001146184600F020F8034618461037BD4651
:1055AC00B0BD80B483B000AF78607B6818460C3710
:1055BC00BD465DF8047B704780B584B000AFF860E1
:1055CC00B9607A607A68B968F86800F021F8034627
:1055DC0018461037BD4680BD80B483B000AF7860EC
:1055EC0039603B6818460C37BD465DF8047B704744
:1055FC0080B584B000AFF860B9607A607A68B96839
:10560C00F86800F022F8034618461037BD4680BDF6
:10561C0080B584B000AFF860B9607A60FDF708FD22
:10562C000346002B06D07A68B968F86800F02AF8AF
:10563C00034606E07A68B968F86800F046F8034655
:10564C0000BF18461037BD4680BD80B584B000AF92
:10565C00F860B9607A60FDF7EBFC0346002B06D0CE
:10566C007A68B968F86800F05AF8034606E07A6878
:10567C00B968F86800F076F8034600BF1846103792
:10568C00BD4680BD80B487B000AFF860B9607A6069
:10569C00BA68FB68D31A9B107B610CE0FB681A6834
:1056AC007B681A60FB680433FB607B6804337B60A7
:1056BC007B69013B7B617B69002BEFDC7B681846C7
:1056CC001C37BD465DF8047B704780B586B000AFD3
:1056DC00F860B9607A60BA68FB68D31A9B107B617A
:1056EC007B69012BCCBF01230023DBB2002B07D03D
:1056FC007B699B001A46F968786809F0ADFC06E0F6
:10570C007B69012B03D1F968786800F05CF87B6940
:10571C009B007A68134418461837BD4680BD80B488
:10572C0087B000AFF860B9607A60BA68FB68D31ACA
:10573C009B107B610CE0BB68043BBB60BB681A68C8
:10574C007B68043B7B607B681A607B69013B7B61F7
:10575C007B69002BEFDC7B6818461C37BD465DF877
:10576C00047B704780B586B000AFF860B9607A6092
:10577C00BA68FB68D31A9B107B617B69012BCCBF89
:10578C0001230023DBB2002B0BD07B699B005B4217
:10579C007A68D0187B699B001A46F96809F05CFCA2
:1057AC0008E07B69012B05D17B68043BF96818463E
:1057BC0000F009F87B699B005B427A681344184639
:1057CC001837BD4680BD80B483B000AF78603960B7
:1057DC003B681A687B681A6000BF0C37BD465DF8E1
:1057EC00047B7047F8B500AF182009F016FB034690
:1057FC001C462046FDF746FC444B1C601C2009F05F
:10580C000CFB03461C462046FDF760FC404B1C601D
:10581C001C2009F002FB03461C462046FDF756FCF3
:10582C003C4B1C60542009F0F8FA03461C462046F9
:10583C00FDF7D3FD384B1C60C82009F0FFFA034676
:10584C001C4620232360231D06221A6004F1080342
:10585C0005251E4604E03046FDF770FD013D20365F
:10586C00002DF8DA04F108032C4A1360482009F0E3
:10587C00D4FA03461C462046FDF711FD284B1C604C
:10588C00182009F0CAFA03461C462046FDF78EFD87
:10589C00244B1C60242009F0C0FA03461C46204609
:1058AC00FDF776FA204B1C60242009F0B6FA03466B
:1058BC001C462046FDF76CFA1C4B1C60242009F09A
:1058CC00ACFA03461C462046FDF762FA184B1C60E6
:1058DC00242009F0A2FA03461C462046FDF758FA8C
:1058EC00144B1C60242009F098FA03461C462046F1
:1058FC00FDF74EFA104B1C601048FDF7B0FD104A36
:10590C0010490E4809F080FA00BFF8BD800600204F
:10591C0084060020880600208C06002090060020BB
:10592C0094060020980600209C060020A00600206B
:10593C00A4060020A8060020AC0600200C070020BE
:10594C00000000205559000880B58AB000AF78607F
:10595C0007F108037968184600F01BF807F11803E3
:10596C0079681846FFF7F4FB7B68184600F020F8BE
:10597C00034607F1180207F10801786800F023F8D4
:10598C007B681846FEF7E4FF7B6818462837BD464F
:10599C0080BD80B582B000AF786039603B68083359
:1059AC0019467868FFF7FEFA78680837BD4680BD5F
:1059BC0080B483B000AF78607B6818460C37BD4666
:1059CC005DF8047B704780B48DB000AFF860B960AF
:1059DC007A603B6000BF3437BD465DF8047B70478E
:1059EC0080B500AFFFF7FEFE80BD000080B489B02B
:1059FC0000AF00237B610023BB7400237B74002366
:105A0C00BB610EE0394ABB6908335B0013449A88CA
:105A1C00BB695B0020333B4423F8202CBB6901336A
:105A2C00BB61BB69062BEDDD3B88C3F30B039BB25B
:105A3C003B800023FB810023FB613AE0FB69002BD8
:105A4C0003F00103B8BF5B42012B0BD1FB695B1068
:105A5C005B0020333B4433F8203CDBB27A69534083
:105A6C007B610CE0FB695B105B0020333B4433F83B
:105A7C00203C1B0A9BB21A467B6953407B6108236E
:105A8C00FB7410E07B6903F40043002B05D07B69A9
:105A9C005B0083F440537B6102E07B695B007B61BC
:105AAC00FB7C013BFB74FB7C002BEBD1FB690133D2
:105ABC00FB61FB690F2BC1DD7B691B0B03F00F0333
:105ACC007B617B69BB74094B9B8A1B0B9BB27B7400
