:020000040800F2
:1000000000000220352F00083D08000845080008C0
:100010004D080008550800085D08000800000000B1
:10002000000000000000000000000000650800085B
:100030007308000800000000810800088F0800080D
:10004000892F0008892F0008892F0008892F0008B0
:10005000892F0008892F0008892F0008892F0008A0
:10006000892F0008892F0008892F0008892F000890
:10007000892F0008892F0008892F0008892F000880
:10008000892F0008892F0008892F0008892F000870
:10009000892F0008892F0008892F0008892F000860
:1000A000892F0008892F0008892F0008892F000850
:1000B000892F0008892F0008892F0008892F000840
:1000C000892F0008892F0008892F0008892F000830
:1000D000892F00089D080008B1080008892F000832
:1000E000892F0008892F000800000000892F0008D0
:1000F000892F0008892F0008892F0008892F000800
:10010000892F0008892F0008892F0008892F0008EF
:10011000C5080008D9080008ED080008892F000864
:10012000892F0008892F0008892F0008892F0008CF
:10013000892F0008892F0008892F0008892F0008BF
:1001400000000000000000000000000000000000AF
:10015000892F0008892F0008892F0008010900084D
:10016000892F0008892F0008892F0008892F00088F
:10017000892F0008892F0008892F0008000000003F
:10018000892F0008892F0008892F0008892F00086F
:10019000892F0008892F0008892F0008892F00085F
:1001A000892F0008892F0008892F0008000000000F
:1001B000892F0008892F0008892F0008892F00083F
:1001C000892F0008892F00080000000000000000AF
:1001D0000000000000000000892F0008000000005F
:1001E000000000000000000000000000000000000F
:1001F0000000000000000000892F0008892F00087F
:10020000892F0008892F000800000000892F0008AE
:10021000892F0008892F0008892F0008892F0008DE
:10022000892F000800000000892F0008000000004E
:10023000892F0008892F000800000000892F00087E
:10024000892F0008892F0008892F0008892F0008AE
:10025000892F0008892F0008892F0008892F00089E
:10026000892F0008892F0008892F0008892F00088E
:10027000892F0008892F0008892F0008000000003E
:10028000892F0008892F0008892F0008892F00086E
:1002900000000000892F0008892F000800000000DE
:1002A00000000000892F0008892F0008892F00080E
:1002B000892F0008892F0008892F0008892F00083E
:0C02C000892F0008892F0008892F0008F2
:1002CC0053B94AB9002908BF00281CBF4FF0FF31B1
:1002DC004FF0FF3000F00CB8ADF1080C6DE904CE16
:1002EC000BF0C0F8DDF804E0DDE9022304B0704740
:1002FC00704700BF0348044B834202D0034B03B149
:10030C0018477047600000206000002000000000CB
:10031C000548064B1B1AD90F01EBA301491002D05B
:10032C00034B03B1184770476000002060000020A9
:10033C000000000010B5064C237843B9FFF7DAFF34
:10034C00044B13B10448AFF300800123237010BD9C
:10035C0060000020000000002CB7000808B5054B19
:10036C001BB105490548AFF30080BDE80840FFF715
:10037C00CFBF00BF00000000640000202CB70008B5
:10038C0080B58EB000AF07F1240300221A605A60CA
:10039C009A60DA601A615B4BD3F8E030594A43F04B
:1003AC000403C2F8E030574BD3F8E03003F00403F9
:1003BC003B623B6A534BD3F8E030524A43F0800324
:1003CC00C2F8E0304F4BD3F8E03003F08003FB6110
:1003DC00FB694C4BD3F8E0304A4A43F00103C2F8B6
:1003EC00E030484BD3F8E03003F00103BB61BB694C
:1003FC00444BD3F8E030434A43F00203C2F8E030F8
:10040C00404BD3F8E03003F002037B617B693D4B3A
:10041C00D3F8E0303B4A43F02003C2F8E030394BCC
:10042C00D3F8E03003F020033B613B69354BD3F844
:10043C00E030344A43F01003C2F8E030314BD3F8CB
:10044C00E03003F01003FB60FB682E4BD3F8E03078
:10045C002C4A43F00803C2F8E0302A4BD3F8E030C2
:10046C0003F00803BB60BB68264BD3F8E030254A89
:10047C0043F04003C2F8E030224BD3F8E03003F0F5
:10048C0040037B607B6800224FF400511E4803F050
:10049C005DF9002203211D4803F058F900221821B0
:1004AC001B4803F053F94FF400537B620123BB62EA
:1004BC000223FB6200233B6307F124031946124815
:1004CC0002F09CFF03237B620123BB620223FB62CD
:1004DC0000233B6307F1240319460C4802F08EFFFE
:1004EC0018237B620123BB620223FB6200233B6364
:1004FC0007F124031946064802F080FF00BF383785
:10050C00BD4680BD00440258000802580004025841
:10051C00000C025880B500AF1B4B1C4A1A601A4BDA
:10052C001B4A5A60184B00229A60174B0122DA6062
:10053C00154B00221A61144B00225A61124B0022F7
:10054C009A61114B0022DA610F4B00221A620E489D
:10055C0003F016F90346002B01D000F049F90021F5
:10056C00094803F0A9F90346002B01D000F040F92B
:10057C000021054803F0EBF90346002B01D000F0F5
:10058C0037F900BF80BD00BF7C0000200054004044
:10059C00724E406080B5B8B000AF786007F1CC0304
:1005AC0000221A605A609A60DA601A6107F110032F
:1005BC00B822002118460AF0CDFE7B681B68264A3B
:1005CC00934245D14FF008024FF00003C7E90423D2
:1005DC000023C7F8903007F11003184604F0A4F973
:1005EC000346002B01D000F003F91C4BD3F8E0308C
:1005FC001A4A43F00203C2F8E030184BD3F8E0304B
:10060C0003F00203FB60FB68C023C7F8CC30122355
:10061C00C7F8D0300023C7F8D4300023C7F8D8303F
:10062C000423C7F8DC3007F1CC0319460C4802F060
:10063C00E5FE0A4BD3F8E830084A43F40013C2F83D
:10064C00E830064BD3F8E83003F40013BB60BB680A
:10065C0000BFE037BD4680BD005400400044025846
:10066C000004025880B500AF00F096F802F088FC48
:10067C0000F024F8FFF784FEFFF74CFF00F084FE37
:10068C0000F096FC00F018FF00F048FB00F060FF53
:10069C0000F0C6FE00F0A8FF00F038FA00F0B6FB40
:1006AC0000F04EFC00F0ECFA02F056FA024805F0AD
:1006BC00FBFF00BFFDE700BF0402002080B59CB02B
:1006CC0000AF07F124034C22002118460AF042FE29
:1006DC003B1D2022002118460AF03CFE022003F0AC
:1006EC0083F900233B602B4B9B692A4A23F440433C
:1006FC009361284B9B6903F440433B603B6800BF0C
:10070C00244B9B6903F40053B3F5005FF8D101232C
:10071C007B624FF48033BB620223BB640223FB6415
:10072C0002233B652C237B650123BB650223FB6500
:10073C0002233B660C237B660023BB660023FB660F
:10074C0007F12403184603F089F90346002B01D066
:10075C0000F04EF83F237B600323BB600023FB605B
:10076C0008233B6140237B614023BB614FF48063D2
:10077C00FB6140233B623B1D0321184603F048FDFF
:10078C000346002B01D000F033F800BF7037BD4694
:10079C0080BD00BF0048025880B584B000AF3B4616
:1007AC0000221A605A609A60DA6002F0AFFD0123F1
:1007BC003B7000237B7000237B601F233B728723DD
:1007CC007B720023BB720023FB7201233B7301235A
:1007DC007B730023BB730023FB733B46184602F06C
:1007EC00CDFD042002F0AAFD00BF1037BD4680BD30
:1007FC0080B400AF72B600BF00BFFDE780B483B019
:10080C0000AF0A4BD3F8F430084A43F00203C2F8A5
:10081C00F430064BD3F8F43003F002037B607B68B2
:10082C0000BF0C37BD465DF8047B7047004402588E
:10083C0080B400AF00BFFDE780B400AF00BFFDE7A0
:10084C0080B400AF00BFFDE780B400AF00BFFDE790
:10085C0080B400AF00BFFDE780B400AF00BFBD4661
:10086C005DF8047B704780B400AF00BFBD465DF8F7
:10087C00047B704780B400AF00BFBD465DF8047BBD
:10088C00704780B500AF02F0EDFB00BF80BD0000EB
:10089C0080B500AF024807F0FDFA00BF80BD00BF75
:1008AC00C403002080B500AF024807F0F3FA00BF84
:1008BC0080BD00BF5804002080B500AF024807F08F
:1008CC00E9FA00BF80BD00BF9C02002080B500AFDC
:1008DC00024807F0DFFA00BF80BD00BF30030020E4
:1008EC0080B500AF024806F0E3F800BF80BD00BF42
:1008FC000402002080B500AF024807F0CBFA00BF1D
:10090C0080BD00BFEC04002080B400AF012318466A
:10091C00BD465DF8047B704780B582B000AF78604F
:10092C0039600AF073FD034616221A604FF0FF334C
:10093C0018460837BD4680BD80B582B000AF7860E0
:10094C004FF0FF317868FFF7E7FF00BFFDE70000CD
:10095C0080B586B000AF7860144A154BD31A7B6112
:10096C007B693B61134B1B68002B02D1114B124A64
:10097C001A60104B1A687B6813443A699A4207D282
:10098C000AF044FD03460C221A604FF0FF3309E0D5
:10099C00084B1B68FB60074B1A687B681344054ABD
:1009AC001360FB6818461837BD4680BD0000022056
:1009BC0000040000D00000201807002080B400AF15
:1009CC003E4BD3F888303D4A43F47003C2F888306C
:1009DC003B4B1B6803F00F03062B07D8384B1B68E7
:1009EC0023F00F03364A43F007031360354B1B68A3
:1009FC00344A43F001031360324B00221A61314B2D
:100A0C001A683049304B13400B602D4B1B6803F0B8
:100A1C000803002B07D02A4B1B6823F00F03284A2E
:100A2C0043F007031360274B00229A61254B0022E9
:100A3C00DA61244B00221A62224B244A9A62214B1F
:100A4C00234ADA621F4B234A1A631E4B00225A6355
:100A5C001C4B204A9A631B4B0022DA63194B1D4A2C
:100A6C001A64184B00225A64164B1B68154A23F45F
:100A7C0080231360134B00221A66124BD3F8D43028
:100A8C0003F48053002B13D10E4BD3F8D4300D4A02
:100A9C0043F48053C2F8D4300F4B43F2D2021A60A5
:100AAC00084BD3F8D430074A23F48053C2F8D4301F
:100ABC0000BFBD465DF8047B704700BF00ED00E051
:100ACC0000200052004402587FEDF6EA00020202B8
:100ADC000000FF01800201010040005280B400AF11
:100AEC00094BDB68084A43F00203D36000BF064B96
:100AFC005B6803F40053002BF9D000BF00BFBD4668
:100B0C005DF8047B704700BF0048025880B59CB06C
:100B1C0000AF07F1600300221A605A609A60DA6035
:100B2C0007F1540300221A605A609A6007F13803E7
:100B3C0000221A605A609A60DA601A615A619A61EE
:100B4C003B1D3422002118460AF004FC4A4B4B4A48
:100B5C001A60494B4FF489725A60474B00229A60D5
:100B6C00454B44F61F62DA60434B00221A61424B3C
:100B7C0000225A61404B00229A613F4805F096FCD6
:100B8C000346002B01D0FFF733FE4FF480533B6636
:100B9C0007F160031946384806F0A6F90346002B06
:100BAC0001D0FFF725FE344805F004FE0346002B68
:100BBC0001D0FFF71DFE00237B650023BB650023DE
:100BCC00FB6507F1540319462B4806F0F3FE034668
:100BDC00002B01D0FFF70CFE6023BB630023FB63EB
:100BEC0000233B6400237B640023BB640023FB6471
:100BFC0000233B6507F13803082219461E4806F00E
:100C0C005FF80346002B01D0FFF7F2FD07F1380324
:100C1C000C221946184806F053F80346002B01D055
:100C2C00FFF7E6FD00237B600023BB600023FB6025
:100C3C0000233B6100237B614FF40053BB61002315
:100C4C00FB6100237B624FF00073BB620023FB62ED
:100C5C0000237B633B1D1946074806F047FF0346FC
:100C6C00002B01D0FFF7C4FD034800F0D5FA00BFFC
:100C7C007037BD4680BD00BFD4000020000001408D
:100C8C0080B588B000AF07F1100300221A605A60DB
:100C9C009A60DA603B1D00221A605A609A601E4B03
:100CAC004FF080421A601C4B4FF489725A601A4BF9
:100CBC0000229A60184B4FF0FF32DA60164B00227C
:100CCC001A61154B00229A61134805F0EFFB03469D
:100CDC00002B01D0FFF78CFD4FF480533B6107F1E3
:100CEC00100319460C4806F0FFF80346002B01D000
:100CFC00FFF77EFD00237B600023FB603B1D194644
:100D0C00054806F057FE0346002B01D0FFF770FD97
:100D1C0000BF2037BD4680BD2001002080B58EB0BD
:100D2C0000AF07F1280300221A605A609A60DA605B
:100D3C0007F11C0300221A605A609A603B4600229D
:100D4C001A605A609A60DA601A615A619A612D4B86
:100D5C002D4A1A602B4B4FF489725A60294B002292
:100D6C009A60284B4FF6FF72DA60264B00221A610C
:100D7C00244B00229A61234805F098FB0346002B74
:100D8C0001D0FFF735FD4FF48053BB6207F1280308
:100D9C0019461C4806F0A8F80346002B01D0FFF7B3
:100DAC0027FD184805F006FD0346002B01D0FFF780
:100DBC001FFD0023FB6100237B6207F11C03194616
:100DCC00104806F0F7FD0346002B01D0FFF710FD8D
:100DDC0060233B6000237B600023BB6000233B61EE
:100DEC003B4600221946074805F06AFF0346002BD4
:100DFC0001D0FFF7FDFC034800F00EFA00BF3837B6
:100E0C00BD4680BD6C0100200004004080B58EB052
:100E1C0000AF07F1280300221A605A609A60DA606A
:100E2C0007F11C0300221A605A609A603B460022AC
:100E3C001A605A609A60DA601A615A619A613E4B84
:100E4C003E4A1A603C4B4FF489725A603A4B00226E
:100E5C009A60394B44F61F62DA60374B00221A61F4
:100E6C00354B00229A61344805F020FB0346002BD9
:100E7C0001D0FFF7BDFC4FF48053BB6207F1280390
:100E8C0019462D4806F030F80346002B01D0FFF729
:100E9C00AFFC294805F08EFC0346002B01D0FFF770
:100EAC00A7FC0023FB6100237B6207F11C0319469E
:100EBC00214806F07FFD0346002B01D0FFF798FC7C
:100ECC0060233B6000237B600023BB6000233B61FD
:100EDC003B4600221946184805F0F2FE0346002B4B
:100EEC0001D0FFF785FC3B4604221946124805F059
:100EFC00E7FE0346002B01D0FFF77AFC3B460822A5
:100F0C0019460D4805F0DCFE0346002B01D0FFF717
:100F1C006FFC3B460C221946074805F0D1FE0346F0
:100F2C00002B01D0FFF764FC034800F075F900BFFB
:100F3C003837BD4680BD00BFB80100200008004016
:100F4C0080B584B000AF3B1D00221A605A609A60D5
:100F5C00154B164A1A60144B4FF489725A60124B97
:100F6C0000229A60104B42F20F72DA600E4B002294
:100F7C009A610D4805F09AFA0346002B01D0FFF751
:100F8C0037FC00237B600023FB603B1D19460648A1
:100F9C0006F010FD0346002B01D0FFF729FC00BF23
:100FAC001037BD4680BD00BF040200200010004079
:100FBC0080B58EB000AF07F1280300221A605A608A
:100FCC009A60DA6007F11C0300221A605A609A607A
:100FDC003B4600221A605A609A60DA601A615A61C4
:100FEC009A613E4B3E4A1A603C4B4FF489725A60F0
:100FFC003A4B00229A60394B44F61F62DA60374B49
:10100C0000221A61354B00229A61344805F04EFAE1
:10101C000346002B01D0FFF7EBFB4FF48053BB6270
:10102C0007F1280319462D4805F05EFF0346002BF7
:10103C0001D0FFF7DDFB294805F0BCFB0346002B74
:10104C0001D0FFF7D5FB0023FB6100237B6207F186
:10105C001C031946214806F0ADFC0346002B01D0B9
:10106C00FFF7C6FB60233B6000237B600023BB6063
:10107C0000233B613B4600221946184805F020FE30
:10108C000346002B01D0FFF7B3FB3B460422194665
:10109C00124805F015FE0346002B01D0FFF7A8FB04
:1010AC003B46082219460D4805F00AFE0346002B64
:1010BC0001D0FFF79DFB3B460C221946074805F073
:1010CC00FFFD0346002B01D0FFF792FB034800F015
:1010DC00A3F800BF3837BD4680BD00BF50020020CA
:1010EC0000E4004080B588B000AF78607B681B6876
:1010FC00434A93420FD1434BD3F8F030414A43F06B
:10110C000103C2F8F0303F4BD3F8F03003F0010389
:10111C00FB61FB696FE07B681B68B3F1804F0FD1FB
:10112C00384BD3F8E830374A43F00103C2F8E830C3
:10113C00344BD3F8E83003F00103BB61BB695AE0D0
:10114C007B681B68304A93420FD12E4BD3F8E830A2
:10115C002C4A43F00203C2F8E8302A4BD3F8E830AB
:10116C0003F002037B617B6945E07B681B68274ABF
:10117C0093420FD1234BD3F8E830224A43F00403B7
:10118C00C2F8E8301F4BD3F8E83003F004033B619E
:10119C003B6930E07B681B681D4A934217D1194BA1
:1011AC00D3F8E830174A43F01003C2F8E830154B77
:1011BC00D3F8E83003F01003FB60FB6800220E212B
:1011CC00362002F06EF8362002F085F813E07B68CA
:1011DC001B68104A93420ED10A4BD3F8EC30094AE3
:1011EC0043F00073C2F8EC30064BD3F8EC3003F04C
:1011FC000073BB60BB6800BF2037BD4680BD00BF1D
:10120C000000014000440258000400400008004067
:10121C000010004000E4004080B58CB000AF786056
:10122C0007F11C0300221A605A609A60DA601A6196
:10123C007B681B684B4A934220D14B4BD3F8E03070
:10124C00494A43F01003C2F8E030474BD3F8E03082
:10125C0003F01003BB61BB694FF4C043FB61022375
:10126C003B6200237B620023BB620123FB6207F11C
:10127C001C0319463D4802F0C1F86FE07B681B68FF
:10128C003B4A93421FD1384BD3F8E030364A43F0F7
:10129C000403C2F8E030344BD3F8E03003F004031D
:1012AC007B617B694023FB6102233B6200237B62F1
:1012BC000023BB620223FB6207F11C0319462D4875
:1012CC0002F09CF84AE07B681B682B4A934220D1C1
:1012DC00254BD3F8E030244A43F00803C2F8E03041
:1012EC00214BD3F8E03003F008033B613B694FF42A
:1012FC007043FB6102233B6200237B620023BB62D1
:10130C000223FB6207F11C0319461C4802F076F815
:10131C0024E07B681B681A4A93421FD1124BD3F806
:10132C00E030114A43F02003C2F8E0300E4BD3F802
:10133C00E03003F02003FB60FB684FF4F043FB61EB
:10134C0002233B6200237B620023BB620E23FB6201
:10135C0007F11C0319460B4802F050F800BF303758
:10136C00BD4680BD000001400044025800100258E8
:10137C00000400400008025800080040000C02580D
:10138C0000E400400014025880B500AF224B234A01
:10139C001A60214B4FF4E1325A601F4B00229A60C5
:1013AC001D4B0022DA601C4B00221A611A4B0C22D6
:1013BC005A61194B00229A61174B0022DA61164BC5
:1013CC0000221A62144B00225A62134B00229A62BA
:1013DC00114806F035FC0346002B01D0FFF708FA44
:1013EC0000210D4809F0AFF80346002B01D0FFF7A0
:1013FC00FFF90021084809F0E4F80346002B01D05E
:10140C00FFF7F6F9044809F065F80346002B01D004
:10141C00FFF7EEF900BF80BD9C020020004C00409D
:10142C0080B500AF224B234A1A60214B4FF4E132B6
:10143C005A601F4B00229A601D4B0022DA601C4B35
:10144C0000221A611A4B0C225A61194B00229A6124
:10145C00174B0022DA61164B00221A62144B002241
:10146C005A62134B00229A62114806F0E9FB0346BC
:10147C00002B01D0FFF7BCF900210D4809F063F8EF
:10148C000346002B01D0FFF7B3F90021084809F0FF
:10149C0098F80346002B01D0FFF7AAF9044809F08D
:1014AC0019F80346002B01D0FFF7A2F900BF80BD4D
:1014BC00300300200050004080B500AF224B234A7F
:1014CC001A60214B4FF416525A601F4B00229A603F
:1014DC001D4B0022DA601C4B00221A611A4B0C22A5
:1014EC005A61194B00229A61174B0022DA61164B94
:1014FC0000221A62144B00225A62134B00229A6289
:10150C00114806F09DFB0346002B01D0FFF770F944
:10151C0000210D4809F017F80346002B01D0FFF706
:10152C0067F90021084809F04CF80346002B01D05C
:10153C00FFF75EF9044808F0CDFF0346002B01D0FD
:10154C00FFF756F900BF80BDC40300200010014016
:10155C0080B500AF224B234A1A60214B4FF4E13285
:10156C005A601F4B00229A601D4B0022DA601C4B04
:10157C0000221A611A4B0C225A61194B00229A61F3
:10158C00174B0022DA61164B00221A62144B002210
:10159C005A62134B00229A62114806F051FB034623
:1015AC00002B01D0FFF724F900210D4808F0CBFFE8
:1015BC000346002B01D0FFF71BF90021084809F066
:1015CC0000F80346002B01D0FFF712F9044808F08D
:1015DC0081FF0346002B01D0FFF70AF900BF80BD45
:1015EC00580400200044004080B500AF224B234A31
:1015FC001A60214B4FF4E1325A601F4B00229A6063
:10160C001D4B0022DA601C4B00221A611A4B0C2273
:10161C005A61194B00229A61174B0022DA61164B62
:10162C0000221A62144B00225A62134B00229A6257
:10163C00114806F005FB0346002B01D0FFF7D8F844
:10164C0000210D4808F07FFF0346002B01D0FFF767
:10165C00CFF80021084808F0B4FF0346002B01D056
:10166C00FFF7C6F8044808F035FF0346002B01D0FD
:10167C00FFF7BEF800BF80BDEC0400200014014051
:10168C0080B5C4B000AF07F58873A3F586731860F6
:10169C0007F1FC0300221A605A609A60DA601A6142
:1016AC0007F14003B8220021184609F053FE07F554
:1016BC008873A3F586731B681B68A64A934273D183
:1016CC004FF002024FF00003C7E910230023C7F8C4
:1016DC00B43007F14003184603F026F90346002BFB
:1016EC0001D0FFF785F89C4BD3F8E8309A4A43F4C5
:1016FC000023C2F8E830984BD3F8E83003F4002309
:10170C00FB63FB6B944BD3F8E030934A43F001033B
:10171C00C2F8E030904BD3F8E03003F00103BB6328
:10172C00BB6B8D4BD3F8E0308B4A43F00403C2F80B
:10173C00E030894BD3F8E03003F004037B637B6B20
:10174C000123C7F8FC300223C7F800310023C7F887
:10175C0004310023C7F808310823C7F80C3107F10E
:10176C00FC0319467D4801F049FE4FF40063C7F8AD
:10177C00FC300223C7F800310023C7F804310023E2
:10178C00C7F808310823C7F80C3107F1FC031946D8
:10179C00734801F033FE00220121342001F081FD59
:1017AC00342001F098FDF6E107F58873A3F58673F4
:1017BC001B681B686B4A934273D14FF002024FF0C7
:1017CC000003C7E910230023C7F8B43007F1400326
:1017DC00184603F0A9F80346002B01D0FFF708F8D0
:1017EC005D4BD3F8E8305C4A43F48013C2F8E83020
:1017FC00594BD3F8E83003F480133B633B6B564BE7
:10180C00D3F8E030544A43F00403C2F8E030524BB2
:10181C00D3F8E03003F00403FB62FB6A4E4BD3F8C1
:10182C00E0304D4A43F00803C2F8E0304A4BD3F89D
:10183C00E03003F00803BB62BB6A4FF48053C7F877
:10184C00FC300223C7F800310023C7F80431002311
:10185C00C7F808310823C7F80C3107F1FC03194607
:10186C003F4801F0CBFD0423C7F8FC300223C7F836
:10187C0000310023C7F804310023C7F808310823CE
:10188C00C7F80C3107F1FC031946374801F0B6FDD7
:10189C0000220021352001F004FD352001F01BFD54
:1018AC0079E107F58873A3F586731B681B682F4ACB
:1018BC0093425FD14FF001024FF00003C7E91023B0
:1018CC000023C7F8B83007F14003184603F02CF892
:1018DC000346002B01D0FEF78BFF1F4BD3F8F030E3
:1018EC001D4A43F01003C2F8F0301B4BD3F8F03014
:1018FC0003F010037B627B6A174BD3F8E030164A77
:10190C0043F00203C2F8E030134BD3F8E03003F09D
:10191C0002033B623B6A4FF44043C7F8FC3002239E
:10192C00C7F800310023C7F804310023C7F8083189
:10193C000423C7F80C3107F1FC0319460C4801F0DD
:10194C005DFD00220021252001F0ABFC252001F0DB
:10195C00C2FC20E1004C0040004402580000025838
:10196C000008025800500040000C025800100140C2
:10197C000004025807F58873A3F586731B681B686F
:10198C00874A934272D14FF002024FF00003C7E92D
:10199C0010230023C7F8B43007F14003184602F0B7
:1019AC00C3FF0346002B01D0FEF722FF7D4BD3F87B
:1019BC00E8307C4A43F40033C2F8E830794BD3F872
:1019CC00E83003F40033FB61FB69764BD3F8E0306D
:1019DC00744A43F00103C2F8E030724BD3F8E030A4
:1019EC0003F00103BB61BB696E4BD3F8E0306D4A69
:1019FC0043F00803C2F8E0306A4BD3F8E03003F050
:101A0C0008037B617B690823C7F8FC300223C7F805
:101A1C0000310023C7F804310023C7F8083107232D
:101A2C00C7F80C3107F1FC0319465F4801F0E6FCDE
:101A3C002023C7F8FC300223C7F800310023C7F875
:101A4C0004310023C7F808310723C7F80C3107F11C
:101A5C00FC031946554801F0D1FC00220221262036
:101A6C0001F01FFC262001F036FC94E007F588738A
:101A7C00A3F586731B681B684D4A934240F08B801C
:101A8C004FF001024FF00003C7E910230023C7F801
:101A9C00B83007F14003184602F046FF0346002B0E
:101AAC0001D0FEF7A5FE3F4BD3F8F0303D4A43F092
:101ABC002003C2F8F0303B4BD3F8F03003F0200297
:101ACC0007F58873A3F580731A6007F58873A3F57F
:101ADC0080731B68334BD3F8E030324A43F0040375
:101AEC00C2F8E0302F4BD3F8E03003F0040207F5D6
:101AFC008873A3F582731A6007F58873A3F5827354
:101B0C001B68284BD3F8E030264A43F04003C2F858
:101B1C00E030244BD3F8E03003F0400207F5887333
:101B2C00A3F584731A6007F58873A3F584731B6897
:101B3C008023C7F8FC300223C7F800310023C7F814
:101B4C0004310023C7F808310723C7F80C3107F11B
:101B5C00FC031946174801F051FC4FF48043C7F8B9
:101B6C00FC300223C7F800310023C7F804310023EE
:101B7C00C7F808310723C7F80C3107F1FC031946E5
:101B8C000D4801F03BFC00220121472001F089FBAC
:101B9C00472001F0A0FB00BF07F58877BD4680BD4C
:101BAC00004400400044025800000258000C025847
:101BBC0000140140000802580018025880B483B089
:101BCC0000AF78607B681B8807EE903AF8EE677A76
:101BDC00B0EE670A0C37BD465DF8047B7047000019
:101BEC0080B582B000AF786039607B683A685A641F
:101BFC0000221021094801F0A9FD00220821074804
:101C0C0001F0A4FD7B68586C7B680C3301221946EB
:101C1C0006F0F4F800BF0837BD4680BD000C025832
:101C2C0080B586B000AF78607B681B7BFF2B03D040
:101C3C007B681B7BFE2B06D17B680022DA757B68E8
:101C4C0006221A761CE07B681B7BFD2B06D17B6879
:101C5C000022DA757B6804221A7611E07B681B7B04
:101C6C00FC2B07D07B681B7BFB2B03D07B681B7B7F
:101C7C00FA2B05D17B680022DA757B6803221A7671
:101C8C007B68DB7D19467B681A7B7B680B445A7337
:101C9C007B68DB7D0133DAB27B68DA757B68DB7DD0
:101CAC00092B02D97B680022DA757B68DA7D7B68A8
:101CBC001B7E9A4240F001817B685B7BFF2B1FD01F
:101CCC007B685B7BFE2B1BD07B685B7BFD2B17D073
:101CDC007B685B7BFC2B13D07B685B7BFB2B0FD077
:101CEC007B685B7BFA2B0BD07B680022DA757B68F8
:101CFC00586C7B680C330122194606F07FF8E4E03F
:101D0C000023FB7501233B610AE07A683B691344AD
:101D1C000D331A78FB7D1344FB753B6901333B6132
:101D2C007B681B7E013B3A699A42EEDB7B681B7E2B
:101D3C00013B7A6813445B7BFA7D9A4215D0FA7D9D
:101D4C007B681B7E013B79680B445B7B0F3B9A42A3
:101D5C000BD07B680022DA757B68586C7B680C337F
:101D6C000122194606F04AF8AFE07B685B7BFA3B30
:101D7C00052B00F29B8001A252F823F0971E00085D
:101D8C007B1E00085F1E00082F1E0008FF1D0008A8
:101D9C00A11D00087B689B7B1BB21B021AB27B68DF
:101DAC00DB7B1BB21343FB817B681B7C1BB21B02CE
:101DBC001AB27B685B7C1BB21343BB81B7F90E3044
:101DCC0007EE903AB8EEE77ADFED416AC7EE267A75
:101DDC007B68C3ED0C7AB7F90C3007EE903AB8EE8D
:101DEC00E77ADFED3B6AC7EE267A7B68C3ED0D7AA6
:101DFC0063E07B689B7B1BB21B021AB27B68DB7BAC
:101E0C001BB213437B81B7F90A3007EE903AB8EE58
:101E1C00E77ADFED2F6AC7EE267A7B68C3ED0E7A80
:101E2C004BE07B689B7B1BB21B021AB27B68DB7B93
:101E3C001BB213433B81B7F9083007EE903AB8EE6A
:101E4C00E77ADFED236AC7EE267A7B68C3ED0F7A5B
:101E5C0033E07B689B7B012B2AD17B6893F8403065
:101E6C0083F00103DAB27B6883F8402020E07B68C2
:101E7C009B7B012B1ED17B6893F8413083F00103CF
:101E8C00DAB27B6883F8412014E07B689B7B012BE2
:101E9C0012D17B6893F84230002B0CBF0123002336
:101EAC00DBB21A467B6883F8422005E000BF04E0F1
:101EBC0000BF02E000BF00E000BF7B68586C7B688D
:101ECC000C330122194605F099FF1837BD4680BD29
:101EDC0000EAFF4680B588B000AF78607B68EF22DF
:101EEC001A777B681B68002B09D07B681B68184627
:101EFC0000F0C0F8F0EE407A7B68C3ED087A7B689E
:101F0C005B68002B09D07B685B681846FFF756FEB0
:101F1C00F0EE407A7B68C3ED097A7B689B68002BF6
:101F2C0009D07B689B681846FFF748FEF0EE407AB4
:101F3C007B68C3ED0A7A7B6893F840301A467B685D
:101F4C0083F82C207B6893F841301A467B6883F821
:101F5C002D207B6893F842207B6883F82E20002389
:101F6C00FB77EF233B733A7BFB7F1344FB777B6858
:101F7C00D3ED087A9FED3E7A67EE877AFDEEE77A2D
:101F8C0017EE903ABB83BB8B1B0A9BB2DBB27B7305
:101F9C00BB8BDBB2BB737A7BBB7B1344DAB2FB7FAC
:101FAC001344FB777B68D3ED097A9FED317A67EEAA
:101FBC00877AFDEEE77A17EE903A7B837B8B1B0AD0
:101FCC009BB2DBB2FB737B8BDBB23B74FA7B3B7C4F
:101FDC001344DAB2FB7F1344FB777B68D3ED0A7AA8
:101FEC009FED237A67EE877AFDEEE77A17EE903A4B
:101FFC003B833B8B1B0A9BB2DBB27B743B8BDBB210
:10200C00BB747A7CBB7C1344DAB2FB7F1344FB7742
:10201C007B6893F82C30002B01D0012300E00023C7
:10202C00FB747B6893F82D30002B01D0012300E06A
:10203C0000233B75FA7C3B7D1344DAB2FB7F1344DF
:10204C00FB777B6893F82E307B757A7DFB7F13448E
:10205C00FB77FB7FBB757B68586C07F10C014FF06D
:10206C00FF330B2205F03CFE00BF2037BD4680BD80
:10207C000000C84280B483B000AF78607B68DB6836
:10208C0007EE903AB0EE670A0C37BD465DF8047B5C
:10209C00704780B582B000AF786039607B683A6871
:1020AC00DA607B68D8687B6803330122194605F037
:1020BC00A5FE00BF0837BD4680BD80B582B000AF1D
:1020CC0078607B68DB78FF2B02D17B6800221A7268
:1020DC007B681B7A19467B68DA787B680B441A712B
:1020EC007B681B7A0133DAB27B681A727B681B7AC5
:1020FC00042B22D17B681B79FF2B1BD17B681B79AE
:10210C001A467B685B7913447A6892791344DBB284
:10211C007A68D27993420DD17B685B791BB21B0232
:10212C001AB27B689B791BB213431BB29AB27B68C1
:10213C001A8002E07B6800221A727B68D8687B6880
:10214C0003330122194605F059FE00BF0837BD467E
:10215C0080BD80B483B000AF87ED010AD7ED017A62
:10216C00F0EEE77AB0EE670A0C37BD465DF8047BFB
:10217C007047000080B588B000AF786039607B682C
:10218C003A685A637B68586B7B6824330122194682
:10219C0005F034FE1C4A07F1180392E8030018609E
:1021AC00043319707B68586B07F118014FF6FF73F5
:1021BC00052205F095FDC82000F074FF134B3B6120
:1021CC0000233B757B68586B07F110014FF6FF73CA
:1021DC00052205F085FD40F6B83000F063FF4AF6A5
:1021EC00FF23BB6000233B737B68586B07F108012E
:1021FC004FF6FF73052205F073FDC82000F052FF67
:10220C0000BF2037BD4680BD44B70008FFAA0104BB
:10221C0080B58EB000AF78607B6893F82430552B76
:10222C0003D17B68002283F830207B6893F8303030
:10223C0019467B6893F824207B680B4483F825208F
:10224C007B6893F830300133DAB27B6883F8302046
:10225C007B6893F830300B2B40F02F82002387F8EB
:10226C0037300023FB854FF00003BB624FF00003B7
:10227C007B624FF000033B624FF00003FB614FF0B9
:10228C000003BB614FF000037B614FF000033B6127
:10229C004FF00003FB604FF00003BB6000233B6377
:1022AC000CE07A683B6B134425331A7897F8373077
:1022BC00134487F837303B6B01333B633B6B092B83
:1022CC00EFDD7B6893F82F3097F837209A4204D0D3
:1022DC007B68002283F83020EFE17B6893F826308E
:1022EC00532B00F0E680532B00F3E781512B02D0E7
:1022FC00522B75D0E1E17B6893F82C301BB21B029A
:10230C00FB857B6893F82B301AB2FB8D1343FB854E
:10231C00B7F92E3007EE903AB8EEE77ADFEDA26A05
:10232C00C7EE267AB3EE007A67EE877A9FED987A3D
:10233C0067EE877AC7ED027A7B68BA689A607B6829
:10234C0093F82A301BB21B02FB857B6893F829306B
:10235C001AB2FB8D1343FB85B7F92E3007EE903A7A
:10236C00B8EEE77ADFED906AC7EE267AB3EE007A24
:10237C0067EE877A9FED867A67EE877AC7ED037AE8
:10238C007B68FA685A607B6893F828301BB21B0292
:10239C00FB857B6893F827301AB2FB8D1343FB85C2
:1023AC00B7F92E3007EE903AB8EEE77ADFED7E6A99
:1023BC00C7EE267AB3EE007A67EE877A9FED747AD1
:1023CC0067EE877AC7ED047A7B683A691A607B6896
:1023DC00012283F831207B68002283F826206CE1EF
:1023EC007B6893F82C301BB21B02FB857B6893F83F
:1023FC002B301AB2FB8D1343FB85B7F92E3007EE49
:10240C00903AB8EEE77ADFED686AC7EE267A9FED70
:10241C00617A67EE877AC7ED057A7B687A695A61CB
:10242C007B6893F82A301BB21B02FB857B6893F800
:10243C0029301AB2FB8D1343FB85B7F92E3007EE0A
:10244C00903AB8EEE77ADFED586AC7EE267A9FED40
:10245C00517A67EE877AC7ED067A7B68BA691A619A
:10246C007B6893F828301BB21B02FB857B6893F8C2
:10247C0027301AB2FB8D1343FB85B7F92E3007EECC
:10248C00903AB8EEE77ADFED486AC7EE267A9FED10
:10249C00417A67EE877AC7ED077A7B68FA69DA606A
:1024AC007B68012283F832207B68002283F8262087
:1024BC0003E17B6893F82C301BB21B02FB857B6815
:1024CC0093F82B301AB2FB8D1343FB85B7F92E30E2
:1024DC0007EE903AB8EEE77ADFED336AC7EE267A6C
:1024EC009FED327A67EE877AC7ED087A7B683A6A95
:1024FC001A62294B1B68312B08DC274B1B680133F4
:10250C00254A13607B681A6A7B681A627B6893F8A9
:10251C0028301BB21B02FB857B6893F827301AB25C
:10252C00FB8D1343FB85B7F92E3007EE903AB8EECE
:10253C00E77ADFED1D6AC7EE267A9FED1C7A67EE0F
:10254C00877AC7ED0A7A154B93ED007AD7ED0A7AA4
:10255C0077EE677AB0EE670AFFF7FBFDF0EE407A94
:10256C00B3EE0E7AF4EEC77AF1EE10FA4CBF0123FB
:10257C000023DBB2002B03D07B68BA6ADA612FE050
:10258C00054B1B68042B13DC7B68BA6ADA6127E005
:10259C00CDCC1C410000FA448005002084050020AD
:1025AC0000002043000020C300000047000034431B
:1025BC00D7ED0A7A1FED067AF4EEC77AF1EE10FA2F
:1025CC0002DD7B68BA6ADA61D7ED0A7A1FED0B7A05
:1025DC00F4EEC77AF1EE10FA02D57B68BA6ADA61CA
:1025EC007B6893F82A301BB21B02FB857B6893F83F
:1025FC0029301AB2FB8D1343FB85B7F92E3007EE49
:10260C00903AF8EEE77AB1EE677A5FED196AC7EEA9
:10261C00267A1FED1A7A67EE877AC7ED097A2D4B69
:10262C0093ED007AD7ED097A77EE677AB0EE670A08
:10263C00FFF78FFDF0EE407AB3EE0E7AF4EEC77A28
:10264C00F1EE10FA4CBF01230023DBB2002B03D0B8
:10265C007B687A6A9A611FE01F4B1B68042B03DCB2
:10266C007B687A6A9A6117E0D7ED0A7A9FED1B7A3C
:10267C00F4EEC77AF1EE10FA02DD7B687A6A9A61A1
:10268C00D7ED0A7A9FED167AF4EEC77AF1EE10FACE
:10269C0002D57B687A6A9A617B68DB69114A1360A0
:1026AC007B689B690B4A13607B68012283F833209B
:1026BC007B68002283F8262000BF7B68586B7B6800
:1026CC0024330122194605F099FB00BF3837BD466B
:1026DC0080BD00BF8805002080050020000020433D
:1026EC00000020C38405002080B584B000AFF860E2
:1026FC00B9607A603B60FB68BA681A60FB687A68FC
:10270C005A60FB6800229A60FB68FA691A61FB68E0
:10271C003A685A61FB68BA699A61FB681A68FB6887
:10272C005B681946104604F0A7F8FB685B68002B41
:10273C0006D1FB681B681B6840F2DC525A6331E01F
:10274C00FB685B68042B06D1FB681B681B6840F2B6
:10275C00DC529A6326E0FB685B68082B06D1FB68A9
:10276C001B681B6840F2DC52DA631BE0FB685B6899
:10277C000C2B06D1FB681B681B6840F2DC521A64F8
:10278C0010E0FB685B68102B06D1FB681B681B68AC
:10279C0040F2DC529A6505E0FB681B681B6840F24E
:1027AC00DC52DA650A2000F07DFC00BF1037BD4614
:1027BC0080BD80B483B000AF786039607B683A68C4
:1027CC009A607B689B68002B12DD7B689A687B683B
:1027DC001B699A4203DD7B681A697B689A603B68C7
:1027EC0003F2DC527B685B691A447B68DA6017E0A1
:1027FC007B689A687B68196940F2DC535B1A9A42D1
:10280C0006DA7B681A6940F2DC539B1A7A6893608B
:10281C003B6803F2DC527B689B69D21A7B68DA60F6
:10282C007B685B68002B06D17B68DA687B681B6869
:10283C001B685A6331E07B685B68042B06D17B68AC
:10284C00DA687B681B681B689A6326E07B685B68A8
:10285C00082B06D17B68DA687B681B681B68DA6317
:10286C001BE07B685B680C2B06D17B68DA687B68A5
:10287C001B681B681A6410E07B685B68102B06D120
:10288C007B68DA687B681B681B689A6505E07B6867
:10289C00DA687B681B681B68DA6500BF0C37BD46BD
:1028AC005DF8047B704780B483B000AF78607B68C0
:1028BC004FF000021A607B684FF000025A607B6890
:1028CC004FF000029A607B684FF00002DA607B6880
:1028DC0000221A747B6818460C37BD465DF8047BE1
:1028EC00704780B483B000AF78607B6800221A8098
:1028FC007B68FF229A707B6800221A727B68002228
:10290C00DA607B6818460C37BD465DF8047B70476F
:10291C0080B483B000AF78607B684FF000021A601F
:10292C007B684FF000025A607B684FF000029A609F
:10293C007B684FF00002DA607B684FF000021A618E
:10294C007B684FF000025A617B684FF000029A617D
:10295C007B684FF00002DA617B684FF000021A626C
:10296C007B68002283F830207B68002283F83120BA
:10297C007B68002283F832207B68002283F83320A6
:10298C007B6800225A637B6818460C37BD465DF89D
:10299C00047B704780B483B000AF78607B68EF2213
:1029AC001A707B684FF000025A607B684FF000028F
:1029BC009A607B684FF00002DA607B6800221A7420
:1029CC007B6800225A747B6800229A747B681846D4
:1029DC000C37BD465DF8047B704780B483B000AF04
:1029EC0078607B684FF000021A607B684FF0000241
:1029FC005A607B684FF000029A607B684FF00002CF
:102A0C00DA607B6800221A747B6800225A747B6837
:102A1C0001229A747B6818460C37BD465DF8047B1E
:102A2C00704780B582B000AF78607B6800221A6076
:102A3C007B6800225A607B6800229A607B680022C7
:102A4C00DA757B6800221A767B681C331846FFF710
:102A5C00A1FF7B6830331846FFF7BFFF7B6800226D
:102A6C005A647B6818460837BD4680BD80B483B075
:102A7C0000AF786039607B683A681A6000BF0C3729
:102A8C00BD465DF8047B704780B483B000AF7860BE
:102A9C0039607B683A685A6000BF0C37BD465DF8F8
:102AAC00047B704780B483B000AF78607B680022F1
:102ABC001A607B6800225A607B6800229A607B68EF
:102ACC000022DA607B6800221A617B6800225A615E
:102ADC007B6800229A617B6818460C37BD465DF80E
:102AEC00047B704780B500AF064803F037FD054BFB
:102AFC001B6800225A62034B1B685B6A024A136014
:102B0C0000BF80BD200100209005002080B500AFE3
:102B1C000D4B1B685B6A0D4A13600B4803F09CFD60
:102B2C000A4B1A680A4B1B68D31A07EE903AF8EE58
:102B3C00677A084BC3ED007A064B1B6807EE903A98
:102B4C00B0EE670A80BD00BF200100209405002074
:102B5C00900500209805002080B582B002AF424B52
:102B6C001B6842491846FFF794FA414B1B684149D0
:102B7C001846FFF78EFA404B1B6840491846FFF782
:102B8C00F9FA3F4B1B683F4A126811461846FFF78B
:102B9C006DFF3B4B1B68344A126811461846FFF711
:102BAC0073FF374B1B68324A126811461846FFF701
:102BBC006BFF334B1B6834491846FFF711F80122A1
:102BCC004FF40051314800F0C1FD0A2000F06AFAC0
:102BDC002F4B18684FF4FA730193052300930523C8
:102BEC0000222C49FFF780FD2B4B18684FF4FA7329
:102BFC00019305230093052304222649FFF774FD56
:102C0C00264B18684FF4FA730193052300930523A0
:102C1C0008222049FFF768FD214B18684FF4FA731E
:102C2C0001930523009305230C221A49FFF75CFD41
:102C3C001C4B18684FF4FA7301930523009305237A
:102C4C0008221949FFF750FD184B18684FF4FA7316
:102C5C0001930523009305230C221349FFF744FD30
:102C6C0000BFBD4680BD00BFA00500203003002082
:102C7C00A4050020EC040020A8050020C4030020BB
:102C8C00C40500209C0500205804002000080258B0
:102C9C00AC050020B8010020B0050020B4050020D0
:102CAC00B8050020BC050020D4000020C005002081
:102CBC0080B500AF1D4B1B6893F84130012B05D13B
:102CCC00012201211A4800F041FD04E000220121FB
:102CDC00174800F03BFD154B1B681846FFF7FAF838
:102CEC00144B1B68C8211846FFF763FD124B1B6879
:102CFC00C8211846FFF75DFD104B1B68C82118460C
:102D0C00FFF757FD0E4B1B68C8211846FFF751FD06
:102D1C000C4B1B68C8211846FFF74BFD0A4B1B6870
:102D2C00C8211846FFF745FD00BF80BDC405002033
:102D3C0000040258AC050020B0050020B4050020AA
:102D4C00B8050020BC050020C005002080B582B06D
:102D5C0000AF78607B68094A93420AD1FFF7C2FE44
:102D6C00FFF7A6FFFFF7D2FEF0EE407A044BC3ED5F
:102D7C00007A00BF0837BD4680BD00BF04020020AA
:102D8C008C05002080B582B000AF78607B681B6832
:102D9C00164A934205D1164B1B681846FFF738FAB2
:102DAC001FE07B681B68134A934205D1124B1B68CA
:102DBC001846FEF735FF14E07B681B680F4A9342F8
:102DCC0005D10F4B1B681846FFF777F909E07B68B4
:102DDC001B680C4A934204D10B4B1B681846FFF737
:102DEC006CF900BF0837BD4680BD00BF0010014024
:102DFC00A805002000440040C405002000500040FD
:102E0C00A005002000140140A405002098B500AFD7
:102E1C00142008F0C7F903461C462046FFF743FD73
:102E2C00334B1C60102008F0BDF903461C462046AD
:102E3C00FFF757FD2F4B1C60102008F0B3F9034629
:102E4C001C462046FFF74DFD2B4B1C60382008F02C
:102E5C00A9F903461C462046FFF75AFD274B1C6078
:102E6C001C2008F09FF903461C462046FFF71AFE6B
:102E7C00234B1C601C2008F095F903461C46204689
:102E8C00FFF710FE1F4B1C601C2008F08BF903464B
:102E9C001C462046FFF706FE1B4B1C601C2008F04E
:102EAC0081F903461C462046FFF7FCFD174B1C60BE
:102EBC001C2008F077F903461C462046FFF7F2FD6C
:102ECC00134B1C601C2008F06DF903461C46204671
:102EDC00FFF7E8FD0F4B1C60482008F063F9034630
:102EEC001C462046FFF79DFD0B4B1C6000BF98BD98
:102EFC009C050020A0050020A4050020A8050020AA
:102F0C00AC050020B0050020B4050020B805002059
:102F1C00BC050020C0050020C405002080B500AF12
:102F2C00FFF774FF80BD0000DFF838D0FDF7D6FD49
:102F3C00FDF744FD0C480D490D4A002302E0D4581E
:102F4C00C4500433C4188C42F9D30A4A0A4C0023E7
:102F5C0001E013600432A242FBD308F05DFAFDF7E6
:102F6C0081FB704700000220000000206000002060
:102F7C0098B700086000002018070020FEE700004A
:102F8C0080B582B000AF032000F080F901F0F6FAB2
:102F9C000246154B9B691B0A03F00F031349CB5CCC
:102FAC0003F01F0322FA03F37B600F4B9B6903F0C2
:102FBC000F030E4AD35C03F01F037A6822FA03F363
:102FCC000B4A13600B4A7B6813600F2000F014F857
:102FDC000346002B01D0012302E0FDF70FFC002378
:102FEC0018460837BD4680BD004402584CB700084F
:102FFC00040000200000002080B582B000AF786093
:10300C00154B1B78002B01D1012321E0134B1A68BF
:10301C00114B1B7819464FF47A73B3FBF1F3B2FBE7
:10302C00F3F3184600F065F90346002B01D0012399
:10303C000EE07B680F2B0AD8002279684FF0FF3026
:10304C0000F02FF9064A7B681360002300E001238F
:10305C0018460837BD4680BD0C000020000000203B
:10306C000800002080B400AF064B1B781A46064BB4
:10307C001B681344044A136000BFBD465DF8047B13
:10308C00704700BF0C000020C805002080B400AFC2
:10309C00034B1B681846BD465DF8047B704700BFA8
:1030AC00C805002080B584B000AF7860FFF7EEFF54
:1030BC00B8607B68FB60FB68B3F1FF3F05D00A4B3F
:1030CC001B781A46FB681344FB6000BFFFF7DEFF5A
:1030DC000246BB68D31AFA689A42F7D800BF00BF01
:1030EC001037BD4680BD00BF0C00002080B485B0F9
:1030FC0000AF78607B6803F00703FB600B4BDB6869
:10310C00BB60BA684FF6FF031340BB60FB681A0242
:10311C00BB681A43064B1343BB60044ABB68D360BD
:10312C0000BF1437BD465DF8047B704700ED00E02E
:10313C000000FA0580B400AF044BDB681B0A03F0F7
:10314C0007031846BD465DF8047B704700ED00E0B0
:10315C0080B483B000AF0346FB80B7F90630002B78
:10316C000BDBFB8803F01F020749B7F906305B093C
:10317C00012000FA02F241F8232000BF0C37BD46B3
:10318C005DF8047B704700BF00E100E080B483B0C1
:10319C0000AF03463960FB80B7F90630002B0ADB21
:1031AC003B68DAB20C49B7F906301201D2B20B44C3
:1031BC0083F800230AE03B68DAB20849FB8803F085
:1031CC000F03043B1201D2B20B441A7600BF0C372A
:1031DC00BD465DF8047B704700E100E000ED00E0C7
:1031EC0080B489B000AFF860B9607A60FB6803F016
:1031FC000703FB61FB69C3F10703042B28BF0423FE
:10320C00BB61FB690433062B02D9FB69033B00E06D
:10321C0000237B614FF0FF32BB6902FA03F3DA4300
:10322C00BB681A407B699A404FF0FF317B6901FA09
:10323C0003F3D9437B680B40134318462437BD4630
:10324C005DF8047B7047000080B582B000AF7860F9
:10325C007B68013BB3F1807F01D301230FE00A4A65
:10326C007B68013B53600F214FF0FF30FFF78EFF5F
:10327C00054B00229A60044B07221A600023184663
:10328C000837BD4680BD00BF10E000E080B582B0BD
:10329C0000AF78607868FFF729FF00BF0837BD469C
:1032AC0080BD80B586B000AF0346B9607A60FB8103
:1032BC00FFF740FF78617A68B9687869FFF790FF8B
:1032CC000246B7F90E3011461846FFF75FFF00BFF4
:1032DC001837BD4680BD80B582B000AF0346FB8079
:1032EC00B7F906301846FFF733FF00BF0837BD4665
:1032FC0080BD80B582B000AF78607868FFF7A4FF1E
:10330C00034618460837BD4680BD000080B400AFA8
:10331C00BFF35F8F00BF074B5B6A064A23F4803311
:10332C005362054B00225A6000BFBD465DF8047B1A
:10333C00704700BF00ED00E090ED00E080B483B07A
:10334C0000AF78600B4A7B6843F0010353600A4B73
:10335C005B6A094A43F480335362BFF34F8F00BF5B
:10336C00BFF36F8F00BF00BF0C37BD465DF8047B09
:10337C00704700BF90ED00E000ED00E080B483B03A
:10338C0000AF78607B685A781B4B9A601A4B1B69AC
:10339C00194A23F001031361174A7B685B68D360F9
:1033AC007B681B7B1A077B68DB7A1B061A437B68DE
:1033BC009B7ADB041A437B685B7B9B041A437B6818
:1033CC009B7B5B041A437B68DB7B1B041A437B6887
:1033DC005B7A1B021A437B681B7A5B0013437A6887
:1033EC0012781146044A0B43136100BF0C37BD46DB
:1033FC005DF8047B704700BF90ED00E080B489B0AD
:10340C0000AF786039600023FB61864B7B618CE1F7
:10341C003B681A680121FB6901FA03F313403B6115
:10342C003B69002B00F07E813B685B6803F0030373
:10343C00012B05D03B685B6803F00303022B30D1F2
:10344C007B689B68BB61FB695B00032202FA03F398
:10345C00DB43BA691340BB613B68DA68FB695B000C
:10346C0002FA03F3BA691343BB617B68BA699A60C9
:10347C007B685B68BB610122FB6902FA03F3DB43E7
:10348C00BA691340BB613B685B681B0903F001021E
:10349C00FB6902FA03F3BA691343BB617B68BA692F
:1034AC005A603B685B6803F00303032B17D07B68FF
:1034BC00DB68BB61FB695B00032202FA03F3DB43AD
:1034CC00BA691340BB613B689A68FB695B0002FAFE
:1034DC0003F3BA691343BB617B68BA69DA603B6872
:1034EC005B6803F00303022B23D1FB69DA087B68CA
:1034FC00083253F82230BB61FB6903F007039B00D1
:10350C000F2202FA03F3DB43BA691340BB613B6839
:10351C001A69FB6903F007039B0002FA03F3BA690B
:10352C001343BB61FB69DA087B680832B96943F85D
:10353C0022107B681B68BB61FB695B00032202FAEB
:10354C0003F3DB43BA691340BB613B685B6803F070
:10355C000302FB695B0002FA03F3BA691343BB6114
:10356C007B68BA691A603B685B6803F44033002BD4
:10357C0000F0D8802C4BD3F8F4302B4A43F00203E4
:10358C00C2F8F430284BD3F8F43003F00203FB609C
:10359C00FB68264AFB699B08023352F82330BB6157
:1035AC00FB6903F003039B000F2202FA03F3DB43D6
:1035BC00BA691340BB617B681D4A93424AD07B6851
:1035CC001C4A93422BD07B681B4A934225D07B68C4
:1035DC001A4A93421FD07B68194A934219D07B68D0
:1035EC00184A934213D07B68174A93420DD07B68DC
:1035FC00164A934207D07B68154A934201D109239E
:10360C0029E00A2327E0072325E0062323E00523EE
:10361C0021E004231FE003231DE002231BE0012310
:10362C0019E000BF80000058004402580004005804
:10363C00000002580004025800080258000C0258FE
:10364C00001002580014025800180258001C0258AE
:10365C00002402580023FA6902F0030292009340FE
:10366C00BA691343BB613849FB699B080233BA69D9
:10367C0041F823204FF0B0431B68BB613B69DB432F
:10368C00BA691340BB613B685B6803F48013002B81
:10369C0003D0BA693B691343BB614FF0B042BB69BD
:1036AC0013604FF0B0435B68BB613B69DB43BA69A5
:1036BC001340BB613B685B6803F40013002B03D021
:1036CC00BA693B691343BB614FF0B042BB695360AD
:1036DC007B695B68BB613B69DB43BA691340BB61C7
:1036EC003B685B6803F40033002B03D0BA693B6979
:1036FC001343BB617B69BA695A607B691B68BB6108
:10370C003B69DB43BA691340BB613B685B6803F4FC
:10371C008033002B03D0BA693B691343BB617B69CF
:10372C00BA691A60FB690133FB613B681A68FB6973
:10373C0022FA03F3002B7FF46BAE00BF00BF2437DB
:10374C00BD465DF8047B70470004005880B483B01C
:10375C0000AF78600B467B8013467B707B78002B28
:10376C0003D07A887B689A6103E07B881A047B68B3
:10377C009A6100BF0C37BD465DF8047B70470000B2
:10378C0080B582B000AF78607B68002B01D101233B
:10379C008BE07B6893F84130DBB2002B06D17B6861
:1037AC00002283F840207868FCF7F4FE7B68242222
:1037BC0083F841207B681B681A687B681B6822F0C1
:1037CC0001021A607B685A687B681B6822F0706281
:1037DC001A617B681B689A687B681B6822F400423C
:1037EC009A607B68DB68012B07D17B689A687B68E1
:1037FC001B6842F400429A6006E07B689A687B681A
:10380C001B6842F404429A607B68DB68022B08D187
:10381C007B681B685A687B681B6842F400625A60BC
:10382C0007E07B681B685A687B681B6822F400629F
:10383C005A607B681B6859687B681A681D4B0B4380
:10384C0053607B681B68DA687B681B6822F4004253
:10385C00DA607B681A697B685B6942EA03017B6802
:10386C009B691A027B681B680A43DA607B68D9691A
:10387C007B681A6A7B681B680A431A607B681B6842
:10388C001A687B681B6842F001021A607B68002290
:10389C005A647B68202283F841207B6800221A63DB
:1038AC007B68002283F84220002318460837BD4667
:1038BC0080BD00BF0080000280B483B000AF786090
:1038CC0039607B6893F84130DBB2202B38D17B68B0
:1038DC0093F84030012B01D1022332E07B680122A6
:1038EC0083F840207B68242283F841207B681B6886
:1038FC001A687B681B6822F001021A607B681B68DF
:10390C001A687B681B6822F480521A607B681B68FB
:10391C0019687B681B683A680A431A607B681B68E5
:10392C001A687B681B6842F001021A607B682022CF
:10393C0083F841207B68002283F84020002300E0BC
:10394C00022318460C37BD465DF8047B704780B4E3
:10395C0085B000AF786039607B6893F84130DBB29A
:10396C00202B39D17B6893F84030012B01D10223F5
:10397C0033E07B68012283F840207B68242283F8A3
:10398C0041207B681B681A687B681B6822F0010267
:10399C001A607B681B681B68FB60FB6823F4706310
:1039AC00FB603B681B02FA681343FB607B681B6877
:1039BC00FA681A607B681B681A687B681B6842F09F
:1039CC0001021A607B68202283F841207B68002268
:1039DC0083F84020002300E0022318461437BD462C
:1039EC005DF8047B7047000080B584B000AF786050
:1039FC00194BDB6803F00403042B0AD0164BDB686D
:103A0C0003F007037A689A4201D001231FE00023D8
:103A1C001DE0114BDB6823F007020F497B68134351
:103A2C00CB60FFF733FBF86009E0FFF72FFB024692
:103A3C00FB68D31AB3F57A7F01D9012307E0064B53
:103A4C005B6803F40053B3F5005FEED10023184616
:103A5C001037BD4680BD00BF0048025880B58CB001
:103A6C0000AF78607B68002B01D10123C8E37B6831
:103A7C001B6803F00103002B00F08780884B1B6947
:103A8C0003F03803FB62864B9B6ABB62FB6A102B0C
:103A9C0007D0FB6A182B10D1BB6A03F00303022B6F
:103AAC000BD17F4B1B6803F40033002B6CD07B686D
:103ABC005B68002B68D10123A2E37B685B68B3F5DC
:103ACC00803F06D1764B1B68754A43F480331360F4
:103ADC002EE07B685B68002B0CD1714B1B68704A25
:103AEC0023F4803313606E4B1B686D4A23F48023E0
:103AFC0013601DE07B685B68B3F5A02F0CD1684B9D
:103B0C001B68674A43F480231360654B1B68644A47
:103B1C0043F4803313600BE0614B1B68604A23F461
:103B2C00803313605E4B1B685D4A23F48023136063
:103B3C007B685B68002B13D0FFF7A8FA786208E06B
:103B4C00FFF7A4FA02467B6AD31A642B01D903232C
:103B5C0056E3534B1B6803F40033002BF0D014E0F6
:103B6C00FFF794FA786208E0FFF790FA02467B6A56
:103B7C00D31A642B01D9032342E3494B1B6803F48A
:103B8C000033002BF0D100E000BF7B681B6803F012
:103B9C000203002B00F08C80414B1B6903F03803AF
:103BAC003B623F4B9B6AFB613B6A002B07D03B6A35
:103BBC00182B37D1FB6903F00303002B32D1384BA0
:103BCC001B6803F00403002B05D07B68DB68002B1B
:103BDC0001D1012314E3324B1B6823F019027B68DB
:103BEC00DB682F4913430B60FFF750FA786208E04B
:103BFC00FFF74CFA02467B6AD31A022B01D9032336
:103C0C00FEE2274B1B6803F00403002BF0D0244B7F
:103C1C005B6823F0FE427B681B691B06204913433B
:103C2C004B6045E07B68DB68002B26D01C4B1B6887
:103C3C0023F019027B68DB68194913430B60FFF70B
:103C4C0025FA786208E0FFF721FA02467B6AD31A5C
:103C5C00022B01D90323D3E2114B1B6803F004039D
:103C6C00002BF0D00E4B5B6823F0FE427B681B6987
:103C7C001B060B4913434B601AE0094B1B68084A9F
:103C8C0023F001031360FFF701FA78620AE0FFF7F3
:103C9C00FDF902467B6AD31A022B03D90323AFE248
:103CAC0000440258964B1B6803F00403002BEED122
:103CBC007B681B6803F01003002B6AD0904B1B69C8
:103CCC0003F03803BB618E4B9B6A7B61BB69082B8D
:103CDC0007D0BB69182B1BD17B6903F00303012BA5
:103CEC0016D1874B1B6803F48073002B05D07B68BF
:103CFC00DB69802B01D0012382E2814BDB6823F04E
:103D0C007C527B681B6A1B067D491343CB6040E0E9
:103D1C007B68DB69002B23D0794B1B68784A43F016
:103D2C0080031360FFF7B2F9786208E0FFF7AEF991
:103D3C0002467B6AD31A022B01D9032360E2704B33
:103D4C001B6803F48073002BF0D06D4BDB6823F001
:103D5C007C527B681B6A1B0669491343CB6018E0D5
:103D6C00674B1B68664A23F080031360FFF78EF9DC
:103D7C00786208E0FFF78AF902467B6AD31A022BB5
:103D8C0001D903233CE25E4B1B6803F48073002BC8
:103D9C00F0D17B681B6803F00803002B36D07B68DE
:103DAC005B69002B19D0564B5B6F554A43F00103EE
:103DBC005367FFF76BF9786208E0FFF767F9024683
:103DCC007B6AD31A022B01D9032319E24C4B5B6F8C
:103DDC0003F00203002BF0D018E0494B5B6F484A0C
:103DEC0023F001035367FFF751F9786208E0FFF7FE
:103DFC004DF902467B6AD31A022B01D90323FFE14A
:103E0C003F4B5B6F03F00203002BF0D17B681B6808
:103E1C0003F02003002B36D07B689B69002B19D054
:103E2C00374B1B68364A43F480531360FFF72EF967
:103E3C00786208E0FFF72AF902467B6AD31A022B54
:103E4C0001D90323DCE12E4B1B6803F40053002B38
:103E5C00F0D018E02A4B1B68294A23F480531360D6
:103E6C00FFF714F9786208E0FFF710F902467B6A55
:103E7C00D31A022B01D90323C2E1214B1B6803F493
:103E8C000053002BF0D17B681B6803F00403002B5C
:103E9C0000F086801B4B1B681A4A43F48073136036
:103EAC00FFF7F4F8786208E0FFF7F0F802467B6A57
:103EBC00D31A642B01D90323A2E1124B1B6803F420
:103ECC008073002BF0D07B689B68012B06D10C4BC8
:103EDC001B6F0B4A43F00103136732E07B689B684E
:103EEC00002B11D1064B1B6F054A23F001031367FE
:103EFC00034B1B6F024A23F00403136721E000BF3E
:103F0C0000440258004802587B689B68052B0CD172
:103F1C00834B1B6F824A43F004031367804B1B6F68
:103F2C007F4A43F0010313670BE07D4B1B6F7C4A08
:103F3C0023F0010313677A4B1B6F794A23F00403B8
:103F4C0013677B689B68002B15D0FFF79FF878628E
:103F5C000AE0FFF79BF802467B6AD31A41F28832DB
:103F6C00934201D903234BE16D4B1B6F03F002030A
:103F7C00002BEED014E0FFF789F878620AE0FFF727
:103F8C0085F802467B6AD31A41F28832934201D9F2
:103F9C00032335E1624B1B6F03F00203002BEED1C0
:103FAC007B685B6A002B00F02A815D4B1B6903F078
:103FBC003803182B00F0BA807B685B6A022B40F048
:103FCC009580574B1B68564A23F080731360FFF79C
:103FDC005DF8786208E0FFF759F802467B6AD31A5D
:103FEC00022B01D903230BE14D4B1B6803F000732B
:103FFC00002BF0D14A4B9A6A4A4B13407A68916A6B
:10400C007A68D26A12010A43454913438B627B6872
:10401C001B6B013BC3F308027B685B6B013B5B02D0
:10402C009BB21A437B689B6B013B1B0403F4FE039E
:10403C001A437B68DB6B013B1B0603F0FE433849DC
:10404C0013430B63364BDB6A354A23F00103D3620F
:10405C00334B5A6B344B13407A68926CD200304914
:10406C0013434B632E4BDB6A23F00C027B681B6CF7
:10407C002B491343CB622A4BDB6A23F002027B6889
:10408C005B6C27491343CB62254BDB6A244A43F410
:10409C008033D362224BDB6A214A43F40033D36270
:1040AC001F4BDB6A1E4A43F48023D3621C4BDB6A32
:1040BC001B4A43F00103D362194B1B68184A43F0A7
:1040CC0080731360FEF7E2FF786208E0FEF7DEFF14
:1040DC0002467B6AD31A022B01D9032390E0104BC2
:1040EC001B6803F00073002BF0D088E00C4B1B68AE
:1040FC000B4A23F080731360FEF7C8FF786208E068
:10410C00FEF7C4FF02467B6AD31A022B01D90323A4
:10411C0076E0034B1B6803F00073002BF0D16EE0CC
:10412C00004402580CFCFFFF0700FFFF364B9B6A54
:10413C003B61354B1B6BFB607B685B6A012B31D0A1
:10414C003B6903F003027B689B6A9A422AD13B6964
:10415C001B0903F03F027B68DB6A9A4222D1FB68A1
:10416C00C3F308027B681B6B013B9A421AD1FB68B4
:10417C005B0A03F07F027B685B6B013B9A4211D1B7
:10418C00FB681B0C03F07F027B689B6B013B9A4224
:10419C0008D1FB681B0E03F07F027B68DB6B013BD5
:1041AC009A4201D001232BE0174B5B6BDB08C3F366
:1041BC000C033B617B689B6C3A699A421FD0124B93
:1041CC00DB6A114A23F00103D362FEF75FFF7862CA
:1041DC0000BFFEF75BFF02467B6A9342F9D00A4BA5
:1041EC005A6B0A4B13407A68926CD20006491343FF
:1041FC004B63054BDB6A044A43F00103D362002393
:10420C0018463037BD4680BD004402580700FFFFFA
:10421C0080B586B000AF786039607B68002B01D127
:10422C0001239CE18A4B1B6803F00F033A689A4206
:10423C0010D9874B1B6823F00F0285493B68134349
:10424C000B60834B1B6803F00F033A689A4201D052
:10425C00012384E17B681B6803F00403002B10D05E
:10426C007B681A697B4B9B6903F070039A4208D9EF
:10427C00784B9B6923F070027B681B69754913436B
:10428C008B617B681B6803F00803002B10D07B68E4
:10429C005A69704BDB6903F070039A4208D96D4B75
:1042AC00DB6923F070027B685B696A491343CB615D
:1042BC007B681B6803F01003002B10D07B689A6995
:1042CC00644BDB6903F4E0639A4208D9614BDB6908
:1042DC0023F4E0627B689B695E491343CB617B6886
:1042EC001B6803F02003002B10D07B68DA69594B54
:1042FC001B6A03F070039A4208D9564B1B6A23F0D1
:10430C0070027B68DB69534913430B627B681B6843
:10431C0003F00203002B10D07B68DA684D4B9B69CD
:10432C0003F00F039A4208D94A4B9B6923F00F0202
:10433C007B68DB68474913438B617B681B6803F020
:10434C000103002B55D0434B9B6923F470627B68AF
:10435C009B68404913438B617B685B68022B07D1D8
:10436C003C4B1B6803F40033002B21D10123F6E0F6
:10437C007B685B68032B07D1364B1B6803F000731B
:10438C00002B15D10123EAE07B685B68012B07D178
:10439C00304B1B6803F48073002B09D10123DEE042
:1043AC002C4B1B6803F00403002B01D10123D6E036
:1043BC00284B1B6923F007027B685B682549134374
:1043CC000B61FEF763FE78610AE0FEF75FFE0246C2
:1043DC007B69D31A41F28832934201D90323BEE0A0
:1043EC001C4B1B6903F038027B685B68DB009A424C
:1043FC00EBD17B681B6803F00203002B10D07B68A9
:10440C00DA68144B9B6903F00F039A4208D2114BE4
:10441C009B6923F00F027B68DB680E4913438B61A9
:10442C000B4B1B6803F00F033A689A4214D2084BEB
:10443C001B6823F00F0206493B6813430B60044BC7
:10444C001B6803F00F033A689A4205D0012386E0FB
:10445C0000200052004402587B681B6803F00403E0
:10446C00002B10D07B681A693F4B9B6903F07003DB
:10447C009A4208D23C4B9B6923F070027B681B6903
:10448C00394913438B617B681B6803F00803002BCD
:10449C0010D07B685A69344BDB6903F070039A4285
:1044AC0008D2314BDB6923F070027B685B692E49C3
:1044BC001343CB617B681B6803F01003002B10D0F7
:1044CC007B689A69284BDB6903F4E0639A4208D253
:1044DC00254BDB6923F4E0627B689B69224913431B
:1044EC00CB617B681B6803F02003002B10D07B682A
:1044FC00DA691D4B1B6A03F070039A4208D21A4BFF
:10450C001B6A23F070027B68DB69174913430B624B
:10451C0000F034F80246144B9B691B0A03F00F039E
:10452C001249CB5C03F01F0322FA03F33B610E4BE1
:10453C009B6903F00F030D4AD35C03F01F033A6928
:10454C0022FA03F30A4A13600A4A3B6913600A4BC6
:10455C001B681846FEF750FD0346FB73FB7B1846A1
:10456C001837BD4680BD00BF004402584CB7000848
:10457C0004000020000000200800002080B489B056
:10458C0000AFB34B1B6903F03803182B00F25581B5
:10459C0001A252F823F000BF094600084748000862
:1045AC0047480008474800084748000847480008A3
:1045BC0047480008474800082F46000847480008AD
:1045CC004748000847480008474800084748000883
:1045DC004748000847480008354600084748000887
:1045EC004748000847480008474800084748000863
:1045FC0047480008474800083B460008944B1B6896
:10460C0003F02003002B09D0914B1B68DB0803F04F
:10461C000303904A22FA03F3BB6111E18D4BBB619A
:10462C000EE18D4BBB610BE18C4BBB6108E1884B00
:10463C009B6A03F003037B61854B9B6A1B0903F0A8
:10464C003F033B61824BDB6A03F00103FB60804B51
:10465C005B6BDB08C3F30C03FA6802FB03F307EE96
:10466C00903AF8EE677AC7ED027A3B69002B00F0BE
:10467C00E1807B69022B00F083807B69022B00F2C6
:10468C00A1807B69002B03D07B69012B56D099E06C
:10469C006F4B1B6803F02003002B2DD06C4B1B6859
:1046AC00DB0803F003036B4A22FA03F37B607B689D
:1046BC0007EE903AF8EE676A3B6907EE903AF8EE2F
:1046CC00677A86EEA77A624B1B6BC3F3080307EE7F
:1046DC00903AF8EE676A97ED026ADFED615AC6EE22
:1046EC00257A76EEA77AF7EE006A77EEA67A67EE71
:1046FC00277AC7ED077A87E03B6907EE903AF8EE28
:10470C00677ADFED586A86EEA77A514B1B6BC3F3C1
:10471C00080307EE903AF8EE676A97ED026ADFED50
:10472C00505AC6EE257A76EEA77AF7EE006A77EE47
:10473C00A67A67EE277AC7ED077A65E03B6907EE44
:10474C00903AF8EE677ADFED486A86EEA77A404B2E
:10475C001B6BC3F3080307EE903AF8EE676A97ED0C
:10476C00026ADFED3F5AC6EE257A76EEA77AF7EEAF
:10477C00006A77EEA67A67EE277AC7ED077A43E0F0
:10478C003B6907EE903AF8EE677ADFED386A86EE11
:10479C00A77A2F4B1B6BC3F3080307EE903AF8EE86
:1047AC00676A97ED026ADFED2E5AC6EE257A76EE31
:1047BC00A77AF7EE006A77EEA67A67EE277AC7ED4E
:1047CC00077A21E03B6907EE903AF8EE677ADFED65
:1047DC00266A86EEA77A1E4B1B6BC3F3080307EE03
:1047EC00903AF8EE676A97ED026ADFED1D5AC6EE55
:1047FC00257A76EEA77AF7EE006A77EEA67A67EE60
:10480C00277AC7ED077A00BF114B1B6B5B0A03F0CD
:10481C007F0301333B603B6807EE903AB8EE677A52
:10482C00D7ED076AC6EE877AFCEEE77A17EE903A78
:10483C00BB6105E00023BB6102E0074BBB6100BF1D
:10484C00BB6918462437BD465DF8047B704700BF32
:10485C00004402580090D00300093D0040787D01CF
:10486C00000000460024744C0024744A20BCBE4B4B
:10487C0080B582B000AFFFF781FE0246104B9B69FA
:10488C001B0A03F00F030F49CB5C03F01F0322FA42
:10489C0003F37B600A4B9B6903F00F03094AD35C5B
:1048AC0003F01F037A6822FA03F3074A1360074ADE
:1048BC007B681360044B1B6818460837BD4680BDE7
:1048CC00004402584CB700080400002000000020EF
:1048DC0080B500AFFFF7CCFF0246064BDB691B0926
:1048EC0003F007030449CB5C03F01F0322FA03F324
:1048FC00184680BD004402584CB7000880B500AF84
:10490C00FFF7B6FF0246064BDB691B0A03F00703F1
:10491C000449CB5C03F01F0322FA03F3184680BD55
:10492C00004402584CB700082DE9B04FC6B000AF98
:10493C00C7F80401002387F81731002387F81631D4
:10494C00D7F80431D3E9002302F00064002554EABF
:10495C00050349D0D7F804315B6EB3F5401F2FD057
:10496C00B3F5401F28D8B3F5001F1AD0B3F5001FBC
:10497C0022D8002B03D0B3F5801F07D01CE0AB4B23
:10498C00DB6AAA4A43F40033D3621AE0D7F8043145
:10499C0008330221184601F025FC034687F817312D
:1049AC000FE0D7F8043128330221184601F0CCFC73
:1049BC00034687F8173104E0012387F8173100E02C
:1049CC0000BF97F81731002B0AD1984B1B6D23F4BD
:1049DC004011D7F804315B6E944A0B43136503E026
:1049EC0097F8173187F81631D7F80431D3E900233B
:1049FC0002F480784FF0000958EA090347D0D7F841
:104A0C0004319B6D042B2AD801A252F823F000BF6D
:104A1C00314A00083F4A0008554A0008734A00080A
:104A2C00734A0008814BDB6A804A43F40033D3623B
:104A3C001AE0D7F8043108330021184601F0D2FBF4
:104A4C00034687F817310FE0D7F8043128330021DB
:104A5C00184601F079FC034687F8173104E001236E
:104A6C0087F8173100E000BF97F81731002B0AD1F7
:104A7C006E4B1B6D23F00701D7F804319B6D6B4A0D
:104A8C000B43136503E097F8173187F81631D7F805
:104A9C000431D3E9002302F4806A4FF0000B5AEA88
:104AAC000B035BD0D7F80431D3F8A430B3F5200F47
:104ABC003BD0B3F5200F34D8B3F5000F37D0B3F596
:104ACC00000F2ED8B3F5C00F33D0B3F5C00F28D8D4
:104ADC00B3F5800F1AD0B3F5800F22D8002B03D07A
:104AEC00B3F5001F07D01CE0504BDB6A4F4A43F470
:104AFC000033D3621EE0D7F8043108330021184686
:104B0C0001F070FB034687F8173113E0D7F8043136
:104B1C0028330021184601F017FC034687F817319B
:104B2C0008E0012387F8173104E000BF02E000BF62
:104B3C0000E000BF97F81731002B0BD13B4B9B6D5E
:104B4C0023F46001D7F80431D3F8A430374A0B436F
:104B5C00936503E097F8173187F81631D7F80431CD
:104B6C00D3E9002302F40063C7F8F8300023C7F838
:104B7C00FC30D7E93E120B4613435DD0D7F8043115
:104B8C00D3F8A830B3F1A06F3BD0B3F1A06F34D8F9
:104B9C00B3F1806F37D0B3F1806F2ED8B3F1407F73
:104BAC0033D0B3F1407F28D8B3F1007F1AD0B3F1E2
:104BBC00007F22D8002B03D0B3F1807F07D01CE0FC
:104BCC001A4BDB6A194A43F40033D3621EE0D7F860
:104BDC00043108330021184601F004FB034687F822
:104BEC00173113E0D7F8043128330021184601F0AF
:104BFC00ABFB034687F8173108E0012387F8173120
:104C0C0004E000BF02E000BF00E000BF97F81731DE
:104C1C00002B0DD1054B9B6D23F0E061D7F80431CF
:104C2C00D3F8A830014A0B43936505E000440258C1
:104C3C0097F8173187F81631D7F80431D3E90023E8
:104C4C0002F00073C7F8F0300023C7F8F430D7E94E
:104C5C003C120B4613433AD0D7F80431DB6C302BA3
:104C6C001FD0302B19D8202B0CD0202B15D8002B73
:104C7C0019D0102B11D1AA4BDB6AA94A43F400338B
:104C8C00D36211E0D7F8043108330221184601F041
:104C9C00A9FA034687F8173106E0012387F8173184
:104CAC0002E000BF00E000BF97F81731002B0AD1DB
:104CBC009B4BDB6C23F03001D7F80431DB6C984A4A
:104CCC000B43D36403E097F8173187F81631D7F804
:104CDC000431D3E9002302F48053C7F8E8300023F1
:104CEC00C7F8EC30D7E93A120B46134351D0D7F83A
:104CFC000431DB6DB3F5804F35D0B3F5804F2ED832
:104D0C00B3F5405F31D0B3F5405F28D8B3F5005F01
:104D1C001AD0B3F5005F22D8002B03D0B3F5805F17
:104D2C0007D01CE07E4BDB6A7D4A43F40033D36230
:104D3C001CE0D7F8043108330021184601F052FA70
:104D4C00034687F8173111E0D7F8043128330021D6
:104D5C00184601F0F9FA034687F8173106E00123EB
:104D6C0087F8173102E000BF00E000BF97F8173159
:104D7C00002B0AD16A4B1B6D23F4E041D7F80431A8
:104D8C00DB6D674A0B43136503E097F8173187F81F
:104D9C001631D7F80431D3E9002302F40053C7F8D5
:104DAC00E0300023C7F8E430D7E938120B46134340
:104DBC0053D0D7F804311B6EB3F5A02F33D0B3F515
:104DCC00A02F2CD8B3F5802F2FD0B3F5802F26D859
:104DDC00B3F5403F2BD0B3F5403F20D8B3F5003F9F
:104DEC0012D0B3F5003F1AD8002B22D0B3F5803F78
:104DFC0015D1D7F8043108330121184601F0F2F926
:104E0C00034687F8173115E0D7F804312833012110
:104E1C00184601F099FA034687F817310AE0012386
:104E2C0087F8173106E000BF04E000BF02E000BFC6
:104E3C0000E000BF97F81731002B0AD1384B1B6DDF
:104E4C0023F4E021D7F804311B6E354A0B4313656C
:104E5C0003E097F8173187F81631D7F80431D3E906
:104E6C00002302F48043C7F8D8300023C7F8DC30A5
:104E7C00D7E936120B46134358D0D7F80431D3F880
:104E8C00AC30B3F1A04F33D0B3F1A04F2CD8B3F169
:104E9C00804F2FD0B3F1804F26D8B3F1405F2BD089
:104EAC00B3F1405F20D8B3F1005F12D0B3F1005FD3
:104EBC001AD8002B22D0B3F1805F15D1D7F804316A
:104ECC0008330121184601F08DF9034687F8173194
:104EDC0015E0D7F8043128330121184601F034FAD3
:104EEC00034687F817310AE0012387F8173106E0EB
:104EFC0000BF04E000BF02E000BF00E000BF97F875
:104F0C001731002B0ED1064B9B6D23F0E041D7F8E7
:104F1C000431D3F8AC30024A0B43936506E000BF72
:104F2C000044025897F8173187F81631D7F8043136
:104F3C00D3E9002302F40043C7F8D0300023C7F8AC
:104F4C00D430D7E934120B46134337D0D7F8043199
:104F5C00DB6EB3F1005F0ED0B3F1005F16D8002BFF
:104F6C0018D0B3F1805F11D1C44BDB6AC34A43F450
:104F7C000033D3620FE0D7F804310833012118460F
:104F8C0001F030F9034687F8173104E0012387F864
:104F9C00173100E000BF97F81731002B0AD1B74B3F
:104FAC001B6D23F04051D7F80431DB6EB34A0B4331
:104FBC00136503E097F8173187F81631D7F80431E9
:104FCC00D3E9002302F08073C7F8C8300023C7F878
:104FDC00CC30D7E932120B46134339D0D7F8043111
:104FEC009B6C032B1CD801A252F823F035500008FF
:104FFC000950000817500008355000089F4BDB6A19
:10500C009E4A43F40033D3620FE0D7F804310833DF
:10501C000221184601F0E6F8034687F8173104E040
:10502C00012387F8173100E000BF97F81731002BE8
:10503C000AD1924BDB6C23F00301D7F804319B6C43
:10504C008E4A0B43D36403E097F8173187F8163177
:10505C00D7F80431D3E9002302F48003C7F8C03039
:10506C000023C7F8C430D7E930120B46134300F0C5
:10507C009980834B1B68824A43F480731360FEF75C
:10508C0005F8C7F810010BE0FEF700F80246D7F858
:10509C001031D31A642B03D9032387F8173105E099
:1050AC00774B1B6803F48073002BEDD097F8173106
:1050BC00002B73D1714B1A6FD7F80431D3F8B03081
:1050CC00534003F44073002B15D06C4B1B6F23F42F
:1050DC004073C7F80C31694B1B6F684A43F480333B
:1050EC001367664B1B6F654A23F480331367634A5F
:1050FC00D7F80C311367D7F80431D3F8B030B3F5C7
:10510C00807F18D1FDF7C2FFC7F810010DE0FDF745
:10511C00BDFF0246D7F81031D21A41F288339A42B9
:10512C0003D9032387F8173105E0544B1B6F03F0A9
:10513C000203002BEBD097F81731002B29D1D7F8AD
:10514C000431D3F8B03003F44073B3F5407F0ED183
:10515C004A4B1B6923F47C51D7F80431D3F8B03097
:10516C001A09484B1340454A0B43136105E0434B66
:10517C001B69424A23F47C531361404B196FD7F8D7
:10518C000431D3F8B030C3F30B033C4A0B43136721
:10519C0008E097F8173187F8163103E097F81731C4
:1051AC0087F81631D7F80431D3E9002302F0010354
:1051BC00C7F8B8300023C7F8BC30D7E92E120B461D
:1051CC00134300F08F80D7F804319B6F282B71D8D4
:1051DC0001A252F823F000BFC9520008C1520008C6
:1051EC00C1520008C1520008C1520008C152000847
:1051FC00C1520008C152000895520008C152000863
:10520C00C1520008C1520008C1520008C152000826
:10521C00C1520008C1520008AB520008C15200082C
:10522C00C1520008C1520008C1520008C152000806
:10523C00C1520008C1520008C9520008C1520008EE
:10524C00C1520008C1520008C1520008C1520008E6
:10525C00C1520008C1520008C9520008C1520008CE
:10526C00C1520008C1520008C1520008C1520008C6
:10527C00C1520008C1520008C9520008004402582B
:10528C0000480258CFFFFF00D7F804310833012142
:10529C00184600F0A7FF034687F817310FE0D7F840
:1052AC00043128330121184601F04EF8034687F8E3
:1052BC00173104E0012387F8173100E000BF97F89D
:1052CC001731002B0AD1BF4B5B6D23F03801D7F897
:1052DC0004319B6FBB4A0B43536503E097F81731BE
:1052EC0087F81631D7F80431D3E9002302F0020312
:1052FC00C7F8B0300023C7F8B430D7E92C120B46EE
:10530C00134341D0D7F804315B6F052B24D801A28D
:10531C0052F823F06D530008395300084F5300081E
:10532C006D5300086D5300086D530008D7F8043115
:10533C0008330121184600F055FF034687F8173152
:10534C000FE0D7F8043128330121184600F0FCFF98
:10535C00034687F8173104E0012387F8173100E082
:10536C0000BF97F81731002B0AD1964B5B6D23F0D9
:10537C000701D7F804315B6F924A0B43536503E086
:10538C0097F8173187F81631D7F80431D3E9002391
:10539C0002F00403C7F8A8300023C7F8AC30D7E9F3
:1053AC002A120B46134344D0D7F80431D3F890306B
:1053BC00052B25D801A252F823F000BF1554000884
:1053CC00E1530008F7530008155400081554000861
:1053DC0015540008D7F8043108330121184600F0A1
:1053EC0001FF034687F817310FE0D7F80431283353
:1053FC000121184600F0A8FF034687F8173104E096
:10540C00012387F8173100E000BF97F81731002B04
:10541C000BD16C4B9B6D23F00701D7F80431D3F8FB
:10542C009030684A0B43936503E097F8173187F87F
:10543C001631D7F80431D3E9002302F02003C7F862
:10544C00A0300023C7F8A430D7E928120B46134329
:10545C0055D0D7F80431D3F88C30B3F1A04F33D0FA
:10546C00B3F1A04F2CD8B3F1804F2FD0B3F1804FB4
:10547C0026D8B3F1405F2BD0B3F1405F20D8B3F105
:10548C00005F12D0B3F1005F1AD8002B22D0B3F119
:10549C00805F15D1D7F8043108330021184600F08D
:1054AC00A1FE034687F8173115E0D7F804312833ED
:1054BC000221184600F048FF034687F817310AE02E
:1054CC00012387F8173106E000BF04E000BF02E0BB
:1054DC0000BF00E000BF97F81731002B0BD1394B00
:1054EC005B6D23F0E041D7F80431D3F88C30354AAA
:1054FC000B43536503E097F8173187F81631D7F84B
:10550C000431D3E9002302F04003C7F8983000239C
:10551C00C7F89C30D7E926120B46134358D0D7F85E
:10552C000431D3F89830B3F5A05F33D0B3F5A05F56
:10553C002CD8B3F5805F2FD0B3F5805F26D8B3F5A8
:10554C00406F2BD0B3F5406F20D8B3F5006F12D05D
:10555C00B3F5006F1AD8002B22D0B3F5806F15D19C
:10556C00D7F8043108330021184600F03BFE0346FF
:10557C0087F8173115E0D7F8043128330221184683
:10558C0000F0E2FE034687F817310AE0012387F8A2
:10559C00173106E000BF04E000BF02E000BF00E0EE
:1055AC0000BF97F81731002B0ED1064B9B6D23F4DF
:1055BC00E051D7F80431D3F89830024A0B43936585
:1055CC0006E000BF0044025897F8173187F81631EF
:1055DC00D7F80431D3E9002302F08003C7F89030E8
:1055EC000023C7F89430D7E924120B46134355D047
:1055FC00D7F80431D3F89C30B3F5204F33D0B3F542
:10560C00204F2CD8B3F5004F2FD0B3F5004F26D830
:10561C00B3F5C04F2BD0B3F5C04F20D8B3F5804FA6
:10562C0012D0B3F5804F1AD8002B22D0B3F5005FFF
:10563C0015D1D7F8043108330021184600F0D2FDFB
:10564C00034687F8173115E0D7F8043128330221C7
:10565C00184600F079FE034687F817310AE001235B
:10566C0087F8173106E000BF04E000BF02E000BF7E
:10567C0000E000BF97F81731002B0BD1A04B9B6DAE
:10568C0023F46041D7F80431D3F89C309C4A0B4387
:10569C00936503E097F8173187F81631D7F8043182
:1056AC00D3E9002302F00803C7F888300023C7F8B9
:1056BC008C30D7E922120B4613431ED0D7F8043195
:1056CC00D3F88030B3F5805F0CD1D7F80431283390
:1056DC000221184600F038FE0346002B02D00123AD
:1056EC0087F81631864B5B6D23F44051D7F80431A3
:1056FC00D3F88030824A0B435365D7F80431D3E991
:10570C00002302F01003C7F880300023C7F8843060
:10571C00D7E920120B4613431ED0D7F80431D3F827
:10572C009430B3F5807F0CD1D7F8043128330221A3
:10573C00184600F009FE0346002B02D0012387F81F
:10574C0016316F4B9B6D23F44071D7F80431D3F8AD
:10575C0094306B4A0B439365D7F80431D3E900239B
:10576C0002F40023BB670023FB67D7E91E120B462C
:10577C0013433ED0D7F80431D3F8A030B3F5003F33
:10578C0022D0B3F5003F1BD8002B03D0B3F5803FDC
:10579C000BD015E0D7F8043108330021184600F07F
:1057AC0021FD034687F817310FE0D7F80431283371
:1057BC000221184600F0C8FD034687F8173104E0B3
:1057CC00012387F8173100E000BF97F81731002B41
:1057DC000BD14B4B9B6D23F44031D7F80431D3F8EC
:1057EC00A030474A0B43936503E097F8173187F8CD
:1057FC001631D7F80431D3E9002302F480233B6738
:10580C0000237B67D7E91C120B4613433BD0D7F818
:10581C000431D3F88430B3F5401F1FD0B3F5401FCB
:10582C0018D8B3F5801F03D0B3F5001F07D011E0D3
:10583C00334BDB6A324A43F40033D3620FE0D7F8C0
:10584C00043128330121184600F07EFD034687F809
:10585C00173104E0012387F8173100E000BF97F8F7
:10586C001731002B0BD1264B5B6D23F44011D7F86D
:10587C000431D3F88430224A0B43536503E097F884
:10588C00173187F81631D7F80431D3E9002302F425
:10589C008033BB660023FB66D7E91A120B46134311
:1058AC0034D0D7F804311B6D002B03D0B3F5803FF7
:1058BC0007D011E0124BDB6A114A43F40033D36278
:1058CC000EE0D7F8043108330221184600F08AFCA8
:1058DC00034687F8173103E0012387F8173100BF1F
:1058EC0097F81731002B0DD1054BDB6C23F480316D
:1058FC00D7F804311B6D024A0B43D36406E000BF9A
:10590C000044025897F8173187F81631D7F804314C
:10591C00D3E9002302F000533B6600237B66D7E9F2
:10592C0018120B4613430CD0D7F80431283302213C
:10593C00184600F009FD0346002B02D0012387F81E
:10594C001631D7F80431D3E9002302F40033BB65D8
:10595C000023FB65D7E916120B46134336D0D7F854
:10596C000431DB6FB3F5407F18D0B3F5407F11D80D
:10597C00B3F5007F14D0B3F5007F0BD8002B11D0FA
:10598C00B3F5807F06D1B74BDB6AB64A43F40033DC
:10599C00D36208E0012387F8173104E000BF02E06E
:1059AC0000BF00E000BF97F81731002B0AD1AD4BB8
:1059BC005B6D23F44071D7F80431DB6FA94A0B43BC
:1059CC00536503E097F8173187F81631D7F804318F
:1059DC00D3E9002302F480133B6500237B65D7E9F0
:1059EC0014120B46134309D09E4B1B6D23F0004140
:1059FC00D7F804311B6F9B4A0B431365D7F804315E
:105A0C00D3E9002302F40013BB640023FB64D7E941
:105A1C0012120B46134309D0924B1B6D23F080716D
:105A2C00D7F804319B6E8F4A0B431365D7F80431BA
:105A3C00D3E9002302F080433B6400237B64D7E965
:105A4C0010120B4613430ED0864B1B69854A23F468
:105A5C0000431361834B1969D7F80431D3F8B43080
:105A6C00804A0B431361D7F80431D3E9002302F0C9
:105A7C000043BB630023FB63D7E90E120B461343B1
:105A8C0009D0784BDB6C23F04051D7F804315B6DB7
:105A9C00744A0B43D364D7F80431D3E9002302F4DE
:105AAC0000033B6300237B63D7E90C120B461343C3
:105ABC000AD06C4B5B6D23F44001D7F80431D3F85A
:105ACC008830684A0B435365D7F80431D3E9002377
