:020000040800F2
:1000000000000220CD5D0008650900086D090008A8
:10001000750900087D090008850900080000000036
:100020000000000000000000000000008D09000832
:100030009B09000800000000A9090008B709000892
:10004000215E0008215E0008215E0008215E000894
:10005000215E0008215E0008215E0008215E000884
:10006000215E0008215E0008215E0008C509000825
:10007000215E0008215E0008215E0008215E000864
:10008000215E0008215E0008215E0008215E000854
:10009000215E0008215E0008215E0008215E000844
:1000A000215E0008215E0008215E0008215E000834
:1000B000215E0008215E0008215E0008215E000824
:1000C000215E0008215E0008215E0008215E000814
:1000D000215E0008D9090008E10B0008215E000834
:1000E000215E0008215E000800000000215E00087B
:1000F000215E0008215E0008215E0008215E0008E4
:10010000215E0008215E0008215E0008215E0008D3
:10011000F50B0008090C00081D0C0008215E000802
:10012000215E0008215E0008215E0008215E0008B3
:10013000215E0008215E0008215E0008215E0008A3
:1001400000000000000000000000000000000000AF
:10015000215E0008215E0008215E0008310C0008C5
:10016000215E0008215E0008215E0008215E000873
:10017000215E0008215E0008215E000800000000EA
:10018000215E0008215E0008215E0008215E000853
:10019000215E0008215E0008215E0008215E000843
:1001A000215E0008215E0008215E000800000000BA
:1001B000215E0008215E0008215E0008215E000823
:1001C000215E0008215E0008000000000000000021
:1001D0000000000000000000215E00080000000098
:1001E000000000000000000000000000000000000F
:1001F0000000000000000000215E0008215E0008F1
:10020000215E0008215E000800000000215E000859
:10021000215E0008215E0008215E0008215E0008C2
:10022000215E000800000000215E000800000000C0
:10023000215E0008215E000800000000215E000829
:10024000215E0008215E0008215E0008215E000892
:10025000215E0008215E0008215E0008215E000882
:10026000215E0008215E0008215E0008215E000872
:10027000215E0008215E0008215E000800000000E9
:10028000215E0008215E0008215E0008215E000852
:1002900000000000215E0008215E00080000000050
:1002A00000000000215E0008215E0008215E0008B9
:1002B000215E0008215E0008215E0008215E000822
:0C02C000215E0008215E0008215E00089D
:1002CC007BB972B90029BEBF00204FF0004106E097
:1002DC0008BF00281CBF6FF000414FF0FF3000F04A
:1002EC0057B8ADF1080C6DE904CE002909DB002BE1
:1002FC001ADB11F06FF8DDF804E0DDE9022304B03D
:10030C007047404261EB4101002B1BDB11F062F89E
:10031C00DDF804E0DDE9022304B0404261EB410169
:10032C00524263EB43037047524263EB430311F0B9
:10033C0051F8DDF804E0DDE9022304B0404261EB42
:10034C0041017047524263EB430311F043F8DDF86F
:10035C0004E0DDE9022304B0524263EB430370472F
:10036C0053B94AB9002908BF00281CBF4FF0FF3110
:10037C004FF0FF3000F00CB8ADF1080C6DE904CE75
:10038C0011F028F8DDF804E0DDE9022304B0704731
:10039C00704700BF0348044B834202D0034B03B1A8
:1003AC00184770476800002068000020000000001B
:1003BC000548064B1B1AD90F01EBA301491002D0BB
:1003CC00034B03B1184770476800002068000020F9
:1003DC000000000010B5064C237843B9FFF7DAFF94
:1003EC00044B13B10448AFF300800123237010BDFC
:1003FC0080000020000000009C16010808B5054B89
:10040C001BB105490548AFF30080BDE80840FFF774
:10041C00CFBF00BF00000000840000209C16010824
:10042C0080B582B000AF0D4BD3F8D8300B4A43F0F7
:10043C000103C2F8D830094BD3F8D83003F00103CC
:10044C007B607B68002200210B2005F076FE0B20E0
:10045C0005F08DFE00BF0837BD4680BD0044025834
:10046C0080B58EB000AF07F1240300221A605A60E9
:10047C009A60DA601A61664BD3F8E030644A43F054
:10048C000403C2F8E030624BD3F8E03003F004030D
:10049C003B623B6A5E4BD3F8E0305D4A43F080032D
:1004AC00C2F8E0305A4BD3F8E03003F08003FB6124
:1004BC00FB69574BD3F8E030554A43F00103C2F8BF
:1004CC00E030534BD3F8E03003F00103BB61BB6960
:1004DC004F4BD3F8E0304E4A43F00203C2F8E03001
:1004EC004B4BD3F8E03003F002037B617B69484B44
:1004FC00D3F8E030464A43F02003C2F8E030444BD6
:10050C00D3F8E03003F020033B613B69404BD3F858
:10051C00E0303F4A43F01003C2F8E0303C4BD3F8D4
:10052C00E03003F01003FB60FB68394BD3F8E0308C
:10053C00374A43F00803C2F8E030354BD3F8E030CB
:10054C0003F00803BB60BB68314BD3F8E030304A92
:10055C0043F04003C2F8E0302D4BD3F8E03003F009
:10056C0040037B607B6800224FF40C51294808F053
:10057C0071FE00220321284808F06CFE00224FF483
:10058C000041264808F066FE00221821244808F095
:10059C0061FE4FF40C537B620123BB620223FB62AE
:1005AC0000233B6307F1240319461A4808F0AAFC00
:1005BC0003237B620123BB620223FB6200233B63A8
:1005CC0007F124031946144808F09CFC4FF400432F
:1005DC007B620123BB620223FB6200233B6307F1B6
:1005EC00240319460D4808F08DFC18237B62012367
:1005FC00BB620223FB6200233B6307F12403194611
:10060C00074808F07FFC00BF3837BD4680BD00BFEF
:10061C000044025800080258000402580010025806
:10062C00000C025880B500AF1B4B1C4A1A601A4BC9
:10063C001B4A5A60184B00229A60174B0122DA6051
:10064C00154B00221A61144B00225A61124B0022E6
:10065C009A61114B0022DA610F4B00221A620E488C
:10066C0008F012FE0346002B01D000F055F90021D2
:10067C00094809F059FB0346002B01D000F04CF956
:10068C000021054809F09BFB0346002B01D000F02C
:10069C0043F900BF80BD00BF9C0000200054004007
:1006AC00724E406080B5B8B000AF786007F1CC03F3
:1006BC0000221A605A609A60DA601A6107F110031E
:1006CC00B8220021184610F0B3FD7B681B68264A3F
:1006DC00934245D14FF008024FF00003C7E90423C1
:1006EC000023C7F8903007F1100318460AF054FBAA
:1006FC000346002B01D000F00FF91C4BD3F8E0306F
:10070C001A4A43F00203C2F8E030184BD3F8E03039
:10071C0003F00203FB60FB68C023C7F8CC30122344
:10072C00C7F8D0300023C7F8D4300023C7F8D8302E
:10073C000423C7F8DC3007F1CC0319460C4808F049
:10074C00E1FB0A4BD3F8E830084A43F40013C2F833
:10075C00E830064BD3F8E83003F40013BB60BB68F9
:10076C0000BFE037BD4680BD005400400044025835
:10077C000004025880B500AF00F0A2F805F04CFB65
:10078C0000F030F8FFF76CFEFFF74AFEFFF74AFF68
:10079C0001F054F800F028FE01F0E8F800F08AFCB3
:1007AC0001F030F901F096F801F078F900F046FB11
:1007BC0000F0F8FC00F0E0FD00F0FAFB00F08CFD1E
:1007CC0002F0A6FD04480CF0A7F91E2203490448C8
:1007DC000DF098FD00BFFDE7A002002000010020F5
:1007EC006004002080B59CB000AF07F124034C22BC
:1007FC000021184610F01CFD3B1D2022002118463C
:10080C0010F016FD022009F027FB00233B602B4B58
:10081C009B692A4A23F440439361284B9B6903F458
:10082C0040433B603B6800BF244B9B6903F400537F
:10083C00B3F5005FF8D101237B624FF48033BB62C8
:10084C000223BB640223FB6402233B652C237B65E0
:10085C000123BB650223FB6502233B660C237B66ED
:10086C000023BB660023FB6607F12403184609F03E
:10087C002DFB0346002B01D000F04EF83F237B608C
:10088C000323BB600023FB6008233B6140237B6197
:10089C004023BB614FF48063FB6140233B623B1DF3
:1008AC000321184609F0ECFE0346002B01D000F0A2
:1008BC0033F800BF7037BD4680BD00BF00480258FA
:1008CC0080B584B000AF3B4600221A605A609A6033
:1008DC00DA6005F067FC01233B7000237B7000237A
:1008EC007B601F233B7287237B720023BB72002328
:1008FC00FB7201233B7301237B730023BB73002327
:10090C00FB733B46184605F085FC042005F062FCA1
:10091C0000BF1037BD4680BD80B400AF72B600BFBB
:10092C0000BFFDE780B483B000AF0A4BD3F8F430BE
:10093C00084A43F00203C2F8F430064BD3F8F43003
:10094C0003F002037B607B6800BF0C37BD465DF88B
:10095C00047B70470044025880B400AF00BFFDE731
:10096C0080B400AF00BFFDE780B400AF00BFFDE76F
:10097C0080B400AF00BFFDE780B400AF00BFFDE75F
:10098C0080B400AF00BFBD465DF8047B704780B4F7
:10099C0000AF00BFBD465DF8047B704780B400AF6C
:1009AC0000BFBD465DF8047B704780B500AF05F015
:1009BC00A5FA00BF80BD000080B500AF024806F06C
:1009CC008FFF00BF80BD00BF1C06002080B586B025
:1009DC0000AF6C4B1B68DB6903F01003102B40F06D
:1009EC00C980684B1B6810221A62664BD3F88030A2
:1009FC001B68654A934268D0624BD3F880301B6801
:100A0C00624A934261D05F4BD3F880301B68604AD6
:100A1C0093425AD05B4BD3F880301B685D4A9342AB
:100A2C0053D0584BD3F880301B685B4A93424CD060
:100A3C00544BD3F880301B68584A934245D0514BE5
:100A4C00D3F880301B68564A93423ED04D4BD3F8B6
:100A5C0080301B68534A934237D04A4BD3F88030CE
:100A6C001B68514A934230D0464BD3F880301B68F8
:100A7C004E4A934229D0434BD3F880301B684C4AE2
:100A8C00934222D03F4BD3F880301B68494A9342A3
:100A9C001BD03C4BD3F880301B68474A934214D090
:100AAC00384BD3F880301B68444A93420DD0354BF9
:100ABC00D3F880301B68424A934206D0314BD3F8AE
:100ACC0080301B683F4A934209D12E4BD3F88030BB
:100ADC001B685B689BB2C3F11E039BB208E0294BF9
:100AEC00D3F880301B685B689BB2C3F11E039BB2CA
:100AFC00FB82FB8A1E2B38D1334B3B611E23FB60E0
:100B0C00FB68002B1DDD3B6903F01F02FB681344DF
:100B1C00BB603B697B60BFF34F8F00BF2B4A7B6888
:100B2C00C2F85C327B6820337B60BB68203BBB60C7
:100B3C00BB68002BF2DCBFF34F8F00BFBFF36F8F8E
:100B4C0000BF00BF204B1B78802B0ED11E4B5B7857
:100B5C00012B0AD11C4B1B7F0D2B06D11A4B5B7F33
:100B6C000A2B02D11A4B01221A701E221649054873
:100B7C000DF0C8FB03480DF011FC00BF1837BD4643
:100B8C0080BD00BF6004002010000240280002401D
:100B9C0040000240580002407000024088000240B1
:100BAC00A0000240B8000240100402402804024099
:100BBC004004024058040240700402408804024081
:100BCC00A0040240B80402400001002000ED00E047
:100BDC001E01002080B500AF02480DF0DFFB00BF06
:100BEC0080BD00BFF404002080B500AF02480DF0BA
:100BFC00D5FB00BF80BD00BF3803002080B500AF1F
:100C0C0002480DF0CBFB00BF80BD00BFCC03002021
:100C1C0080B500AF02480CF083F900BF80BD00BF67
:100C2C00A002002080B500AF02480DF0B7FB00BF5A
:100C3C0080BD00BF8805002080B400AF012318469A
:100C4C00BD465DF8047B704780B582B000AF78601C
:100C5C00396010F049FB034616221A604FF0FF333F
:100C6C0018460837BD4680BD80B582B000AF7860AD
:100C7C004FF0FF317868FFF7E7FF00BFFDE700009A
:100C8C0080B586B000AF7860144A154BD31A7B61DF
:100C9C007B693B61134B1B68002B02D1114B124A31
:100CAC001A60104B1A687B6813443A699A4207D24F
:100CBC0010F01AFB03460C221A604FF0FF3309E0C8
:100CCC00084B1B68FB60074B1A687B681344054A8A
:100CDC001360FB6818461837BD4680BD0000022023
:100CEC000004000020010020D808002080B400AFD0
:100CFC003E4BD3F888303D4A43F47003C2F8883039
:100D0C003B4B1B6803F00F03062B07D8384B1B68B3
:100D1C0023F00F03364A43F007031360354B1B686F
:100D2C00344A43F001031360324B00221A61314BF9
:100D3C001A683049304B13400B602D4B1B6803F085
:100D4C000803002B07D02A4B1B6823F00F03284AFB
:100D5C0043F007031360274B00229A61254B0022B6
:100D6C00DA61244B00221A62224B244A9A62214BEC
:100D7C00234ADA621F4B234A1A631E4B00225A6322
:100D8C001C4B204A9A631B4B0022DA63194B1D4AF9
:100D9C001A64184B00225A64164B1B68154A23F42C
:100DAC0080231360134B00221A66124BD3F8D430F5
:100DBC0003F48053002B13D10E4BD3F8D4300D4ACF
:100DCC0043F48053C2F8D4300F4B43F2D2021A6072
:100DDC00084BD3F8D430074A23F48053C2F8D430EC
:100DEC0000BFBD465DF8047B704700BF00ED00E01E
:100DFC0000200052004402587FEDF6EA0002020285
:100E0C000000FF01800201010040005280B400AFDD
:100E1C00094BDB68084A43F00203D36000BF064B62
:100E2C005B6803F40053002BF9D000BF00BFBD4634
:100E3C005DF8047B704700BF0048025880B59CB039
:100E4C0000AF07F1600300221A605A609A60DA6002
:100E5C0007F1540300221A605A609A6007F13803B4
:100E6C0000221A605A609A60DA601A615A619A61BB
:100E7C003B1D34220021184610F0DAF94A4B4B4A3C
:100E8C001A60494B4FF489725A60474B00229A60A2
:100E9C00454B44F61F62DA60434B00221A61424B09
:100EAC0000225A61404B00229A613F480BF036FDFC
:100EBC000346002B01D0FFF72FFD4FF480533B6608
:100ECC0007F16003194638480CF046FA0346002B2C
:100EDC0001D0FFF721FD34480BF0A4FE0346002B94
:100EEC0001D0FFF719FD00237B650023BB650023B0
:100EFC00FB6507F1540319462B480CF093FF03468E
:100F0C00002B01D0FFF708FD6023BB630023FB63BC
:100F1C0000233B6400237B640023BB640023FB643D
:100F2C0000233B6507F13803082219461E480CF0D4
:100F3C00FFF80346002B01D0FFF7EEFC07F1380356
:100F4C000C22194618480CF0F3F80346002B01D07C
:100F5C00FFF7E2FC00237B600023BB600023FB60F7
:100F6C0000233B6100237B614FF40053BB610023E2
:100F7C00FB6100237B624FF00073BB620023FB62BA
:100F8C0000237B633B1D194607480CF0E7FF034623
:100F9C00002B01D0FFF7C0FC034800F06FFB00BF33
:100FAC007037BD4680BD00BF240100200000014009
:100FBC0080B58EB000AF07F1280300221A605A608A
:100FCC009A60DA6007F11C0300221A605A609A607A
:100FDC003B4600221A605A609A60DA601A615A61C4
:100FEC009A61334B4FF080421A60314B4FF4897247
:100FFC005A602F4B00229A602D4B6322DA602C4BE7
:10100C0000221A612A4B00229A6129480BF086FCB7
:10101C000346002B01D0FFF77FFC4FF48053BB62DB
:10102C0007F12803194622480CF096F90346002BC9
:10103C0001D0FFF771FC1E480BF0F4FD0346002BAA
:10104C0001D0FFF769FC0023FB6100237B6207F1F1
:10105C001C03194616480CF0E5FE0346002B01D084
:10106C00FFF75AFC60233B6000237B600023BB60CE
:10107C0000233B613B46042219460D480CF058F8FE
:10108C000346002B01D0FFF747FC3B4608221946CC
:10109C0007480CF04DF80346002B01D0FFF73CFC41
:1010AC00034800F0EBFA00BF3837BD4680BD00BFE7
:1010BC007001002080B58EB000AF07F1280300222C
:1010CC001A605A609A60DA6007F11C0300221A60F9
:1010DC005A609A603B4600221A605A609A60DA6045
:1010EC001A615A619A612D4B2D4A1A602B4B4FF4A1
:1010FC0089725A60294B00229A60284B4FF6FF7276
:10110C00DA60264B00221A61244B00229A61234894
:10111C000BF004FC0346002B01D0FFF7FDFB4FF452
:10112C008053BB6207F1280319461C480CF014F9D4
:10113C000346002B01D0FFF7EFFB18480BF072FDB4
:10114C000346002B01D0FFF7E7FB0023FB610023D4
:10115C007B6207F11C03194610480CF063FE034632
:10116C00002B01D0FFF7D8FB60233B6000237B6092
:10117C000023BB6000233B613B4600221946074815
:10118C000BF0D6FF0346002B01D0FFF7C5FB03483D
:10119C0000F074FA00BF3837BD4680BDBC0100209A
:1011AC000004004080B58EB000AF07F12803002288
:1011BC001A605A609A60DA6007F11C0300221A6008
:1011CC005A609A603B4600221A605A609A60DA6054
:1011DC001A615A619A613E4B3E4A1A603C4B4FF47D
:1011EC0089725A603A4B00229A60394B44F61F625E
:1011FC00DA60374B00221A61354B00229A61344871
:10120C000BF08CFB0346002B01D0FFF785FB4FF452
:10121C008053BB6207F1280319462D480CF09CF84B
:10122C000346002B01D0FFF777FB29480BF0FAFCA3
:10123C000346002B01D0FFF76FFB0023FB6100235B
:10124C007B6207F11C03194621480CF0EBFD0346A9
:10125C00002B01D0FFF760FB60233B6000237B6019
:10126C000023BB6000233B613B4600221946184813
:10127C000BF05EFF0346002B01D0FFF74DFB3B4606
:10128C000422194612480BF053FF0346002B01D0E1
:10129C00FFF742FB3B46082219460D480BF048FF6E
:1012AC000346002B01D0FFF737FB3B460C221946B7
:1012BC0007480BF03DFF0346002B01D0FFF72CFB3A
:1012CC00034800F0DBF900BF3837BD4680BD00BFD6
:1012DC00080200200008004080B588B000AF07F17C
:1012EC00100300221A605A609A60DA603B1D0022DB
:1012FC001A605A609A601E4B1E4A1A601C4B4FF4BF
:10130C0089725A601A4B00229A60194B4FF0FF32C7
:10131C00DA60174B00221A61154B00229A611448AF
:10132C000BF0FCFA0346002B01D0FFF7F5FA4FF453
:10133C0080533B6107F1100319460D480CF00CF873
:10134C000346002B01D0FFF7E7FA00237B60002354
:10135C00FB603B1D194606480CF064FD0346002B50
:10136C0001D0FFF7D9FA00BF2037BD4680BD00BFC2
:10137C0054020020000C004080B584B000AF3B1D2F
:10138C0000221A605A609A60154B164A1A60144B68
:10139C004FF489725A60124B00229A60104B42F241
:1013AC000F72DA600E4B00229A610D480BF0B6FA00
:1013BC000346002B01D0FFF7AFFA00237B6000231C
:1013CC00FB603B1D194606480CF02CFD0346002B18
:1013DC0001D0FFF7A1FA00BF1037BD4680BD00BF9A
:1013EC00A00200200010004080B58EB000AF07F1C5
:1013FC00280300221A605A609A60DA6007F11C0315
:10140C0000221A605A609A603B4600221A605A60A9
:10141C009A60DA601A615A619A613E4B3E4A1A60D0
:10142C003C4B4FF489725A603A4B00229A60394B0C
:10143C0044F61F62DA60374B00221A61354B0022EA
:10144C009A6134480BF06AFA0346002B01D0FFF77F
:10145C0063FA4FF48053BB6207F1280319462D48F9
:10146C000BF07AFF0346002B01D0FFF755FA294801
:10147C000BF0D8FB0346002B01D0FFF74DFA0023ED
:10148C00FB6100237B6207F11C03194621480CF019
:10149C00C9FC0346002B01D0FFF73EFA60233B60EA
:1014AC0000237B600023BB6000233B613B46002292
:1014BC00194618480BF03CFE0346002B01D0FFF7F1
:1014CC002BFA3B460422194612480BF031FE034618
:1014DC00002B01D0FFF720FA3B46082219460D4895
:1014EC000BF026FE0346002B01D0FFF715FA3B4606
:1014FC000C22194607480BF01BFE0346002B01D0AB
:10150C00FFF70AFA034800F0B9F800BF3837BD46B8
:10151C0080BD00BFEC02002000E4004080B58AB022
:10152C0000AF78607B681B684D4A93420FD14D4BDE
:10153C00D3F8F0304B4A43F00103C2F8F030494B7A
:10154C00D3F8F03003F001037B627B6A84E07B68A4
:10155C001B68B3F1804F0FD1424BD3F8E830414AAE
:10156C0043F00103C2F8E8303E4BD3F8E83003F007
:10157C0001033B623B6A6FE07B681B683A4A93420B
:10158C000FD1384BD3F8E830364A43F00203C2F897
:10159C00E830344BD3F8E83003F00203FB61FB690D
:1015AC005AE07B681B68314A93420FD12D4BD3F81C
:1015BC00E8302C4A43F00403C2F8E830294BD3F846
:1015CC00E83003F00403BB61BB6945E07B681B6832
:1015DC00274A93420FD1234BD3F8E830214A43F0EA
:1015EC000803C2F8E8301F4BD3F8E83003F00803C7
:1015FC007B617B6930E07B681B681E4A934217D184
:10160C00184BD3F8E830174A43F01003C2F8E8300F
:10161C00144BD3F8E83003F010033B613B69002214
:10162C000F21362004F089FD362004F0A0FD13E0D4
:10163C007B681B68104A93420ED10A4BD3F8EC30EE
:10164C00084A43F00073C2F8EC30064BD3F8EC3088
:10165C0003F00073FB60FB6800BF2837BD4680BDFC
:10166C000000014000440258000400400008004003
:10167C00000C00400010004000E4004080B58CB02D
:10168C0000AF786007F11C0300221A605A609A6060
:10169C00DA601A617B681B685E4A934220D15E4B0C
:1016AC00D3F8E0305C4A43F01003C2F8E0305A4BF8
:1016BC00D3F8E03003F01003BB61BB694FF4C043B7
:1016CC00FB6102233B6200237B620023BB6201238C
:1016DC00FB6207F11C031946504807F013FC94E019
:1016EC007B681B68B3F1804F1FD14B4BD3F8E030B4
:1016FC00494A43F00103C2F8E030474BD3F8E030DD
:10170C0003F001037B617B690623FB6102233B62CF
:10171C0000237B620023BB620123FB6207F11C03E5
:10172C0019463F4807F0EEFB6FE07B681B683D4AAB
:10173C0093421FD1384BD3F8E030374A43F00403BF
:10174C00C2F8E030344BD3F8E03003F004033B61D3
:10175C003B694023FB6102233B6200237B62002335
:10176C00BB620223FB6207F11C0319462E4807F0EB
:10177C00C9FB4AE07B681B682C4A934220D1264B5C
:10178C00D3F8E030244A43F00803C2F8E030224B8F
:10179C00D3F8E03003F00803FB60FB684FF47043B0
:1017AC00FB6102233B6200237B620023BB620223AA
:1017BC00FB6207F11C0319461D4807F0A3FB24E04C
:1017CC007B681B681B4A93421FD1134BD3F8E03044
:1017DC00114A43F02003C2F8E0300F4BD3F8E0304D
:1017EC0003F02003BB60BB684FF4F043FB610223A2
:1017FC003B6200237B620023BB620E23FB6207F17A
:10180C001C0319460C4807F07DFB00BF3037BD4662
:10181C0080BD00BF00000140004402580010025877
:10182C000000025800040040000802580008004064
:10183C00000C025800E400400014025880B500AFC0
:10184C00224B234A1A60214B4FF4E1325A601F4B52
:10185C0000229A601D4B0022DA601C4B00221A6198
:10186C001A4B0C225A61194B00229A61174B002219
:10187C00DA61164B00221A62144B00225A62134B87
:10188C0000229A6211480CF013FC0346002B01D085
:10189C00FFF742F800210D480FF0BDFA0346002B6C
:1018AC0001D0FFF739F8002108480FF0F2FA03468F
:1018BC00002B01D0FFF730F804480FF073FA034601
:1018CC00002B01D0FFF728F800BF80BD38030020A3
:1018DC00004C004080B500AF224B234A1A60214BCC
:1018EC004FF4E1325A601F4B00229A601D4B0022CC
:1018FC00DA601C4B00221A611A4B0C225A61194BEC
:10190C0000229A61174B0022DA61164B00221A62F0
:10191C00144B00225A62134B00229A6211480CF0AD
:10192C00C7FB0346002B01D0FEF7F6FF00210D4844
:10193C000FF071FA0346002B01D0FEF7EDFF0021EA
:10194C0008480FF0A6FA0346002B01D0FEF7E4FF7F
:10195C0004480FF027FA0346002B01D0FEF7DCFFFA
:10196C0000BF80BDCC0300200050004080B500AF0C
:10197C00224B234A1A60214B4FF4E1325A601F4B21
:10198C0000229A601D4B0022DA601C4B00221A6167
:10199C001A4B0C225A61194B00229A61174B0022E8
:1019AC00DA61164B00221A62144B00225A62134B56
:1019BC0000229A6211480CF07BFB0346002B01D0ED
:1019CC00FEF7AAFF00210D480FF025FA0346002B65
:1019DC0001D0FEF7A1FF002108480FF05AFA034688
:1019EC00002B01D0FEF798FF04480FF0DBF90346FB
:1019FC00002B01D0FEF790FF00BF80BD60040020DB
:101A0C000010014080B500AF224B234A1A60214BD5
:101A1C004FF4E1325A601F4B00229A601D4B00229A
:101A2C00DA601C4B00221A611A4B0C225A61194BBA
:101A3C0000229A61174B0022DA61164B00221A62BF
:101A4C00144B00225A62134B00229A6211480CF07C
:101A5C002FFB0346002B01D0FEF75EFF00210D4843
:101A6C000FF0D9F90346002B01D0FEF755FF0021EA
:101A7C0008480FF00EFA0346002B01D0FEF74CFF7E
:101A8C0004480FF08FF90346002B01D0FEF744FFFA
:101A9C0000BF80BDF40400200044004080B500AFBE
:101AAC00224B234A1A60214B4FF4E1325A601F4BF0
:101ABC0000229A601D4B0022DA601C4B00221A6136
:101ACC001A4B0C225A61194B00229A61174B0022B7
:101ADC00DA61164B00221A62144B00225A62134B25
:101AEC0000229A6211480CF0E3FA0346002B01D055
:101AFC00FEF712FF00210D480FF08DF90346002B65
:101B0C0001D0FEF709FF002108480FF0C2F9034687
:101B1C00002B01D0FEF700FF04480FF043F90346F9
:101B2C00002B01D0FEF7F8FE00BF80BD8805002019
:101B3C000014014080B5C4B000AF07F58873A3F55D
:101B4C008673186007F1FC0300221A605A609A60D1
:101B5C00DA601A6107F14003B822002118460FF031
:101B6C0067FB07F58873A3F586731B681B68C24A6D
:101B7C00934273D14FF002024FF00003C7E91023D8
:101B8C000023C7F8B43007F14003184609F004F9F4
:101B9C000346002B01D0FEF7BFFEB84BD3F8E8305C
:101BAC00B64A43F40023C2F8E830B44BD3F8E8301B
:101BBC0003F40023FB63FB6BB04BD3F8E030AF4A6C
:101BCC0043F00103C2F8E030AC4BD3F8E03003F043
:101BDC000103BB63BB6BA94BD3F8E030A74A43F0BE
:101BEC000403C2F8E030A54BD3F8E03003F0040353
:101BFC007B637B6B0123C7F8FC300223C7F80031F1
:101C0C000023C7F804310023C7F808310823C7F8AC
:101C1C000C3107F1FC031946994807F073F94FF49E
:101C2C000063C7F8FC300223C7F800310023C7F863
:101C3C0004310023C7F808310823C7F80C3107F129
:101C4C00FC0319468F4807F05DF90022012134206E
:101C5C0004F073FA342004F08AFA32E207F5887340
:101C6C00A3F586731B681B68874A934273D14FF0A8
:101C7C0002024FF00003C7E910230023C7F8B43069
:101C8C0007F14003184609F087F80346002B01D0F2
:101C9C00FEF742FE794BD3F8E830784A43F48013D0
:101CAC00C2F8E830754BD3F8E83003F480133B638B
:101CBC003B6B724BD3F8E030704A43F00403C2F82C
:101CCC00E0306E4BD3F8E03003F00403FB62FB6AA8
:101CDC006A4BD3F8E030694A43F00803C2F8E030AD
:101CEC00664BD3F8E03003F00803BB62BB6A4FF4D9
:101CFC008053C7F8FC300223C7F800310023C7F823
:101D0C0004310023C7F808310823C7F80C3107F158
:101D1C00FC0319465B4807F0F5F80423C7F8FC30C0
:101D2C000223C7F800310023C7F804310023C7F899
:101D3C0008310823C7F80C3107F1FC031946534846
:101D4C0007F0E0F800220021352004F0F6F93520E8
:101D5C0004F00DFAB5E107F58873A3F586731B68DB
:101D6C001B684B4A934240F09B804FF001024FF0AE
:101D7C000003C7E910230023C7F8B83007F140036C
:101D8C00184609F009F80346002B01D0FEF7C4FDF4
:101D9C003A4BD3F8F030394A43F01003C2F8F03024
:101DAC00364BD3F8F03003F010037B627B6A334B75
:101DBC00D3F8E030314A43F00203C2F8E0302F4B45
:101DCC00D3F8E03003F002033B623B6A4FF440432C
:101DDC00C7F8FC300223C7F800310023C7F80431E0
:101DEC000023C7F808310423C7F80C3107F1FC03B2
:101DFC001946284807F086F8274B284A1A60264BC4
:101E0C0029225A60244B00229A60234B0022DA606C
:101E1C00214B4FF480621A611F4B00225A611E4BFA
:101E2C0000229A611C4B4FF48072DA611A4B00222B
:101E3C001A62194B00225A62174804F02BFA034617
:101E4C00002B01D0FEF768FD07F58873A3F58673A8
:101E5C001B68114AC3F880200F4A07F58873A3F555
:101E6C0086731B68936300220021252004F065F91A
:101E7C00252004F07CF924E1004C00400044025879
:101E8C00000002580008025800500040000C025894
:101E9C0000100140000402581C06002010000240F3
:101EAC0007F58873A3F586731B681B68874A9342F2
:101EBC0072D14FF002024FF00003C7E91023002348
:101ECC00C7F8B43007F14003184608F065FF034625
:101EDC00002B01D0FEF720FD7D4BD3F8E8307C4A77
:101EEC0043F40033C2F8E830794BD3F8E83003F40C
:101EFC000033FB61FB69764BD3F8E030744A43F056
:101F0C000103C2F8E030724BD3F8E03003F0010368
:101F1C00BB61BB696E4BD3F8E0306D4A43F00803EC
:101F2C00C2F8E0306A4BD3F8E03003F008037B6171
:101F3C007B690823C7F8FC300223C7F80031002363
:101F4C00C7F804310023C7F808310723C7F80C3150
:101F5C0007F1FC0319465F4806F0D4FF2023C7F8AD
:101F6C00FC300223C7F800310023C7F804310023EA
:101F7C00C7F808310723C7F80C3107F1FC031946E1
:101F8C00554806F0BFFF00220221262004F0D5F8A8
:101F9C00262004F0ECF894E007F58873A3F586731B
:101FAC001B681B684D4A934240F08B804FF0010236
:101FBC004FF00003C7E910230023C7F8B83007F12E
:101FCC004003184608F0E8FE0346002B01D0FEF74C
:101FDC00A3FC3F4BD3F8F0303D4A43F02003C2F84A
:101FEC00F0303B4BD3F8F03003F0200207F5887348
:101FFC00A3F580731A6007F58873A3F580731B68CB
:10200C00334BD3F8E030324A43F00403C2F8E030EB
:10201C002F4BD3F8E03003F0040207F58873A3F5D7
:10202C0082731A6007F58873A3F582731B68284BBB
:10203C00D3F8E030264A43F04003C2F8E030244B9A
:10204C00D3F8E03003F0400207F58873A3F58473EE
:10205C001A6007F58873A3F584731B688023C7F88F
:10206C00FC300223C7F800310023C7F804310023E9
:10207C00C7F808310723C7F80C3107F1FC031946E0
:10208C00174806F03FFF4FF48043C7F8FC3002239B
:10209C00C7F800310023C7F804310023C7F8083112
:1020AC000723C7F80C3107F1FC0319460D4806F05D
:1020BC0029FF00220021472004F03FF8472004F0BC
:1020CC0056F800BF07F58877BD4680BD0044004038
:1020DC000044025800000258000C02580014014041
:1020EC00000802580018025880B483B000AF786022
:1020FC007B689B6807EE903AB0EE670A0C37BD46DA
:10210C005DF8047B7047000080B582B000AF78604A
:10211C0039607B683A685A6400221021094807F03C
:10212C0099F800220821074807F094F87B68586C4E
:10213C007B680C33012219460CF098F800BF083765
:10214C00BD4680BD000C025880B586B000AF7860EB
:10215C007B681B7BFF2B03D07B681B7BFE2B06D184
:10216C007B680022DA757B6806221A761CE07B6895
:10217C001B7BFD2B06D17B680022DA757B68042261
:10218C001A7611E07B681B7BFC2B07D07B681B7BD2
:10219C00FB2B03D07B681B7BFA2B05D17B680022C1
:1021AC00DA757B6803221A767B68DB7D19467B68BF
:1021BC001A7B7B680B445A737B68DB7D0133DAB284
:1021CC007B68DA757B68DB7D092B02D97B68002282
:1021DC00DA757B68DA7D7B681B7E9A4240F0018160
:1021EC007B685B7BFF2B1FD07B685B7BFE2B1BD044
:1021FC007B685B7BFD2B17D07B685B7BFC2B13D048
:10220C007B685B7BFB2B0FD07B685B7BFA2B0BD04B
:10221C007B680022DA757B68586C7B680C33012272
:10222C0019460CF023F8E4E00023FB7501233B6115
:10223C000AE07A683B6913440D331A78FB7D13442A
:10224C00FB753B6901333B617B681B7E013B3A6943
:10225C009A42EEDB7B681B7E013B7A6813445B7B06
:10226C00FA7D9A4215D0FA7D7B681B7E013B79681A
:10227C000B445B7B0F3B9A420BD07B680022DA75D8
:10228C007B68586C7B680C33012219460BF0EEFF0F
:10229C00AFE07B685B7BFA3B052B00F29B8001A2D5
:1022AC0052F823F0BF230008A3230008872300085B
:1022BC005723000827230008C92200087B689B7B52
:1022CC001BB21B021AB27B68DB7B1BB21343FB8174
:1022DC007B681B7C1BB21B021AB27B685B7C1BB23B
:1022EC001343BB81B7F90E3007EE903AB8EEE77A9C
:1022FC00DFED416AC7EE267A7B68C3ED0C7AB7F93D
:10230C000C3007EE903AB8EEE77ADFED3B6AC7EE99
:10231C00267A7B68C3ED0D7A63E07B689B7B1BB2EE
:10232C001B021AB27B68DB7B1BB213437B81B7F9B0
:10233C000A3007EE903AB8EEE77ADFED2F6AC7EE77
:10234C00267A7B68C3ED0E7A4BE07B689B7B1BB2D5
:10235C001B021AB27B68DB7B1BB213433B81B7F9C0
:10236C00083007EE903AB8EEE77ADFED236AC7EE55
:10237C00267A7B68C3ED0F7A33E07B689B7B012B5D
:10238C002AD17B6893F8403083F00103DAB27B6882
:10239C0083F8402020E07B689B7B012B1ED17B685F
:1023AC0093F8413083F00103DAB27B6883F8412063
:1023BC0014E07B689B7B012B12D17B6893F8423035
:1023CC00002B0CBF01230023DBB21A467B6883F879
:1023DC00422005E000BF04E000BF02E000BF00E0C7
:1023EC0000BF7B68586C7B680C33012219460BF0DC
:1023FC003DFF1837BD4680BD00EAFF4680B582B070
:10240C0000AF78607B689A687B68DA607B681A68D2
:10241C007B689A6003F0A8FCF0EE407A7B68C3ED11
:10242C00007A7B6893ED037A7B68D3ED027A37EE02
:10243C00277A7B68D3ED007A77EE277AF0EE086A7C
:10244C0087EEA67A7B68D3ED017A77EE677A9FEDFB
:10245C00077A27EE877ADFED066AC7EE267A7B6865
:10246C00C3ED047A00BF0837BD4680BD0000C842EA
:10247C000048194680B483B000AF78607B681B6954
:10248C0007EE903AB0EE670A0C37BD465DF8047B58
:10249C00704780B582B000AF786039607B683A686D
:1024AC005A617B6858697B680D33012219460BF021
:1024BC00DDFE00BF0837BD4680BD80B582B000AFE1
:1024CC0078607B6858697B6803F10C014FF6FF73E9
:1024DC0001220BF03DFE00BF0837BD4680BD80B524
:1024EC0082B000AF78607B685B7BFF2B02D17B688E
:1024FC0000229A747B689B7C19467B685A7B7B68AC
:10250C000B449A737B689B7C0133DAB27B689A74B8
:10251C007B689B7C042B59D17B689B7BFF2B32D136
:10252C007B689B7B1A467B68DB7B13447A68127C46
:10253C001344DBB27A68527C934224D17B685A886C
:10254C007B681A807B689A887B685A807B68DB7B07
:10255C001BB21B021AB27B681B7C1BB213431BB24F
:10256C009AB27B689A807B689B8807EE903AB8EEAB
:10257C00E76BB2EE045B86EE057BF7EEC77B7B6800
:10258C00C3ED027A02E07B6800229A747B681A8899
:10259C007B685B889A4209D17B685A887B689B88E8
:1025AC009A4203D17B6800221A760FE07B689B88E5
:1025BC001A467B685B88D31AB3F57A7F03DD7B6898
:1025CC0000221A7602E07B6801221A767B68586931
:1025DC007B680D33012219460BF048FE00BF08370B
:1025EC00BD4680BD80B483B000AF87ED010AD7ED46
:1025FC00017AF0EEE77AB0EE670A0C37BD465DF86B
:10260C00047B704780B586B000AF78613961FA60A1
:10261C00BB6087ED010A7B693A691A607B69FA68CD
:10262C005A607B694FF000029A607B697A681A6184
:10263C007B69BA685A617B693A6A9A617B6997F8D7
:10264C0024201A777B691A687B695B6819461046E7
:10265C000AF04AFB7B695B68002B06D17B691B681F
:10266C001B6840F2DC525A6331E07B695B68042BD7
:10267C0006D17B691B681B6840F2DC529A6326E02A
:10268C007B695B68082B06D17B691B681B6840F271
:10269C00DC52DA631BE07B695B680C2B06D17B692F
:1026AC001B681B6840F2DC521A6410E07B695B68A3
:1026BC00102B06D17B691B681B6840F2DC529A65B3
:1026CC0005E07B691B681B6840F2DC52DA650A2066
:1026DC0003F034FC00BF1837BD4680BD80B588B010
:1026EC0000AFF86087ED020AC7ED010A87ED001A0A
:1026FC0097ED007AD7ED017AB4EEE77AF1EE10FAA5
:10270C0001D8012334E097ED027AD7ED017A77EE08
:10271C00676A97ED007AD7ED017A37EE677AC6EEE5
:10272C00877AC7ED067AD7ED067A9FED137A67EEB6
:10273C00877A9FED127A77EEC77AC7ED057A97ED17
:10274C00050A0EF061FCF0EE407AFDEEE77A17EE2A
:10275C00903AFB61FB6913F5FA7F01DA084BFB61D8
:10276C00FB69B3F5FA7F02DD4FF4FA73FB61FB6989
:10277C0018462037BD4680BD00007A440000FA435D
:10278C000CFEFFFF80B582B000AF786087ED000AC9
:10279C007B683A689A607B68D3ED027AF5EEC07A72
:1027AC00F1EE10FA38DD7B6893ED027A7B68D3ED9D
:1027BC00047AB4EEE77AF1EE10FA03DD7B681A695D
:1027CC007B689A607B6893ED027A7B68D3ED047A20
:1027DC00F1EE677A7B68D3ED046AB0EE661AF0EE20
:1027EC00670AB0EE470A7868FFF778FF02467B6805
:1027FC005B691A447B68DA607B681B7F002B04D111
:10280C007B68DB685A427B68DA607B68DB6803F2C2
:10281C00DC527B68DA603DE07B6893ED027A7B6882
:10282C00D3ED047AF1EE677AB4EEE77AF1EE10FAB2
:10283C0007D57B68D3ED047AF1EE677A7B68C3ED3C
:10284C00027A7B6893ED027A7B68D3ED047AF1EE21
:10285C00677A7B68D3ED046AB0EE661AF0EE670A0D
:10286C00B0EE470A7868FFF739FF02467B689B6930
:10287C00D21A7B68DA607B681B7F002B04D17B68E3
:10288C00DB685A427B68DA607B68DB6803F2DC52F7
:10289C007B68DA607B685B68002B06D17B68DA6842
:1028AC007B681B681B685A6331E07B685B68042B90
:1028BC0006D17B68DA687B681B681B689A6326E024
:1028CC007B685B68082B06D17B68DA687B681B68C1
:1028DC001B68DA631BE07B685B680C2B06D17B689A
:1028EC00DA687B681B681B681A6410E07B685B689D
:1028FC00102B06D17B68DA687B681B681B689A65AD
:10290C0005E07B68DA687B681B681B68DA6500BFCA
:10291C000837BD4680BD80B483B000AF78607B685B
:10292C005B68002B06D17B681B681B6840F2DC528D
:10293C005A6331E07B685B68042B06D17B681B68AB
:10294C001B6840F2DC529A6326E07B685B68082BBC
:10295C0006D17B681B681B6840F2DC52DA631BE013
:10296C007B685B680C2B06D17B681B681B6840F28C
:10297C00DC521A6410E07B685B68102B06D17B6814
:10298C001B681B6840F2DC529A6505E07B681B688B
:10299C001B6840F2DC52DA6500BF0C37BD465DF8AF
:1029AC00047B704780B584B000AFF860B9607A6082
:1029BC00FB68BA68DA62FB687A681A63FB68D86AE3
:1029CC00FB681B6B1E2219460BF09CFCFB68DB6A38
:1029DC001B681A68FB68DB6A1B6842F010021A60FD
:1029EC0000BF1037BD4680BD80B483B000AF7860A7
:1029FC007B681B6B1B78802B40F004817B681B6B06
:102A0C0001331B78012B40F0FD807B681B6B1C3362
:102A1C001B780D2B40F0F6807B681B6B1D331B78ED
:102A2C000A2B40F0EF807B681B6B07331B781BB2C3
:102A3C001B021AB27B681B6B06331B781BB2134349
:102A4C001BB207EE903AB8EEE77ADFED716AC7EE8B
:102A5C00267A7B68C3ED007A7B681B6B09331B7885
:102A6C001BB21B021AB27B681B6B08331B781BB2A0
:102A7C0013431BB207EE903AB8EEE77ADFED646AC7
:102A8C00C7EE267A7B68C3ED017A7B681B6B0B3330
:102A9C001B781BB21B021AB27B681B6B0A331B78A8
:102AAC001BB213431BB207EE903AB8EEE77ADFED98
:102ABC00586AC7EE267A7B68C3ED027A7B681B6B7B
:102ACC000D331B781BB21B021AB27B681B6B0C33C9
:102ADC001B781BB213431BB207EE903AF8EEE77A61
:102AEC007B68C3ED037A7B681B6B0F331B781BB2BF
:102AFC001B021AB27B681B6B0E331B781BB2134381
:102B0C001BB207EE903AF8EEE77A7B68C3ED047AD5
:102B1C007B681B6B11331B781BB21B021AB27B68D0
:102B2C001B6B10331B781BB213431BB207EE903A8E
:102B3C00F8EEE77A7B68C3ED057A7B681B6B133381
:102B4C001B781BB21B021AB27B681B6B12331B78EF
:102B5C001BB213431BB207EE903AB8EEE77ADFEDE7
:102B6C002D6AC7EE267A7B68C3ED067A7B681B6BF1
:102B7C0015331B781BB21B021AB27B681B6B143308
:102B8C001B781BB213431BB207EE903AB8EEE77AF0
:102B9C00DFED206AC7EE267A7B68C3ED077A7B6887
:102BAC001B6B17331B781BB21B021AB27B681B6B97
:102BBC0016331B781BB213431BB207EE903AB8EED8
:102BCC00E77ADFED146AC7EE267A7B68C3ED087AE4
:102BDC007B681B6B19331B781BB21B021AB27B6808
:102BEC001B6B18331B781BB213431BB207EE903AC6
:102BFC00B8EEE77ADFED076AC7EE267A7B68C3ED9D
:102C0C000A7A00E000BF0C37BD465DF8047B7047C4
:102C1C00000080420000C84280B483B000AF7860EE
:102C2C007B684FF000021A607B684FF000025A601C
:102C3C007B684FF000029A607B684FF00002DA600C
:102C4C007B684FF000021A617B684FF000025A61FA
:102C5C007B684FF000029A617B684FF00002DA61EA
:102C6C007B684FF000021A627B6818460C37BD4631
:102C7C005DF8047B704780B588B000AFF86187EDD4
:102C8C00060AC7ED050A87ED041AC7ED031A87ED8E
:102C9C00022AC7ED012AFB69BA691A60FB697A69D5
:102CAC005A60FB693A699A60D7ED037AF0EEE77ADD
:102CBC00FB69C3ED037AD7ED027AF0EEE77AFB6994
:102CCC00C3ED047AD7ED017AF0EEE77AFB69C3ED38
:102CDC00057AF86900F004F800BF2037BD4680BDC6
:102CEC0080B483B000AF78607B684FF000029A61CB
:102CFC007B684FF00002DA617B684FF000021A62C9
:102D0C0000BF0C37BD465DF8047B704780B489B0BA
:102D1C0000AFF86087ED020AC7ED010A87ED001AD3
:102D2C00D7ED007AF5EEC07AF1EE10FA02D8FB6816
:102D3C001B6AB0E097ED027AD7ED017A77EE677AED
:102D4C00C7ED077AD7ED077AB0EEE77AFB68D3EDDB
:102D5C00057AB4EEE77AF1EE10FA02D84FF00003E0
:102D6C00FB61FB68D3ED007A97ED077A67EE277A63
:102D7C00C7ED047AFB6893ED067AFB68D3ED016A24
:102D8C00D7ED077A66EEA76AD7ED007A66EEA77ADA
:102D9C0077EE277AFB68C3ED067AFB68D3ED047AED
:102DAC00F5EEC07AF1EE10FA24DDFB6893ED067AAD
:102DBC00FB68D3ED047AB4EEE77AF1EE10FA04DD99
:102DCC00FB681A69FB689A6114E0FB6893ED067A5C
:102DDC00FB68D3ED047AF1EE677AB4EEE77AF1EEA4
:102DEC0010FA07D5FB68D3ED047AF1EE677AFB682D
:102DFC00C3ED067A4FF00003BB61D7ED007AF5EE18
:102E0C00C07AF1EE10FA11DDFB6893ED027AFB68E3
:102E1C00D3ED077AD7ED076A76EEE77A67EE276A85
:102E2C0097ED007AC6EE877AC7ED067AFB68FA69E9
:102E3C00DA61FB6893ED067AD7ED047A77EE277AA0
:102E4C0097ED067A77EE277AC7ED057AFB68D3ED16
:102E5C00037A97ED057AB4EEE77AF1EE10FA03DD1A
:102E6C00FB68DB687B6112E0FB68D3ED037AF1EE63
:102E7C00677A97ED057AB4EEE77AF1EE10FA06D59B
:102E8C00FB68D3ED037AF1EE677AC7ED057AFB6840
:102E9C007A691A627B6907EE903AB0EE670A2437BA
:102EAC00BD465DF8047B704780B400AF0023184624
:102EBC00BD465DF8047B704780B400AF0023184614
:102ECC00BD465DF8047B704780B483B000AF78607A
:102EDC0039603B6818460C37BD465DF8047B70477B
:102EEC0080B483B000AF78607B68B3F5007F05D207
:102EFC004FF400727B68B2FBF3F300E00123184639
:102F0C000C37BD465DF8047B7047000080B483B07D
:102F1C0000AF78607B684FF000021A607B680C4A47
:102F2C005A607B684FF000029A607B684FF0000299
:102F3C00DA607B684FF000021A617B6800221A7518
:102F4C007B6818460C37BD465DF8047B704700BFA4
:102F5C0000F2C14780B483B000AF78607B68002278
:102F6C001A807B6800225A807B6800229A807B68DA
:102F7C004FF000029A607B68FF221A737B68002274
:102F8C009A747B6800225A617B6801221A767B68EE
:102F9C0018460C37BD465DF8047B704780B483B08F
:102FAC0000AF78607B68D3ED037A9FED067AC7EEAD
:102FBC00876AF0EE667AB0EE670A0C37BD465DF8AC
:102FCC00047B704700007A4480B483B000AF786013
:102FDC007B68D3ED047A9FED067AC7EE876AF0EE34
:102FEC00667AB0EE670A0C37BD465DF8047B704715
:102FFC0000007A4480B483B000AF78607B689B6932
:10300C0007EE903AB0EE670A0C37BD465DF8047BCC
:10301C007047000080B485B000AF78607B6893ED9A
:10302C00087A7B68D3ED097A77EE677AC7ED037A75
:10303C00D7ED037A9FED157AF4EEC77AF1EE10FA1C
:10304C0008DDD7ED037A9FED127A77EEC77AC7EDDC
:10305C00037A10E0D7ED037A9FED0E7AF4EEC77A7F
:10306C00F1EE10FA07D5D7ED037A9FED097A77EEDA
:10307C00877AC7ED037AFB6807EE903AB0EE670AE1
:10308C001437BD465DF8047B704700BF0000344325
:10309C000000B443000034C380B483B000AF786048
:1030AC007B68EF221A707B684FF000025A607B68D5
:1030BC004FF000029A607B684FF00002DA607B6888
:1030CC0000221A747B6800225A747B6800229A745E
:1030DC007B6818460C37BD465DF8047B704780B49E
:1030EC0083B000AF78607B684FF000021A607B6899
:1030FC004FF000025A607B684FF000029A607B68C8
:10310C004FF00002DA607B6800221A747B680022A0
:10311C005A747B6801229A747B6818460C37BD463A
:10312C005DF8047B704780B582B000AF78607B6837
:10313C0000221A607B6800225A607B6800229A6029
:10314C007B680022DA757B6800221A767B681C3358
:10315C001846FFF7A1FF7B6830331846FFF7BFFF17
:10316C007B6800225A647B6818460837BD4680BDD0
:10317C0080B483B000AF786039607B683A681A60BD
:10318C0000BF0C37BD465DF8047B704780B483B03C
:10319C0000AF786039607B683A685A6000BF0C37C2
:1031AC00BD465DF8047B704780B483B000AF786097
:1031BC0039607B683A689A6000BF0C37BD465DF891
:1031CC00047B704780B483B000AF78607B680022CA
:1031DC001A607B6800225A607B684FF000029A608C
:1031EC007B680022DA607B684FF000021A617B6812
:1031FC0000225A617B6800229A617B6801221A774F
:10320C007B6818460C37BD465DF8047B704780B46C
:10321C0083B000AF78607B684FF000021A607B6867
:10322C004FF000025A607B684FF000029A607B6896
:10323C004FF00002DA607B684FF000021A617B6885
:10324C004FF000025A617B684FF000029A617B6874
:10325C004FF00002DA617B684FF000021A627B6863
:10326C004FF000025A627B684FF000029A627B6852
:10327C000022DA627B6818460C37BD465DF8047B89
:10328C00704780B582B000AF78607B68184601F05B
:10329C00FCF97B6818460837BD4680BD80B500AF89
:1032AC00064809F093FB054B1B6800225A62034B3E
:1032BC001B685B6A024A136000BF80BD5402002089
:1032CC009806002080B500AF0D4B1B685B6A0D4A59
:1032DC0013600B4809F0F8FB0A4B1A680A4B1B6881
:1032EC00D31A07EE903AF8EE677A084BC3ED007AE2
:1032FC00064B1B6807EE903AB0EE670A80BD00BF24
:10330C00540200209C06002098060020A0060020F5
:10331C0080B582B002AF01224FF400518A4805F00B
:10332C0099FF01224FF40041884805F093FF0122D8
:10333C004FF40071844805F08DFF0122022184486E
:10334C0005F088FF834B1B6832229A630421814865
:10335C0009F0CAFC0A2002F0F1FD01F0A9F87E4B3D
:10336C001B687E491846FFF794F87D4B1B687D4916
:10337C001846FFF78EF87C4B1B687C4A7C49184634
:10338C00FFF710FB7B4B1B687B4A126811461846F3
:10339C00FFF7EEFE774B1B686F4A12681146184612
:1033AC00FFF7F4FE734B1B686D4A12681146184602
:1033BC00FFF7FAFE6F4B1B6870491846FEF7A4FE28
:1033CC006F4B186800230193032300939FED6D0A44
:1033DC00142300226C49FFF715F9694B1B6803F1A4
:1033EC00200000230193032300939FED660A14230E
:1033FC000C226549FFF706F9614B1B6803F140008D
:10340C0000230193032300939FED5E0A14230422EF
:10341C005D49FFF7F7F85A4B1B6803F16000002376
:10342C000193032300939FED570A19230822574950
:10343C00FFF7E8F8524B1B6803F18000012301935E
:10344C00142300939FED4F0A032308224E49FFF7E4
:10345C00D9F84B4B1B6803F1A000012301931923EE
:10346C0000939FED480A05230C224849FFF7CAF840
:10347C0040F6B83002F062FD454B1B68DFED452A83
:10348C009FED402ADFED3F1A9FED421ADFED420A15
:10349C00B0EE000A1846FFF7EEFB404B1B68DFED61
:1034AC003D2A9FED382ADFED371A9FED3A1ADFEDF2
:1034BC003A0A9FED3B0A1846FFF7DDFB394B1B68B8
:1034CC00DFED342A9FED2F2ADFED2E1A9FED361AF1
:1034DC00DFED300AB6EE000A1846FFF7CCFB334B93
:1034EC001B68DFED2C2A9FED272ADFED261A9FEDB6
:1034FC00291ADFED280AB0EE000A1846FFF7BBFBCD
:10350C002B4B1B68DFED232A9FED1E2ADFED1D1AC6
:10351C009FED201ADFED1F0AB0EE000A1846FFF7E8
:10352C00AAFB144B1B68012283F84020114B1B682B
:10353C00002283F8422001220121054805F08AFE71
:10354C0000BFBD4680BD00BF0008025800100258E5
:10355C000004025870010020B4060020380300203B
:10356C00B8060020CC030020BC060020000100207F
:10357C0060040020C4060020B0060020F4040020E3
:10358C00C006002000004842080200202401002050
:10359C00C8060020000000000AD7233CCC060020FF
:1035AC00CDCCCC3ED0060020CDCCCC3DD4060020DA
:1035BC00D806002080B500AFFFF770FE00F078F859
:1035CC0000F026F9FFF77EFEF0EE407A024BC3EDD9
:1035DC00007A00BF80BD00BF94060020B0B582B059
:1035EC0000AF78607B680D4A934213D1FFF756FE0B
:1035FC000B4BD3E90023541C43F10005084BC3E9E2
:10360C000045FFF7D7FFFFF75DFEF0EE407A054B64
:10361C00C3ED007A00BF0837BD46B0BDA002002044
:10362C00A80600209406002080B582B000AF786018
:10363C007B681B68164A934205D1164B1B681846CB
:10364C00FFF7D2F91FE07B681B68134A934205D140
:10365C00124B1B681846FEF777FD14E07B681B685D
:10366C000F4A934205D10F4B1B681846FEF737FFE4
:10367C0009E07B681B680C4A934204D10B4B1B6816
:10368C001846FEF72CFF00BF0837BD4680BD00BFB3
:10369C0000100140BC06002000440040C40600207D
:1036AC00004C0040B406002000500040B80600203A
:1036BC00B0B500AF464B1B681846FEF79FFE454B56
:1036CC00D3E9002302F00104002554EA050305D0D8
:1036DC00414B1B681846FEF7F0FE04E03F4B1B689D
:1036EC001846FEF7EAFE3D4B1B681846FEF7E5FE52
:1036FC003B4B1B6893F84130012B05D10122012172
:10370C00384805F0A7FD04E000220121354805F0FA
:10371C00A1FD354B1B68354A1360354B1B681846A9
:10372C00FFF778FCF0EE407A2F4BC3ED007A304B6C
:10373C001B681846FFF75EFCF0EE407A2D4BC3ED8C
:10374C00007A234B1B681846FEF794FEF0EE407A85
:10375C00294BC3ED007A264B1B681846FFF71EFC5D
:10376C00F0EE407A9FED257A27EE877A244BD3ED45
:10377C00007A77EE277A224BC3ED007A1C4B1B683C
:10378C001846FFF721FCF0EE407A9FED1C7A27EEED
:10379C00877A1C4BD3ED007A77EE277A194BC3ED61
:1037AC00007A0D4B1B681846FEF79EFCF0EE407A33
:1037BC00154BC3ED007A094B1B681846FEF794FCB9
:1037CC00F0EE407A114BC3ED007A00BFB0BD00BFE4
:1037DC00B0060020A8060020B4060020B806002081
:1037EC00C406002000040258040700200C07002027
:1037FC00BC06002010070020DC0600200AD7233C62
:10380C00E4060020EC060020F4060020FC06002054
:10381C0080B500AF0A4B1B6893F84030002B0BD0DF
:10382C00074B1B6893F84230012B02D100F00AF8C9
:10383C0004E000F09FF901E000F0F4FD00BF80BD52
:10384C00C406002080B58AB000AFB94B93ED007A66
:10385C00B84B1B68D3ED0F7AF1EE006A67EEA67ACF
:10386C00DFEDB56A67EEA67A77EE677AB04BC3EDFB
:10387C00007AB24B93ED007AAE4B1B68D3ED0E7A07
:10388C00F3EE046A67EEA67ADFEDAB6A67EEA67A12
:10389C0077EE677AA94BC3ED007AA94B4FF0000283
:1038AC001A60A44B1B68D3ED0C7AB2EE0E7A67EE5D
:1038BC00877AA44BC3ED007A9E4B1B68D3ED0D7A2F
:1038CC00B2EE0E7A67EE877A9F4BC3ED007A3B46D9
:1038DC0000221A605A609A60DA601A615A619B4B36
:1038EC001B68934AD2ED007A994A92ED007A9FEDCB
:1038FC00921AF0EE470AB0EE670A1846FFF706FA7E
:10390C0087ED080A97ED017AD7ED087A77EE677A9A
:10391C00C7ED017A97ED047AD7ED087A77EE677ADE
:10392C00C7ED047A97ED017A8A4BD3ED007A77EEE6
:10393C00277AC7ED017A97ED047A864BD3ED007A9E
:10394C0077EE277AC7ED047A834B1B687B4AD2ED5E
:10395C00007A824A92ED007A9FED771AF0EE470AD0
:10396C00B0EE670A1846FFF7D1F987ED070A97ED15
:10397C00007AD7ED077A77EE677AC7ED007A97ED84
:10398C00027AD7ED077A77EE277AC7ED027A97EDB0
:10399C00037AD7ED077A77EE277AC7ED037A97ED9E
:1039AC00057AD7ED077A77EE677AC7ED057A6C4B17
:1039BC001B68634AD2ED007A6A4A92ED007A9FED59
:1039CC005E1AF0EE470AB0EE670A1846FFF79EF94A
:1039DC0087ED060A97ED017AD7ED067A77EE677ACE
:1039EC00C7ED017A97ED047AD7ED067A77EE277A50
:1039FC00C7ED047A97ED007A524BD3ED007A77EE4F
:103A0C00277AC7ED007A97ED027A4E4BD3ED007A08
:103A1C0077EE677AC7ED027A97ED037A494BD3EDCF
:103A2C00007A77EE277AC7ED037A97ED057A454B46
:103A3C00D3ED007A77EE677AC7ED057A97ED007AC9
:103A4C00414BD3ED007A77EE277AC7ED007A97EDEC
:103A5C00027A3D4BD3ED007A77EE277AC7ED027AE6
:103A6C0097ED037A384BD3ED007A77EE277AC7EDD2
:103A7C00037A97ED057A344BD3ED007A77EE277AFB
:103A8C00C7ED057A00237B624AE07B6A012B02D0EA
:103A9C007B6A042B18D17B6A9B0028333B44283B60
:103AAC00D3ED007A9FED301ADFED300AB0EE670AE5
:103ABC0000F052FDF0EE407A7B6A9B0028333B44C9
:103ACC00283BC3ED007A17E07B6A9B0028333B440C
:103ADC00283BD3ED007AB3EE0E1AFBEE0E0AB0EED5
:103AEC00670A00F039FDF0EE407A7B6A9B002833C0
:103AFC003B44283BC3ED007A1D4B1A687B6A5B0183
:103B0C001A447B6A9B0028333B44283BD3ED007A54
:103B1C00B0EE670A1046FEF735FE7B6A01337B6216
:103B2C007B6A052BB1DD00BF00BF2837BD4680BDC9
:103B3C000C000020C40600200AD7233C08070020F4
:103B4C0014070020E8060020F0060020C80600201C
:103B5C00DC060020E0060020CC0600200407002034
:103B6C00D00600201007002000002042000020C2D8
:103B7C00C006002080B58CB000AFB64B1B78002B74
:103B8C0002D100F095F90CE0B24B1B78012B02D15D
:103B9C0000F044FA05E0AF4B1B78022B01D100F08A
:103BAC0045FB3B4600221A605A609A60DA601A6143
:103BBC005A61A94B1B68A94AD2ED007AA84A92ED2A
:103BCC00007A9FEDA81AF0EE470AB0EE670A184685
:103BDC00FFF79CF887ED0A0A97ED017AD7ED0A7A80
:103BEC0077EE677AC7ED017A97ED047AD7ED0A7A0A
:103BFC0077EE677AC7ED047A97ED017A9A4BD3ED9D
:103C0C00007A77EE277AC7ED017A97ED047A964B16
:103C1C00D3ED007A77EE277AC7ED047A934B1B68C5
:103C2C00934AD2ED007A934A92ED007A9FED8D1A69
:103C3C00F0EE470AB0EE670A1846FFF767F887ED13
:103C4C00090A97ED007AD7ED097A77EE677AC7ED16
:103C5C00007A97ED027AD7ED097A77EE277AC7EDDD
:103C6C00027A97ED037AD7ED097A77EE277AC7EDCA
:103C7C00037A97ED057AD7ED097A77EE677AC7ED77
:103C8C00057A7D4B1B687D4AD2ED007A7C4A92ED19
:103C9C00007A9FED741AF0EE470AB0EE670A1846E8
:103CAC00FFF734F887ED080A97ED017AD7ED087A1B
:103CBC0077EE677AC7ED017A97ED047AD7ED087A3B
:103CCC0077EE277AC7ED047A6E4B1B681B7E002BB0
:103CDC0032D06D4B1B686D4AD2ED007A6C4A92ED76
:103CEC00007A9FED601AF0EE470AB0EE670A1846AC
:103CFC00FFF70CF887ED070A97ED007AD7ED077AF6
:103D0C0077EE277AC7ED007A97ED027AD7ED077A2E
:103D1C0077EE677AC7ED027A97ED037AD7ED077ADB
:103D2C0077EE277AC7ED037A97ED057AD7ED077A08
:103D3C0077EE677AC7ED057A564B1B681B7E002B16
:103D4C0032D0554B1B68554AD2ED007A544A92ED4D
:103D5C00007A9FED441AF0EE470AB0EE670A184657
:103D6C00FEF7D4FF87ED060A97ED007AD7ED067AB9
:103D7C0077EE277AC7ED007A97ED027AD7ED067ABF
:103D8C0077EE277AC7ED027A97ED037AD7ED067AAC
:103D9C0077EE277AC7ED037A97ED057AD7ED067A99
:103DAC0077EE277AC7ED057A0023FB624AE0FB6ABF
:103DBC00012B02D0FB6A042B18D1FB6A9B00303319
:103DCC003B44303BD3ED007A9FED361ADFED360ADB
:103DDC00B0EE670A00F0C0FBF0EE407AFB6A9B0085
:103DEC0030333B44303BC3ED007A17E0FB6A9B0059
:103DFC0030333B44303BD3ED007AB3EE0E1AFBEE7E
:103E0C000E0AB0EE670A00F0A7FBF0EE407AFB6AF0
:103E1C009B0030333B44303BC3ED007A234B1A6894
:103E2C00FB6A5B011A44FB6A9B0030333B44303B1A
:103E3C00D3ED007AB0EE670A1046FEF7A3FCFB6ADE
:103E4C000133FB62FB6A052BB1DD00BF00BF3037CD
:103E5C00BD4680BD2C070020C80600200C000020A9
:103E6C00DC0600200AD7233CE0060020CC0600200C
:103E7C000807002004070020D006002014070020AB
:103E8C0010070020B4060020D4060020F8060020FD
:103E9C00F4060020B8060020D806002000070020F9
:103EAC00FC06002000002042000020C2C0060020BA
:103EBC0080B500AF4E4B4F4A1A604F4B4FF000028B
:103ECC001A604E4B1B7819464D4800F011FC034606
:103EDC0093ED007A4B4BD3ED007A77EE677AB0EE28
:103EEC00670AFEF77FFBF0EE407AB0EE087AF4EE4C
:103EFC00C77AF1EE10FA1CD5404B1B781946404896
:103F0C0000F0F6FB034693ED017A3F4BD3ED007ABC
:103F1C0077EE677AB0EE670AFEF764FBF0EE407A54
:103F2C00B0EE087AF4EEC77AF1EE10FA01D501235F
:103F3C0000E00023002B1FD0304B1B781946304873
:103F4C0000F0D6FB03461B7A002B0CBF0123002389
:103F5C00DBB2002B0DD0294B1B780133DAB2274B87
:103F6C001A70264B1B78022B06D9244B00221A7090
:103F7C0002E0264B01221A70204B1B781946204870
:103F8C0000F0B6FB03461B68214A13601B4B1B78E1
:103F9C0019461B4800F0ACFB03465B681D4A1360D6
:103FAC001B4BD3ED007A174B93ED007A9FED1A1A49
:103FBC00F0EE470AB0EE670A00F00AFBF0EE407A2A
:103FCC00134BC3ED007A134BD3ED007A0E4B93EDEC
:103FDC00007A9FED111AF0EE470AB0EE670A00F076
:103FEC00F7FAF0EE407A0B4BC3ED007A00BF80BDC0
:103FFC000C0000200000704114070020180700205E
:10400C0030070020F4060020FC0600202C070020BE
:10401C00F8060020000700200000484380B500AFE0
:10402C00734B1B78002B7CD1724B734A1A60734B09
:10403C004FF000021A60724B1B781946714800F061
:10404C0057FB03461B68704A13606D4B1B7819466F
:10405C006C4800F04DFB03465B686C4A13606A4B7E
:10406C00D3ED007A6A4B93ED007A9FED6A1AF0EE6D
:10407C00470AB0EE670A00F0ABFAF0EE407A624BFA
:10408C00C3ED007A614BD3ED007A634B93ED007A6C
:10409C009FED601AF0EE470AB0EE670A00F098FA4E
:1040AC00F0EE407A594BC3ED007A00F03DFA5B4BD1
:1040BC00D3ED007AB3EE0E7A77EEC77AB0EE670ADC
:1040CC00FEF790FAF0EE407AB0EE087AF4EEC77A8A
:1040DC00F1EE10FA4CBF01230023DBB2002B09D008
:1040EC004F4BB3F900309BB201339BB21AB24C4B1D
:1040FC001A8009E04A4BB3F90030002B00DA013387
:10410C005B101AB2464B1A80454BB3F90030B3F52D
:10411C00FA7F6ADD424B00221A80354B02221A705C
:10412C0063E0334B1B78022B5FD1324B3D4A1A6054
:10413C00324B4FF000021A60314B1B781946314854
:10414C0000F0D6FA03461B682F4A13602C4B1B78E1
:10415C0019462C4800F0CCFA03465B682B4A1360D6
:10416C00294BD3ED007A2A4B93ED007A9FED291A57
:10417C00F0EE470AB0EE670A00F02AFAF0EE407A49
:10418C00214BC3ED007A214BD3ED007A224B93EDFA
:10419C00007A9FED201AF0EE470AB0EE670A00F0A5
:1041AC0017FAF0EE407A194BC3ED007A1B4BD3EDA6
:1041BC00007AB2EE0E7A77EEC77AB0EE670AFEF7A7
:1041CC0011FAF0EE407AB0EE087AF4EEC77AF1EE1E
:1041DC0010FA4CBF01230023DBB2002B05D0044B9B
:1041EC0000221A70104B02221A7000BF80BD00BF53
:1041FC002D0700200C0000200000F04108070020D3
:10420C001807002030070020F806002000070020C7
:10421C00F406002000004843FC060020DC060020C9
:10422C001A070020000070412C07002080B500AF59
:10423C006F4B1B78002B40F085806E4B6E4A1A60DA
:10424C006E4B4FF000021A606D4B1B686D4A136089
:10425C006B4B5B686C4A13606A4BD3ED007A6B4B0B
:10426C0093ED007A9FED6A1AF0EE470AB0EE670AFA
:10427C0000F0AEF9F0EE407A624BC3ED007A624B7F
:10428C00D3ED007A634B93ED007A9FED611AF0EE5B
:10429C00470AB0EE670A00F09BF9F0EE407A5A4BF1
:1042AC00C3ED007A564B93ED007A584BD3ED007A60
:1042BC0077EE677AB0EE670AFEF794F9F0EE407A83
:1042CC00B0EE087AF4EEC77AF1EE10FA16D54C4B34
:1042DC0093ED017A4F4BD3ED007A77EE677AB0EE1F
:1042EC00670AFEF77FF9F0EE407AB0EE087AF4EE4A
:1042FC00C77AF1EE10FA01D5012300E00023002B60
:10430C0009D0454BB3F900309BB201339BB21AB2C2
:10431C00414B1A8009E0404BB3F90030002B00DA16
:10432C0001335B101AB23C4B1A803B4BB3F9003093
:10433C00B3F5FA7F59DD384B00221A802C4B012241
:10434C001A7052E02A4B1B78012B4ED1294B2A4A6A
:10435C001A602A4B4FF000021A60294B1B68294A3D
:10436C001360274B5B68284A1360264BD3ED007A09
:10437C00264B93ED007A9FED261AF0EE470AB0EE2D
:10438C00670A00F025F9F0EE407A1E4BC3ED007A77
:10439C001D4BD3ED007A1F4B93ED007A9FED1C1A49
:1043AC00F0EE470AB0EE670A00F012F9F0EE407A30
:1043BC00154BC3ED007A00F0C3F8184BB3F900307D
:1043CC009BB201339BB21AB2144B1A80134BB3F944
:1043DC000030B3F5967F08DD104B00221A80044B99
:1043EC0000221A700E4B00221A7000BF80BD00BF55
:1043FC002E0700200C000020000070410807002050
:10440C0020070020F806002000070020F4060020FA
:10441C0000004843FC0600201C0700201E0700205B
:10442C002C07002080B582B000AF00237B600CE02D
:10443C000A4B1A687B685B0113441846FEF76BFA4B
:10444C0000F00EF87B6801337B607B68052BEFDD99
:10445C0000BF00BF0837BD4680BD00BFC0060020AE
:10446C0080B500AF0D4B1B681846FEF739FC0C4BA2
:10447C001B681846FEF734FC0A4B1B681846FEF7FF
:10448C002FFC094B1B681846FEF72AFC074B1B68D0
:10449C001846FEF725FC00BF80BD00BFC8060020F3
:1044AC00CC060020D0060020D4060020D806002020
:1044BC0080B58AB000AF164B164A1A60144B154AD9
:1044CC005A60154A3B1D07CA83E807003B1D194675
:1044DC00124800F01EF9124A07F1100307CA83E8CC
:1044EC00070007F1100319460C4800F012F90D4AA9
:1044FC0007F11C0307CA83E8070007F11C031946E0
:10450C00064800F006F900BF2837BD4680BD00BF45
:10451C00200700200000A041B4160108300700203D
:10452C00C0160108CC16010880B500AF012202218B
:10453C00024804F08FFE00BF80BD00BF000402588B
:10454C0080B500AF00220221024804F083FE00BFB8
:10455C0080BD00BF0004025880B487B000AF87ED67
:10456C00030AC7ED020A87ED011A97ED027AD7ED1F
:10457C00017AB4EEE77AF1EE10FA04DBBB687B61EA
:10458C007B683B6103E07B687B61BB683B6197EDBB
:10459C00037AD7ED057AB4EEE77AF1EE10FA01DD85
:1045AC007B690BE097ED037AD7ED047AB4EEE77AEA
:1045BC00F1EE10FA01D53B6900E0FB6807EE903A8A
:1045CC00B0EE670A1C37BD465DF8047B70470000EF
:1045DC0080B487B000AF87ED030AC7ED020A87ED00
:1045EC00011A97ED037AD7ED027A77EE677AC7ED69
:1045FC00057AD7ED017A9FED1D7A67EE877A97EDF4
:10460C00057AB4EEE77AF1EE10FA08DDD7ED017A0F
:10461C009FED167A67EE877AC7ED057A18E0D7ED2D
:10462C00017AF1EE677A9FED117A67EE877A97ED52
:10463C00057AB4EEE77AF1EE10FA09D5D7ED017AE6
:10464C00F1EE677A9FED097A67EE877AC7ED057A06
:10465C0097ED027AD7ED057A77EE277AB0EE670AF6
:10466C001C37BD465DF8047B704700BF0AD7233C5E
:10467C0080B485B000AF78607B68FB607B681846BF
:10468C001437BD465DF8047B704780B582B000AF2F
:10469C0078607B68184600F04DF80021786800F0CF
:1046AC005AF87B6818460837BD4680BD80B582B085
:1046BC0000AF78607B681B68002B10D07B68596951
:1046CC007B685B6A04331A46786800F0AAF87B684A
:1046DC0019687B685B681A46786800F0BDF87B68DF
:1046EC001846FFF7C5FF7B6818460837BD4680BDE6
:1046FC0080B582B000AF786039607B6808333A6867
:10470C001146184600F0D2F8034618460837BD4645
:10471C0080BD80B582B000AF78603960386800F039
:10472C00DBF803461946786800F0E1F800BF08375B
:10473C00BD4680BD80B584B000AF78607B68FB60FF
:10474C00FB68BB607B68184600F007F97B6818466D
:10475C001037BD4680BD90B589B000AF7860396028
:10476C000C20FEF7BDFB02463B68B3FBF2F30133B2
:10477C00FB610823FB60FB6902333B6107F110020C
:10478C0007F10C031146184600F000F903461A68AD
:10479C007B685A607B685B681946786800F00AF998
:1047AC0002467B681A607B681A687B685968FB69EB
:1047BC00CB1A5B089B001344BB61FB699B00BA6975
:1047CC0013447B617A69B969786800F02FF97B68CA
:1047DC000833B969184600F044F97B6803F11802F4
:1047EC007B69043B1946104600F03BF97B68DA689C
:1047FC007B689A607B68DC690C20FEF771FB0246D3
:10480C003B68B3FBF2F101FB02F29A1A13465B0010
:10481C0013449B00E2187B689A6100BF2437BD46A5
:10482C0090BD80B586B000AFF860B9607A60BB68A7
:10483C007B6108E07B691B681946F86800F02DF96C
:10484C007B6904337B617A697B689A42F2D300BF3F
:10485C0000BF1837BD4680BD80B58AB000AFF86088
:10486C00B9607A6007F11003F968184600F03CF95A
:10487C00BB687B627B683B6207F11003FB617B6A60
:10488C00BB613B6A7B61FEF70FFB0346002B03D039
:10489C00B8690CF090FB04E07A69B969F86900F02A
:1048AC0034FB00BF00BF2837BD4680BD80B586B045
:1048BC0000AF7860396007F108033A6879681846E8
:1048CC0000F025F907F10803184600F033F9034608
:1048DC0018461837BD4680BD80B483B000AF7860F1
:1048EC007B6818460C37BD465DF8047B7047B0B545
:1048FC0086B000AF786039607B689A697B681B6A08
:10490C000C3B9A4219D07D687B689C69386800F032
:10491C001DF903467D613C61FB60F86800F016F9F7
:10492C0003461946386900F06BFA00BF7B689B6937
:10493C0003F10C027B689A6107E0386800F006F915
:10494C0003461946786800F00DF9786800F056F9BE
:10495C00034618461837BD46B0BD80B582B000AFCF
:10496C0078607B6800221A607B6800225A607B6842
:10497C000833184600F05BF97B681833184600F0D2
:10498C0056F97B6818460837BD4680BD80B483B0A5
:10499C0000AF786039607B681A683B681B689A4284
:1049AC0001D23B6800E07B6818460C37BD465DF8C9
:1049BC00047B704780B586B000AF7860396007F132
:1049CC000C037968184600F08FF83B687B6107F19F
:1049DC000C033B617B69BB60FEF766FA0346002B58
:1049EC0016D0BB68002299009B0F002B00D001222F
:1049FC000B46BB60134603F00103DBB2002B01D066
:104A0C000CF0F3FABB6818460CF0D9FA034607E031
:104A1C00BB6800221946386900F070FB034600BFE2
:104A2C0000BF00BF18461837BD4680BD80B586B0A4
:104A3C0000AFF860B9607A60BB687B6108E0F86829
:104A4C0000F00CF902467B691A607B6904337B61C8
:104A5C007A697B689A42F2D300BF00BF1837BD4613
:104A6C0080BD90B583B000AF786039607B683A68E0
:104A7C00DA603B681A687B685A607B685C6800F097
:104A8C002CF9024613465B0013449B00E2187B682A
:104A9C009A6000BF0C37BD4690BD90B589B000AF91
:104AAC00786039607C680C20FEF71AFA0246FC61CB
:104ABC003B68BB617A61FB693B61BB69FB607B69ED
:104ACC00BB60FEF7F1F90346002B03D0F8680CF03D
:104ADC0072FA04E0BA68F968386900F039FB00BF73
:104AEC0000BF2437BD4690BD80B586B000AF78605E
:104AFC003960386800F0F9F802467B687B613A61EE
:104B0C007B69FB6000BF78681837BD4680BD80B5F7
:104B1C0084B000AFF860B9607A60B968F86800F0EA
:104B2C00EFF87968F86800F007F900BFF8681037FB
:104B3C00BD4680BD80B483B000AF78607B681B68D5
:104B4C0018460C37BD465DF8047B704780B483B0C3
:104B5C0000AF78607B6818460C37BD465DF8047B67
:104B6C0070470000B0B586B000AF786039607868E7
:104B7C0000F05EF90446786800F06CF903469C423C
:104B8C000CBF01230023DBB2002B02D01A480CF01F
:104B9C002FFA0121786800F06EF97A687B685B6AFD
:104BAC001C1D104600F05AF8034623607D687B6894
:104BBC009C693868FFF7CAFF03467D613C61FB6066
:104BCC00F868FFF7C3FF03461946386900F018F977
:104BDC0000BF7B6803F118027B685B6A04331946DB
:104BEC001046FFF73EFF7B68DA697B689A6100BF6D
:104BFC001837BD46B0BD00BFD816010880B586B0C9
:104C0C0000AF786007F108037968184600F04EF998
:104C1C0007F10803184600F058F907F10803184685
:104C2C00FFF788FF034618461837BD4680BD80B491
:104C3C0083B000AF78607B6800221A607B6800222A
:104C4C005A607B6800229A607B680022DA607B687D
:104C5C0018460C37BD465DF8047B7047F0B587B03D
:104C6C0000AF78607E680C20FEF73AF903467E614F
:104C7C003B617B69FB603B69BB60FEF715F9034642
:104C8C00002B1DD0BB6800210C22A3FB02454FF06A
:104C9C0000024FF000032A000023002A00D001215B
:104CAC002346BB600B4603F00103DBB2002B01D0A3
:104CBC000CF09BF9BB6818460CF081F9034607E031
:104CCC00BB6800221946F86800F098FA034600BF4A
:104CDC0000BF18461C37BD46F0BD80B500AF0C2098
:104CEC00FEF7FEF80346184680BD80B483B000AFD3
:104CFC0078607B6818460C37BD465DF8047B7047BE
:104D0C0080B483B000AF786039603B681A687B6808
:104D1C001A603B685A687B685A603B689A687B6883
:104D2C009A603B68DA687B68DA607B6818460C37F7
:104D3C00BD465DF8047B704790B585B000AF7860D8
:104D4C0039607B681A687B685B68D31A9B102B4AA6
:104D5C0002FB03F31A463B681344FB60FB68002B11
:104D6C0008DBFFF7BAFF03461A46FB68934201DAE9
:104D7C00012300E00023002B0AD07B6819683A68F5
:104D8C0013465B0013449B00CA187B681A602FE023
:104D9C00FB68002B07DDFFF7A0FF03461A46FB68F4
:104DAC0093FBF2F307E0FB68DC43FFF796FF034647
:104DBC00B4FBF3F3DB43BB607B68DA68BB689B0036
:104DCC00134419467868FFF74CFE7B685C68FFF764
:104DDC0084FF03461A46BB6802FB03F3FA68D31A36
:104DEC001A4613465B0013449B00E2187B681A605A
:104DFC007B6818461437BD4690BD00BFABAAAAAA63
:104E0C0090B583B000AF786039607B6819460C2090
:104E1C00FEF75AF804463868FFF798FE0246234618
:104E2C0007CA83E80700234618460C37BD4690BDD9
:104E3C0080B582B000AF78607B6803F118027B68A4
:104E4C0008331946104600F06FF803461846083729
:104E5C00BD4680BD80B582B000AF78607B681846D7
:104E6C00FFF743FF0346184600F092F80346184636
:104E7C000837BD4680BD80B582B000AF7860396020
:104E8C003B685A1C7B685B687968486A7968096872
:104E9C00411A89105B1A9A4204D900223968786841
:104EAC0000F092F800BF0837BD4680BD80B582B0D7
:104EBC0000AF786039603B68183319467868FFF7A3
:104ECC001FFF78680837BD4680BD80B582B000AF43
:104EDC0078607B681A687B685B689A420AD17B6849
:104EEC00DB68043B19467868FFF7BBFD7B689A6862
:104EFC007B681A607B681B68A3F10C027B681A60E4
:104F0C007B6818460837BD4680BD80B584B000AFBD
:104F1C00F860B9607A607B689B001946B8680CF041
:104F2C004CF81037BD4680BD80B582B000AF7860BC
:104F3C003960FFF7D2FE034619467B68DA683B6896
:104F4C00DB68D31A9B101A467B68DB68002B14BFF6
:104F5C0001230023DBB2D31A01FB03F37A68116837
:104F6C007A6852688A1A9210084901FB02F21344BB
:104F7C003A6891683A6812688A1A9210034901FBE0
:104F8C0002F2134418460837BD4680BDABAAAAAA44
:104F9C0080B586B000AF78606FF000433B617B68F2
:104FAC007B61084BFB6007F10C0207F11003114603
:104FBC00184600F0DFF803461B6818461837BD4644
:104FCC0080BD00BF5555551590B58BB000AFF8603E
:104FDC00B9601346FB71FB685A6AFB685B69D31AAC
:104FEC009B1001333B62BB683A6A1344FB61FB685C
:104FFC005A68FB695B009A422DD9FB681A68FB68FA
:10500C005968FB69CB1A5B089900FB79002B02D01D
:10501C00BB689B0000E000230B4413447B62FB68DD
:10502C005B697A6A9A4209D2FB685869FB685B6AC9
:10503C0004337A6A194600F0B1F848E0FB68586905
:10504C00FB685B6A191D3B6A9B007A6A13441A461B
:10505C0000F0BCF83BE0FB685C68FB68043307F1CC
:10506C00080211461846FFF791FC03461B682344BF
:10507C000233BB61FB68B9691846FFF79BFC78618A
:10508C00BA69FB69D31A5B089A00FB79002B02D032
:10509C00BB689B0000E0002313447A6913447B62D5
:1050AC00FB685869FB685B6A04337A6A194600F03E
:1050BC0075F8F868FB681968FB685B681A46FFF7B7
:1050CC00CBFBFB687A691A60FB68BA695A60FB68AB
:1050DC000833796A1846FFF7C4FCFB6803F1180023
:1050EC003A6A6FF0404313449B007A6A13441946A2
:1050FC00FFF7B7FC00BF2C37BD4690BD80B586B01E
:10510C0000AFF860B9607A60FB687B616FF0604259
:10511C00BB6893428CBF01230023DBB2002B14BF6E
:10512C0001230023DBB2002B07D0BB68B3F1804F07
:10513C0001D30BF05AFF0BF055FFBB689B001846D0
:10514C000BF03DFF034600BF18461837BD4680BD27
:10515C0080B584B000AFF860B9607A607A681346A5
:10516C005B0013449B001946B8680BF026FF103700
:10517C00BD4680BD80B483B000AF786039603B68B9
:10518C001A687B681B689A4201D23B6800E07B6816
:10519C0018460C37BD465DF8047B704790B585B05A
:1051AC0000AFF860B9607A60F86800F057F8044610
:1051BC00B86800F053F803467A681946204600F0A8
:1051CC0058F8034618461437BD4690BD90B585B0C7
:1051DC0000AFF860B9607A60F86800F03FF80446F8
:1051EC00B86800F03BF803467A681946204600F090
:1051FC0063F8034618461437BD4690BD80B586B09B
:10520C0000AFF860B9607A60FB687B61114ABB68DB
:10521C0093428CBF01230023DBB2002B14BF01236C
:10522C000023DBB2002B07D0BB680B4A934201D999
:10523C000BF0DBFE0BF0D6FEBA6813465B00134492
:10524C009B0018460BF0BBFE034600BF18461837F0
:10525C00BD4680BDAAAAAA0A5555551580B483B07F
:10526C0000AF78607B6818460C37BD465DF8047B50
:10527C007047B0B584B000AFF860B9607A60F86878
:10528C0000F03DF80446B86800F039F805467B6834
:10529C00184600F034F803461A462946204600F01A
:1052AC0039F802463B1D1146184600F043F80346F8
:1052BC0018461037BD46B0BDB0B584B000AFF8602D
:1052CC00B9607A60F86800F01AF80446B86800F023
:1052DC0016F805467B68184600F011F803461A4686
:1052EC002946204600F032F802463B1D114618466E
:1052FC0000F020F8034618461037BD46B0BD80B408
:10530C0083B000AF78607B6818460C37BD465DF8FB
:10531C00047B704780B584B000AFF860B9607A60E8
:10532C007A68B968F86800F021F803461846103717
:10533C00BD4680BD80B483B000AF786039603B68F7
:10534C0018460C37BD465DF8047B704780B584B0B9
:10535C0000AFF860B9607A607A68B968F86800F0F4
:10536C0022F8034618461037BD4680BD80B584B080
:10537C0000AFF860B9607A60FDF79EFD0346002B24
:10538C0006D07A68B968F86800F02AF8034606E097
:10539C007A68B968F86800F046F8034600BF18460A
:1053AC001037BD4680BD80B584B000AFF860B960E1
:1053BC007A60FDF781FD0346002B06D07A68B96848
:1053CC00F86800F05AF8034606E07A68B968F8689D
:1053DC0000F076F8034600BF18461037BD4680BD76
:1053EC0080B487B000AFF860B9607A60BA68FB68C7
:1053FC00D31A9B107B610CE0FB681A687B681A60FF
:10540C00FB680433FB607B6804337B607B69013B86
:10541C007B617B69002BEFDC7B6818461C37BD4633
:10542C005DF8047B704780B586B000AFF860B9605A
:10543C007A60BA68FB68D31A9B107B617B69012B7D
:10544C00CCBF01230023DBB2002B07D07B699B0070
:10545C001A46F96878680BF0D1FE06E07B69012BDF
:10546C0003D1F968786800F05CF87B699B007A6876
:10547C00134418461837BD4680BD80B487B000AFC2
:10548C00F860B9607A60BA68FB68D31A9B107B61CC
:10549C000CE0BB68043BBB60BB681A687B68043BD0
:1054AC007B607B681A607B69013B7B617B69002BAD
:1054BC00EFDC7B6818461C37BD465DF8047B7047F3
:1054CC0080B586B000AFF860B9607A60BA68FB68E6
:1054DC00D31A9B107B617B69012BCCBF012300236A
:1054EC00DBB2002B0BD07B699B005B427A68D01837
:1054FC007B699B001A46F9680BF080FE08E07B691B
:10550C00012B05D17B68043BF968184600F009F8BB
:10551C007B699B005B427A68134418461837BD467A
:10552C0080BD80B483B000AF786039603B681A6886
:10553C007B681A6000BF0C37BD465DF8047B704772
:10554C00F8B500AF18200BF03AFD03461C46204678
:10555C00FDF7DCFC3F4B1C601C200BF030FD0346C0
:10556C001C462046FDF7F6FC3B4B1C601C200BF048
:10557C0026FD03461C462046FDF7ECFC374B1C6011
:10558C0034200BF01CFD03461C462046FDF73FFE65
:10559C00334B1C60C8200BF023FD03461C46202314
:1055AC002360231D06221A6004F1080305251E46FC
:1055BC0004E03046FDF706FE013D2036002DF8DAFA
:1055CC0004F10803274A136048200BF0F8FC03464B
:1055DC001C462046FDF7A7FD234B1C6024200BF036
:1055EC00EEFC03461C462046FDF716FB1F4B1C60C9
:1055FC0024200BF0E4FC03461C462046FDF70CFB74
:10560C001B4B1C6024200BF0DAFC03461C46204686
:10561C00FDF702FB174B1C6024200BF0D0FC03465B
:10562C001C462046FDF7F8FA134B1C6024200BF0A7
:10563C00C6FC03461C462046FDF7EEFA0F4B1C60D9
:10564C000F48FDF71EFE0F4A0F490D480BF0AEFC3C
:10565C0000BFF8BDB0060020B4060020B80600203C
:10566C00BC060020C0060020C4060020C80600208E
:10567C00CC060020D0060020D4060020D80600203E
:10568C0030070020000000209956000880B58AB031
:10569C0000AF786007F108037968184600F01BF832
:1056AC0007F1180379681846FFF700FC7B68184669
:1056BC0000F020F8034607F1180207F1080178689A
:1056CC0000F023F87B681846FEF7F0FF7B6818465D
:1056DC002837BD4680BD80B582B000AF7860396098
:1056EC003B68083319467868FFF70AFB7868083777
:1056FC00BD4680BD80B483B000AF78607B6818462F
:10570C000C37BD465DF8047B704780B48DB000AF9C
:10571C00F860B9607A603B6000BF3437BD465DF815
:10572C00047B704780B500AFFFF70AFF80BD000017
:10573C002DE9B04FD0B000AF0023C7F830314FF097
:10574C0000024FF00003C7E94A234FF000024FF06C
:10575C000003C7E948230023C7F83C310023C7F8EE
:10576C0038310023C7F834314FF000024FF00003FA
:10577C00C7E946234FF000024FF00003C7E944236A
:10578C00DA4B1A69D94BDB8B1B02D31AC7F83031B1
:10579C00D64BDB8A9BB20022184611464FF0000410
:1057AC004FF00005CD0345EA5045C403CF4B5B8B4E
:1057BC009BB200229A469346D7F83031DA179846B6
:1057CC00914608FB0BF20AFB09F31344AAFB0812DF
:1057DC00C7F80C210A46C7F80821D7F80C21134446
:1057EC00C7F80C31D7E94223002B07DA12F1FF017D
:1057FC00396643F100037B66D7E918234FF00000AC
:10580C004FF00001100A40EA0360191202460B46E1
:10581C00A118B96545EB0303FB65D7E91634C7E955
:10582C004A34B24B1B8B9BB20022C7F8D830C7F856
:10583C00DC204FF000044FF00005D7E93612134678
:10584C001D040B4645EA13450B461C04A74B9B8BCA
:10585C009BB20022C7F8D030C7F8D420D7F830312B
:10586C00DA17C7F8C830C7F8CC20D7E934894B46CB
:10587C00D7E932AB524602FB03F25B46414601FBD1
:10588C0003F3134442465146A2FB0112C7F804210C
:10589C000A46C7F80021D7F804211344C7F804318D
:1058AC00D7E94023002B07DA12F17F01396543F168
:1058BC0000037B65D7E914234FF000004FF0000183
:1058CC00D00940EA4360D91102460B46A118B964CD
:1058DC0045EB0303FB64D7E91234C7E94834834B27
:1058EC00DB680022C7F8C030C7F8C420D7F82831CD
:1058FC00D7E930452A4602FB03F2D7F82C31214672
:10590C0001FB03F31A44D7F828312146A3FB0113FA
:10591C00C7F8FC300B46C7F8F830D7F8FC30D31872
:10592C00C7F8FC30D7E93E23002B07DA7049511831
:10593C00396443F100037B64D7E910234FF0000076
:10594C004FF00001500D40EAC3205915D7E9482308
:10595C00841AC7F8B84061EB0303C7F8BC30D7E929
:10596C002E23002B08DA41F6FF715118B96343F16D
:10597C000003FB63D7E90E234FF000004FF000014A
:10598C00500B40EAC340591302460B46574B9A60E2
:10599C00D7F83031DA17C7F8B030C7F8B420534B0A
:1059AC001B8C9BB20022C7F8A830C7F8AC20D7E9F3
:1059BC002C452B46D7E92A89424602FB03F24B467B
:1059CC00214601FB03F3134422464146A2FB01127C
:1059DC00C7F8F4200A46C7F8F020D7F8F42013448F
:1059EC00C7F8F430D7E93C23002B07DA41495118AA
:1059FC00396343F100037B63D7E90C234FF00000BC
:105A0C004FF00001D00D40EA4320D91502460B4659
:105A1C00134603F5FA631A46344B5A60334B5B68F2
:105A2C00B3F5FA6F7FDAD7F83031DA17C7F8A03050
:105A3C00C7F8A420D7F83031DA17C7F89830C7F870
:105A4C009C20D7E928452B46D7E92689424602FBFC
:105A5C0003F24B46214601FB03F313442246414615
:105A6C00A2FB0112C7F8EC200A46C7F8E820D7F8C9
:105A7C00EC201344C7F8EC30D7E93A4522462B46C4
:105A8C009118B9625B41FB62D7E90A232146511890
:105A9C00C7F89010294643EB0101C7F89410D7E9D9
:105AAC002423002B06DA511E396243F101037B6279
:105ABC00D7E908234FF000004FF000015810D91718
:105ACC0002460B461346C7F83431084B5B68A3F506
