:020000040800F2
:1000000000000220CD360008CD080008D508000801
:10001000DD080008E5080008ED0800080000000001
:10002000000000000000000000000000F5080008CB
:100030000309000800000000110900081F0900085A
:100040002137000821370008213700082137000830
:100050002137000821370008213700082137000820
:100060002137000821370008213700082137000810
:100070002137000821370008213700082137000800
:1000800021370008213700082137000821370008F0
:1000900021370008213700082137000821370008E0
:1000A00021370008213700082137000821370008D0
:1000B00021370008213700082137000821370008C0
:1000C00021370008213700082137000821370008B0
:1000D000213700082D0900084109000821370008D0
:1000E00021370008213700080000000021370008F0
:1000F0002137000821370008213700082137000880
:10010000213700082137000821370008213700086F
:10011000550900086909000821370008213700083F
:10012000213700082137000821370008213700084F
:10013000213700082137000821370008213700083F
:1001400000000000000000000000000000000000AF
:100150002137000821370008213700087D090008F1
:10016000213700082137000821370008213700080F
:10017000213700082137000821370008000000005F
:1001800021370008213700082137000821370008EF
:1001900021370008213700082137000821370008DF
:1001A000213700082137000821370008000000002F
:1001B00021370008213700082137000821370008BF
:1001C000213700082137000800000000000000006F
:1001D00000000000000000002137000800000000BF
:1001E000000000000000000000000000000000000F
:1001F000000000000000000021370008213700083F
:1002000021370008213700080000000021370008CE
:10021000213700082137000821370008213700085E
:10022000213700080000000021370008000000000E
:10023000213700082137000800000000213700089E
:10024000213700082137000821370008213700082E
:10025000213700082137000821370008213700081E
:10026000213700082137000821370008213700080E
:10027000213700082137000821370008000000005E
:1002800021370008213700082137000821370008EE
:10029000000000002137000821370008000000009E
:1002A000000000002137000821370008213700082E
:1002B00021370008213700082137000821370008BE
:0C02C00021370008213700082137000812
:1002CC007BB972B90029BEBF00204FF0004106E097
:1002DC0008BF00281CBF6FF000414FF0FF3000F04A
:1002EC0057B8ADF1080C6DE904CE002909DB002BE1
:1002FC001ADB0BF0BBFEDDF804E0DDE9022304B0F1
:10030C007047404261EB4101002B1BDB0BF0AEFE52
:10031C00DDF804E0DDE9022304B0404261EB410169
:10032C00524263EB43037047524263EB43030BF0BF
:10033C009DFEDDF804E0DDE9022304B0404261EBF0
:10034C0041017047524263EB43030BF08FFEDDF823
:10035C0004E0DDE9022304B0524263EB430370472F
:10036C0053B94AB9002908BF00281CBF4FF0FF3110
:10037C004FF0FF3000F00CB8ADF1080C6DE904CE75
:10038C000BF074FEDDF804E0DDE9022304B07047E5
:10039C00704700BF0348044B834202D0034B03B1A8
:1003AC00184770476000002060000020000000002B
:1003BC000548064B1B1AD90F01EBA301491002D0BB
:1003CC00034B03B118477047600000206000002009
:1003DC000000000010B5064C237843B9FFF7DAFF94
:1003EC00044B13B10448AFF300800123237010BDFC
:1003FC00600000200000000034C3000808B5054B65
:10040C001BB105490548AFF30080BDE80840FFF774
:10041C00CFBF00BF000000006400002034C3000800
:10042C0080B58EB000AF07F1240300221A605A6029
:10043C009A60DA601A615B4BD3F8E030594A43F0AA
:10044C000403C2F8E030574BD3F8E03003F0040358
:10045C003B623B6A534BD3F8E030524A43F0800383
:10046C00C2F8E0304F4BD3F8E03003F08003FB616F
:10047C00FB694C4BD3F8E0304A4A43F00103C2F815
:10048C00E030484BD3F8E03003F00103BB61BB69AB
:10049C00444BD3F8E030434A43F00203C2F8E03057
:1004AC00404BD3F8E03003F002037B617B693D4B9A
:1004BC00D3F8E0303B4A43F02003C2F8E030394B2C
:1004CC00D3F8E03003F020033B613B69354BD3F8A4
:1004DC00E030344A43F01003C2F8E030314BD3F82B
:1004EC00E03003F01003FB60FB682E4BD3F8E030D8
:1004FC002C4A43F00803C2F8E0302A4BD3F8E03022
:10050C0003F00803BB60BB68264BD3F8E030254AE8
:10051C0043F04003C2F8E030224BD3F8E03003F054
:10052C0040037B607B6800224FF400511E4803F0AF
:10053C00D9FC002203211D4803F0D4FC0022182111
:10054C001B4803F0CFFC4FF400537B620123BB62CA
:10055C000223FB6200233B6307F124031946124874
:10056C0003F018FB03237B620123BB620223FB62B3
:10057C0000233B6307F1240319460C4803F00AFBE4
:10058C0018237B620123BB620223FB6200233B63C3
:10059C0007F124031946064803F0FCFA00BF38376C
:1005AC00BD4680BD004402580008025800040258A1
:1005BC00000C025880B500AF1B4B1C4A1A601A4B3A
:1005CC001B4A5A60184B00229A60174B0122DA60C2
:1005DC00154B00221A61144B00225A61124B002257
:1005EC009A61114B0022DA610F4B00221A620E48FD
:1005FC0003F092FC0346002B01D000F041F90021DE
:10060C00094804F0D9F90346002B01D000F038F961
:10061C000021054804F01BFA0346002B01D000F022
:10062C002FF900BF80BD00BF7C00002000540040AB
:10063C00724E406080B5B8B000AF786007F1CC0363
:10064C0000221A605A609A60DA601A6107F110038E
:10065C00B822002118460BF081FC7B681B68264AE7
:10066C00934245D14FF008024FF00003C7E9042331
:10067C000023C7F8903007F11003184605F0D4F9A1
:10068C000346002B01D000F0FBF81C4BD3F8E030F4
:10069C001A4A43F00203C2F8E030184BD3F8E030AA
:1006AC0003F00203FB60FB68C023C7F8CC301223B5
:1006BC00C7F8D0300023C7F8D4300023C7F8D8309F
:1006CC000423C7F8DC3007F1CC0319460C4803F0BF
:1006DC0061FA0A4BD3F8E830084A43F40013C2F825
:1006EC00E830064BD3F8E83003F40013BB60BB686A
:1006FC0000BFE037BD4680BD0054004000440258A6
:10070C000004025880B500AF00F08EF803F004F836
:10071C0000F01CF8FFF784FEFFF74CFF00F0BAFD69
:10072C0000F0FEFB00F04EFE00F0E8FA00F096FE42
:10073C0000F0FCFD00F0DEFE00F026FA00F056FBA7
:10074C0002F0B6F902F068FAFCE7000080B59CB044
:10075C0000AF07F124034C22002118460BF0FEFBDE
:10076C003B1D2022002118460BF0F8FB022004F060
:10077C00BBF900233B602B4B9B692A4A23F4404373
:10078C009361284B9B6903F440433B603B6800BF7B
:10079C00244B9B6903F40053B3F5005FF8D101239C
:1007AC007B624FF48033BB620223BB640223FB6485
:1007BC0002233B652C237B650123BB650223FB6570
:1007CC0002233B660C237B660023BB660023FB667F
:1007DC0007F12403184604F0C1F90346002B01D09D
:1007EC0000F04EF83F237B600323BB600023FB60CB
:1007FC0008233B6140237B614023BB614FF4806342
:10080C00FB6140233B623B1D0321184604F080FD35
:10081C000346002B01D000F033F800BF7037BD4603
:10082C0080BD00BF0048025880B584B000AF3B4685
:10083C0000221A605A609A60DA6003F033F90123DF
:10084C003B7000237B7000237B601F233B7287234C
:10085C007B720023BB720023FB7201233B730123C9
:10086C007B730023BB730023FB733B46184603F0DA
:10087C0051F9042003F02EF900BF1037BD4680BD9E
:10088C0080B400AF72B600BF00BFFDE780B483B088
:10089C0000AF0A4BD3F8F430084A43F00203C2F815
:1008AC00F430064BD3F8F43003F002037B607B6822
:1008BC0000BF0C37BD465DF8047B704700440258FE
:1008CC0080B400AF00BFFDE780B400AF00BFFDE710
:1008DC0080B400AF00BFFDE780B400AF00BFFDE700
:1008EC0080B400AF00BFFDE780B400AF00BFBD46D1
:1008FC005DF8047B704780B400AF00BFBD465DF867
:10090C00047B704780B400AF00BFBD465DF8047B2C
:10091C00704780B500AF02F071FF00BF80BD0000D2
:10092C0080B500AF024808F0B9F800BF80BD00BF29
:10093C002C03002080B500AF024808F0AFF800BFD0
:10094C0080BD00BFC003002080B500AF024808F096
:10095C00A5F800BF80BD00BF0402002080B500AF29
:10096C00024808F09BF800BF80BD00BF9802002031
:10097C0080B500AF024808F091F800BF80BD00BF01
:10098C005404002080B400AF01231846BD465DF826
:10099C00047B704780B582B000AF786039600BF093
:1009AC0039FB034616221A604FF0FF3318460837FE
:1009BC00BD4680BD80B582B000AF78604FF0FF318E
:1009CC007868FFF7E7FF00BFFDE7000080B586B051
:1009DC0000AF7860144A154BD31A7B617B693B617D
:1009EC00134B1B68002B02D1114B124A1A60104B8F
:1009FC001A687B6813443A699A4207D20BF00AFBD7
:100A0C0003460C221A604FF0FF3309E0084B1B68B9
:100A1C00FB60074B1A687B681344054A1360FB683C
:100A2C0018461837BD4680BD0000022000040000A7
:100A3C00D0000020A006002080B400AF3E4BD3F8BD
:100A4C0088303D4A43F47003C2F888303B4B1B6836
:100A5C0003F00F03062B07D8384B1B6823F00F034A
:100A6C00364A43F007031360354B1B68344A43F096
:100A7C0001031360324B00221A61314B1A68304962
:100A8C00304B13400B602D4B1B6803F00803002BFD
:100A9C0007D02A4B1B6823F00F03284A43F00703A7
:100AAC001360274B00229A61254B0022DA61244BFC
:100ABC0000221A62224B244A9A62214B234ADA62A0
:100ACC001F4B234A1A631E4B00225A631C4B204AAD
:100ADC009A631B4B0022DA63194B1D4A1A64184B9C
:100AEC0000225A64164B1B68154A23F480231360AA
:100AFC00134B00221A66124BD3F8D43003F48053F4
:100B0C00002B13D10E4BD3F8D4300D4A43F4805341
:100B1C00C2F8D4300F4B43F2D2021A60084BD3F810
:100B2C00D430074A23F48053C2F8D43000BFBD46FA
:100B3C005DF8047B704700BF00ED00E00020005220
:100B4C00004402587FEDF6EA000202020000FF01A9
:100B5C00800201010040005280B400AF094BDB68F9
:100B6C00084A43F00203D36000BF064B5B6803F4F2
:100B7C000053002BF9D000BF00BFBD465DF8047BCD
:100B8C00704700BF0048025880B59CB000AF07F119
:100B9C00600300221A605A609A60DA6007F154030D
:100BAC0000221A605A609A6007F1380300221A601A
:100BBC005A609A60DA601A615A619A613B1D34225C
:100BCC00002118460BF0CAF94A4B4B4A1A60494BA4
:100BDC004FF489725A60474B00229A60454B44F699
:100BEC001F62DA60434B00221A61424B00225A61A9
:100BFC00404B00229A613F4806F0D8FC0346002B7C
:100C0C0001D0FFF73DFE4FF480533B6607F16003C4
:100C1C001946384806F0B2FF0346002B01D0FFF707
:100C2C002FFE344806F019FD0346002B01D0FFF7C8
:100C3C0027FE00237B650023BB650023FB6507F1C2
:100C4C00540319462B4807F0D7FC0346002B01D060
:100C5C00FFF716FE6023BB630023FB6300233B649A
:100C6C0000237B640023BB640023FB6400233B65EF
:100C7C0007F13803082219461E4806F06BFE03469E
:100C8C00002B01D0FFF7FCFD07F138030C221946AD
:100C9C00184806F05FFE0346002B01D0FFF7F0FD6D
:100CAC0000237B600023BB600023FB6000233B61BF
:100CBC0000237B614FF40053BB610023FB610023D5
:100CCC007B624FF00073BB620023FB6200237B63EB
:100CDC003B1D1946074807F02BFD0346002B01D09E
:100CEC00FFF7CEFD034800F01DFA00BF7037BD467C
:100CFC0080BD00BFD40000200000014080B58EB044
:100D0C0000AF07F1280300221A605A609A60DA607B
:100D1C0007F11C0300221A605A609A603B460022BD
:100D2C001A605A609A60DA601A615A619A612D4BA6
:100D3C002D4A1A602B4B4FF489725A60294B0022B2
:100D4C009A60284B4FF6FF72DA60264B00221A612C
:100D5C00244B00229A61234806F028FC0346002B02
:100D6C0001D0FFF78DFD4FF48053BB6207F12803D0
:100D7C0019461C4806F002FF0346002B01D0FFF772
:100D8C007FFD184806F069FC0346002B01D0FFF7E5
:100D9C0077FD0023FB6100237B6207F11C031946DE
:100DAC00104807F029FC0346002B01D0FFF768FD23
:100DBC0060233B6000237B600023BB6000233B610E
:100DCC003B4600221946074806F0C4FD0346002B9B
:100DDC0001D0FFF755FD034800F0A4F900BF3837E8
:100DEC00BD4680BD200100200004004080B58EB0BF
:100DFC0000AF07F1280300221A605A609A60DA608B
:100E0C0007F11C0300221A605A609A603B460022CC
:100E1C001A605A609A60DA601A615A619A613E4BA4
:100E2C003E4A1A603C4B4FF489725A603A4B00228E
:100E3C009A60394B44F61F62DA60374B00221A6114
:100E4C00354B00229A61344806F0B0FB0346002B68
:100E5C0001D0FFF715FD4FF48053BB6207F1280357
:100E6C0019462D4806F08AFE0346002B01D0FFF7E9
:100E7C0007FD294806F0F1FB0346002B01D0FFF7D4
:100E8C00FFFC0023FB6100237B6207F11C03194666
:100E9C00214807F0B1FB0346002B01D0FFF7F0FC13
:100EAC0060233B6000237B600023BB6000233B611D
:100EBC003B4600221946184806F04CFD0346002B11
:100ECC0001D0FFF7DDFC3B4604221946124806F020
:100EDC0041FD0346002B01D0FFF7D2FC3B46082214
:100EEC0019460D4806F036FD0346002B01D0FFF7DE
:100EFC00C7FC3B460C221946074806F02BFD03465F
:100F0C00002B01D0FFF7BCFC034800F00BF900BF2D
:100F1C003837BD4680BD00BF6C0100200008004082
:100F2C0080B58EB000AF07F1280300221A605A601A
:100F3C009A60DA6007F11C0300221A605A609A600A
:100F4C003B4600221A605A609A60DA601A615A6154
:100F5C009A613E4B3E4A1A603C4B4FF489725A6080
:100F6C003A4B00229A60394B44F61F62DA60374BD9
:100F7C0000221A61354B00229A61344806F016FBA8
:100F8C000346002B01D0FFF77BFC4FF48053BB6270
:100F9C0007F1280319462D4806F0F0FD0346002BF7
:100FAC0001D0FFF76DFC294806F057FB0346002BD8
:100FBC0001D0FFF765FC0023FB6100237B6207F186
:100FCC001C031946214807F017FB0346002B01D0E0
:100FDC00FFF756FC60233B6000237B600023BB6063
:100FEC0000233B613B4600221946184806F0B2FC30
:100FFC000346002B01D0FFF743FC3B460422194665
:10100C00124806F0A7FC0346002B01D0FFF738FC72
:10101C003B46082219460D4806F09CFC0346002B63
:10102C0001D0FFF72DFC3B460C221946074806F071
:10103C0091FC0346002B01D0FFF722FC034800F083
:10104C0071F800BF3837BD4680BD00BFB801002025
:10105C0000E4004080B487B000AF78607B681B6808
:10106C002B4A93420FD12B4BD3F8F030294A43F043
:10107C000103C2F8F030274BD3F8F03003F0010332
:10108C007B617B693DE07B681B68234A93420FD1EF
:10109C00204BD3F8E8301F4A43F00203C2F8E83083
:1010AC001C4BD3F8E83003F002033B613B6928E0AA
:1010BC007B681B68194A93420FD1164BD3F8E83062
:1010CC00144A43F00403C2F8E830124BD3F8E8306A
:1010DC0003F00403FB60FB6813E07B681B68104A99
:1010EC0093420ED10B4BD3F8EC300A4A43F0007309
:1010FC00C2F8EC30074BD3F8EC3003F00073BB6054
:10110C00BB6800BF1C37BD465DF8047B704700BF51
:10111C000000014000440258000400400008004058
:10112C0000E4004080B58CB000AF786007F11C0380
:10113C0000221A605A609A60DA601A617B681B6838
:10114C004B4A934220D14B4BD3F8E030494A43F001
:10115C001003C2F8E030474BD3F8E03003F0100333
:10116C00BB61BB694FF4C043FB6102233B620023AC
:10117C007B620023BB620123FB6207F11C0319464F
:10118C003D4802F007FD6FE07B681B683B4A9342C9
:10119C001FD1384BD3F8E030364A43F00403C2F881
:1011AC00E030344BD3F8E03003F004037B617B690F
:1011BC004023FB6102233B6200237B620023BB6262
:1011CC000223FB6207F11C0319462D4802F0E2FCD6
:1011DC004AE07B681B682B4A934220D1254BD3F8FD
:1011EC00E030244A43F00803C2F8E030214BD3F836
:1011FC00E03003F008033B613B694FF47043FB6143
:10120C0002233B6200237B620023BB620223FB624E
:10121C0007F11C0319461C4802F0BCFC24E07B6857
:10122C001B681A4A93421FD1124BD3F8E030114A73
:10123C0043F02003C2F8E0300E4BD3F8E03003F05B
:10124C002003FB60FB684FF4F043FB6102233B621D
:10125C0000237B620023BB620E23FB6207F11C039D
:10126C0019460B4802F096FC00BF3037BD4680BDD6
:10127C0000000140004402580010025800040040D5
:10128C000008025800080040000C025800E400401E
:10129C000014025880B500AF224B234A1A60214B30
:1012AC004FF4E1325A601F4B00229A601D4B002212
:1012BC00DA601C4B00221A611A4B0C225A61194B32
:1012CC0000229A61174B0022DA61164B00221A6237
:1012DC00144B00225A62134B00229A62114807F0F9
:1012EC00B3FA0346002B01D0FFF7CAFA00210D48D0
:1012FC0009F02DFF0346002B01D0FFF7C1FA0021A6
:10130C00084809F062FF0346002B01D0FFF7B8FA3A
:10131C00044809F0E3FE0346002B01D0FFF7B0FAB6
:10132C0000BF80BD04020020004C004080B500AF1F
:10133C00224B234A1A60214B4FF4E1325A601F4B67
:10134C0000229A601D4B0022DA601C4B00221A61AD
:10135C001A4B0C225A61194B00229A61174B00222E
:10136C00DA61164B00221A62144B00225A62134B9C
:10137C0000229A62114807F067FA0346002B01D04D
:10138C00FFF77EFA00210D4809F0E1FE0346002B21
:10139C0001D0FFF775FA0021084809F016FF034643
:1013AC00002B01D0FFF76CFA044809F097FE0346B6
:1013BC00002B01D0FFF764FA00BF80BD980200201B
:1013CC000050004080B500AF224B234A1A60214BDD
:1013DC004FF416525A601F4B00229A601D4B00228C
:1013EC00DA601C4B00221A611A4B0C225A61194B01
:1013FC0000229A61174B0022DA61164B00221A6206
:10140C00144B00225A62134B00229A62114807F0C7
:10141C001BFA0346002B01D0FFF732FA00210D48CE
:10142C0009F095FE0346002B01D0FFF729FA0021A5
:10143C00084809F0CAFE0346002B01D0FFF720FA3A
:10144C00044809F04BFE0346002B01D0FFF718FAB5
:10145C0000BF80BD2C0300200010014080B500AF00
:10146C00224B234A1A60214B4FF4E1325A601F4B36
:10147C0000229A601D4B0022DA601C4B00221A617C
:10148C001A4B0C225A61194B00229A61174B0022FD
:10149C00DA61164B00221A62144B00225A62134B6B
:1014AC0000229A62114807F0CFF90346002B01D0B5
:1014BC00FFF7E6F900210D4809F049FE0346002B21
:1014CC0001D0FFF7DDF90021084809F07EFE034644
:1014DC00002B01D0FFF7D4F9044809F0FFFD0346B7
:1014EC00002B01D0FFF7CCF900BF80BDC00300205A
:1014FC000044004080B500AF224B234A1A60214BB8
:10150C004FF4E1325A601F4B00229A601D4B0022AF
:10151C00DA601C4B00221A611A4B0C225A61194BCF
:10152C0000229A61174B0022DA61164B00221A62D4
:10153C00144B00225A62134B00229A62114807F096
:10154C0083F90346002B01D0FFF79AF900210D48CF
:10155C0009F0FDFD0346002B01D0FFF791F90021A6
:10156C00084809F032FE0346002B01D0FFF788F93A
:10157C00044809F0B3FD0346002B01D0FFF780F9B6
:10158C0000BF80BD540400200014014080B5C4B0DD
:10159C0000AF07F58873A3F58673186007F1FC0399
:1015AC0000221A605A609A60DA601A6107F14003EF
:1015BC00B822002118460AF0D1FC07F58873A3F570
:1015CC0086731B681B68A64A934273D14FF00202C4
:1015DC004FF00003C7E910230023C7F8B43007F11C
:1015EC004003184604F020FA0346002B01D0FFF705
:1015FC0047F99C4BD3F8E8309A4A43F40023C2F8DD
:10160C00E830984BD3F8E83003F40023FB63FB6B12
:10161C00944BD3F8E030934A43F00103C2F8E03026
:10162C00904BD3F8E03003F00103BB63BB6B8D4BE5
:10163C00D3F8E0308B4A43F00403C2F8E030894B16
:10164C00D3F8E03003F004037B637B6B0123C7F812
:10165C00FC300223C7F800310023C7F80431002303
:10166C00C7F808310823C7F80C3107F1FC031946F9
:10167C007D4802F08FFA4FF40063C7F8FC30022368
:10168C00C7F800310023C7F804310023C7F808312C
:10169C000823C7F80C3107F1FC031946734802F014
:1016AC0079FA00220121342002F0C7F9342002F02B
:1016BC00DEF9F6E107F58873A3F586731B681B68E2
:1016CC006B4A934273D14FF002024FF00003C7E90B
:1016DC0010230023C7F8B43007F14003184604F078
:1016EC00A3F90346002B01D0FFF7CAF85D4BD3F8E2
:1016FC00E8305C4A43F48013C2F8E830594BD3F815
:10170C00E83003F480133B633B6B564BD3F8E0306B
:10171C00544A43F00403C2F8E030524BD3F8E030A3
:10172C0003F00403FB62FB6A4E4BD3F8E0304D4AE6
:10173C0043F00803C2F8E0304A4BD3F8E03003F032
:10174C000803BB62BB6A4FF48053C7F8FC3002231A
:10175C00C7F800310023C7F804310023C7F808315B
:10176C000823C7F80C3107F1FC0319463F4802F077
:10177C0011FA0423C7F8FC300223C7F80031002308
:10178C00C7F804310023C7F808310823C7F80C3117
:10179C0007F1FC031946374802F0FCF9002200213E
:1017AC00352002F04AF9352002F061F979E107F5AC
:1017BC008873A3F586731B681B682F4A93425FD10D
:1017CC004FF001024FF00003C7E910230023C7F8C4
:1017DC00B83007F14003184604F026F90346002BF5
:1017EC0001D0FFF74DF81F4BD3F8F0301D4A43F0F2
:1017FC001003C2F8F0301B4BD3F8F03003F0100399
:10180C007B627B6A174BD3F8E030164A43F0020335
:10181C00C2F8E030134BD3F8E03003F002033B6224
:10182C003B6A4FF44043C7F8FC300223C7F8003141
:10183C000023C7F804310023C7F808310423C7F884
:10184C000C3107F1FC0319460C4802F0A3F90022F5
:10185C000021252002F0F1F8252002F008F920E102
:10186C00004C004000440258000002580008025886
:10187C0000500040000C02580010014000040258B7
:10188C0007F58873A3F586731B681B68874A934218
:10189C0072D14FF002024FF00003C7E9102300236E
:1018AC00C7F8B43007F14003184604F0BDF80346FE
:1018BC00002B01D0FEF7E4FF7D4BD3F8E8307C4AD7
:1018CC0043F40033C2F8E830794BD3F8E83003F432
:1018DC000033FB61FB69764BD3F8E030744A43F07C
:1018EC000103C2F8E030724BD3F8E03003F001038F
:1018FC00BB61BB696E4BD3F8E0306D4A43F0080313
:10190C00C2F8E0306A4BD3F8E03003F008037B6197
:10191C007B690823C7F8FC300223C7F80031002389
:10192C00C7F804310023C7F808310723C7F80C3176
:10193C0007F1FC0319465F4802F02CF92023C7F885
:10194C00FC300223C7F800310023C7F80431002310
:10195C00C7F808310723C7F80C3107F1FC03194607
:10196C00554802F017F900220221262002F065F8F2
:10197C00262002F07CF894E007F58873A3F58673B3
:10198C001B681B684D4A934240F08B804FF001025C
:10199C004FF00003C7E910230023C7F8B83007F154
:1019AC004003184604F040F80346002B01D0FEF724
:1019BC0067FF3F4BD3F8F0303D4A43F02003C2F8A9
:1019CC00F0303B4BD3F8F03003F0200207F588736E
:1019DC00A3F580731A6007F58873A3F580731B68F1
:1019EC00334BD3F8E030324A43F00403C2F8E03012
:1019FC002F4BD3F8E03003F0040207F58873A3F5FE
:101A0C0082731A6007F58873A3F582731B68284BE1
:101A1C00D3F8E030264A43F04003C2F8E030244BC0
:101A2C00D3F8E03003F0400207F58873A3F5847314
:101A3C001A6007F58873A3F584731B688023C7F8B5
:101A4C00FC300223C7F800310023C7F8043100230F
:101A5C00C7F808310723C7F80C3107F1FC03194606
:101A6C00174802F097F84FF48043C7F8FC30022374
:101A7C00C7F800310023C7F804310023C7F8083138
:101A8C000723C7F80C3107F1FC0319460D4802F087
:101A9C0081F800220121472001F0CFFF472001F0FF
:101AAC00E6FF00BF07F58877BD4680BD00440040C7
:101ABC000044025800000258000C02580014014067
:101ACC00000802580018025880B483B000AF786048
:101ADC007B681B8807EE903AF8EE677AB0EE670ADF
:101AEC000C37BD465DF8047B7047000080B582B0B2
:101AFC0000AF786039607B683A685A640022102124
:101B0C00094802F0EFF900220821074802F0EAF92F
:101B1C007B68586C7B680C330122194606F072FF07
:101B2C0000BF0837BD4680BD000C025880B586B09A
:101B3C0000AF78607B681B7BFF2B03D07B681B7B23
:101B4C00FE2B06D17B680022DA757B6806221A769A
:101B5C001CE07B681B7BFD2B06D17B680022DA75B1
:101B6C007B6804221A7611E07B681B7BFC2B07D068
:101B7C007B681B7BFB2B03D07B681B7BFA2B05D173
:101B8C007B680022DA757B6803221A767B68DB7D22
:101B9C0019467B681A7B7B680B445A737B68DB7D28
:101BAC000133DAB27B68DA757B68DB7D092B02D9ED
:101BBC007B680022DA757B68DA7D7B681B7E9A4233
:101BCC0040F001817B685B7BFF2B1FD07B685B7BCC
:101BDC00FE2B1BD07B685B7BFD2B17D07B685B7B64
:101BEC00FC2B13D07B685B7BFB2B0FD07B685B7B68
:101BFC00FA2B0BD07B680022DA757B68586C7B68FB
:101C0C000C330122194606F0FDFEE4E00023FB75BF
:101C1C0001233B610AE07A683B6913440D331A785F
:101C2C00FB7D1344FB753B6901333B617B681B7E79
:101C3C00013B3A699A42EEDB7B681B7E013B7A687A
:101C4C0013445B7BFA7D9A4215D0FA7D7B681B7E30
:101C5C00013B79680B445B7B0F3B9A420BD07B6852
:101C6C000022DA757B68586C7B680C3301221946AC
:101C7C0006F0C8FEAFE07B685B7BFA3B052B00F2FD
:101C8C009B8001A252F823F0A31D0008871D0008B9
:101C9C006B1D00083B1D00080B1D0008AD1C000847
:101CAC007B689B7B1BB21B021AB27B68DB7B1BB273
:101CBC001343FB817B681B7C1BB21B021AB27B6833
:101CCC005B7C1BB21343BB81B7F90E3007EE903A25
:101CDC00B8EEE77ADFED416AC7EE267A7B68C3ED92
:101CEC000C7AB7F90C3007EE903AB8EEE77ADFEDE4
:101CFC003B6AC7EE267A7B68C3ED0D7A63E07B689E
:101D0C009B7B1BB21B021AB27B68DB7B1BB213439F
:101D1C007B81B7F90A3007EE903AB8EEE77ADFED3F
:101D2C002F6AC7EE267A7B68C3ED0E7A4BE07B6890
:101D3C009B7B1BB21B021AB27B68DB7B1BB213436F
:101D4C003B81B7F9083007EE903AB8EEE77ADFED51
:101D5C00236AC7EE267A7B68C3ED0F7A33E07B6883
:101D6C009B7B012B2AD17B6893F8403083F00103D5
:101D7C00DAB27B6883F8402020E07B689B7B012BE8
:101D8C001ED17B6893F8413083F00103DAB27B6893
:101D9C0083F8412014E07B689B7B012B12D17B687C
:101DAC0093F84230002B0CBF01230023DBB21A4600
:101DBC007B6883F8422005E000BF04E000BF02E02E
:101DCC0000BF00E000BF7B68586C7B680C330122BD
:101DDC00194606F017FE1837BD4680BD00EAFF46CF
:101DEC0080B588B000AF78607B68EF221A777B688B
:101DFC001B68002B09D07B681B68184600F010F993
:101E0C00F0EE407A7B68C3ED087A7B685B68002B48
:101E1C0009D07B685B681846FFF756FEF0EE407AF7
:101E2C007B68C3ED097A7B689B68002B09D07B68C3
:101E3C009B681846FFF748FEF0EE407A7B68C3EDCE
:101E4C000A7A7B6893F840301A467B6883F82C201A
:101E5C007B6893F841301A467B6883F82D207B68A9
:101E6C0093F842207B6883F82E200023FB77EF2326
:101E7C003B733A7BFB7F1344FB777B68D3ED087A8B
:101E8C009FED3E7A67EE877AFDEEE77A17EE903A91
:101E9C00BB83BB8B1B0A9BB2DBB27B73BB8BDBB2F2
:101EAC00BB737A7BBB7B1344DAB2FB7F1344FB77A7
:101EBC007B68D3ED097A9FED317A67EE877AFDEE78
:101ECC00E77A17EE903A7B837B8B1B0A9BB2DBB2D3
:101EDC00FB737B8BDBB23B74FA7B3B7C1344DAB237
:101EEC00FB7F1344FB777B68D3ED0A7A9FED237A53
:101EFC0067EE877AFDEEE77A17EE903A3B833B8BE1
:101F0C001B0A9BB2DBB27B743B8BDBB2BB747A7C5F
:101F1C00BB7C1344DAB2FB7F1344FB777B6893F8EA
:101F2C002C30002B01D0012300E00023FB747B68D4
:101F3C0093F82D30002B01D0012300E000233B75DA
:101F4C00FA7C3B7D1344DAB2FB7F1344FB777B684E
:101F5C0093F82E307B757A7DFB7F1344FB77FB7FE8
:101F6C00BB757B68586C07F10C014FF0FF330B22EB
:101F7C0006F0BAFC00BF2037BD4680BD0000C84249
:101F8C0080B582B000AF786001F000F80346002BFA
:101F9C0014BF01230023DAB27B681A7400BF083720
:101FAC00BD4680BD80B582B000AF78607B685A6852
:101FBC007B689A607B681A687B685A6001F054FBF6
:101FCC00F0EE407A7B68C3ED007A7B6893ED027A81
:101FDC007B68D3ED017A37EE277A7B68D3ED007AF4
:101FEC0037EE277AF0EE086AC7EE267A9FED097A6B
:101FFC0077EEC77A9FED087A27EE877ADFED076ACE
:10200C00C7EE267A7B68C3ED037A00BF0837BD465E
:10201C0080BD00BF00CDC34700007A44004819467C
:10202C0080B483B000AF78607B68DB6807EE903AD1
:10203C00B0EE670A0C37BD465DF8047B704780B57F
:10204C0082B000AF786039607B683A68DA607B6890
:10205C00D8687B6803330122194606F0D3FC00BF15
:10206C000837BD4680BD80B582B000AF78607B6814
:10207C00D8687B68991C4FF6FF73012206F034FC7C
:10208C0000BF0837BD4680BD80B582B000AF786018
:10209C007B68DB78FF2B02D17B6800221A727B688D
:1020AC001B7A19467B68DA787B680B441A717B685B
:1020BC001B7A0133DAB27B681A727B681B7A042BA9
:1020CC0022D17B681B79FF2B1BD17B681B791A46AD
:1020DC007B685B7913447A6892791344DBB27A6833
:1020EC00D27993420DD17B685B791BB21B021AB279
:1020FC007B689B791BB213431BB29AB27B681A8024
:10210C0002E07B6800221A727B68D8687B68033314
:10211C000122194606F076FC00BF0837BD4680BD8B
:10212C0080B483B000AF87ED010AD7ED017AF0EEF1
:10213C00E77AB0EE670A0C37BD465DF8047B704752
:10214C0080B588B000AF786039607B683A685A63B4
:10215C007B68586B7B6824330122194606F052FCCD
:10216C001C4A07F1180392E8030018600433197035
:10217C007B68586B07F118014FF6FF73052206F0C8
:10218C00B3FBC82001F05AFB134B3B6100233B759A
:10219C007B68586B07F110014FF6FF73052206F0B0
:1021AC00A3FB40F6B83001F049FB4AF6FF23BB60B5
:1021BC0000233B737B68586B07F108014FF6FF73E4
:1021CC00052206F091FBC82001F038FB00BF203738
:1021DC00BD4680BD4CC30008FFAA010480B58EB07B
:1021EC0000AF78607B6893F82430552B03D17B6863
:1021FC00002283F830207B6893F8303019467B68D6
:10220C0093F824207B680B4483F825207B6893F893
:10221C0030300133DAB27B6883F830207B6893F876
:10222C0030300B2B40F02F82002387F837300023FF
:10223C00FB854FF00003BB624FF000037B624FF055
:10224C0000033B624FF00003FB614FF00003BB61E6
:10225C004FF000037B614FF000033B614FF0000334
:10226C00FB604FF00003BB6000233B630CE07A681B
:10227C003B6B134425331A7897F83730134487F89F
:10228C0037303B6B01333B633B6B092BEFDD7B68DA
:10229C0093F82F3097F837209A4204D07B680022AD
:1022AC0083F83020EFE17B6893F82630532B00F055
:1022BC00E680532B00F3E781512B02D0522B75D0C3
:1022CC00E1E17B6893F82C301BB21B02FB857B6829
:1022DC0093F82B301AB2FB8D1343FB85B7F92E30D4
:1022EC0007EE903AB8EEE77ADFEDA26AC7EE267AEF
:1022FC00B3EE007A67EE877A9FED987A67EE877A6D
:10230C00C7ED027A7B68BA689A607B6893F82A30CA
:10231C001BB21B02FB857B6893F829301AB2FB8D2C
:10232C001343FB85B7F92E3007EE903AB8EEE77AF7
:10233C00DFED906AC7EE267AB3EE007A67EE877A05
:10234C009FED867A67EE877AC7ED037A7B68FA6829
:10235C005A607B6893F828301BB21B02FB857B68A4
:10236C0093F827301AB2FB8D1343FB85B7F92E3047
:10237C0007EE903AB8EEE77ADFED7E6AC7EE267A82
:10238C00B3EE007A67EE877A9FED747A67EE877A00
:10239C00C7ED047A7B683A691A607B68012283F87E
:1023AC0031207B68002283F826206CE17B6893F84F
:1023BC002C301BB21B02FB857B6893F82B301AB2B6
:1023CC00FB8D1343FB85B7F92E3007EE903AB8EE30
:1023DC00E77ADFED686AC7EE267A9FED617A67EEE1
:1023EC00877AC7ED057A7B687A695A617B6893F8BE
:1023FC002A301BB21B02FB857B6893F829301AB27A
:10240C00FB8D1343FB85B7F92E3007EE903AB8EEEF
:10241C00E77ADFED586AC7EE267A9FED517A67EEC0
:10242C00877AC7ED067A7B68BA691A617B6893F87C
:10243C0028301BB21B02FB857B6893F827301AB23D
:10244C00FB8D1343FB85B7F92E3007EE903AB8EEAF
:10245C00E77ADFED486AC7EE267A9FED417A67EEA0
:10246C00877AC7ED077A7B68FA69DA607B680122A4
:10247C0083F832207B68002283F8262003E17B68F6
:10248C0093F82C301BB21B02FB857B6893F82B3026
:10249C001AB2FB8D1343FB85B7F92E3007EE903A39
:1024AC00B8EEE77ADFED336AC7EE267A9FED327A23
:1024BC0067EE877AC7ED087A7B683A6A1A62294B0D
:1024CC001B68312B08DC274B1B680133254A136032
:1024DC007B681A6A7B681A627B6893F828301BB297
:1024EC001B02FB857B6893F827301AB2FB8D1343D4
:1024FC00FB85B7F92E3007EE903AB8EEE77ADFEDB0
:10250C001D6AC7EE267A9FED1C7A67EE877AC7EDB7
:10251C000A7A154B93ED007AD7ED0A7A77EE677A43
:10252C00B0EE670AFFF7FCFDF0EE407AB3EE0E7AE0
:10253C00F4EEC77AF1EE10FA4CBF01230023DBB2A4
:10254C00002B03D07B68BA6ADA612FE0054B1B685D
:10255C00042B13DC7B68BA6ADA6127E0CDCC1C4112
:10256C000000FA44E8040020EC04002000002043A2
:10257C00000020C30000004700003443D7ED0A7A66
:10258C001FED067AF4EEC77AF1EE10FA02DD7B68E5
:10259C00BA6ADA61D7ED0A7A1FED0B7AF4EEC77AD4
:1025AC00F1EE10FA02D57B68BA6ADA617B6893F8AF
:1025BC002A301BB21B02FB857B6893F829301AB2B8
:1025CC00FB8D1343FB85B7F92E3007EE903AF8EEEE
:1025DC00E77AB1EE677A5FED196AC7EE267A1FEDDE
:1025EC001A7A67EE877AC7ED097A2D4B93ED007A4C
:1025FC00D7ED097A77EE677AB0EE670AFFF790FDB0
:10260C00F0EE407AB3EE0E7AF4EEC77AF1EE10FAF1
:10261C004CBF01230023DBB2002B03D07B687A6A0A
:10262C009A611FE01F4B1B68042B03DC7B687A6AE2
:10263C009A6117E0D7ED0A7A9FED1B7AF4EEC77A10
:10264C00F1EE10FA02DD7B687A6A9A61D7ED0A7AAC
:10265C009FED167AF4EEC77AF1EE10FA02D57B688C
:10266C007A6A9A617B68DB69114A13607B689B69A3
:10267C000B4A13607B68012283F833207B680022AD
:10268C0083F8262000BF7B68586B7B6824330122BB
:10269C00194606F0B7F900BF3837BD4680BD00BFFC
:1026AC00F0040020E804002000002043000020C3B8
:1026BC00EC04002080B584B000AFF860B9607A609B
:1026CC003B60FB68BA681A60FB687A685A60FB6802
:1026DC0000229A60FB68FA691A61FB683A685A61D1
:1026EC00FB68BA699A61FB681A68FB685B681946F3
:1026FC00104605F013F8FB685B68002B06D1FB68ED
:10270C001B681B6840F2DC525A6331E0FB685B6863
:10271C00042B06D1FB681B681B6840F2DC529A63E1
:10272C0026E0FB685B68082B06D1FB681B681B68FE
:10273C0040F2DC52DA631BE0FB685B680C2B06D1C1
:10274C00FB681B681B6840F2DC521A6410E0FB68E3
:10275C005B68102B06D1FB681B681B6840F2DC52CF
:10276C009A6505E0FB681B681B6840F2DC52DA6571
:10277C000A2001F063F800BF1037BD4680BD80B45D
:10278C0083B000AF786039607B683A689A607B6888
:10279C009B68002B12DD7B689A687B681B699A42E8
:1027AC0003DD7B681A697B689A603B6803F2DC5234
:1027BC007B685B691A447B68DA6017E07B689A680F
:1027CC007B68196940F2DC535B1A9A4206DA7B6823
:1027DC001A6940F2DC539B1A7A6893603B6803F2E7
:1027EC00DC527B689B69D21A7B68DA607B685B6819
:1027FC00002B06D17B68DA687B681B681B685A6300
:10280C0031E07B685B68042B06D17B68DA687B68F7
:10281C001B681B689A6326E07B685B68082B06D1F3
:10282C007B68DA687B681B681B68DA631BE07B6873
:10283C005B680C2B06D17B68DA687B681B681B68AD
:10284C001A6410E07B685B68102B06D17B68DA6831
:10285C007B681B681B689A6505E07B68DA687B6897
:10286C001B681B68DA6500BF0C37BD465DF8047B3E
:10287C00704780B483B000AF78607B684FF0000283
:10288C001A607B684FF000025A607B684FF00002C0
:10289C009A607B684FF00002DA607B6800221A7441
:1028AC007B6818460C37BD465DF8047B704780B4D6
:1028BC0083B000AF78607B6800221A807B68FF22AF
:1028CC009A707B6800221A727B680022DA607B683F
:1028DC0018460C37BD465DF8047B704780B483B056
:1028EC0000AF78607B684FF000021A607B684FF095
:1028FC0000025A607B684FF000029A607B684FF0D0
:10290C000002DA607B684FF000021A617B684FF0BE
:10291C0000025A617B684FF000029A617B684FF0AD
:10292C000002DA617B684FF000021A627B680022B9
:10293C0083F830207B68002283F831207B680022EA
:10294C0083F832207B68002283F833207B680022D6
:10295C005A637B6818460C37BD465DF8047B70479C
:10296C0080B483B000AF78607B68EF221A707B680C
:10297C004FF000025A607B684FF000029A607B684F
:10298C004FF00002DA607B6800221A747B68002228
:10299C005A747B6800229A747B6818460C37BD46C3
:1029AC005DF8047B704780B483B000AF78607B68BF
:1029BC004FF000021A607B684FF000025A607B688F
:1029CC004FF000029A607B684FF00002DA607B687F
:1029DC0000221A747B6800225A747B6801229A7454
:1029EC007B6818460C37BD465DF8047B704780B594
:1029FC0082B000AF78607B6800221A607B6800228E
:102A0C005A607B6800229A607B680022DA757B68CA
:102A1C0000221A767B681C331846FFF7A1FF7B68EF
:102A2C0030331846FFF7BFFF7B6800225A647B687F
:102A3C0018460837BD4680BD80B483B000AF7860BF
:102A4C0039607B683A681A6000BF0C37BD465DF888
:102A5C00047B704780B483B000AF786039607B68CA
:102A6C003A685A6000BF0C37BD465DF8047B70476E
:102A7C0080B483B000AF78607B6800221A607B68FA
:102A8C0000225A607B6800229A607B680022DA6020
:102A9C007B6800221A617B6800225A617B680022E5
:102AAC009A617B6818460C37BD465DF8047B70470D
:102ABC0080B582B002AF464B1B681846FFF760FA30
:102ACC00444B1B6844491846FFF7B9FA434B1B6843
:102ADC0043491846FFF7B3FA424B1B684249184664
:102AEC00FFF72EFB414B1B68394A126811461846FA
:102AFC00FFF7A2FF3D4B1B68364A12681146184679
:102B0C00FFF7A8FF394B1B68344A12681146184668
:102B1C00FFF7A0FF354B1B6835491846FEF7E6FF5B
:102B2C0001224FF40051334801F0DCF90A2000F087
:102B3C0085FE314B18684FF4FA730193052300930B
:102B4C00052300222D49FFF7B5FD2D4B18684FF4D6
:102B5C00FA73019305230093052304222749FFF7F9
:102B6C00A9FD284B18684FF4FA73019305230093C1
:102B7C00052308222149FFF79DFD234B18684FF4CC
:102B8C00FA7301930523009305230C221B49FFF7CD
:102B9C0091FD1E4B18684FF4FA73019305230093B3
:102BAC00052308221A49FFF785FD1A4B18684FF4C4
:102BBC00FA7301930523009305230C221449FFF7A4
:102BCC0079FD42F2107000F039FE00BFBD4680BDA9
:102BDC00F4040020F804002098020020FC040020DB
:102BEC0054040020000500202C0300201C050020AC
:102BFC00C003002000080258040500206C010020CE
:102C0C00080500200C0500201005002014050020EC
:102C1C00D40000201805002080B500AF264B1B689F
:102C2C001846FFF7BFF9254B1B681846FFF71BFA30
:102C3C00234B1B681846FFF716FA224B1B6893F8B8
:102C4C004130012B05D1012201211F4801F04AF925
:102C5C0004E0002201211C4801F044F9194B1B68C7
:102C6C001846FFF7BDF8642000F0E8FD174B1B6811
:102C7C00C8211846FFF783FD154B1B68C821184661
:102C8C00FFF77DFD134B1B68C8211846FFF777FD36
:102C9C00114B1B68C8211846FFF771FD0F4B1B68C1
:102CAC00C8211846FFF76BFD0D4B1B68C821184651
:102CBC00FFF765FD00BF80BDF4040020F804002080
:102CCC00FC0400201C050020000402580405002010
:102CDC00080500200C05002010050020140500201C
:102CEC001805002080B582B000AF78607B681B6847
:102CFC00164A934205D1164B1B681846FFF76EFA1D
:102D0C001FE07B681B68134A934205D1124B1B686A
:102D1C001846FEF70BFF14E07B681B680F4A9342C2
:102D2C0005D10F4B1B681846FFF7AEF909E07B681D
:102D3C001B680C4A934204D10B4B1B681846FFF7D7
:102D4C00A3F900BF0837BD4680BD00BF001001408D
:102D5C0000050020004400401C05002000500040ED
:102D6C00F804002000140140FC04002098B500AFCA
:102D7C00142009F01BF803461C462046FFF779FD8A
:102D8C00334B1C60102009F011F803461C462046FA
:102D9C00FFF78DFD2F4B1C60102009F007F8034640
:102DAC001C462046FFF783FD2B4B1C60382008F097
:102DBC00FDFF03461C462046FFF790FD274B1C6089
:102DCC001C2008F0F3FF03461C462046FFF750FE7C
:102DDC00234B1C601C2008F0E9FF03461C462046D0
:102DEC00FFF746FE1F4B1C601C2008F0DFFF03465C
:102DFC001C462046FFF73CFE1B4B1C601C2008F0B9
:102E0C00D5FF03461C462046FFF732FE174B1C60CD
:102E1C001C2008F0CBFF03461C462046FFF728FE7B
:102E2C00134B1C601C2008F0C1FF03461C462046B7
:102E3C00FFF71EFE0F4B1C60482008F0B7FF03463F
:102E4C001C462046FFF7D3FD0B4B1C6000BF98BD02
:102E5C00F4040020F8040020FC04002000050020ED
:102E6C0004050020080500200C050020100500209A
:102E7C0014050020180500201C05002080B500AFAB
:102E8C00FFF774FF80BD000080B489B000AF002351
:102E9C007B610023BB7400237B740023BB610EE0B9
:102EAC00394ABB6908335B0013449A88BB695B00E1
:102EBC0020333B4423F8202CBB690133BB61BB6935
:102ECC00062BEDDD3B88C3F30B039BB23B80002349
:102EDC00FB810023FB613AE0FB69002B03F001034B
:102EEC00B8BF5B42012B0BD1FB695B105B0020333D
:102EFC003B4433F8203CDBB27A6953407B610CE0F5
:102F0C00FB695B105B0020333B4433F8203C1B0A0D
:102F1C009BB21A467B6953407B610823FB7410E01B
:102F2C007B6903F40043002B05D07B695B0083F4C1
:102F3C0040537B6102E07B695B007B61FB7C013B66
:102F4C00FB74FB7C002BEBD1FB690133FB61FB6950
:102F5C000F2BC1DD7B691B0B03F00F037B617B69BE
:102F6C00BB74094B9B8A1B0B9BB27B74BA7C7B7C1E
:102F7C009A4201D1012300E0002318462437BD46B4
:102F8C005DF8047B704700BF2005002080B584B03D
:102F9C0002AF0023FB711E23BB71BA1D42F21073EA
:102FAC0000930123EC21204801F052F8142000F08A
:102FBC0045FC0023FB712AE0FB795033DBB25B004C
:102FCC00DBB2BB71BA1D42F2107300930123EC21EA
:102FDC00154801F03DF83A1D42F21073009302239C
:102FEC00ED21114801F04CF93B791BB21B021AB2CE
:102FFC007B791BB213431AB2FB7991B20B4A08339B
:10300C005B0013440A469A80FB790133FB71FB7910
:10301C00062BD1D9FFF738FF0346002BFAD001233A
:10302C0018460837BD4680BD7C00002020050020D6
:10303C002DE9B04FD0B000AF0023C7F830314FF0BE
:10304C0000024FF00003C7E94A234FF000024FF093
:10305C000003C7E948230023C7F83C310023C7F815
:10306C0038310023C7F834314FF000024FF0000321
:10307C00C7E946234FF000024FF00003C7E9442391
:10308C00DA4B1A69D94BDB8B1B02D31AC7F83031D8
:10309C00D64BDB8A9BB20022184611464FF0000437
:1030AC004FF00005CD0345EA5045C403CF4B5B8B75
:1030BC009BB200229A469346D7F83031DA179846DD
:1030CC00914608FB0BF20AFB09F31344AAFB081206
:1030DC00C7F80C210A46C7F80821D7F80C2113446D
:1030EC00C7F80C31D7E94223002B07DA12F1FF01A4
:1030FC00396643F100037B66D7E918234FF00000D3
:10310C004FF00001100A40EA0360191202460B4608
:10311C00A118B96545EB0303FB65D7E91634C7E97C
:10312C004A34B24B1B8B9BB20022C7F8D830C7F87D
:10313C00DC204FF000044FF00005D7E9361213469F
:10314C001D040B4645EA13450B461C04A74B9B8BF1
:10315C009BB20022C7F8D030C7F8D420D7F8303152
:10316C00DA17C7F8C830C7F8CC20D7E934894B46F2
:10317C00D7E932AB524602FB03F25B46414601FBF8
:10318C0003F3134442465146A2FB0112C7F8042133
:10319C000A46C7F80021D7F804211344C7F80431B4
:1031AC00D7E94023002B07DA12F17F01396543F18F
:1031BC0000037B65D7E914234FF000004FF00001AA
:1031CC00D00940EA4360D91102460B46A118B964F4
:1031DC0045EB0303FB64D7E91234C7E94834834B4E
:1031EC00DB680022C7F8C030C7F8C420D7F82831F4
:1031FC00D7E930452A4602FB03F2D7F82C31214699
:10320C0001FB03F31A44D7F828312146A3FB011321
:10321C00C7F8FC300B46C7F8F830D7F8FC30D31899
:10322C00C7F8FC30D7E93E23002B07DA7049511858
:10323C00396443F100037B64D7E910234FF000009D
:10324C004FF00001500D40EAC3205915D7E948232F
:10325C00841AC7F8B84061EB0303C7F8BC30D7E950
:10326C002E23002B08DA41F6FF715118B96343F194
:10327C000003FB63D7E90E234FF000004FF0000171
:10328C00500B40EAC340591302460B46574B9A6009
:10329C00D7F83031DA17C7F8B030C7F8B420534B31
:1032AC001B8C9BB20022C7F8A830C7F8AC20D7E91A
:1032BC002C452B46D7E92A89424602FB03F24B46A2
:1032CC00214601FB03F3134422464146A2FB0112A3
:1032DC00C7F8F4200A46C7F8F020D7F8F4201344B6
:1032EC00C7F8F430D7E93C23002B07DA41495118D1
:1032FC00396343F100037B63D7E90C234FF00000E3
:10330C004FF00001D00D40EA4320D91502460B4680
:10331C00134603F5FA631A46344B5A60334B5B6819
:10332C00B3F5FA6F7FDAD7F83031DA17C7F8A03077
:10333C00C7F8A420D7F83031DA17C7F89830C7F897
:10334C009C20D7E928452B46D7E92689424602FB23
:10335C0003F24B46214601FB03F31344224641463C
:10336C00A2FB0112C7F8EC200A46C7F8E820D7F8F0
:10337C00EC201344C7F8EC30D7E93A4522462B46EB
:10338C009118B9625B41FB62D7E90A2321465118B7
:10339C00C7F89010294643EB0101C7F89410D7E900
:1033AC002423002B06DA511E396243F101037B62A0
:1033BC00D7E908234FF000004FF000015810D9173F
:1033CC0002460B461346C7F83431084B5B68A3F52D
:1033DC00FA62064B5B68A3F5FA6303FB02F2134631
:1033EC005B001344002B07DA013305E020050020B5
:1033FC00FFFF1F00FFFF7F005B10C7F83831654BE4
:10340C005B68A3F5FA62634B5B68A3F5FA6303FB95
:10341C0002F213469B001344002B00DA0733DB1037
:10342C00C7F83C3137E05B4B5B68B3F5FA6F32DBC6
:10343C00D7F8303103FB03F35B00DA17C7F8883099
:10344C00C7F88C20D7E92223002B06DA511EB9616C
:10345C0043F11F03FB61D7E906234FF000004FF047
:10346C0000015811D91702460B461346C7F83431E0
:10347C00484B5B68A3F5FA62464B5B68A3F5FA63AD
:10348C0002FB03F3002B00DA0F331B11C7F83831A2
:10349C000023C7F83C31D7F83831DA17C7F8803039
:1034AC00C7F88420D7E94823D7E920452146511A8B
:1034BC003961294663EB01037B61D7E90434C7E921
:1034CC004634D7F83C31DA17BB67FA67D7E94A2399
:1034DC00D7E91E452146511AB960294663EB010311
:1034EC00FB60D7E90234C7E944342A4B5A68D7F851
:1034FC003431D31A274A5360264BDB6800223B67D2
:10350C007A67D7F81031D7E91C452A4602FB03F23B
:10351C00D7F81431214601FB03F31344D7F81021DB
:10352C002146A2FB0112C7F8E4200A46C7F8E020A6
:10353C00D7F8E4201344C7F8E430D7E93823002B3C
:10354C0007DA15495118396043F100037B60D7E95C
:10355C0000234FF000004FF00001500D40EAC32053
:10356C005915D7E94623841ABC6661EB0303FB6645
:10357C004FF4A0324FF00003D7E91A01FCF7A0FE7C
:10358C0002460B46034B9A6000BF07F5A077BD4679
:10359C00BDE8B08F20050020FFFF1F0080B584B070
:1035AC0002AF4423FB71FA1D42F210730093012306
:1035BC00EC212B4800F04CFD032000F03FF90023D8
:1035CC00FB71FA1D42F2107300930123EC21244885
:1035DC0000F03EFD3A1D42F2107300930323ED21DF
:1035EC001F4800F04DFE3B791A047B791B021343F4
:1035FC00BA7913431A461B4BDA605423FB71FA1D3C
:10360C0042F2107300930123EC21154800F020FDC9
:10361C00032000F013F90023FB71FA1D42F2107322
:10362C0000930123EC210E4800F012FD3A1D42F2EA
:10363C00107300930323ED21094800F021FE3B7920
:10364C001A047B791B021343BA7913431A46054BB0
:10365C001A61FFF7EDFC00BF0837BD4680BD00BF07
:10366C007C0000202005002080B500AFFFF796FFFE
:10367C00104B9B6807EE903AF8EEE77A9FED0E7AC6
:10368C0067EE877A0D4BC3ED027A0A4B5B6807EE47
:10369C00903AB8EEE77ADFED086AC7EE267A074B68
:1036AC00C3ED017A054B9B6807EE903AB0EE670AC2
:1036BC0080BD00BF200500200000C842440500204A
:1036CC00DFF838D0FDF748FAFDF7B6F90C480D498C
:1036DC000D4A002302E0D458C4500433C4188C4261
:1036EC00F9D30A4A0A4C002301E013600432A242C7
:1036FC00FBD308F095FCFDF705F87047000002209D
:10370C000000002060000020A0C300086000002022
:10371C00A0060020FEE7000080B582B000AF0320B9
:10372C0000F080F901F0AAFF0246154B9B691B0AB9
:10373C0003F00F031349CB5C03F01F0322FA03F3CE
:10374C007B600F4B9B6903F00F030E4AD35C03F0B5
:10375C001F037A6822FA03F30B4A13600B4A7B6847
:10376C0013600F2000F014F80346002B01D0012346
:10377C0002E0FDF78BF8002318460837BD4680BDE4
:10378C000044025854C3000804000020000000202C
:10379C0080B582B000AF7860154B1B78002B01D13F
:1037AC00012321E0134B1A68114B1B7819464FF477
:1037BC007A73B3FBF1F3B2FBF3F3184600F065F93F
:1037CC000346002B01D001230EE07B680F2B0AD897
:1037DC00002279684FF0FF3000F02FF9064A7B6821
:1037EC001360002300E0012318460837BD4680BD56
:1037FC000C000020000000200800002080B400AF66
:10380C00064B1B781A46064B1B681344044A13607C
:10381C0000BFBD465DF8047B704700BF0C00002064
:10382C005005002080B400AF034B1B681846BD4602
:10383C005DF8047B704700BF5005002080B584B054
:10384C0000AF7860FFF7EEFFB8607B68FB60FB6849
:10385C00B3F1FF3F05D00A4B1B781A46FB681344A3
:10386C00FB6000BFFFF7DEFF0246BB68D31AFA68A5
:10387C009A42F7D800BF00BF1037BD4680BD00BFCD
:10388C000C00002080B485B000AF78607B6803F03A
:10389C000703FB600B4BDB68BB60BA684FF6FF039A
:1038AC001340BB60FB681A02BB681A43064B1343F8
:1038BC00BB60044ABB68D36000BF1437BD465DF8DB
:1038CC00047B704700ED00E00000FA0580B400AF07
:1038DC00044BDB681B0A03F007031846BD465DF872
:1038EC00047B704700ED00E080B483B000AF03466A
:1038FC00FB80B7F90630002B0BDBFB8803F01F02B3
:10390C000749B7F906305B09012000FA02F241F8C9
:10391C00232000BF0C37BD465DF8047B704700BF09
:10392C0000E100E080B483B000AF03463960FB8057
:10393C00B7F90630002B0ADB3B68DAB20C49B7F951
:10394C0006301201D2B20B4483F800230AE03B6824
:10395C00DAB20849FB8803F00F03043B1201D2B220
:10396C000B441A7600BF0C37BD465DF8047B7047DC
:10397C0000E100E000ED00E080B489B000AFF86039
:10398C00B9607A60FB6803F00703FB61FB69C3F164
:10399C000703042B28BF0423BB61FB690433062BEC
:1039AC0002D9FB69033B00E000237B614FF0FF323F
:1039BC00BB6902FA03F3DA43BB681A407B699A408D
:1039CC004FF0FF317B6901FA03F3D9437B680B405D
:1039DC00134318462437BD465DF8047B704700003E
:1039EC0080B582B000AF78607B68013BB3F1807F1B
:1039FC0001D301230FE00A4A7B68013B53600F217E
:103A0C004FF0FF30FFF78EFF054B00229A60044BFE
:103A1C0007221A60002318460837BD4680BD00BF38
:103A2C0010E000E080B582B000AF78607868FFF7F6
:103A3C0029FF00BF0837BD4680BD80B586B000AFFA
:103A4C000346B9607A60FB81FFF740FF78617A68C2
:103A5C00B9687869FFF790FF0246B7F90E30114646
:103A6C001846FFF75FFF00BF1837BD4680BD80B515
:103A7C0082B000AF0346FB80B7F906301846FFF75B
:103A8C0033FF00BF0837BD4680BD80B582B000AFA4
:103A9C0078607868FFF7A4FF034618460837BD46E0
:103AAC0080BD000080B400AFBFF35F8F00BF074B39
:103ABC005B6A064A23F480335362054B00225A603A
:103ACC0000BFBD465DF8047B704700BF00ED00E011
:103ADC0090ED00E080B483B000AF78600B4A7B6857
:103AEC0043F0010353600A4B5B6A094A43F4803389
:103AFC005362BFF34F8F00BFBFF36F8F00BF00BF88
:103B0C000C37BD465DF8047B704700BF90ED00E0BC
:103B1C0000ED00E080B483B000AF78607B685A7829
:103B2C001B4B9A601A4B1B69194A23F00103136152
:103B3C00174A7B685B68D3607B681B7B1A077B68C2
:103B4C00DB7A1B061A437B689B7ADB041A437B687F
:103B5C005B7B9B041A437B689B7B5B041A437B68EF
:103B6C00DB7B1B041A437B685B7A1B021A437B6862
:103B7C001B7A5B0013437A6812781146044A0B4394
:103B8C00136100BF0C37BD465DF8047B704700BF66
:103B9C0090ED00E080B489B000AF7860396000230C
:103BAC00FB61864B7B618CE13B681A680121FB69E8
:103BBC0001FA03F313403B613B69002B00F07E815B
:103BCC003B685B6803F00303012B05D03B685B6823
:103BDC0003F00303022B30D17B689B68BB61FB694C
:103BEC005B00032202FA03F3DB43BA691340BB61A7
:103BFC003B68DA68FB695B0002FA03F3BA691343AA
:103C0C00BB617B68BA699A607B685B68BB610122A7
:103C1C00FB6902FA03F3DB43BA691340BB613B68EF
:103C2C005B681B0903F00102FB6902FA03F3BA6932
:103C3C001343BB617B68BA695A603B685B6803F0ED
:103C4C000303032B17D07B68DB68BB61FB695B004C
:103C5C00032202FA03F3DB43BA691340BB613B68EE
:103C6C009A68FB695B0002FA03F3BA691343BB6100
:103C7C007B68BA69DA603B685B6803F00303022B6C
:103C8C0023D1FB69DA087B68083253F82230BB6118
:103C9C00FB6903F007039B000F2202FA03F3DB43DB
:103CAC00BA691340BB613B681A69FB6903F00703EF
:103CBC009B0002FA03F3BA691343BB61FB69DA0890
:103CCC007B680832B96943F822107B681B68BB61BA
:103CDC00FB695B00032202FA03F3DB43BA6913406E
:103CEC00BB613B685B6803F00302FB695B0002FA93
:103CFC0003F3BA691343BB617B68BA691A603B680A
:103D0C005B6803F44033002B00F0D8802C4BD3F8C5
:103D1C00F4302B4A43F00203C2F8F430284BD3F8AA
:103D2C00F43003F00203FB60FB68264AFB699B0836
:103D3C00023352F82330BB61FB6903F003039B0091
:103D4C000F2202FA03F3DB43BA691340BB617B68B1
:103D5C001D4A93424AD07B681C4A93422BD07B6805
:103D6C001B4A934225D07B681A4A93421FD07B682A
:103D7C00194A934219D07B68184A934213D07B6836
:103D8C00174A93420DD07B68164A934207D07B6842
:103D9C00154A934201D1092329E00A2327E007237E
:103DAC0025E0062323E0052321E004231FE0032361
:103DBC001DE002231BE0012319E000BF8000005826
:103DCC000044025800040058000002580004025835
:103DDC0000080258000C0258001002580014025837
:103DEC0000180258001C0258002402580023FA69DB
:103DFC0002F0030292009340BA691343BB61384945
:103E0C00FB699B080233BA6941F823204FF0B04399
:103E1C001B68BB613B69DB43BA691340BB613B6800
:103E2C005B6803F48013002B03D0BA693B6913431E
:103E3C00BB614FF0B042BB6913604FF0B0435B689D
:103E4C00BB613B69DB43BA691340BB613B685B6890
:103E5C0003F40013002B03D0BA693B691343BB6115
:103E6C004FF0B042BB6953607B695B68BB613B69D7
:103E7C00DB43BA691340BB613B685B6803F40033F6
:103E8C00002B03D0BA693B691343BB617B69BA69E8
:103E9C005A607B691B68BB613B69DB43BA691340A1
:103EAC00BB613B685B6803F48033002B03D0BA69B9
:103EBC003B691343BB617B69BA691A60FB690133C7
:103ECC00FB613B681A68FB6922FA03F3002B7FF451
:103EDC006BAE00BF00BF2437BD465DF8047B704756
:103EEC000004005880B483B000AF78600B467B8030
:103EFC0013467B707B78002B03D07A887B689A61A1
:103F0C0003E07B881A047B689A6100BF0C37BD46BE
:103F1C005DF8047B7047000080B582B000AF78601C
:103F2C007B68002B01D101238BE07B6893F8413037
:103F3C00DBB2002B06D17B68002283F84020786826
:103F4C00FCF778FB7B68242283F841207B681B6894
:103F5C001A687B681B6822F001021A607B685A6839
:103F6C007B681B6822F070621A617B681B689A6818
:103F7C007B681B6822F400429A607B68DB68012B2B
:103F8C0007D17B689A687B681B6842F400429A6090
:103F9C0006E07B689A687B681B6842F404429A606E
:103FAC007B68DB68022B08D17B681B685A687B68CE
:103FBC001B6842F400625A6007E07B681B685A6811
:103FCC007B681B6822F400625A607B681B68596826
:103FDC007B681A681D4B0B4353607B681B68DA685F
:103FEC007B681B6822F40042DA607B681A697B6884
:103FFC005B6942EA03017B689B691A027B681B6858
:10400C000A43DA607B68D9697B681A6A7B681B682B
:10401C000A431A607B681B681A687B681B6842F04D
:10402C0001021A607B6800225A647B68202283F8A4
:10403C0041207B6800221A637B68002283F84220AF
:10404C00002318460837BD4680BD00BF0080000223
:10405C0080B588B002AFF8607A601A460B467B8157
:10406C0013463B81FB6893F84130DBB2202B40F0C8
:10407C00FD80FB6893F84030012B01D10223F6E060
:10408C00FB68012283F84020FFF7CCFB38613B69C9
:10409C000093192301224FF40041F86800F00AFA4A
:1040AC000346002B01D00123E1E0FB68212283F8B9
:1040BC004120FB68102283F84220FB6800225A64DE
:1040CC00FB687A685A62FB683A895A85FB68002259
:1040DC005A63FB685B8D9BB2FF2B06D9FB68FF22F2
:1040EC001A854FF080737B6107E0FB685B8D9AB299
:1040FC00FB681A854FF000737B61FB681B8D002BEE
:10410C0024D0FB685B6A1A78FB681B689A62FB68B0
:10411C005B6A5A1CFB685A62FB685B8D9BB2013B65
:10412C009AB2FB685A85FB681B8D013B9AB2FB68FF
:10413C001A85FB681B8DDBB20133DAB279894E4BE1
:10414C0000937B69F86800F005FC66E0FB681B8D4A
:10415C00DAB27989484B00937B69F86800F0FAFB76
:10416C005BE03A69396AF86800F0FDF90346002B08
:10417C0001D001237BE0FB685B6A1A78FB681B6843
:10418C009A62FB685B6A5A1CFB685A62FB685B8D1F
:10419C009BB2013B9AB2FB685A85FB681B8D013BB5
:1041AC009AB2FB681A85FB685B8D9BB2002B34D0EE
:1041BC00FB681B8D002B30D13B6900933B6A0022BE
:1041CC008021F86800F076F90346002B01D001231A
:1041DC004DE0FB685B8D9BB2FF2B0ED9FB68FF2279
:1041EC001A85FB681B8DDAB27989002300934FF096
:1041FC008073F86800F0AEFB0FE0FB685B8D9AB241
:10420C00FB681A85FB681B8DDAB279890023009351
:10421C004FF00073F86800F09DFBFB685B8D9BB260
:10422C00002B9ED13A69396AF86800F0E3F903462D
:10423C00002B01D001231AE0FB681B682022DA61F5
:10424C00FB681B685968FB681A680C4B0B40536081
:10425C00FB68202283F84120FB68002283F842206F
:10426C00FB68002283F84020002300E0022318465C
:10427C001837BD4680BD00BF0020008000E800FE5E
:10428C0080B588B002AFF8607A601A460B467B8125
:10429C0013463B81FB6893F84130DBB2202B40F096
:1042AC00DB80FB6893F84030012B01D10223D4E072
:1042BC00FB68012283F84020FFF7B4FA78617B6930
:1042CC000093192301224FF40041F86800F0F2F832
:1042DC000346002B01D00123BFE0FB68222283F8A8
:1042EC004120FB68102283F84220FB6800225A64AC
:1042FC00FB687A685A62FB683A895A85FB68002227
:10430C005A63FB685B8D9BB2FF2B0ED9FB68FF22B7
:10431C001A85FB681B8DDAB27989524B00934FF0EA
:10432C008073F86800F016FB6DE0FB685B8D9AB249
:10433C00FB681A85FB681B8DDAB27989494B0093AF
:10434C004FF00073F86800F005FB5CE07A69396A9D
:10435C00F86800F093F90346002B01D001237CE0B0
:10436C00FB681B685A6AFB685B6AD2B21A70FB68FE
:10437C005B6A5A1CFB685A62FB681B8D013B9AB244
:10438C00FB681A85FB685B8D9BB2013B9AB2FB689C
:10439C005A85FB685B8D9BB2002B34D0FB681B8D60
:1043AC00002B30D17B6900933B6A00228021F86896
:1043BC0000F080F80346002B01D001234DE0FB6890
:1043CC005B8D9BB2FF2B0ED9FB68FF221A85FB6815
:1043DC001B8DDAB27989002300934FF08073F86853
:1043EC0000F0B8FA0FE0FB685B8D9AB2FB681A8597
:1043FC00FB681B8DDAB27989002300934FF00073B0
:10440C00F86800F0A7FAFB685B8D9BB2002B9DD17E
:10441C007A69396AF86800F0EDF80346002B01D090
:10442C0001231AE0FB681B682022DA61FB681B6819
:10443C005968FB681A680C4B0B405360FB682022D0
:10444C0083F84120FB68002283F84220FB6800229D
:10445C0083F84020002300E0022318461837BD469D
:10446C0080BD00BF0024008000E800FE80B483B053
:10447C0000AF78607B681B689B6903F00203022B1A
:10448C0003D17B681B6800229A627B681B689B695E
:10449C0003F00103012B07D07B681B689A697B68CA
:1044AC001B6842F001029A6100BF0C37BD465DF8F3
:1044BC00047B704780B584B000AFF860B9603B6096
:1044CC001346FB713BE0BA693968F86800F062F991
:1044DC000346002B01D0012341E03B68B3F1FF3FC1
:1044EC002DD0FFF79FF90246BB69D31A3A689A425E
:1044FC0002D33B68002B22D1FB681B689A69BB680E
:10450C001340BA689A420CBF01230023DBB21A464F
:10451C00FB799A4213D1FB685B6C43F02002FB6879
:10452C005A64FB68202283F84120FB68002283F840
:10453C004220FB68002283F8402001230FE0FB6837
:10454C001B689A69BB681340BA689A420CBF012376
:10455C000023DBB21A46FB799A42B4D000231846EA
:10456C001037BD4680BD80B584B000AFF860B9602F
:10457C007A6033E07A68B968F86800F00BF90346A2
:10458C00002B01D0012331E0BB68B3F1FF3F25D0F4
:10459C00FFF748F902467B68D31ABA689A4202D3ED
:1045AC00BB68002B1AD1FB681B689B6903F00203E4
:1045BC00022B13D0FB685B6C43F02002FB685A643F
:1045CC00FB68202283F84120FB68002283F84220FC
:1045DC00FB68002283F84020012307E0FB681B687E
:1045EC009B6903F00203022BC4D100231846103739
:1045FC00BD4680BD80B584B000AFF860B9607A600C
:10460C002FE07A68B968F86800F0C4F80346002B0C
:10461C0001D001232DE0FFF705F902467B68D31A80
:10462C00BA689A4202D3BB68002B1AD1FB681B688C
:10463C009B6903F02003202B13D0FB685B6C43F0C9
:10464C002002FB685A64FB68202283F84120FB6837
:10465C00002283F84220FB68002283F840200123CB
:10466C0007E0FB681B689B6903F02003202BC8D173
:10467C00002318461037BD4680BD000080B586B0BB
:10468C0000AFF860B9607A600023FB7571E07A685E
:10469C00B968F86800F07EF80346002B01D00123BE
:1046AC00FB75FB681B689B6903F02003202B3BD137
:1046BC00FB7D002B38D1FB681B689B6903F004035E
:1046CC00042B05D1FB681B8D002B01D00023FB753F
:1046DC00FB681B689B6903F01003102B21D1FB684E
:1046EC001B681022DA61FB6804225A64FB681B68A1
:1046FC002022DA61FB681B685968FB681A68244B36
:10470C000B405360FB68202283F84120FB68002299
:10471C0083F84220FB68002283F840200123FB75BC
:10472C0002E0FB6800225A64FFF77CF802467B68C3
:10473C00D31ABA689A4202D3BB68002B19D1FB7DFD
:10474C00002B16D1FB681B689B6903F00403042B38
:10475C000FD0FB685B6C43F02002FB685A64FB686B
:10476C00202283F84120FB68002283F8402001239B
:10477C00FB75FB681B689B6903F00403042B02D0D8
:10478C00FB7D002B83D0FB7D18461837BD4680BDC2
:10479C0000E800FE80B58AB000AFF860B9607A60BE
:1047AC00002387F82730FB681B689B69BB610023DB
:1047BC003B627B68FB61BB6903F01003002B68D084
:1047CC00FB681B681022DA6149E0BB68B3F1FF3F5C
:1047DC0045D0FFF727F80246FB69D31ABA689A420C
:1047EC0002D3BB68002B3AD1FB681B685B6803F4EF
:1047FC0080437B61FB6893F84230FB74FB681B6859
:10480C009B6903F40043B3F5004F21D17B69B3F5E9
:10481C00804F1DD0FB7C202B1AD0FB681B685A687C
:10482C00FB681B6842F480425A60FEF7FBFFF8619C
:10483C000EE0FEF7F7FF0246FB69D31A192B07D9D6
:10484C003B6A43F020033B62012387F8273006E0E4
:10485C00FB681B689B6903F02003202BE9D1FB68E4
:10486C001B689B6903F02003202B03D097F827309B
:10487C00002BAAD097F82730002B03D1FB681B68BC
:10488C002022DA613B6A43F004033B62012387F880
:10489C002730FB681B689B69BB61BB6903F48073A1
:1048AC00002B0BD03B6A43F001033B62FB681B6897
:1048BC004FF48072DA61012387F82730BB6903F467
:1048CC008063002B0BD03B6A43F008033B62FB6810
:1048DC001B684FF48062DA61012387F82730BB69CB
:1048EC0003F40073002B0BD03B6A43F002033B62D2
:1048FC00FB681B684FF40072DA61012387F82730DC
:10490C0097F82730002B1CD0F868FFF7AFFDFB6839
:10491C001B685968FB681A680D4B0B405360FB68A9
:10492C005A6C3B6A1A43FB685A64FB68202283F872
:10493C004120FB68002283F84220FB68002283F8A8
:10494C00402097F8273018462837BD4680BD00BF59
:10495C0000E800FE80B487B000AFF8607B600B46C7
:10496C007B8113467B727B89C3F309027B7A1B0420
:10497C0003F47F031A437B681A433B6A134323F007
:10498C0000437B61FB681B685A683B6A5B0D03F450
:10499C008061084B0B43DB4302EA0301FB681B6895
:1049AC007A690A435A6000BF1C37BD465DF8047B28
:1049BC00704700BFFF63FF0380B483B000AF786023
:1049CC0039607B6893F84130DBB2202B38D17B689F
:1049DC0093F84030012B01D1022332E07B68012295
:1049EC0083F840207B68242283F841207B681B6875
:1049FC001A687B681B6822F001021A607B681B68CE
:104A0C001A687B681B6822F480521A607B681B68EA
:104A1C0019687B681B683A680A431A607B681B68D4
:104A2C001A687B681B6842F001021A607B682022BE
:104A3C0083F841207B68002283F84020002300E0AB
:104A4C00022318460C37BD465DF8047B704780B4D2
:104A5C0085B000AF786039607B6893F84130DBB289
:104A6C00202B39D17B6893F84030012B01D10223E4
:104A7C0033E07B68012283F840207B68242283F892
:104A8C0041207B681B681A687B681B6822F0010256
:104A9C001A607B681B681B68FB60FB6823F47063FF
:104AAC00FB603B681B02FA681343FB607B681B6866
:104ABC00FA681A607B681B681A687B681B6842F08E
:104ACC0001021A607B68202283F841207B68002257
:104ADC0083F84020002300E0022318461437BD461B
:104AEC005DF8047B7047000080B584B000AF78603F
:104AFC00194BDB6803F00403042B0AD0164BDB685C
:104B0C0003F007037A689A4201D001231FE00023C7
:104B1C001DE0114BDB6823F007020F497B68134340
:104B2C00CB60FEF77FFEF86009E0FEF77BFE0246E5
:104B3C00FB68D31AB3F57A7F01D9012307E0064B42
:104B4C005B6803F40053B3F5005FEED10023184605
:104B5C001037BD4680BD00BF0048025880B58CB0F0
:104B6C0000AF78607B68002B01D10123C8E37B6820
:104B7C001B6803F00103002B00F08780884B1B6936
:104B8C0003F03803FB62864B9B6ABB62FB6A102BFB
:104B9C0007D0FB6A182B10D1BB6A03F00303022B5E
:104BAC000BD17F4B1B6803F40033002B6CD07B685C
:104BBC005B68002B68D10123A2E37B685B68B3F5CB
:104BCC00803F06D1764B1B68754A43F480331360E3
:104BDC002EE07B685B68002B0CD1714B1B68704A14
:104BEC0023F4803313606E4B1B686D4A23F48023CF
:104BFC0013601DE07B685B68B3F5A02F0CD1684B8C
:104C0C001B68674A43F480231360654B1B68644A36
:104C1C0043F4803313600BE0614B1B68604A23F450
:104C2C00803313605E4B1B685D4A23F48023136052
:104C3C007B685B68002B13D0FEF7F4FD786208E00C
:104C4C00FEF7F0FD02467B6AD31A642B01D90323CD
:104C5C0056E3534B1B6803F40033002BF0D014E0E5
:104C6C00FEF7E0FD786208E0FEF7DCFD02467B6AA9
:104C7C00D31A642B01D9032342E3494B1B6803F479
:104C8C000033002BF0D100E000BF7B681B6803F001
:104C9C000203002B00F08C80414B1B6903F038039E
:104CAC003B623F4B9B6AFB613B6A002B07D03B6A24
:104CBC00182B37D1FB6903F00303002B32D1384B8F
:104CCC001B6803F00403002B05D07B68DB68002B0A
:104CDC0001D1012314E3324B1B6823F019027B68CA
:104CEC00DB682F4913430B60FEF79CFD786208E0EC
:104CFC00FEF798FD02467B6AD31A022B01D90323D7
:104D0C00FEE2274B1B6803F00403002BF0D0244B6E
:104D1C005B6823F0FE427B681B691B06204913432A
:104D2C004B6045E07B68DB68002B26D01C4B1B6876
:104D3C0023F019027B68DB68194913430B60FEF7FB
:104D4C0071FD786208E0FEF76DFD02467B6AD31AAE
:104D5C00022B01D90323D3E2114B1B6803F004038C
:104D6C00002BF0D00E4B5B6823F0FE427B681B6976
:104D7C001B060B4913434B601AE0094B1B68084A8E
:104D8C0023F001031360FEF74DFD78620AE0FEF795
:104D9C0049FD02467B6AD31A022B03D90323AFE2E7
:104DAC0000440258964B1B6803F00403002BEED111
:104DBC007B681B6803F01003002B6AD0904B1B69B7
:104DCC0003F03803BB618E4B9B6A7B61BB69082B7C
:104DDC0007D0BB69182B1BD17B6903F00303012B94
:104DEC0016D1874B1B6803F48073002B05D07B68AE
:104DFC00DB69802B01D0012382E2814BDB6823F03D
:104E0C007C527B681B6A1B067D491343CB6040E0D8
:104E1C007B68DB69002B23D0794B1B68784A43F005
:104E2C0080031360FEF7FEFC786208E0FEF7FAFCE4
:104E3C0002467B6AD31A022B01D9032360E2704B22
:104E4C001B6803F48073002BF0D06D4BDB6823F0F0
:104E5C007C527B681B6A1B0669491343CB6018E0C4
:104E6C00674B1B68664A23F080031360FEF7DAFC7D
:104E7C00786208E0FEF7D6FC02467B6AD31A022B56
:104E8C0001D903233CE25E4B1B6803F48073002BB7
:104E9C00F0D17B681B6803F00803002B36D07B68CD
:104EAC005B69002B19D0564B5B6F554A43F00103DD
:104EBC005367FEF7B7FC786208E0FEF7B3FC0246D6
:104ECC007B6AD31A022B01D9032319E24C4B5B6F7B
:104EDC0003F00203002BF0D018E0494B5B6F484AFB
:104EEC0023F001035367FEF79DFC786208E0FEF7A0
:104EFC0099FC02467B6AD31A022B01D90323FFE1EA
:104F0C003F4B5B6F03F00203002BF0D17B681B68F7
:104F1C0003F02003002B36D07B689B69002B19D043
:104F2C00374B1B68364A43F480531360FEF77AFC08
:104F3C00786208E0FEF776FC02467B6AD31A022BF5
:104F4C0001D90323DCE12E4B1B6803F40053002B27
:104F5C00F0D018E02A4B1B68294A23F480531360C5
:104F6C00FEF760FC786208E0FEF75CFC02467B6AA8
:104F7C00D31A022B01D90323C2E1214B1B6803F482
:104F8C000053002BF0D17B681B6803F00403002B4B
:104F9C0000F086801B4B1B681A4A43F48073136025
:104FAC00FEF740FC786208E0FEF73CFC02467B6AA8
:104FBC00D31A642B01D90323A2E1124B1B6803F40F
:104FCC008073002BF0D07B689B68012B06D10C4BB7
:104FDC001B6F0B4A43F00103136732E07B689B683D
:104FEC00002B11D1064B1B6F054A23F001031367ED
:104FFC00034B1B6F024A23F00403136721E000BF2D
:10500C0000440258004802587B689B68052B0CD161
:10501C00834B1B6F824A43F004031367804B1B6F57
:10502C007F4A43F0010313670BE07D4B1B6F7C4AF7
:10503C0023F0010313677A4B1B6F794A23F00403A7
:10504C0013677B689B68002B15D0FEF7EBFB78622F
:10505C000AE0FEF7E7FB02467B6AD31A41F288327C
:10506C00934201D903234BE16D4B1B6F03F00203F9
:10507C00002BEED014E0FEF7D5FB78620AE0FEF7C9
:10508C00D1FB02467B6AD31A41F28832934201D992
:10509C00032335E1624B1B6F03F00203002BEED1AF
:1050AC007B685B6A002B00F02A815D4B1B6903F067
:1050BC003803182B00F0BA807B685B6A022B40F037
:1050CC009580574B1B68564A23F080731360FEF78C
:1050DC00A9FB786208E0FEF7A5FB02467B6AD31AAF
:1050EC00022B01D903230BE14D4B1B6803F000731A
:1050FC00002BF0D14A4B9A6A4A4B13407A68916A5A
:10510C007A68D26A12010A43454913438B627B6861
:10511C001B6B013BC3F308027B685B6B013B5B02BF
:10512C009BB21A437B689B6B013B1B0403F4FE038D
:10513C001A437B68DB6B013B1B0603F0FE433849CB
:10514C0013430B63364BDB6A354A23F00103D362FE
:10515C00334B5A6B344B13407A68926CD200304903
:10516C0013434B632E4BDB6A23F00C027B681B6CE6
:10517C002B491343CB622A4BDB6A23F002027B6878
:10518C005B6C27491343CB62254BDB6A244A43F4FF
:10519C008033D362224BDB6A214A43F40033D3625F
:1051AC001F4BDB6A1E4A43F48023D3621C4BDB6A21
:1051BC001B4A43F00103D362194B1B68184A43F096
:1051CC0080731360FEF72EFB786208E0FEF72AFB73
:1051DC0002467B6AD31A022B01D9032390E0104BB1
:1051EC001B6803F00073002BF0D088E00C4B1B689D
:1051FC000B4A23F080731360FEF714FB786208E00F
:10520C00FEF710FB02467B6AD31A022B01D903234B
:10521C0076E0034B1B6803F00073002BF0D16EE0BB
:10522C00004402580CFCFFFF0700FFFF364B9B6A43
:10523C003B61354B1B6BFB607B685B6A012B31D090
:10524C003B6903F003027B689B6A9A422AD13B6953
:10525C001B0903F03F027B68DB6A9A4222D1FB6890
:10526C00C3F308027B681B6B013B9A421AD1FB68A3
:10527C005B0A03F07F027B685B6B013B9A4211D1A6
:10528C00FB681B0C03F07F027B689B6B013B9A4213
:10529C0008D1FB681B0E03F07F027B68DB6B013BC4
:1052AC009A4201D001232BE0174B5B6BDB08C3F355
:1052BC000C033B617B689B6C3A699A421FD0124B82
:1052CC00DB6A114A23F00103D362FEF7ABFA786272
:1052DC0000BFFEF7A7FA02467B6A9342F9D00A4B4D
:1052EC005A6B0A4B13407A68926CD20006491343EE
:1052FC004B63054BDB6A044A43F00103D362002382
:10530C0018463037BD4680BD004402580700FFFFE9
:10531C0080B586B000AF786039607B68002B01D116
:10532C0001239CE18A4B1B6803F00F033A689A42F5
:10533C0010D9874B1B6823F00F0285493B68134338
:10534C000B60834B1B6803F00F033A689A4201D041
:10535C00012384E17B681B6803F00403002B10D04D
:10536C007B681A697B4B9B6903F070039A4208D9DE
:10537C00784B9B6923F070027B681B69754913435A
:10538C008B617B681B6803F00803002B10D07B68D3
:10539C005A69704BDB6903F070039A4208D96D4B64
:1053AC00DB6923F070027B685B696A491343CB614C
:1053BC007B681B6803F01003002B10D07B689A6984
:1053CC00644BDB6903F4E0639A4208D9614BDB69F7
:1053DC0023F4E0627B689B695E491343CB617B6875
:1053EC001B6803F02003002B10D07B68DA69594B43
:1053FC001B6A03F070039A4208D9564B1B6A23F0C0
:10540C0070027B68DB69534913430B627B681B6832
:10541C0003F00203002B10D07B68DA684D4B9B69BC
:10542C0003F00F039A4208D94A4B9B6923F00F02F1
:10543C007B68DB68474913438B617B681B6803F00F
:10544C000103002B55D0434B9B6923F470627B689E
:10545C009B68404913438B617B685B68022B07D1C7
:10546C003C4B1B6803F40033002B21D10123F6E0E5
:10547C007B685B68032B07D1364B1B6803F000730A
:10548C00002B15D10123EAE07B685B68012B07D167
:10549C00304B1B6803F48073002B09D10123DEE031
:1054AC002C4B1B6803F00403002B01D10123D6E025
:1054BC00284B1B6923F007027B685B682549134363
:1054CC000B61FEF7AFF978610AE0FEF7ABF9024623
:1054DC007B69D31A41F28832934201D90323BEE08F
:1054EC001C4B1B6903F038027B685B68DB009A423B
:1054FC00EBD17B681B6803F00203002B10D07B6898
:10550C00DA68144B9B6903F00F039A4208D2114BD3
:10551C009B6923F00F027B68DB680E4913438B6198
:10552C000B4B1B6803F00F033A689A4214D2084BDA
:10553C001B6823F00F0206493B6813430B60044BB6
:10554C001B6803F00F033A689A4205D0012386E0EA
:10555C0000200052004402587B681B6803F00403CF
:10556C00002B10D07B681A693F4B9B6903F07003CA
:10557C009A4208D23C4B9B6923F070027B681B69F2
:10558C00394913438B617B681B6803F00803002BBC
:10559C0010D07B685A69344BDB6903F070039A4274
:1055AC0008D2314BDB6923F070027B685B692E49B2
:1055BC001343CB617B681B6803F01003002B10D0E6
:1055CC007B689A69284BDB6903F4E0639A4208D242
:1055DC00254BDB6923F4E0627B689B69224913430A
:1055EC00CB617B681B6803F02003002B10D07B6819
:1055FC00DA691D4B1B6A03F070039A4208D21A4BEE
:10560C001B6A23F070027B68DB69174913430B623A
:10561C0000F034F80246144B9B691B0A03F00F038D
:10562C001249CB5C03F01F0322FA03F33B610E4BD0
:10563C009B6903F00F030D4AD35C03F01F033A6917
:10564C0022FA03F30A4A13600A4A3B6913600A4BB5
:10565C001B681846FEF79CF80346FB73FB7B184649
:10566C001837BD4680BD00BF0044025854C3000823
:10567C0004000020000000200800002080B489B045
:10568C0000AFB34B1B6903F03803182B00F25581A4
:10569C0001A252F823F000BF09570008475900082F
:1056AC00475900084759000847590008475900084E
:1056BC0047590008475900082F5700084759000858
:1056CC00475900084759000847590008475900082E
:1056DC004759000847590008355700084759000832
:1056EC00475900084759000847590008475900080E
:1056FC0047590008475900083B570008944B1B6852
:10570C0003F02003002B09D0914B1B68DB0803F03E
:10571C000303904A22FA03F3BB6111E18D4BBB6189
:10572C000EE18D4BBB610BE18C4BBB6108E1884BEF
:10573C009B6A03F003037B61854B9B6A1B0903F097
:10574C003F033B61824BDB6A03F00103FB60804B40
:10575C005B6BDB08C3F30C03FA6802FB03F307EE85
:10576C00903AF8EE677AC7ED027A3B69002B00F0AD
:10577C00E1807B69022B00F083807B69022B00F2B5
:10578C00A1807B69002B03D07B69012B56D099E05B
:10579C006F4B1B6803F02003002B2DD06C4B1B6848
:1057AC00DB0803F003036B4A22FA03F37B607B688C
:1057BC0007EE903AF8EE676A3B6907EE903AF8EE1E
:1057CC00677A86EEA77A624B1B6BC3F3080307EE6E
:1057DC00903AF8EE676A97ED026ADFED615AC6EE11
:1057EC00257A76EEA77AF7EE006A77EEA67A67EE60
:1057FC00277AC7ED077A87E03B6907EE903AF8EE17
:10580C00677ADFED586A86EEA77A514B1B6BC3F3B0
:10581C00080307EE903AF8EE676A97ED026ADFED3F
:10582C00505AC6EE257A76EEA77AF7EE006A77EE36
:10583C00A67A67EE277AC7ED077A65E03B6907EE33
:10584C00903AF8EE677ADFED486A86EEA77A404B1D
:10585C001B6BC3F3080307EE903AF8EE676A97EDFB
:10586C00026ADFED3F5AC6EE257A76EEA77AF7EE9E
:10587C00006A77EEA67A67EE277AC7ED077A43E0DF
:10588C003B6907EE903AF8EE677ADFED386A86EE00
:10589C00A77A2F4B1B6BC3F3080307EE903AF8EE75
:1058AC00676A97ED026ADFED2E5AC6EE257A76EE20
:1058BC00A77AF7EE006A77EEA67A67EE277AC7ED3D
:1058CC00077A21E03B6907EE903AF8EE677ADFED54
:1058DC00266A86EEA77A1E4B1B6BC3F3080307EEF2
:1058EC00903AF8EE676A97ED026ADFED1D5AC6EE44
:1058FC00257A76EEA77AF7EE006A77EEA67A67EE4F
:10590C00277AC7ED077A00BF114B1B6B5B0A03F0BC
:10591C007F0301333B603B6807EE903AB8EE677A41
:10592C00D7ED076AC6EE877AFCEEE77A17EE903A67
:10593C00BB6105E00023BB6102E0074BBB6100BF0C
:10594C00BB6918462437BD465DF8047B704700BF21
:10595C00004402580090D00300093D0040787D01BE
:10596C00000000460024744C0024744A20BCBE4B3A
:10597C0080B582B000AFFFF781FE0246104B9B69E9
:10598C001B0A03F00F030F49CB5C03F01F0322FA31
:10599C0003F37B600A4B9B6903F00F03094AD35C4A
:1059AC0003F01F037A6822FA03F3074A1360074ACD
:1059BC007B681360044B1B6818460837BD4680BDD6
:1059CC000044025854C300080400002000000020CA
:1059DC0080B500AFFFF7CCFF0246064BDB691B0915
:1059EC0003F007030449CB5C03F01F0322FA03F313
:1059FC00184680BD0044025854C3000880B500AF5F
:105A0C00FFF7B6FF0246064BDB691B0A03F00703E0
:105A1C000449CB5C03F01F0322FA03F3184680BD44
:105A2C000044025854C300082DE9B04FC6B000AF73
:105A3C00C7F80401002387F81731002387F81631C3
:105A4C00D7F80431D3E9002302F00064002554EAAE
:105A5C00050349D0D7F804315B6EB3F5401F2FD046
:105A6C00B3F5401F28D8B3F5001F1AD0B3F5001FAB
:105A7C0022D8002B03D0B3F5801F07D01CE0AB4B12
:105A8C00DB6AAA4A43F40033D3621AE0D7F8043134
:105A9C0008330221184601F025FC034687F817311C
:105AAC000FE0D7F8043128330221184601F0CCFC62
:105ABC00034687F8173104E0012387F8173100E01B
:105ACC0000BF97F81731002B0AD1984B1B6D23F4AC
