:020000040800F2
:10000000000002201D6A0008710C0008790C00082D
:10001000810C0008890C0008910C00080000000009
:10002000000000000000000000000000990C000823
:10003000A70C000800000000B50C0008C30C000865
:10004000716A0008716A0008716A0008716A000824
:10005000716A0008716A0008716A0008716A000814
:10006000716A0008716A0008716A0008716A000804
:10007000716A0008716A0008716A0008716A0008F4
:10008000716A0008716A0008716A0008716A0008E4
:10009000716A0008716A0008716A0008716A0008D4
:1000A000716A0008716A0008716A0008716A0008C4
:1000B000716A0008716A0008716A0008716A0008B4
:1000C000716A0008716A0008716A0008716A0008A4
:1000D000716A0008D10C0008E50C0008F90C000852
:1000E000716A0008716A000800000000716A000867
:1000F000716A0008716A0008716A0008716A000874
:10010000716A0008716A0008716A0008716A000863
:100110000D0D0008210D0008350D0008716A00085A
:10012000716A0008716A0008716A0008716A000843
:10013000716A0008716A0008716A0008716A000833
:1001400000000000000000000000000000000000AF
:10015000716A0008716A0008716A0008716A000813
:10016000716A0008716A0008716A0008716A000803
:10017000716A0008716A0008716A000800000000D6
:10018000716A0008716A0008716A0008490D000868
:10019000716A0008716A0008716A0008716A0008D3
:1001A000716A0008716A0008716A000800000000A6
:1001B000716A0008716A0008716A0008716A0008B3
:1001C000716A0008716A0008000000000000000069
:1001D0000000000000000000716A0008000000003C
:1001E000000000000000000000000000000000000F
:1001F0000000000000000000716A0008716A000839
:10020000716A0008716A000800000000716A000845
:10021000716A0008716A0008716A0008716A000852
:10022000716A000800000000716A00080000000008
:10023000716A0008716A000800000000716A000815
:10024000716A0008716A0008716A0008716A000822
:10025000716A0008716A0008716A0008716A000812
:10026000716A0008716A0008716A0008716A000802
:10027000716A0008716A0008716A000800000000D5
:10028000716A0008716A0008716A0008716A0008E2
:1002900000000000716A0008716A00080000000098
:1002A00000000000716A0008716A0008716A0008A5
:1002B000716A0008716A0008716A0008716A0008B2
:0C02C000716A0008716A0008716A000889
:1002D00081F0004102E000BF83F0004330B54FEAF7
:1002E00041044FEA430594EA050F08BF90EA020F64
:1002F0001FBF54EA000C55EA020C7FEA645C7FEAF7
:10030000655C00F0E2804FEA5454D4EB5555B8BF19
:100310006D420CDD2C4480EA020281EA030382EA8A
:10032000000083EA010180EA020281EA0303362D1C
:1003300088BF30BD11F0004F4FEA01314FF4801CEF
:100340004CEA113102D0404261EB410113F0004F01
:100350004FEA03334CEA133302D0524263EB4303B8
:1003600094EA050F00F0A780A4F10104D5F1200E56
:100370000DDB02FA0EFC22FA05F2801841F10001B1
:1003800003FA0EF2801843FA05F359410EE0A5F185
:1003900020050EF1200E012A03FA0EFC28BF4CF0B6
:1003A000020C43FA05F3C01851EBE37101F000456C
:1003B00007D54FF0000EDCF1000C7EEB00006EEB79
:1003C0000101B1F5801F1BD3B1F5001F0CD3490803
:1003D0005FEA30004FEA3C0C04F101044FEA44525A
:1003E00012F5800F80F09A80BCF1004F08BF5FEAE1
:1003F000500C50F1000041EB045141EA050130BDC1
:100400005FEA4C0C404141EB0101013C28BFB1F5D2
:10041000801FE9D291F0000F04BF01460020B1FA1D
:1004200081F308BF2033A3F10B03B3F120020CDAF0
:100430000C3208DD02F1140CC2F10C0201FA0CF0CE
:1004400021FA02F10CE002F11402D8BFC2F1200C33
:1004500001FA02F120FA0CFCDCBF41EA0C019040E9
:10046000E41AA2BF01EB0451294330BD6FEA040432
:100470001F3C1CDA0C340EDC04F11404C4F120021D
:1004800020FA04F001FA02F340EA030021FA04F32F
:1004900045EA030130BDC4F10C04C4F1200220FA86
:1004A00002F001FA04F340EA0300294630BD21FAC4
:1004B00004F0294630BD94F0000F83F4801306BF8A
:1004C00081F480110134013D4EE77FEA645C18BF7E
:1004D0007FEA655C29D094EA050F08BF90EA020F15
:1004E00005D054EA000C04BF1946104630BD91EA0D
:1004F000030F1EBF0021002030BD5FEA545C05D110
:100500004000494128BF41F0004130BD14F580044E
:100510003CBF01F5801130BD01F0004545F0FE41C2
:1005200041F470014FF0000030BD7FEA645C1ABFF7
:10053000194610467FEA655C1CBF0B46024650EA2E
:10054000013406BF52EA033591EA030F41F400215A
:1005500030BD00BF90F0000F04BF0021704730B5E0
:100560004FF4806404F132044FF000054FF00001B5
:1005700050E700BF90F0000F04BF0021704730B576
:100580004FF4806404F1320410F0004548BF40424B
:100590004FF000013EE700BF42004FEAE2014FEAA0
:1005A00031014FEA02701FBF12F07F4393F07F4F7B
:1005B00081F06051704732F07F4208BF704793F07E
:1005C0007F4F04BF41F40021704730B54FF4607491
:1005D00001F0004521F000411CE700BF50EA010294
:1005E00008BF704730B54FF000050AE050EA01023D
:1005F00008BF704730B511F0004502D5404261EBAD
:1006000041014FF4806404F132045FEA915C3FF4ED
:10061000D8AE4FF003025FEADC0C18BF03325FEA8A
:10062000DC0C18BF033202EBDC02C2F1200300FA3B
:1006300003FC20FA02F001FA03FE40EA0E0021FA60
:1006400002F11444BDE600BF7BB972B90029BEBFF8
:1006500000204FF0004106E008BF00281CBF6FF0EB
:1006600000414FF0FF3000F057B8ADF1080C6DE9D4
:1006700004CE002909DB002B1ADB0FF0CFFBDDF8DD
:1006800004E0DDE9022304B07047404261EB410120
:10069000002B1BDB0FF0C2FBDDF804E0DDE90223D9
:1006A00004B0404261EB4101524263EB43037047A7
:1006B000524263EB43030FF0B1FBDDF804E0DDE9E8
:1006C000022304B0404261EB41017047524263EBA8
:1006D00043030FF0A3FBDDF804E0DDE9022304B0DF
:1006E000524263EB4303704753B94AB9002908BF2C
:1006F00000281CBF4FF0FF314FF0FF3000F00CB866
:10070000ADF1080C6DE904CE0FF088FBDDF804E0D4
:10071000DDE9022304B07047704700BF0348044B73
:10072000834202D0034B03B118477047700000208A
:1007300070000020000000000548064B1B1AD90F6E
:1007400001EBA301491002D0034B03B118477047D6
:1007500070000020700000200000000010B5064C62
:10076000237843B9FFF7DAFF044B13B10448AFF322
:1007700000800123237010BD7000002000000000E5
:10078000D800010808B5054B1BB105490548AFF372
:100790000080BDE80840FFF7CFBF00BF00000000A9
:1007A00074000020D800010880B58CB000AF07F1BC
:1007B0001C0300221A605A609A60DA601A615E4B6C
:1007C000D3F8E0305C4A43F00403C2F8E0305A4BFF
:1007D000D3F8E03003F00403BB61BB69564BD3F898
:1007E000E030554A43F08003C2F8E030524BD3F872
:1007F000E03003F080037B617B694F4BD3F8E0303E
:100800004D4A43F00103C2F8E0304B4BD3F8E030DF
:1008100003F001033B613B69474BD3F8E030464AA4
:1008200043F00203C2F8E030434BD3F8E03003F06A
:100830000203FB60FB68404BD3F8E0303E4A43F0D4
:100840002003C2F8E0303C4BD3F8E03003F0200343
:10085000BB60BB68384BD3F8E030374A43F0100335
:10086000C2F8E030344BD3F8E03003F010037B6083
:100870007B68314BD3F8E0302F4A43F00803C2F8CD
:10088000E0302D4BD3F8E03003F008033B603B68C9
:1008900000224FF40C51294806F0D2FC002203211B
:1008A000274806F0CDFC00224FF40041254806F011
:1008B000C7FC00221821244806F0C2FC4FF40C5358
:1008C000FB6101233B6202237B620023BB6207F1D1
:1008D0001C031946194806F00BFB0323FB61012397
:1008E0003B6202237B620023BB6207F11C031946B3
:1008F000134806F0FDFA4FF40043FB6101233B620D
:1009000002237B620023BB6207F11C0319460D48DA
:1009100006F0EEFA1823FB6101233B6202237B629F
:100920000023BB6207F11C031946074806F0E0FAF2
:1009300000BF3037BD4680BD004402580008025851
:100940000004025800100258000C025880B500AF95
:100950001B4B1C4A1A601A4B1B4A5A60184B002248
:100960009A60174B0122DA60154B00221A61144B72
:1009700000225A61124B00229A61114B0022DA6167
:100980000F4B00221A620E4806F074FC0346002B3F
:1009900001D000F04DF90021094807F0BBF90346EA
:1009A000002B01D000F044F90021054807F0FDF9C3
:1009B0000346002B01D000F03BF900BF80BD00BF13
:1009C0008C00002000540040724E406080B5B8B0EA
:1009D00000AF786007F1CC0300221A605A609A6079
:1009E000DA601A6107F11003B822002118460FF0EF
:1009F00043F97B681B68264A934245D14FF00802B1
:100A00004FF00003C7E904230023C7F8903007F133
:100A10001003184608F0B6F90346002B01D000F089
:100A200007F91C4BD3F8E0301A4A43F00203C2F82E
:100A3000E030184BD3F8E03003F00203FB60FB68B2
:100A4000C023C7F8CC301223C7F8D0300023C7F832
:100A5000D4300023C7F8D8300423C7F8DC3007F1BE
:100A6000CC0319460C4806F043FA0A4BD3F8E83099
:100A7000084A43F40013C2F8E830064BD3F8E830D4
:100A800003F40013BB60BB6800BFE037BD4680BD08
:100A900000540040004402580004025880B500AFE2
:100AA00000F09AF805F0E6FF00F028F8FFF77CFE6A
:100AB000FFF74CFF00F054FF00F028FD01F034F880
:100AC00000F08AFB01F07CF800F096FF00F048FA95
:100AD00000F0FAFB00F0E2FC00F0FCFA00F08EFC03
:100AE00001F0BAF800F0D4FF03F04AF802480AF027
:100AF00009F800BFFDE700BF6002002080B59CB090
:100B000000AF07F124034C22002118460FF0B4F87F
:100B10003B1D2022002118460FF0AEF8022007F0FE
:100B200091F900233B602B4B9B692A4A23F44043F5
:100B30009361284B9B6903F440433B603B6800BFD3
:100B4000244B9B6903F40053B3F5005FF8D10123F4
:100B50007B624FF48033BB620223BB640223FB64DD
:100B600002233B652C237B650123BB650223FB65C8
:100B700002233B660C237B660023BB660023FB66D7
:100B800007F12403184607F097F90346002B01D01C
:100B900000F04EF83F237B600323BB600023FB6023
:100BA00008233B6140237B614023BB614FF480639A
:100BB000FB6140233B623B1D0321184607F056FDB5
:100BC0000346002B01D000F033F800BF7037BD465C
:100BD00080BD00BF0048025880B584B000AF3B46DE
:100BE00000221A605A609A60DA6006F009F901235F
:100BF0003B7000237B7000237B601F233B728723A5
:100C00007B720023BB720023FB7201233B73012321
:100C10007B730023BB730023FB733B46184606F02F
:100C200027F9042006F004F900BF1037BD4680BD47
:100C300080B400AF72B600BF00BFFDE780B483B0E0
:100C400000AF0A4BD3F8F430084A43F00203C2F86D
:100C5000F430064BD3F8F43003F002037B607B687A
:100C600000BF0C37BD465DF8047B70470044025856
:100C700080B400AF00BFFDE780B400AF00BFFDE768
:100C800080B400AF00BFFDE780B400AF00BFFDE758
:100C900080B400AF00BFFDE780B400AF00BFBD4629
:100CA0005DF8047B704780B400AF00BFBD465DF8BF
:100CB000047B704780B400AF00BFBD465DF8047B85
:100CC000704780B500AF05F047FF00BF80BD000052
:100CD00080B500AF02480BF00BFB00BF80BD00BF2A
:100CE000B404002080B500AF02480BF001FB00BF48
:100CF00080BD00BF4805002080B500AF02480BF062
:100D0000F7FA00BF80BD00BFDC05002080B500AF52
:100D100002480BF0EDFA00BF80BD00BFF8020020D2
:100D200080B500AF02480BF0E3FA00BF80BD00BF02
:100D30008C03002080B500AF02480AF0E7F800BF3E
:100D400080BD00BF6002002080B500AF02480BF0FC
:100D5000CFFA00BF80BD00BF2004002080B400AFE8
:100D600001231846BD465DF8047B704780B582B00C
:100D700000AF786039600EF0DBFF034616221A6080
:100D80004FF0FF3318460837BD4680BD80B582B0AE
:100D900000AF78604FF0FF317868FFF7E7FF00BFE2
:100DA000FDE7000080B586B000AF7860144A154BAF
:100DB000D31A7B617B693B61134B1B68002B02D10B
:100DC000114B124A1A60104B1A687B6813443A6937
:100DD0009A4207D20EF0ACFF03460C221A604FF085
:100DE000FF3309E0084B1B68FB60074B1A687B6800
:100DF0001344054A1360FB6818461837BD4680BD8A
:100E00000000022000040000E0000020481500203F
:100E100080B400AF3E4BD3F888303D4A43F47003B2
:100E2000C2F888303B4B1B6803F00F03062B07D832
:100E3000384B1B6823F00F03364A43F00703136057
:100E4000354B1B68344A43F001031360324B0022D8
:100E50001A61314B1A683049304B13400B602D4BEF
:100E60001B6803F00803002B07D02A4B1B6823F0F4
:100E70000F03284A43F007031360274B00229A61AF
:100E8000254B0022DA61244B00221A62224B244AAD
:100E90009A62214B234ADA621F4B234A1A631E4B84
:100EA00000225A631C4B204A9A631B4B0022DA63D0
:100EB000194B1D4A1A64184B00225A64164B1B68C2
:100EC000154A23F480231360134B00221A66124B39
:100ED000D3F8D43003F48053002B13D10E4BD3F846
:100EE000D4300D4A43F48053C2F8D4300F4B43F250
:100EF000D2021A60084BD3F8D430074A23F4805347
:100F0000C2F8D43000BFBD465DF8047B704700BF17
:100F100000ED00E000200052004402587FEDF6EAA8
:100F2000000202020000FF018002010100400052A5
:100F300080B400AF094BDB68084A43F00203D3607A
:100F400000BF064B5B6803F40053002BF9D000BFD1
:100F500000BFBD465DF8047B704700BF00480258E3
:100F600080B59CB000AF07F1600300221A605A60A0
:100F70009A60DA6007F1540300221A605A609A609E
:100F800007F1380300221A605A609A60DA601A6129
:100F90005A619A613B1D3422002118460EF06CFE06
:100FA0004A4B4B4A1A60494B4FF489725A60474B7F
:100FB00000229A60454B44F61F62DA60434B0022E0
:100FC0001A61424B00225A61404B00229A613F480D
:100FD00009F09AFC0346002B01D0FFF729FE4FF4DD
:100FE00080533B6607F16003194638480AF0AAF9B6
:100FF0000346002B01D0FFF71BFE344809F008FE22
:101000000346002B01D0FFF713FE00237B6500236E
:10101000BB650023FB6507F1540319462B480AF012
:10102000F7FE0346002B01D0FFF702FE6023BB63EF
:101030000023FB6300233B6400237B640023BB6429
:101040000023FB6400233B6507F13803082219469F
:101050001E480AF063F80346002B01D0FFF7E8FDB5
:1010600007F138030C22194618480AF057F80346CE
:10107000002B01D0FFF7DCFD00237B600023BB6069
:101080000023FB6000233B6100237B614FF400538E
:10109000BB610023FB6100237B624FF00073BB62E6
:1010A0000023FB6200237B633B1D194607480AF0BF
:1010B0004BFF0346002B01D0FFF7BAFD034800F0B9
:1010C0006FFB00BF7037BD4680BD00BFE40000204D
:1010D0000000014080B58EB000AF07F12803002268
:1010E0001A605A609A60DA6007F11C0300221A60E5
:1010F0005A609A603B4600221A605A609A60DA6031
:101100001A615A619A61334B4FF080421A60314B39
:101110004FF489725A602F4B00229A602D4B632244
:10112000DA602C4B00221A612A4B00229A6129486E
:1011300009F0EAFB0346002B01D0FFF779FD4FF4DD
:101140008053BB6207F12803194622480AF0FAF8D7
:101150000346002B01D0FFF76BFD1E4809F058FD38
:101160000346002B01D0FFF763FD0023FB61002342
:101170007B6207F11C03194616480AF049FE034634
:10118000002B01D0FFF754FD60233B6000237B6000
:101190000023BB6000233B613B46042219460D48F7
:1011A00009F0BCFF0346002B01D0FFF741FD3B4691
:1011B00008221946074809F0B1FF0346002B01D069
:1011C000FFF736FD034800F0EBFA00BF3837BD46A5
:1011D00080BD00BF3001002080B58EB000AF07F1A8
:1011E000280300221A605A609A60DA6007F11C0333
:1011F00000221A605A609A603B4600221A605A60C8
:101200009A60DA601A615A619A612D4B2D4A1A6010
:101210002B4B4FF489725A60294B00229A60284B5D
:101220004FF6FF72DA60264B00221A61244B00222F
:101230009A61234809F068FB0346002B01D0FFF7B1
:10124000F7FC4FF48053BB6207F1280319461C4892
:101250000AF078F80346002B01D0FFF7E9FC1848A4
:1012600009F0D6FC0346002B01D0FFF7E1FC002378
:10127000FB6100237B6207F11C03194610480AF04A
:10128000C7FD0346002B01D0FFF7D2FC60233B6073
:1012900000237B600023BB6000233B613B460022B0
:1012A0001946074809F03AFF0346002B01D0FFF723
:1012B000BFFC034800F074FA00BF3837BD4680BD5C
:1012C0007C0100200004004080B58EB000AF07F123
:1012D000280300221A605A609A60DA6007F11C0342
:1012E00000221A605A609A603B4600221A605A60D7
:1012F0009A60DA601A615A619A613E4B3E4A1A60FE
:101300003C4B4FF489725A603A4B00229A60394B39
:1013100044F61F62DA60374B00221A61354B002217
:101320009A61344809F0F0FA0346002B01D0FFF728
:101330007FFC4FF48053BB6207F1280319462D4808
:101340000AF000F80346002B01D0FFF771FC294892
:1013500009F05EFC0346002B01D0FFF769FC002377
:10136000FB6100237B6207F11C03194621480AF048
:101370004FFD0346002B01D0FFF75AFC60233B6072
:1013800000237B600023BB6000233B613B460022BF
:101390001946184809F0C2FE0346002B01D0FFF79A
:1013A00047FC3B4604221946124809F0B7FE0346A3
:1013B000002B01D0FFF73CFC3B46082219460D48A4
:1013C00009F0ACFE0346002B01D0FFF731FC3B4691
:1013D0000C221946074809F0A1FE0346002B01D054
:1013E000FFF726FC034800F0DBF900BF3837BD46A5
:1013F00080BD00BFC80100200008004080B588B053
:1014000000AF07F1100300221A605A609A60DA6098
:101410003B1D00221A605A609A601E4B1E4A1A60D9
:101420001C4B4FF489725A601A4B00229A60194B78
:101430004FF0FF32DA60174B00221A61154B002281
:101440009A61144809F060FA0346002B01D0FFF7B7
:10145000EFFB4FF480533B6107F1100319460D4831
:1014600009F070FF0346002B01D0FFF7E1FB0023DA
:101470007B600023FB603B1D194606480AF0C8FC50
:101480000346002B01D0FFF7D3FB00BF2037BD463A
:1014900080BD00BF14020020000C004080B584B065
:1014A00000AF3B1D00221A605A609A60154B164A25
:1014B0001A60144B4FF489725A60124B00229A60E2
:1014C000104B42F20F72DA600E4B00229A610D4807
:1014D00009F01AFA0346002B01D0FFF7A9FB0023FD
:1014E0007B600023FB603B1D194606480AF090FC18
:1014F0000346002B01D0FFF79BFB00BF1037BD4612
:1015000080BD00BF600200200010004080B58EB09A
:1015100000AF07F1280300221A605A609A60DA606F
:1015200007F11C0300221A605A609A603B460022B1
:101530001A605A609A60DA601A615A619A613E4B89
:101540003E4A1A603C4B4FF489725A603A4B002273
:101550009A60394B44F61F62DA60374B00221A61F9
:10156000354B00229A61344809F0CEF90346002B2E
:1015700001D0FFF75DFB4FF48053BB6207F12803F6
:1015800019462D4809F0DEFE0346002B01D0FFF777
:101590004FFB294809F03CFB0346002B01D0FFF725
:1015A00047FB0023FB6100237B6207F11C03194604
:1015B00021480AF02DFC0346002B01D0FFF738FB31
:1015C00060233B6000237B600023BB6000233B6102
:1015D0003B4600221946184809F0A0FD0346002B9F
:1015E00001D0FFF725FB3B4604221946124809F0BB
:1015F00095FD0346002B01D0FFF71AFB3B4608225E
:1016000019460D4809F08AFD0346002B01D0FFF76B
:101610000FFB3B460C221946074809F07FFD0346A5
:10162000002B01D0FFF704FB034800F0B9F800BF1E
:101630003837BD4680BD00BFAC02002000E400404A
:1016400080B58AB000AF78607B681B684D4A9342D2
:101650000FD14D4BD3F8F0304B4A43F00103C2F8A1
:10166000F030494BD3F8F03003F001037B627B6A22
:1016700084E07B681B68B3F1804F0FD1424BD3F8F5
:10168000E830414A43F00103C2F8E8303E4BD3F85A
:10169000E83003F001033B623B6A6FE07B681B6844
:1016A0003A4A93420FD1384BD3F8E830364A43F0E8
:1016B0000203C2F8E830344BD3F8E83003F00203F9
:1016C000FB61FB695AE07B681B68314A93420FD18A
:1016D0002D4BD3F8E8302C4A43F00403C2F8E8302D
:1016E000294BD3F8E83003F00403BB61BB6945E044
:1016F0007B681B68274A93420FD1234BD3F8E8300D
:10170000214A43F00803C2F8E8301F4BD3F8E83011
:1017100003F008037B617B6930E07B681B681E4A2D
:10172000934217D1184BD3F8E830174A43F010030F
:10173000C2F8E830144BD3F8E83003F010033B61F3
:101740003B6900220F21362005F025FB362005F0ED
:101750003CFB13E07B681B68104A93420ED10A4B96
:10176000D3F8EC30084A43F00073C2F8EC30064B73
:10177000D3F8EC3003F00073FB60FB6800BF283740
:10178000BD4680BD000001400044025800040040F6
:1017900000080040000C00400010004000E4004041
:1017A00080B58CB000AF786007F11C0300221A608E
:1017B0005A609A60DA601A617B681B685E4A9342DD
:1017C00020D15E4BD3F8E0305C4A43F01003C2F8FE
:1017D000E0305A4BD3F8E03003F01003BB61BB6933
:1017E0004FF4C043FB6102233B6200237B62002372
:1017F000BB620123FB6207F11C031946504805F048
:1018000077FB94E07B681B68B3F1804F1FD14B4B93
:10181000D3F8E030494A43F00103C2F8E030474BC7
:10182000D3F8E03003F001037B617B690623FB61A1
:1018300002233B6200237B620023BB620123FB6225
:1018400007F11C0319463F4805F052FB6FE07B6827
:101850001B683D4A93421FD1384BD3F8E030374ADA
:1018600043F00403C2F8E030344BD3F8E03003F027
:1018700004033B613B694023FB6102233B6200237D
:101880007B620023BB620223FB6207F11C03194643
:101890002E4805F02DFB4AE07B681B682C4A9342DA
:1018A00020D1264BD3F8E030244A43F00803C2F895
:1018B000E030224BD3F8E03003F00803FB60FB6814
:1018C0004FF47043FB6102233B6200237B620023E1
:1018D000BB620223FB6207F11C0319461D4805F099
:1018E00007FB24E07B681B681B4A93421FD1134B04
:1018F000D3F8E030114A43F02003C2F8E0300F4B38
:10190000D3F8E03003F02003BB60BB684FF4F04332
:10191000FB6102233B6200237B620023BB620E2338
:10192000FB6207F11C0319460C4805F0E1FA00BF01
:101930003037BD4680BD00BF000001400044025862
:10194000001002580000025800040040000802582D
:1019500000080040000C025800E400400014025847
:1019600080B500AF224B234A1A60214B4FF4E1327D
:101970005A601F4B00229A601D4B0022DA601C4BFC
:1019800000221A611A4B0C225A61194B00229A61EB
:10199000174B0022DA61164B00221A62144B002208
:1019A0005A62134B00229A6211480AF077FB0346F1
:1019B000002B01D0FFF73CF900210D480CF0F1FF9E
:1019C0000346002B01D0FFF733F9002108480DF042
:1019D00026F80346002B01D0FFF72AF904480CF043
:1019E000A7FF0346002B01D0FFF722F900BF80BDFF
:1019F000F8020020004C004080B500AF224B234A83
:101A00001A60214B4FF4E1325A601F4B00229A605A
:101A10001D4B0022DA601C4B00221A611A4B0C226B
:101A20005A61194B00229A61174B0022DA61164B5A
:101A300000221A62144B00225A62134B00229A624F
:101A400011480AF02BFB0346002B01D0FFF7F0F8FA
:101A500000210D480CF0A5FF0346002B01D0FFF735
:101A6000E7F8002108480CF0DAFF0346002B01D00C
:101A7000FFF7DEF804480CF05BFF0346002B01D0B3
:101A8000FFF7D6F800BF80BD8C0300200050004057
:101A900080B500AF224B234A1A60214B4FF4E1324C
:101AA0005A601F4B00229A601D4B0022DA601C4BCB
:101AB00000221A611A4B0C225A61194B00229A61BA
:101AC000174B0022DA61164B00221A62144B0022D7
:101AD0005A62134B00229A6211480AF0DFFA034659
:101AE000002B01D0FFF7A4F800210D480CF059FF9E
:101AF0000346002B01D0FFF79BF8002108480CF0AB
:101B00008EFF0346002B01D0FFF792F804480CF03B
:101B10000FFF0346002B01D0FFF78AF800BF80BDFE
:101B200020040020007C004080B500AF224B234AF7
:101B30001A60214B4FF4E1325A601F4B00229A6029
:101B40001D4B0022DA601C4B00221A611A4B0C223A
:101B50005A61194B00229A61174B0022DA61164B29
:101B600000221A62144B00225A62134B00229A621E
:101B700011480AF093FA0346002B01D0FFF758F8FA
:101B800000210D480CF00DFF0346002B01D0FFF79C
:101B90004FF8002108480CF042FF0346002B01D00B
:101BA000FFF746F804480CF0C3FE0346002B01D0B3
:101BB000FFF73EF800BF80BDB404002000100140D4
:101BC00080B500AF224B234A1A60214B4FF4E1321B
:101BD0005A601F4B00229A601D4B0022DA601C4B9A
:101BE00000221A611A4B0C225A61194B00229A6189
:101BF000174B0022DA61164B00221A62144B0022A6
:101C00005A62134B00229A6211480AF047FA0346BF
:101C1000002B01D0FFF70CF800210D480CF0C1FE9D
:101C20000346002B01D0FFF703F8002108480CF011
:101C3000F6FE0346002B01D0FEF7FAFF04480CF035
:101C400077FE0346002B01D0FEF7F2FF00BF80BDF8
:101C5000480500200044004080B500AF224B234AD5
:101C60001A60214B4FF4E1325A601F4B00229A60F8
:101C70001D4B0022DA601C4B00221A611A4B0C2209
:101C80005A61194B00229A61174B0022DA61164BF8
:101C900000221A62144B00225A62134B00229A62ED
:101CA00011480AF0FBF90346002B01D0FEF7C0FFF4
:101CB00000210D480CF075FE0346002B01D0FEF705
:101CC000B7FF002108480CF0AAFE0346002B01D004
:101CD000FEF7AEFF04480CF02BFE0346002B01D0AC
:101CE000FEF7A6FF00BF80BDDC05002000480040D5
:101CF00080B5C6B000AF07F58C73A3F58A73186082
:101D000007F5827300221A605A609A60DA601A61DD
:101D100007F14803B822002118460DF0ADFF07F582
:101D20008C73A3F58A731B681B68D24A934273D1E4
:101D30004FF002024FF00003C7E912230023C7F857
:101D4000BC3007F14803184607F01CF80346002B87
:101D500001D0FEF76DFFC84BD3F8E830C64A43F414
:101D60000023C2F8E830C44BD3F8E83003F4002372
:101D70007B647B6CC04BD3F8E030BF4A43F0010377
:101D8000C2F8E030BC4BD3F8E03003F001033B6411
:101D90003B6CB94BD3F8E030B74A43F00403C2F8C8
:101DA000E030B54BD3F8E03003F00403FB63FB6B8A
:101DB0000123C7F804310223C7F808310023C7F80C
:101DC0000C310023C7F810310823C7F8143107F588
:101DD00082731946A94805F08BF84FF40063C7F8E1
:101DE00004310223C7F808310023C7F80C3100235F
:101DF000C7F810310823C7F8143107F58273194664
:101E00009F4805F075F800220221342004F0C3FF3A
:101E1000342004F0DAFF64E207F58C73A3F58A73CB
:101E20001B681B68974A934273D14FF002024FF030
:101E30000003C7E912230023C7F8BC3007F14803A9
:101E4000184606F09FFF0346002B01D0FEF7F0FE78
:101E5000894BD3F8E830884A43F48013C2F8E8305D
:101E6000854BD3F8E83003F48013BB63BB6B824B24
:101E7000D3F8E030804A43F00403C2F8E0307E4BF0
:101E8000D3F8E03003F004037B637B6B7A4BD3F829
:101E9000E030794A43F00803C2F8E030764BD3F8DB
:101EA000E03003F008033B633B6B4FF48053C7F80B
:101EB00004310223C7F808310023C7F80C3100238E
:101EC000C7F810310823C7F8143107F58273194693
:101ED0006B4805F00DF80423C7F804310223C7F856
:101EE00008310023C7F80C310023C7F8103108234C
:101EF000C7F8143107F582731946634804F0F8FFF8
:101F000000220121352004F046FF352004F05DFF5A
:101F1000E7E107F58C73A3F58A731B681B685B4ABE
:101F200093424ED14FF002024FF00003C7E9122353
:101F30000023C7F8BC3007F14803184606F022FF1B
:101F40000346002B01D0FEF773FE4B4BD3F8E8306D
:101F5000494A43F00043C2F8E830474BD3F8E83031
:101F600003F00043FB62FB6A434BD3F8E030424A84
:101F700043F01003C2F8E0303F4BD3F8E03003F0F9
:101F80001003BB62BB6A0323C7F804310223C7F8FE
:101F900008310023C7F80C310023C7F8103108239B
:101FA000C7F8143107F582731946394804F0A0FFC9
:101FB00000220021532004F0EEFE532004F005FF20
:101FC0008FE107F58C73A3F58A731B681B68314A90
:101FD000934263D14FF001024FF00003C7E912238F
:101FE0000023C7F8C03007F14803184606F0CAFEC0
:101FF0000346002B01D0FEF71BFE1F4BD3F8F03039
:102000001D4A43F01003C2F8F0301B4BD3F8F030F8
:1020100003F010037B627B6A174BD3F8E030164A5B
:1020200043F00203C2F8E030134BD3F8E03003F082
:1020300002033B623B6A4FF44043C7F8043102237A
:10204000C7F808310023C7F80C310023C7F8103156
:102050000423C7F8143107F5827319460E4804F0BB
:1020600047FF00220021252004F095FE252004F0E2
:10207000ACFE36E1004C004000440258000002581B
:102080000008025800500040000C0258007C00403C
:1020900000100258001001400004025807F58C732C
:1020A000A3F58A731B681B68904A934240F08380B3
:1020B0004FF002024FF00003C7E912230023C7F8D4
:1020C000BC3007F14803184606F05CFE0346002BBF
:1020D00001D0FEF7ADFD864BD3F8E830844A43F4D7
:1020E0000033C2F8E830824BD3F8E83003F4003311
:1020F000FB61FB697E4BD3F8E0307D4A43F001037E
:10210000C2F8E0307A4BD3F8E03003F0010207F573
:102110008C73A3F580731A6007F58C73A3F5807335
:102120001B68734BD3F8E030714A43F00803C2F8E0
:10213000E0306F4BD3F8E03003F0080207F58C7302
:10214000A3F582731A6007F58C73A3F582731B687D
:102150000823C7F804310223C7F808310023C7F861
:102160000C310023C7F810310723C7F8143107F5E5
:10217000827319465F4804F0BBFE2023C7F8043180
:102180000223C7F808310023C7F80C310023C7F831
:1021900010310723C7F8143107F5827319465648E2
:1021A00004F0A6FE00220521262004F0F4FD2620DE
:1021B00004F00BFE95E007F58C73A3F58A731B689A
:1021C0001B684E4A934240F08C804FF002024FF061
:1021D0000003C7E912230023C7F8BC3007F1480306
:1021E000184606F0CFFD0346002B01D0FEF720FD78
:1021F0003F4BD3F8E8303E4A43F48023C2F8E8303E
:102200003B4BD3F8E83003F4802207F58C73A3F539
:1022100084731A6007F58C73A3F584731B68344BC1
:10222000D3F8E030324A43F00203C2F8E030304BDA
:10223000D3F8E03003F0020207F58C73A3F5867340
:102240001A6007F58C73A3F586731B68284BD3F8C7
:10225000E030274A43F00803C2F8E030244BD3F8BB
:10226000E03003F0080207F58C73A3F588731A6059
:1022700007F58C73A3F588731B684FF48063C7F868
:1022800004310223C7F808310023C7F80C310023BA
:10229000C7F810310723C7F8143107F582731946C0
:1022A000174804F025FE4FF40073C7F804310223E9
:1022B000C7F808310023C7F80C310023C7F81031E4
:1022C0000723C7F8143107F5827319460A4804F04A
:1022D0000FFE00220421272004F05DFD272004F0DA
:1022E00074FD00BF07F58C77BD4680BD00440040FB
:1022F0000044025800000258000C025800480040F8
:102300000004025880B483B000AF78607B689B689B
:1023100007EE903AB0EE670A0C37BD465DF8047BD5
:102320007047000080B582B000AF786039607B688C
:102330003A685A6400221021094804F081FF002203
:102340000821074804F07CFF7B68586C7B680C33DD
:102350000122194609F080FF00BF0837BD4680BD45
:10236000000C025880B586B000AF78607B681B7B9C
:10237000FF2B03D07B681B7BFE2B06D17B680022E2
:10238000DA757B6806221A761CE07B681B7BFD2BC6
:1023900006D17B680022DA757B6804221A7611E088
:1023A0007B681B7BFC2B07D07B681B7BFB2B03D044
:1023B0007B681B7BFA2B05D17B680022DA757B6872
:1023C00003221A767B68DB7D19467B681A7B7B6863
:1023D0000B445A737B68DB7D0133DAB27B68DA75B4
:1023E0007B68DB7D092B02D97B680022DA757B686C
:1023F000DA7D7B681B7E9A4240F001817B685B7BC3
:10240000FF2B1FD07B685B7BFE2B1BD07B685B7B2D
:10241000FD2B17D07B685B7BFC2B13D07B685B7B31
:10242000FB2B0FD07B685B7BFA2B0BD07B680022E9
:10243000DA757B68586C7B680C330122194609F009
:102440000BFFE4E00023FB7501233B610AE07A689F
:102450003B6913440D331A78FB7D1344FB753B69CC
:1024600001333B617B681B7E013B3A699A42EEDB9C
:102470007B681B7E013B7A6813445B7BFA7D9A4242
:1024800015D0FA7D7B681B7E013B79680B445B7B32
:102490000F3B9A420BD07B680022DA757B68586C40
:1024A0007B680C330122194609F0D6FEAFE07B6849
:1024B0005B7BFA3B052B00F29B8001A252F823F0D4
:1024C000CF250008B32500089725000867250008D8
:1024D00037250008D92400087B689B7B1BB21B02B0
:1024E0001AB27B68DB7B1BB21343FB817B681B7CCE
:1024F0001BB21B021AB27B685B7C1BB21343BB810D
:10250000B7F90E3007EE903AB8EEE77ADFED416AA0
:10251000C7EE267A7B68C3ED0C7AB7F90C3007EE6C
:10252000903AB8EEE77ADFED3B6AC7EE267A7B6831
:10253000C3ED0D7A63E07B689B7B1BB21B021AB272
:102540007B68DB7B1BB213437B81B7F90A3007EE54
:10255000903AB8EEE77ADFED2F6AC7EE267A7B680D
:10256000C3ED0E7A4BE07B689B7B1BB21B021AB259
:102570007B68DB7B1BB213433B81B7F9083007EE66
:10258000903AB8EEE77ADFED236AC7EE267A7B68E9
:10259000C3ED0F7A33E07B689B7B012B2AD17B68EC
:1025A00093F8403083F00103DAB27B6883F840206F
:1025B00020E07B689B7B012B1ED17B6893F8413028
:1025C00083F00103DAB27B6883F8412014E07B6872
:1025D0009B7B012B12D17B6893F84230002B0CBF00
:1025E00001230023DBB21A467B6883F8422005E012
:1025F00000BF04E000BF02E000BF00E000BF7B6856
:10260000586C7B680C330122194609F025FE1837F7
:10261000BD4680BD00EAFF4680B582B000AF78605D
:1026200003F062FE0346002B14BF01230023DAB23D
:102630007B681A7400BF0837BD4680BD80B582B084
:1026400000AF78607B685A687B689A607B681A681C
:102650007B685A6004F0B6F9F0EE407A7B68C3ED0F
:10266000007A7B6893ED027A7B68D3ED017A37EECE
:10267000277A7B68D3ED007A77EE277AF0EE086A46
:1026800087EEA67A7B68D3ED057A77EE677A9FEDC1
:10269000077A27EE877ADFED066AC7EE267A7B682F
:1026A000C3ED037A00BF0837BD4680BD0000C842B5
:1026B0000048194680B483B000AF78607B681B681F
:1026C00007EE903AB0EE670A0C37BD465DF8047B22
:1026D000704780B483B000AF78607B68DB6807EE3A
:1026E000903AB0EE670A0C37BD465DF8047B704740
:1026F00080B582B000AF786039607B683A685A6113
:102700007B6858697B680D330122194609F0A4FDE6
:1027100000BF0837BD4680BD80B582B000AF78608D
:102720007B6858697B6803F10C014FF6FF73012247
:1027300009F004FD00BF0837BD4680BD80B582B0FA
:1027400000AF78607B685B7BFF2B02D17B68002247
:102750009A747B689B7C19467B685A7B7B680B4428
:102760009A737B689B7C0133DAB27B689A747B68CE
:102770005A887B681A807B689A887B685A807B6855
:10278000DA7E7B689A767B689B7C042B34D17B68ED
:102790009B7BFF2B2AD17B689B7B1A467B68DB7B6C
:1027A00013447A68127C1344DBB27A68527C9342F9
:1027B0001CD17B68DB7B1BB21B021AB27B681B7CC3
:1027C0001BB213431BB29AB27B689A807B689B88CA
:1027D00007EE903AB8EEE76BB2EE045B86EE057B4F
:1027E000F7EEC77B7B68C3ED027A05E07B680022C9
:1027F0009A747B680022DA767B685A887B689B88AB
:102800009A4210D17B681B8B01339AB27B681A8382
:102810007B681B8B322B21D97B680022DA767B68A0
:1028200000221A831AE07B689B7E002B0BD07B680A
:102830009B881A467B685B88D31A322B03DD7B6842
:102840000022DA760AE07B689B88092B03D87B6834
:102850000022DA7602E07B680122DA767B6858692A
:102860007B680D330122194609F0F6FC00BF0837DA
:10287000BD4680BD80B586B000AF78613961FA6031
:10288000BB6087ED010A7B693A691A607B69FA6867
:102890005A607B694FF000029A607B697A681A611E
:1028A0007B69BA685A617B693A6A9A617B6997F871
:1028B00024201A777B691A687B695B681946104681
:1028C00008F008FA7B695B68002B06D17B691B68FE
:1028D0001B6840F2DC525A6331E07B695B68042B71
:1028E00006D17B691B681B6840F2DC529A6326E0C4
:1028F0007B695B68082B06D17B691B681B6840F20B
:10290000DC52DA631BE07B695B680C2B06D17B69C8
:102910001B681B6840F2DC521A6410E07B695B683C
:10292000102B06D17B691B681B6840F2DC529A654C
:1029300005E07B691B681B6840F2DC52DA650A20FF
:1029400004F02AF900BF1837BD4680BD80B588B0B5
:1029500000AFF86087ED020AC7ED010A87ED001AA3
:1029600097ED007AD7ED017AB4EEE77AF1EE10FA3E
:1029700001D8012334E097ED027AD7ED017A77EEA2
:10298000676A97ED007AD7ED017A37EE677AC6EE7F
:10299000877AC7ED067AD7ED067A9FED137A67EE50
:1029A000877A9FED127A77EEC77AC7ED057A97EDB1
:1029B000050A0DF04DF8F0EE407AFDEEE77A17EEDD
:1029C000903AFB61FB6913F5FA7F01DA084BFB6172
:1029D000FB69B3F5FA7F02DD4FF4FA73FB61FB6923
:1029E00018462037BD4680BD00007A440000FA43F7
:1029F0000CFEFFFF80B582B000AF786087ED000A63
:102A00007B683A689A607B68D3ED027AF5EEC07A0B
:102A1000F1EE10FA38DD7B6893ED027A7B68D3ED36
:102A2000047AB4EEE77AF1EE10FA03DD7B681A69F6
:102A30007B689A607B6893ED027A7B68D3ED047AB9
:102A4000F1EE677A7B68D3ED046AB0EE661AF0EEB9
:102A5000670AB0EE470A7868FFF778FF02467B689E
:102A60005B691A447B68DA607B681B7F002B04D1AA
:102A70007B68DB685A427B68DA607B68DB6803F25C
:102A8000DC527B68DA603DE07B6893ED027A7B681C
:102A9000D3ED047AF1EE677AB4EEE77AF1EE10FA4C
:102AA00007D57B68D3ED047AF1EE677A7B68C3EDD6
:102AB000027A7B6893ED027A7B68D3ED047AF1EEBB
:102AC000677A7B68D3ED046AB0EE661AF0EE670AA7
:102AD000B0EE470A7868FFF739FF02467B689B69CA
:102AE000D21A7B68DA607B681B7F002B04D17B687D
:102AF000DB685A427B68DA607B68DB6803F2DC5291
:102B00007B68DA607B685B68002B06D17B68DA68DB
:102B10007B681B681B685A6331E07B685B68042B29
:102B200006D17B68DA687B681B681B689A6326E0BD
:102B30007B685B68082B06D17B68DA687B681B685A
:102B40001B68DA631BE07B685B680C2B06D17B6833
:102B5000DA687B681B681B681A6410E07B685B6836
:102B6000102B06D17B68DA687B681B681B689A6546
:102B700005E07B68DA687B681B681B68DA6500BF64
:102B80000837BD4680BD80B483B000AF78607B68F5
:102B90005B68002B06D17B681B681B6840F2DC5227
:102BA0005A6331E07B685B68042B06D17B681B6845
:102BB0001B6840F2DC529A6326E07B685B68082B56
:102BC00006D17B681B681B6840F2DC52DA631BE0AD
:102BD0007B685B680C2B06D17B681B681B6840F226
:102BE000DC521A6410E07B685B68102B06D17B68AE
:102BF0001B681B6840F2DC529A6505E07B681B6825
:102C00001B6840F2DC52DA6500BF0C37BD465DF848
:102C1000047B704780B582B000AF87ED010A97ED65
:102C2000010A0CF00DFEF0EE407AB0EE670A0837AC
:102C3000BD4680BD80B582B000AF87ED010A97ED3B
:102C4000010A0CF00DFDF0EE407AB0EE670A08378D
:102C5000BD4680BD80B584B000AFF860B96087ED37
:102C6000010AFB68BA689A67FB687A689A64F86830
:102C700000F0DEFAFB68986FFB684D3301221946BD
:102C800009F0EAFA00BF1037BD4680BD80B582B0BA
:102C900000AF78607B6893F84D30802B03D17B6860
:102CA000002283F874207B6893F8743019467B689F
:102CB00093F84D207B680B4483F84E207B6893F893
:102CC00074300133DAB27B6883F874207B6893F840
:102CD0007430262B40F0ED807B6893F872300D2B1A
:102CE00004D17B6893F873300A2B04D07B680022F0
:102CF00083F87420E5E07B6893F855301BB21B0223
:102D00001AB27B6893F854301BB213431BB207EE20
:102D1000903AB8EEE77ADFED6C6AC7EE267A7B6808
:102D2000C3ED007A7B6893F857301BB21B021AB2CE
:102D30007B6893F856301BB213431BB207EE903AF0
:102D4000B8EEE77ADFED606AC7EE267A7B68C3EDFE
:102D5000017A7B6893F859301BB21B021AB27B6868
:102D600093F858301BB213431BB207EE903AB8EEFB
:102D7000E77ADFED556AC7EE267A7B68C3ED027A03
:102D80007B6893F85B301BB21B021AB27B6893F826
:102D90005A301BB213431BB207EE903AF8EEE77AB3
:102DA0007B68C3ED037A7B6893F85D301BB21B022E
:102DB0001AB27B6893F85C301BB213431BB207EE68
:102DC000903AF8EEE77A7B68C3ED047A7B6893F873
:102DD0005F301BB21B021AB27B6893F85E301BB2E5
:102DE00013431BB207EE903AF8EEE77A7B68C3ED27
:102DF000057A7B6893F861301BB21B021AB27B68BC
:102E000093F860301BB213431BB207EE903AB8EE52
:102E1000E77ADFED2E6AC7EE267A7B68C3ED067A85
:102E20007B6893F863301BB21B021AB27B6893F87D
:102E300062301BB213431BB207EE903AB8EEE77A4A
:102E4000DFED226AC7EE267A7B68C3ED077A7B68DE
:102E500093F865301BB21B021AB27B6893F864309A
:102E60001BB213431BB207EE903AB8EEE77ADFEDE0
:102E7000176AC7EE267A7B68C3ED087A7B6893F8F9
:102E800067301BB21B021AB27B6893F866301BB224
:102E900013431BB207EE903AB8EEE77ADFED0B6A08
:102EA000C7EE267A7B68C3ED0A7A7B68002283F836
:102EB00074207B68986F7B684D330122194609F0B6
:102EC000CBF90837BD4680BD000080420000C842F3
:102ED00080B584B000AF78600B4A07F1080392E830
:102EE000030083E803007B68986F07F108014FF047
:102EF000FF33082209F022F97B684FF000025A6282
:102F000000BF1037BD4680BDF00001080000000082
:102F100080B483B000AF87ED010AD7ED017AB7EE38
:102F2000E77A9FED096B27EE066B9FED095B86EE56
:102F3000057BF7EEC77BB0EE670A0C37BD465DF840
:102F4000047B7047AFF30080182D4454FB210940E7
:102F5000000000000080664080B592B000AF78604D
:102F60007B6893ED037A7B68D3ED117A27EE277A9D
:102F7000DFEDAE6AC7EE267AC7ED117A7B6893ED76
:102F8000047A7B68D3ED117A27EE277ADFEDA76A02
:102F9000C7EE267AC7ED107A7B6893ED057A7B68D9
:102FA000D3ED117A27EE277ADFEDA06AC7EE267AF5
:102FB000C7ED0F7A7B68D3ED077AB0EE670AFFF7AB
:102FC000A7FF87ED0E0A7B68D3ED067AB0EE670A9D
:102FD000FFF79EFF87ED0D0A7B68D3ED087AB0EE10
:102FE000670AFFF795FF87ED0C0A97ED0E0AFFF7CA
:102FF00011FE87ED0B0A97ED0E0AFFF71BFE87ED1A
:103000000A0A97ED0D0AFFF705FE87ED090A97ED0D
:103010000D0AFFF70FFE87ED080A97ED0C0AFFF780
:10302000F9FD87ED070A97ED0C0AFFF703FE87ED20
:10303000060A97ED077AD7ED097A27EE277AD7EDBA
:10304000117A27EE277AD7ED076AD7ED087A66EE70
:10305000A76AD7ED0A7A66EEA76A97ED066AD7EDFA
:103060000B7A66EE277A76EEE76AD7ED107A66EE8F
:10307000A77A37EE277AD7ED076AD7ED087A66EE9A
:10308000A76AD7ED0B7A66EEA76A97ED066AD7EDC9
:103090000A7A66EE277A76EEA76AD7ED0F7A66EEA1
:1030A000A77A77EE277AC7ED057A97ED067AD7EDFE
:1030B000097A27EE277AD7ED117A27EE277AD7ED0E
:1030C000066AD7ED087A66EEA76AD7ED0A7A66EE49
:1030D000A76A97ED076AD7ED0B7A66EE277A76EE48
:1030E000A76AD7ED107A66EEA77A37EE277AD7ED82
:1030F000066AD7ED087A66EEA76AD7ED0B7A66EE18
:10310000A76A97ED076AD7ED0A7A66EE277A76EE18
:10311000E76AD7ED0F7A66EEA77A77EE277AC7EDE2
:10312000047AD7ED087AB1EE677AD7ED117A27EEF7
:10313000277AD7ED096AD7ED0A7A66EEA76AD7ED46
:10314000107A66EEA77A37EE277AD7ED096AD7EDBF
:103150000B7A66EEA76AD7ED0F7A66EEA77A77EE5E
:10316000277AC7ED037A7B68D3ED117A97ED037A5E
:1031700077EE677AC7ED037A7B6893ED0D7A7B680B
:10318000D3ED0B6AD7ED057A76EEA77AF6EE006AF4
:1031900067EEA66A7B68D3ED127A66EEA77A77EEC1
:1031A000277A7B68C3ED0D7A7B6893ED0E7A7B6896
:1031B000D3ED0C6AD7ED047A76EEA77AF6EE006AC4
:1031C00067EEA66A7B68D3ED127A66EEA77A77EE91
:1031D000277A7B68C3ED0E7A7B6893ED0F7A7B6864
:1031E000D3ED0D6A7B68D3ED127A66EEA77A77EE9F
:1031F000277A7B68C3ED0F7A7B6893ED107A7B6842
:10320000D3ED0E6A7B68D3ED127A66EEA77A77EE7D
:10321000277A7B68C3ED107A7B687A69DA627B680B
:103220003A691A6300BF4837BD4680BD00007A4442
:1032300080B483B000AF78607B684FF000025A63BF
:103240007B684FF000029A637B684FF00002DA63FC
:103250007B684FF000021A647B684FF00002DA626C
:103260007B684FF000021A6300BF0C37BD465DF863
:10327000047B704780B582B000AF786039607B68AE
:103280003A689A607B689B6879680122184608F062
:10329000E3FF00BF0837BD4680BD000080B586B0A3
:1032A00000AF78607B681B78FF2B02D17B6800221F
:1032B000DA717B681B78FE2B02D17B6800221A75BD
:1032C0007B68DB7919467B681A787B680B445A70F7
:1032D0007B68DB790133DAB27B68DA717B68DB7992
:1032E000062B76D17B685A787B689B781344DAB2D8
:1032F0007B68DB781344DAB27B681B791344DAB25B
:103300007B685B791344FB757B685B78FF2B5DD131
:103310007B689B79FA7D9A4258D17B689B781BB277
:103320001B021AB27B68DB781BB21343BB82B7F96E
:10333000143007EE903AB8EEE77ADFED2B6AC7EE6D
:10334000267AC7ED047A7B681B791BB21B021AB27E
:103350007B685B791BB21343FB81B7F90E3007EE34
:10336000903AB8EEE77ADFED206AC7EE267AC7ED2D
:10337000027AD7ED047ABFEE007AF4EEC77AF1EE66
:1033800010FA23DBD7ED047AB7EE007AF4EEC77AB1
:10339000F1EE10FA1AD8D7ED027ABFEE007AF4EE09
:1033A000C77AF1EE10FA11DBD7ED027AB7EE007AA8
:1033B000F4EEC77AF1EE10FA08D87B683A69DA6061
:1033C0007B68BA681A617B6801221A757B680022E3
:1033D000DA717B689B6879680122184608F03CFF27
:1033E00000BF1837BD4680BD0078FF4680B483B06B
:1033F00000AF78607B684FF000021A607B684FF086
:1034000000025A607B684FF000029A607B684FF0C0
:103410000002DA607B684FF000021A617B684FF0AF
:1034200000025A617B684FF000029A617B684FF09E
:103430000002DA617B684FF000021A627B6818466E
:103440000C37BD465DF8047B704780B588B000AF8F
:10345000F86187ED060AC7ED050A87ED041AC7ED86
:10346000031A87ED022AC7ED012AFB69BA691A60BF
:10347000FB697A695A60FB693A699A60D7ED037A09
:10348000F0EEE77AFB69C3ED037AD7ED027AF0EE4E
:10349000E77AFB69C3ED047AD7ED017AF0EEE77ABB
:1034A000FB69C3ED057AF86900F004F800BF203726
:1034B000BD4680BD80B483B000AF78607B684FF0BC
:1034C00000029A617B684FF00002DA617B684FF07E
:1034D00000021A6200BF0C37BD465DF8047B7047DE
:1034E00080B489B000AFF86087ED020AC7ED010A29
:1034F00087ED001AD7ED007AF5EEC07AF1EE10FAFA
:1035000002D8FB681B6AB0E097ED027AD7ED017A2A
:1035100077EE677AC7ED077AD7ED077AB0EEE77AEC
:10352000FB68D3ED057AB4EEE77AF1EE10FA02D833
:103530004FF00003FB61FB68D3ED007A97ED077A4B
:1035400067EE277AC7ED047AFB6893ED067AFB688D
:10355000D3ED016AD7ED077A66EEA76AD7ED007A58
:1035600066EEA77A77EE277AFB68C3ED067AFB68EA
:10357000D3ED047AF5EEC07AF1EE10FA24DDFB68A3
:1035800093ED067AFB68D3ED047AB4EEE77AF1EEB8
:1035900010FA04DDFB681A69FB689A6114E0FB68A5
:1035A00093ED067AFB68D3ED047AF1EE677AB4EE18
:1035B000E77AF1EE10FA07D5FB68D3ED047AF1EE65
:1035C000677AFB68C3ED067A4FF00003BB61D7ED65
:1035D000007AF5EEC07AF1EE10FA11DDFB6893ED9A
:1035E000027AFB68D3ED077AD7ED076A76EEE77AC1
:1035F00067EE276A97ED007AC6EE877AC7ED067AFE
:10360000FB68FA69DA61FB6893ED067AD7ED047A14
:1036100077EE277A97ED067A77EE277AC7ED057A67
:10362000FB68D3ED037A97ED057AB4EEE77AF1EE15
:1036300010FA03DDFB68DB687B6112E0FB68D3ED09
:10364000037AF1EE677A97ED057AB4EEE77AF1EE58
:1036500010FA06D5FB68D3ED037AF1EE677AC7ED71
:10366000057AFB687A691A627B6907EE903AB0EED8
:10367000670A2437BD465DF8047B704780B400AF0D
:1036800000231846BD465DF8047B704780B400AF48
:1036900000231846BD465DF8047B704780B483B0B4
:1036A00000AF786039603B6818460C37BD465DF85E
:1036B000047B704780B483B000AF78607B68B3F55B
:1036C000007F05D24FF400727B68B2FBF3F300E099
:1036D000012318460C37BD465DF8047B7047000097
:1036E00080B483B000AF78607B684FF000021A604E
:1036F0007B684FF000025A607B684FF000029A60CE
:103700007B684FF00002DA607B6800221A747B68E5
:10371000044A5A617B6818460C37BD465DF8047B45
:10372000704700BF0028B94780B483B000AF78600D
:103730007B6800221A807B6800225A807B68002206
:103740009A807B684FF000029A607B68FF221A73B0
:103750007B6800229A747B6800225A617B68002291
:103760001A837B6801229A767B680122DA767B686D
:1037700018460C37BD465DF8047B704780B483B0B3
:1037800000AF78607B689B6907EE903AB0EE670AFD
:103790000C37BD465DF8047B7047000080B485B0EF
:1037A00000AF78607B6893ED087A7B68D3ED097A87
:1037B00077EE677AC7ED037AD7ED037A9FED157A36
:1037C000F4EEC77AF1EE10FA08DDD7ED037A9FED3B
:1037D000127A77EEC77AC7ED037A10E0D7ED037A55
:1037E0009FED0E7AF4EEC77AF1EE10FA07D5D7ED19
:1037F000037A9FED097A77EE877AC7ED037AFB6843
:1038000007EE903AB0EE670A1437BD465DF8047BC8
:10381000704700BF000034430000B443000034C3CD
:1038200080B483B000AF78607B68D3ED0E7AF1EEA0
:10383000677AB0EE670A0C37BD465DF8047B7047C7
:1038400080B483B000AF78607B685B6B07EE903A22
:10385000B0EE670A0C37BD465DF8047B704780B454
:1038600083B000AF78607B68EF221A707B684FF0FE
:1038700000025A607B684FF000029A607B684FF04C
:103880000002DA607B6800221A747B6800225A7496
:103890007B6800229A747B6818460C37BD465DF839
:1038A000047B704780B483B000AF78607B684FF0D2
:1038B00000021A607B684FF000025A607B684FF08C
:1038C00000029A607B684FF00002DA607B68002299
:1038D0001A747B6800225A747B6801229A747B6890
:1038E00018460C37BD465DF8047B704780B582B042
:1038F00000AF78607B6800221A607B6800225A6003
:103900007B6800229A607B680022DA757B6800225F
:103910001A767B681C331846FFF7A1FF7B683033AB
:103920001846FFF7BFFF7B6800225A647B68184681
:103930000837BD4680BD80B483B000AF7860396081
:103940007B683A681A6000BF0C37BD465DF8047B9F
:10395000704780B483B000AF786039607B683A68A4
:103960005A6000BF0C37BD465DF8047B704780B4D9
:1039700083B000AF786039607B683A689A6000BFB6
:103980000C37BD465DF8047B704780B483B000AF50
:1039900078607B6800221A607B6800225A607B682E
:1039A0004FF000029A607B680022DA607B684FF07B
:1039B00000021A617B6800225A617B6800229A61CA
:1039C0007B6801221A777B6818460C37BD465DF884
:1039D000047B704780B483B000AF78607B684FF0A1
:1039E00000021A607B684FF000025A607B6818463C
:1039F0000C37BD465DF8047B704780B582B000AFE0
:103A000078607B680022DA717B6800229A607B68AC
:103A10000C331846FFF7DEFF7B6800221A757B68BF
:103A200018460837BD4680BD80B483B000AF7860CB
:103A30007B684FF000021A607B684FF000025A600A
:103A40007B684FF000029A607B684FF00002DA60FA
:103A50007B684FF000021A617B684FF000025A61E8
:103A60007B684FF000029A617B684FF00002DA61D8
:103A70007B684FF000021A627B684FF000025A62C6
:103A80007B684FF000029A627B684FF00002DA62B6
:103A90007B684FF000021A637B684FF000025A63A4
:103AA0007B684FF000029A637B684FF00002DA6394
:103AB0007B684FF000021A647B680C4A5A647B688A
:103AC0004FF000029A647B68002283F874207B68C0
:103AD000002283F875207B6800229A677B6818466D
:103AE0000C37BD465DF8047B704700BFEDB01C414C
:103AF00080B582B000AF78607B68184601F0A9FB02
:103B00007B6818460837BD4680BD000080B500AF11
:103B1000064806F051FF054B1B6800225A62034B12
:103B20001B685B6A024A136000BF80BD140200205C
:103B30007406002080B500AF0D4B1B685B6A0D4A10
:103B400013600B4806F0B6FF0A4B1A680A4B1B6855
:103B5000D31A07EE903AF8EE677A084BC3ED007A75
:103B6000064B1B6807EE903AB0EE670A80BD00BFB7
:103B70001402002078060020740600207C06002035
:103B800080B584B002AF01224FF40051A74803F082
:103B900057FB01224FF40041A54803F051FB0122DD
:103BA0004FF40071A14803F04BFB0A2002F0F4FF30
:103BB00000F01CFB9F4B1B681846FEF72DFD9E4B2B
:103BC0001B689E491846FEF793FD9D4B1B689D4957
:103BD0001846FEF78DFD9C4B1B689FED9C0A9C4987
:103BE0001846FFF737F89B4B1B68924A126811463C
:103BF0001846FFF7A0FE974B1B688F4A12681146C4
:103C00001846FFF7A6FE934B1B688D4A12681146B3
:103C10001846FFF7ACFE8F4B1B688F491846FEF71E
:103C200081FB8E4B1B688E491846FFF723FB8D4B9B
:103C30001868002301930C2300939FED8B0A1D232A
:103C400000228A49FEF716FE864B1B6803F120000E
:103C5000002301930A2300939FED830A20230C2263
:103C60008249FEF707FE7F4B1B6803F140000023EB
:103C70000193092300939FED7C0A202304227B49B2
:103C8000FEF7F8FD774B1B6803F1600000230193FA
:103C9000072300939FED740A222308227449FEF73C
:103CA000E9FD704B1B6803F18000012301931E2383
:103CB00000939FED6D0A0C2308226C49FEF7DAFD94
:103CC000684B1B6803F1A00001230193222300939A
:103CD0009FED650A07230C226549FEF7CBFD40F6F0
:103CE000B83002F059FF634B1B68DFED632A9FED8C
:103CF0005E2ADFED5D1A9FED601ADFED600AB1EE1E
:103D0000040A1846FFF7A1FB5D4B1B68DFED5A2A3A
:103D10009FED552ADFED541A9FED571ADFED590A32
:103D20009FED590A1846FFF790FB584B1B68DFEDD3
:103D3000522A9FED4D2ADFED4C1A9FED551ADFED0B
:103D4000550A9FED4E0A1846FFF77FFB524B1B6842
:103D5000DFED492A9FED442ADFED431A9FED461A15
:103D6000DFED450AB0EE000A1846FFF76EFB4B4B3D
:103D70001B68DFED412A9FED3C2ADFED3B1A9FEDEA
:103D80003E1ADFED3D0AB0EE000A1846FFF75DFB74
:103D90002D4B1B681846FFF7F1FCF0EE407A404BC4
:103DA000C3ED007A2B4B1B68012283F84020294B7E
:103DB0001B68002283F84220234B1B681846FFF73C
:103DC00087F84FF000037B6000233B6017E0194B3E
:103DD0001B681846FEF732FC032002F0DDFE154B8F
:103DE0001B681846FEF766FCB0EE407AD7ED017A04
:103DF00077EE877AC7ED017A3B6801333B603B6819
:103E0000312BE4DD0B4B1B6897ED017ADFED166A71
:103E1000C7EE267AC3ED057A0A2002F0BDFE00F057
:103E2000B9FC00BF0837BD4680BD00BF000802587E
:103E300000100258880600208C060020F80200209E
:103E4000900600208C030020940600200AD7233C13
:103E5000200400209C06002048050020A006002029
:103E6000DC0500209806002000004842C801002020
:103E7000E4000020A406002000000000CDCC4C3E51
:103E8000A8060020CDCCCC3DCDCCCC3EAC0600204D
:103E90000AD7233D9A99993EB0060020B406002027
:103EA000F806002080B500AF00F07CF800F08CFA36
:103EB00000BF80BDB0B582B000AF78607B680D4AAE
:103EC000934213D1FFF722FE0B4BD3E90023541C7E
:103ED00043F10005084BC3E90045FFF7E3FFFFF797
:103EE00029FEF0EE407A054BC3ED007A00BF08379B
:103EF000BD46B0BD60020020800600207006002094
:103F000080B582B000AF78607B681B681B4A934223
:103F100005D11B4B1B681846FEF7B8FE2AE07B68EC
:103F20001B68184A934205D1174B1B681846FEF7C9
:103F300019FA1FE07B681B68144A934205D1144BA1
:103F40001B681846FFF7AAF914E07B681B68114A42
:103F5000934205D1104B1B681846FEF7EFFB09E0B2
:103F60007B681B680D4A934204D10D4B1B681846B1
:103F7000FEF7E4FB00BF0837BD4680BD007C004073
:103F800094060020004400409C06002000480040A9
:103F9000A0060020004C00408C060020005000408D
:103FA0009006002080B500AF5C4B1B681846FEF7FA
:103FB00045FB5B4BD3E900014FF00A024FF00003D1
:103FC000FCF792FB134305D1564B1B681846FEF7CE
:103FD000A3FB10E0524BD3E900014FF00A024FF06F
:103FE0000003FCF781FB511F0B4304D14E4B1B68B0
:103FF0001846FEF791FB4D4B1B6893F84130012B9F
:1040000005D1012201214A4803F01AF904E00022F7
:104010000121474803F014F9464B1B68464A1360D8
:10402000464B1B681846FFF7B9FBF0EE407A414B50
:10403000C3ED007A424B93ED007A3E4BD3ED007A0C
:1040400077EE277A3E4BC3ED007A3E4B1B88013357
:104050009AB23C4B1A80324BD3E900014FF496726E
:104060004FF00003FCF740FB134314D1344BD3ED66
:10407000006A344B1B8807EE903AB8EEE77AC6EE3A
:10408000877A2D4BC3ED007A2D4B4FF000021A605A
:104090002C4B00221A80294B1B681846FFF76EFB39
:1040A000F0EE407A284BC3ED007A1C4B1B68184693
:1040B000FEF70FFBF0EE407A244BC3ED007A1F4B66
:1040C0001B681846FEF748FF1C4B1B681846FFF795
:1040D000A7FBF0EE407A1E4BC3ED007A174B1B682E
:1040E0001846FFF7ADFBF0EE407A1A4BC3ED007AAD
:1040F0000C4B1B681846FEF705F9F0EE407A164B9C
:10410000C3ED007A084B1B681846FEF7FBF8F0EE8B
:10411000407A124BC3ED007A00BF80BD88060020B4
:10412000800600208C060020900600209C060020BF
:1041300000040258E0060020E80600209406002053
:10414000EC060020F0060020F4060020C006002047
:10415000C8060020D0060020D8060020DC0600207B
:1041600080B582B000AF00237B600CE00A4B1A6878
:104170007B685B0113441846FEF705FD00F00EF85E
:104180007B6801337B607B68052BEFDD00BF00BFE0
:104190000837BD4680BD00BF9806002080B500AF3F
:1041A0000D4B1B681846FFF785F90C4B1B6818462A
:1041B000FFF780F90A4B1B681846FFF77BF9094B9C
:1041C0001B681846FFF776F9074B1B681846FFF780
:1041D00071F900BF80BD00BFA4060020A806002022
:1041E000AC060020B0060020B406002080B58CB0DC
:1041F00000AF1C4B1C4A1A601A4B1B4A5A601B4AE0
:104200003B4607CA83E807003B461946184801F0B9
:1042100053F8184A07F10C0307CA83E8070007F1AF
:104220000C031946124801F047F8134A07F1180326
:1042300007CA83E8070007F1180319460C4801F084
:104240003BF80E4A07F1240307CA83E8070007F189
:1042500024031946064801F02FF800BF3037BD4649
:1042600080BD00BFFC0600200000A041180101082D
:104270009813002024010108300101083C010108C5
:1042800080B500AF01220221024802F0D9FF00BF31
:1042900080BD00BF0004025880B500AF002202219B
:1042A000024802F0CDFF00BF80BD00BF00040258ED
:1042B00080B487B000AF87ED030AC7ED020A87ED2F
:1042C000011A97ED027AD7ED017AB4EEE77AF1EEB2
:1042D00010FA04DBBB687B617B683B6103E07B68B1
:1042E0007B61BB683B6197ED037AD7ED057AB4EE4D
:1042F000E77AF1EE10FA01DD7B690BE097ED037AC6
:10430000D7ED047AB4EEE77AF1EE10FA01D53B6905
:1043100000E0FB6807EE903AB0EE670A1C37BD4636
:104320005DF8047B7047000080B487B000AF87ED74
:10433000030AC7ED020A87ED011A97ED037AD7ED5C
:10434000027A77EE677AC7ED057AD7ED017A9FEDAD
:104350001D7A67EE877A97ED057AB4EEE77AF1EE8B
:1043600010FA08DDD7ED017A9FED167A67EE877AAD
:10437000C7ED057A18E0D7ED017AF1EE677A9FED87
:10438000117A67EE877A97ED057AB4EEE77AF1EE67
:1043900010FA09D5D7ED017AF1EE677A9FED097A27
:1043A00067EE877AC7ED057A97ED027AD7ED057A41
:1043B00077EE277AB0EE670A1C37BD465DF8047BBE
:1043C000704700BF0AD7233C80B58AB000AFB84B16
:1043D0001B680133B74A5B0113440833D3E900017A
:1043E000B54BD3E90023904271EB030304D2B04BE9
:1043F0001B680133AE4A1360AD4B1A68AF4B1B68A4
:104400009A4202D9FFF7ACFEBDE1A94B1B68012B14
:104410000ED1AB4BD3ED007AB7EE087A37EEC77A00
:10442000A84BD3ED007A77EE677AA74BC3ED007AFD
:104430009F4B1B689F4A5B01134410331B68A34AC0
:1044400013609B4B1B689B4A5B01134414331B682E
:104450009F4A1360964B1B68964A5B0113441833BE
:1044600093ED007A984BD3ED007A77EE277A994B4B
:10447000C3ED007A974BD3ED007A914B93ED007A20
:104480009FED951AF0EE470AB0EE670AFFF74CFF72
:10449000F0EE407A8F4BC3ED007A854B1B68854A5E
:1044A0005B0113441C331B78012B02D1FFF7E8FE9C
:1044B00001E0FFF7F1FE3B4600221A605A609A6065
:1044C000DA601A615A61854B1B68824AD2ED007A24
:1044D0007B4A92ED007A9FED821AF0EE470AB0EE29
:1044E000670A1846FEF7FCFF87ED080A97ED017A88
:1044F000D7ED087A77EE677AC7ED017A97ED047AFF
:10450000D7ED087A77EE677AC7ED047A97ED017AEE
:10451000744BD3ED007A77EE277AC7ED017A97EDE9
:10452000047A704BD3ED007A77EE277AC7ED047AE0
:104530006D4B1B686D4AD2ED007A6D4A92ED007AA0
:104540009FED671AF0EE470AB0EE670A1846FEF7CD
:10455000C7FF87ED070A97ED007AD7ED077A77EE68
:10456000677AC7ED007A97ED027AD7ED077A77EE92
:10457000277AC7ED027A97ED037AD7ED077A77EEBF
:10458000277AC7ED037A97ED057AD7ED077A77EEAC
:10459000677AC7ED057A574B1B68574AD2ED007A08
:1045A000564A92ED007A9FED4E1AF0EE470AB0EEB1
:1045B000670A1846FEF794FF87ED060A97ED017A21
:1045C000D7ED067A77EE677AC7ED017A97ED047A30
:1045D000D7ED067A77EE277AC7ED047A97ED007A61
:1045E0003A4BD3ED007A77EE277AC7ED007A97ED54
:1045F000027A364BD3ED007A77EE677AC7ED027A0E
:1046000097ED037A314BD3ED007A77EE277AC7ED39
:10461000037A97ED057A2D4BD3ED007A77EE677A22
:10462000C7ED057A97ED007A294BD3ED007A77EE46
:10463000277AC7ED007A97ED027A254BD3ED007A01
:1046400077EE277AC7ED027A97ED037A204BD3ED08
:10465000007A77EE277AC7ED037A97ED057A1C4B3F
:10466000D3ED007A77EE277AC7ED057A00237B62D7
:1046700085E07B6A012B02D07B6A042B44D17B6AE4
:104680009B0028333B44283BD3ED007A9FED1C1A56
:10469000DFED1C0AB0EE670AFFF70AFEF0EE407A83
:1046A0007B6A9B0028333B44283BC3ED007A43E000
:1046B000C013002008070020800600208813002077
:1046C000C00600200C000020B8060020CC06002008
:1046D000D4060020BC0600200000C843A406002029
:1046E0000AD7233CC4060020A8060020E4060020C8
:1046F000E0060020AC060020F8060020F4060020AA
:1047000000002042000020C27B6A9B0028333B440B
:10471000283BD3ED007AB3EE0E1AFBEE0E0AB0EE94
:10472000670AFFF7C5FDF0EE407A7B6A9B002833ED
:104730003B44283BC3ED007A144BD3ED007AB7EE2F
:10474000007AF4EEC77AF1EE10FA04D54FF00003C8
:104750003B613B697B600E4B1A687B6A5B011A44C4
:104760007B6A9B0028333B44283BD3ED007AB0EEB4
:10477000670A1046FEF73EF97B6A01337B627B6A6B
:10478000052B7FF776AF2837BD4680BDC0060020D9
:104790009806002080B500AFEE4BD3ED007A4FF4C1
:1047A00096724FF000030120B0EE671AF1EE040A92
:1047B0009FEDE90A00F0ECFC4FF496724FF0000315
:1047C00001209FEDE61ADFEDE40A9FEDE30A00F019
:1047D000DFFCE34BD3ED007A4FF4FA624FF00003B5
:1047E0000120B0EE671AF2EE040A9FEDDB0A00F03A
:1047F000CFFCD84BD3ED007A4FF47A724FF0000320
:104800000120B0EE671AFBEE040A9FEDD30A00F018
:10481000BFFCD04BD3ED007A4FF4FA724FF0000397
:104820000120B0EE671ADFEDCC0ABAEE040A00F000
:10483000AFFCC84BD3ED007A4FF496724FF00003F3
:104840000120B0EE671AF9EE040A9FEDC30A00F0EA
:104850009FFCC44BD3ED007A4FF496724FF00003E7
:104860000120B0EE671ADFEDBC0AB9EE040A00F0D1
:104870008FFCBC4BD3ED007A4FF0C8024FF0000321
:104880000020B0EE671ADFEDB40AB9EE040A00F0BA
:104890007FFCB04BD3ED007A4FF0C8024FF000031D
:1048A0000020B0EE671ADFEDAC0AB1EE0C0A00F0A2
:1048B0006FFCAB4BD3ED007A4FF4FA624FF000037C
:1048C0000120B0EE671AF2EE040A9FEDA30A00F091
:1048D0005FFCA04BD3ED007A4FF47A724FF00003E7
:1048E0000120B0EE671AFBEE040A9FED9B0A00F070
:1048F0004FFC984BD3ED007A4FF4FA724FF000035F
:104900000120B0EE671ADFED940ABAEE040A00F057
:104910003FFC904BD3ED007A4FF496724FF00003BA
:104920000120B0EE671AF9EE040A9FED8B0A00F041
:104930002FFC8C4BD3ED007A4FF496724FF00003AE
:104940000020B0EE671ADFED840AB9EE040A00F029
:104950001FFC844BD3ED007A4FF0C8024FF00003E8
:104960000020B0EE671ADFED7C0AB9EE040A00F011
:104970000FFC784BD3ED007A4FF496724FF00003A2
:104980000020B0EE671ADFED740AB1EE0C0A00F0F9
:10499000FFFB734BD3ED007A4FF4FA624FF0000344
:1049A0000120B0EE671AF2EE040A9FED6B0A00F0E8
:1049B000EFFB684BD3ED007A4FF47A724FF00003AF
:1049C0000120B0EE671AFBEE040A9FED630A00F0C7
:1049D000DFFB604BD3ED007A4FF4FA724FF0000327
:1049E0000120B0EE671ADFED5C0ABAEE040A00F0AF
:1049F000CFFB584BD3ED007A4FF496724FF0000383
:104A00000120B0EE671AF9EE040A9FED530A00F098
:104A1000BFFB544BD3ED007A4FF496724FF0000376
:104A20000020B0EE671ADFED4C0AB9EE040A00F080
:104A3000AFFB4C4BD3ED007A4FF0C8024FF00003B0
:104A40000020B0EE671ADFED440AB9EE040A00F068
:104A50009FFB404BD3ED007A4FF4C8724FF0000338
:104A60000020B0EE671ADFED3C0AB1EE0C0A00F050
:104A70008FFB3B4BD3ED007A4FF4FA624FF000030B
:104A80000120B0EE671AF2EE040A9FED330A00F03F
:104A90007FFB304BD3ED007A4FF47A724FF0000376
:104AA0000120B0EE671AFBEE040A9FED2B0A00F01E
:104AB0006FFB284BD3ED007A4FF416724FF00003D2
:104AC0000120B0EE671ADFED240ABAEE040A00F006
:104AD0005FFB204BD3ED007A4FF496724FF000034A
:104AE0000120B0EE671AF9EE040A9FED1B0A00F0F0
:104AF0004FFB1C4BD3ED007A4FF496724FF000033E
:104B00000020B0EE671ADFED140AB9EE040A00F0D7
:104B10003FFB144BD3ED007A4FF0C8024FF0000377
:104B20000020B0EE671ADFED0C0AB9EE040A00F0BF
:104B30002FFB084BD3ED007A4FF4FA724FF00003CD
:104B40000020B0EE671ADFED040AB1EE0C0A00F0A7
:104B50001FFB09E0100000200000000000002042C0
:104B60000C00002014000020EE4BD3ED007A4FF42F
:104B7000FA624FF000030120B0EE671AF2EE040A69
:104B80009FEDEB0A00F004FBE74BD3ED007A4FF406
:104B90007A724FF000030120B0EE671AFBEE040AB0
:104BA0009FEDE30A00F0F4FADF4BD3ED007A4FF407
:104BB0002F724FF000030120B0EE671ADFEDDC0A20
:104BC000BAEE040A00F0E4FAD74BD3ED007A4FF4C2
:104BD00096724FF000030120B0EE671AF9EE040A56
:104BE0009FEDD30A00F0D4FAD04BD3ED007A4FF406
:104BF00096724FF000030020B0EE671ADFEDCC0A8A
:104C0000B9EE040A00F0C4FAC84BD3ED007A4FF0B5
:104C1000C8024FF000030020B0EE671ADFEDC40AAF
:104C2000B9EE040A00F0B4FABF4BD3ED007A4FF4AA
:104C300016724FF000030020B0EE671ADFEDBC0AD9
:104C4000B1EE0C0A00F0A4FAB64BD3ED007A4FF4A3
:104C5000FA624FF000030120B0EE671AF2EE040A88
:104C60009FEDB30A00F094FAAF4BD3ED007A4FF406
:104C70007A724FF000030120B0EE671AFBEE040ACF
:104C80009FEDAB0A00F084FAA74BD3ED007A4FF406
:104C900048724FF000030120B0EE671ADFEDA40A5E
:104CA000BAEE040A00F074FA9F4BD3ED007A4FF489
:104CB00096724FF000030120B0EE671AF9EE040A75
:104CC0009FED9B0A00F064FA984BD3ED007A4FF405
:104CD00096724FF000030020B0EE671ADFED940AE1
:104CE000B9EE040A00F054FA904BD3ED007A4FF07D
:104CF000C8024FF000030020B0EE671ADFED8C0A07
:104D0000B9EE040A00F044FA874BD3ED007A4FF471
:104D100048724FF000030020B0EE671ADFED840AFE
:104D2000B1EE0C0A00F034FA7E4BD3ED007A4FF46A
:104D3000FA624FF000030120B0EE671AF2EE040AA7
:104D40009FED7B0A00F024FA774BD3ED007A4FF405
:104D50007A724FF000030120B0EE671AFBEE040AEE
:104D60009FED730A00F014FA6F4BD3ED007A4FF405
:104D70007A724FF000030120B0EE671ADFED6C0A83
:104D8000BAEE040A00F004FA674BD3ED007A4FF450
:104D900096724FF000030120B0EE671AF9EE040A94
:104DA0009FED630A00F0F4F9604BD3ED007A4FF405
:104DB00096724FF000030020B0EE671ADFED5C0A38
:104DC000B9EE040A00F0E4F9584BD3ED007A4FF045
:104DD000C8024FF000030020B0EE671ADFED540A5E
:104DE000B9EE040A00F0D4F94F4BD3ED007A4FF43A
:104DF00061724FF000030020B0EE671ADFED4C0A3D
:104E0000B1EE0C0A00F0C4F9464BD3ED007A4FF432
:104E1000FA624FF000030120B0EE671AF2EE040AC6
:104E20009FED430A00F0B4F93F4BD3ED007A4FF405
:104E30007A724FF000030120B0EE671AFBEE040A0D
:104E40009FED3B0A00F0A4F9374BD3ED007A40F216
:104E50004C424FF000030120B0EE671ADFED340A38
:104E6000BAEE040A00F094F92F4BD3ED007A4FF418
:104E700096724FF000030120B0EE671AF9EE040AB3
:104E80009FED2B0A00F084F9284BD3ED007A4FF404
:104E900096724FF000030020B0EE671ADFED240A8F
:104EA000B9EE040A00F074F9204BD3ED007A4FF00C
:104EB000C8024FF000030020B0EE671ADFED1C0AB5
:104EC000B9EE040A00F064F9174BD3ED007A4FF401
:104ED0007A724FF000030020B0EE671ADFED140A7B
:104EE000B1EE0C0A00F054F90E4BD3ED007A4FF4FA
:104EF000FA624FF000030120B0EE671AF2EE040AE6
:104F00009FED0B0A00F044F9074BD3ED007A4FF404
:104F10007A724FF000030120B0EE671AFBEE040A2C
:104F200008E000BF0C00002010000020140000204A
:104F3000000000001FED020A00F02AF9904BD3EDAB
:104F4000007A4FF496624FF000030120B0EE671A2A
:104F5000DFED8C0ABAEE040A00F01AF9884BD3EDA3
:104F6000007A4FF496724FF000030120B0EE671AFA
:104F7000F9EE040A9FED830A00F00AF9824BD3EDA3
:104F8000007A4FF496724FF000030020B0EE671ADB
:104F9000DFED7C0AB9EE040A00F0FAF87A4BD3EDA3
:104FA000007A4FF0C8024FF000030020B0EE671AFD
:104FB000DFED740AB9EE040A00F0EAF8704BD3EDA5
:104FC000007A4FF496624FF000030020B0EE671AAB
:104FD000DFED6C0AB1EE0C0A00F0DAF86B4BD3EDA2
:104FE000007A4FF4FA624FF000030120B0EE671A26
:104FF000F2EE040A9FED630A00F0CAF8604BD3EDAD
:10500000007A4FF47A724FF000030120B0EE671A75
:10501000FBEE040A9FED5B0A00F0BAF8584BD3EDA3
:10502000007A4FF4AF624FF000030120B0EE671A30
:10503000DFED540ABAEE040A00F0AAF8504BD3EDA3
:10504000007A4FF496724FF000030120B0EE671A19
:10505000F9EE040A9FED4B0A00F09AF84A4BD3EDA3
:10506000007A4FF496724FF000030020B0EE671AFA
:10507000DFED440AB9EE040A00F08AF8424BD3EDA2
:10508000007A4FF0C8024FF000030020B0EE671A1C
:10509000DFED3C0AB9EE040A00F07AF8384BD3EDA4
:1050A000007A40F2DC524FF000030020B0EE671AA5
:1050B000DFED340AB1EE0C0A00F06AF8334BD3EDA1
:1050C000007A4FF4FA624FF000030120B0EE671A45
:1050D000F2EE040A9FED2B0A00F05AF8284BD3EDAC
:1050E000007A4FF47A724FF000030120B0EE671A95
:1050F000FBEE040A9FED230A00F04AF8204BD3EDA3
:10510000007A40F2A4624FF000030120B0EE671A6B
:10511000DFED1C0ABAEE040A00F03AF8184BD3EDA2
:10512000007A4FF496724FF000030120B0EE671A38
:10513000F9EE040A9FED130A00F02AF8124BD3EDA2
:10514000007A4FF496724FF000030020B0EE671A19
:10515000DFED0C0AB9EE040A00F01AF80A4BD3EDA1
:10516000007A4FF0C8024FF000030020B0EE671A3B
:10517000DFED040AB9EE040A00F00AF800BF80BDB2
:105180001000002000000000140000200C0000208F
:10519000B0B487B000AF87ED050AC7ED040A87ED0C
:1051A000031A0146C7E900230B46FB721F4B19681F
:1051B0001F4BD3E900231F48490101440831C1E9CD
:1051C00000231A4B1B681B4A5B01134410337A6996
:1051D0001A60164B1B68174A5B01134414333A6973
:1051E0001A60124B1B68134A5B0113441833FA68A8
:1051F0001A600E4B1B680F4A5B0113441C33FA7A8A
:105200001A700A4B1B680133084A1360084BD3E934
:105210000001D7E90023841841EB0305044BC3E9DF
:10522000004500BF1C37BD46B0BC70478813002046
:10523000901300200807002080B485B000AF78608C
:105240007B68FB607B6818461437BD465DF8047BBD
:10525000704780B582B000AF78607B68184600F078
:105260003CF80021786800F049F87B681846083758
:10527000BD4680BD80B582B000AF78607B681B689A
:10528000002B10D07B6859697B685B6A04331A462F
:10529000786800F099F87B6819687B685B681A4643
:1052A000786800F0ACF87B681846FFF7C5FF7B68AC
:1052B00018460837BD4680BD80B582B000AF786023
:1052C0003960386800F0C5F803461946786800F080
:1052D000CBF800BF0837BD4680BD80B584B000AFB5
:1052E00078607B68FB60FB68BB607B68184600F0F9
:1052F000F1F87B6818461037BD4680BD90B589B07F
:1053000000AF786039600C20FEF7D4F902463B68A4
:10531000B3FBF2F30133FB610823FB60FB6902334B
:105320003B6107F1100207F10C031146184600F02B
:10533000EAF803461A687B685A607B685B6819461E
:10534000786800F0F4F802467B681A607B681A6897
:105350007B685968FB69CB1A5B089B001344BB61EF
:10536000FB699B00BA6913447B617A69B969786803
:1053700000F019F97B680833B969184600F02EF976
:105380007B6803F118027B69043B1946104600F064
:1053900025F97B68DA687B689A607B68DC690C2099
:1053A000FEF788F902463B68B3FBF2F101FB02F21B
:1053B0009A1A13465B0013449B00E2187B689A61BB
:1053C00000BF2437BD4690BD80B586B000AFF86001
:1053D000B9607A60BB687B6108E07B691B6819462D
:1053E000F86800F017F97B6904337B617A697B68A0
:1053F0009A42F2D300BF00BF1837BD4680BD80B5CA
:105400008AB000AFF860B9607A6007F11003F968FC
:10541000184600F026F9BB687B627B683B6207F1A7
:105420001003FB617B6ABB613B6A7B61FEF726F977
:105430000346002B03D0B8690AF0E7F804E07A6964
:10544000B969F86900F0A7FA00BF00BF2837BD4668
:1054500080BD80B483B000AF78607B6818460C379D
:10546000BD465DF8047B7047B0B586B000AF78608C
:1054700039607B689A697B681B6A0C3B9A4219D039
:105480007D687B689C69386800F00AF903467D6195
:105490003C61FB60F86800F003F90346194638697F
:1054A00000F0F4F900BF7B689B6903F10C027B6894
:1054B0009A6107E0386800F0F3F803461946786807
:1054C00000F0FAF8786800F043F9034618461837F8
:1054D000BD46B0BD80B582B000AF78607B68002269
:1054E0001A607B6800225A607B680833184600F017
:1054F00048F97B681833184600F043F97B68184672
:105500000837BD4680BD80B483B000AF7860396095
:105510007B681A683B681B689A4201D23B6800E0CE
:105520007B6818460C37BD465DF8047B704780B534
:1055300086B000AF7860396007F10C0379681846CF
:1055400000F08FF83B687B6107F10C033B617B69DE
:10555000BB60FEF793F80346002B16D0BB68002211
:1055600099009B0F002B00D001220B46BB60134615
:1055700003F00103DBB2002B01D00AF060F8BB6836
:1055800018460AF046F8034607E0BB6800221946B1
:10559000386900F0F9FA034600BF00BF00BF1846A3
:1055A0001837BD4680BD80B586B000AFF860B960E1
:1055B0007A60BB687B6108E0F86800F0F9F80246A1
:1055C0007B691A607B6904337B617A697B689A42E4
:1055D000F2D300BF00BF1837BD4680BD90B583B081
:1055E00000AF786039607B683A68DA603B681A68B7
:1055F0007B685A607B685C6800F019F902461346C4
:105600005B0013449B00E2187B689A6000BF0C3774
:10561000BD4690BD90B589B000AF786039607C68B8
:105620000C20FEF747F80246FC613B68BB617A61DB
:10563000FB693B61BB69FB607B69BB60FEF71EF8E1
:105640000346002B03D0F86809F0DFFF04E0BA68D6
:10565000F968386900F0C2FA00BF00BF2437BD46C0
:1056600090BD80B586B000AF78603960386800F0D2
:10567000E6F802467B687B613A617B69FB6000BFAC
:1056800078681837BD4680BD80B483B000AF7860BD
:105690007B681B6818460C37BD465DF8047B704775
:1056A00080B483B000AF78607B6818460C37BD4685
:1056B0005DF8047B70470000B0B586B000AF78603D
:1056C0003960786800F0FAF80446786800F008F964
:1056D00003469C420CBF01230023DBB2002B02D007
:1056E0001A4809F0AFFF0121786800F00AF97A68DA
:1056F0007B685B6A1C1D104600F05AF80346236065
:105700007D687B689C693868FFF7CAFF03467D6146
:105710003C61FB60F868FFF7C3FF03461946386930
:1057200000F0B4F800BF7B6803F118027B685B6A85
:10573000043319461046FFF751FF7B68DA697B682E
:105740009A6100BF1837BD46B0BD00BF48010108CF
:1057500080B586B000AF786007F108037968184615
:1057600000F0EAF807F10803184600F0F4F807F132
:1057700008031846FFF788FF034618461837BD464A
:1057800080BD80B483B000AF78607B6800221A606F
:105790007B6800225A607B6800229A607B68002246
:1057A000DA607B6818460C37BD465DF8047B7047AD
:1057B000F0B587B000AF78607E680C20FDF77AFF07
:1057C00003467E613B617B69FB603B69BB60FDF723
:1057D00055FF0346002B1DD0BB6800210C22A3FB04
:1057E00002454FF000024FF000032A000023002A78
:1057F00000D001212346BB600B4603F00103DBB25E
:10580000002B01D009F01BFFBB68184609F001FF0F
:10581000034607E0BB6800221946F86800F034FA36
:10582000034600BF00BF18461C37BD46F0BD80B51B
:1058300000AF0C20FDF73EFF0346184680BD80B444
:1058400083B000AF78607B6818460C37BD465DF8C2
:10585000047B704780B483B000AF786039603B68E8
:105860001A687B681A603B685A687B685A603B68B4
:105870009A687B689A603B68DA687B68DA607B6864
:1058800018460C37BD465DF8047B704790B583B071
:1058900000AF786039607B6819460C20FDF7FEFE8A
:1058A00004463868FFF7FCFE0246234607CA83E831
:1058B0000700234618460C37BD4690BD80B582B020
:1058C00000AF78607B6803F118027B6808331946E3
:1058D000104600F06FF8034618460837BD4680BDF5
:1058E00080B582B000AF78607B681846FFF7A7FFED
:1058F0000346184600F092F8034618460837BD469E
:1059000080BD80B582B000AF786039603B685A1CBA
:105910007B685B687968486A79680968411A891008
:105920005B1A9A4204D900223968786800F092F82C
:1059300000BF0837BD4680BD80B582B000AF78603B
:1059400039603B68183319467868FFF783FF786839
:105950000837BD4680BD80B582B000AF78607B68F7
:105960001A687B685B689A420AD17B68DB68043BF3
:1059700019467868FFF732FE7B689A687B681A6080
:105980007B681B68A3F10C027B681A607B68184671
:105990000837BD4680BD80B584B000AFF860B960FF
:1059A0007A607B689B001946B86809F030FE1037B2
:1059B000BD4680BD80B582B000AF78603960FFF72A
:1059C00036FF034619467B68DA683B68DB68D31A02
:1059D0009B101A467B68DB68002B14BF0123002351
:1059E000DBB2D31A01FB03F37A6811687A68526854
:1059F0008A1A9210084901FB02F213443A6891682E
:105A00003A6812688A1A9210034901FB02F21344A1
:105A100018460837BD4680BDABAAAAAA80B586B095
:105A200000AF78606FF000433B617B687B61084B9F
:105A3000FB6007F10C0207F110031146184600F055
:105A4000DFF803461B6818461837BD4680BD00BF07
:105A50005555551590B58BB000AFF860B960134639
:105A6000FB71FB685A6AFB685B69D31A9B100133B0
:105A70003B62BB683A6A1344FB61FB685A68FB6986
:105A80005B009A422DD9FB681A68FB685968FB696C
:105A9000CB1A5B089900FB79002B02D0BB689B00F6
:105AA00000E000230B4413447B62FB685B697A6A65
:105AB0009A4209D2FB685869FB685B6A04337A6AC8
:105AC000194600F0B1F848E0FB685869FB685B6A6A
:105AD000191D3B6A9B007A6A13441A4600F0BCF811
