:020000040800F2
:10000000000002200D5B0008110900081909000812
:100010002109000829090008310900080000000032
:100020000000000000000000000000003909000886
:10003000470900080000000055090008630900088E
:10004000615B0008615B0008615B0008615B0008A0
:10005000615B0008615B0008615B0008615B000890
:10006000615B0008615B0008615B0008615B000880
:10007000615B0008615B0008615B0008615B000870
:10008000615B0008615B0008615B0008615B000860
:10009000615B0008615B0008615B0008615B000850
:1000A000615B0008615B0008615B0008615B000840
:1000B000615B0008615B0008615B0008615B000830
:1000C000615B0008615B0008615B0008615B000820
:1000D000615B00087109000885090008615B000880
:1000E000615B0008615B000800000000615B0008C4
:1000F000615B0008615B0008615B0008615B0008F0
:10010000615B0008615B0008615B0008615B0008DF
:1001100099090008AD090008C1090008615B0008E1
:10012000615B0008615B0008615B0008615B0008BF
:10013000615B0008615B0008615B0008615B0008AF
:1001400000000000000000000000000000000000AF
:10015000615B0008615B0008615B0008D50900086D
:10016000615B0008615B0008615B0008615B00087F
:10017000615B0008615B0008615B00080000000033
:10018000615B0008615B0008615B0008615B00085F
:10019000615B0008615B0008615B0008615B00084F
:1001A000615B0008615B0008615B00080000000003
:1001B000615B0008615B0008615B0008615B00082F
:1001C000615B0008615B00080000000000000000A7
:1001D0000000000000000000615B0008000000005B
:1001E000000000000000000000000000000000000F
:1001F0000000000000000000615B0008615B000877
:10020000615B0008615B000800000000615B0008A2
:10021000615B0008615B0008615B0008615B0008CE
:10022000615B000800000000615B00080000000046
:10023000615B0008615B000800000000615B000872
:10024000615B0008615B0008615B0008615B00089E
:10025000615B0008615B0008615B0008615B00088E
:10026000615B0008615B0008615B0008615B00087E
:10027000615B0008615B0008615B00080000000032
:10028000615B0008615B0008615B0008615B00085E
:1002900000000000615B0008615B000800000000D6
:1002A00000000000615B0008615B0008615B000802
:1002B000615B0008615B0008615B0008615B00082E
:0C02C000615B0008615B0008615B0008E6
:1002CC007BB972B90029BEBF00204FF0004106E097
:1002DC0008BF00281CBF6FF000414FF0FF3000F04A
:1002EC0057B8ADF1080C6DE904CE002909DB002BE1
:1002FC001ADB0EF00BFCDDF804E0DDE9022304B0A0
:10030C007047404261EB4101002B1BDB0EF0FEFB02
:10031C00DDF804E0DDE9022304B0404261EB410169
:10032C00524263EB43037047524263EB43030EF0BC
:10033C00EDFBDDF804E0DDE9022304B0404261EBA3
:10034C0041017047524263EB43030EF0DFFBDDF8D3
:10035C0004E0DDE9022304B0524263EB430370472F
:10036C0053B94AB9002908BF00281CBF4FF0FF3110
:10037C004FF0FF3000F00CB8ADF1080C6DE904CE75
:10038C000EF0C4FBDDF804E0DDE9022304B0704795
:10039C00704700BF0348044B834202D0034B03B1A8
:1003AC00184770476800002068000020000000001B
:1003BC000548064B1B1AD90F01EBA301491002D0BB
:1003CC00034B03B1184770476800002068000020F9
:1003DC000000000010B5064C237843B9FFF7DAFF94
:1003EC00044B13B10448AFF300800123237010BDFC
:1003FC006800002000000000D4ED000808B5054B93
:10040C001BB105490548AFF30080BDE80840FFF774
:10041C00CFBF00BF000000006C000020D4ED00082E
:10042C0080B58EB000AF07F1240300221A605A6029
:10043C009A60DA601A61664BD3F8E030644A43F094
:10044C000403C2F8E030624BD3F8E03003F004034D
:10045C003B623B6A5E4BD3F8E0305D4A43F080036D
:10046C00C2F8E0305A4BD3F8E03003F08003FB6164
:10047C00FB69574BD3F8E030554A43F00103C2F8FF
:10048C00E030534BD3F8E03003F00103BB61BB69A0
:10049C004F4BD3F8E0304E4A43F00203C2F8E03041
:1004AC004B4BD3F8E03003F002037B617B69484B84
:1004BC00D3F8E030464A43F02003C2F8E030444B16
:1004CC00D3F8E03003F020033B613B69404BD3F899
:1004DC00E0303F4A43F01003C2F8E0303C4BD3F815
:1004EC00E03003F01003FB60FB68394BD3F8E030CD
:1004FC00374A43F00803C2F8E030354BD3F8E0300C
:10050C0003F00803BB60BB68314BD3F8E030304AD2
:10051C0043F04003C2F8E0302D4BD3F8E03003F049
:10052C0040037B607B6800224FF40C51294805F096
:10053C00F9FE00220321284805F0F4FE00224FF4B6
:10054C000041264805F0EEFE00221821244805F053
:10055C00E9FE4FF40C537B620123BB620223FB6266
:10056C0000233B6307F1240319461A4805F032FDBA
:10057C0003237B620123BB620223FB6200233B63E8
:10058C0007F124031946144805F024FD4FF40043E9
:10059C007B620123BB620223FB6200233B6307F1F6
:1005AC00240319460D4805F015FD18237B62012321
:1005BC00BB620223FB6200233B6307F12403194651
:1005CC00074805F007FD00BF3837BD4680BD00BFAA
:1005DC000044025800080258000402580010025847
:1005EC00000C025880B500AF1B4B1C4A1A601A4B0A
:1005FC001B4A5A60184B00229A60174B0122DA6092
:10060C00154B00221A61144B00225A61124B002226
:10061C009A61114B0022DA610F4B00221A620E48CC
:10062C0005F09AFE0346002B01D000F04BF9002197
:10063C00094806F0E1FB0346002B01D000F042F91B
:10064C000021054806F023FC0346002B01D000F0E6
:10065C0039F900BF80BD00BF840000200054004069
:10066C00724E406080B5B8B000AF786007F1CC0333
:10067C0000221A605A609A60DA601A6107F110035E
:10068C00B822002118460EF06FF97B681B68264AC9
:10069C00934245D14FF008024FF00003C7E9042301
:1006AC000023C7F8903007F11003184607F0DCFB65
:1006BC000346002B01D000F005F91C4BD3F8E030B9
:1006CC001A4A43F00203C2F8E030184BD3F8E0307A
:1006DC0003F00203FB60FB68C023C7F8CC30122385
:1006EC00C7F8D0300023C7F8D4300023C7F8D8306F
:1006FC000423C7F8DC3007F1CC0319460C4805F08D
:10070C0069FC0A4BD3F8E830084A43F40013C2F8EA
:10071C00E830064BD3F8E83003F40013BB60BB6839
:10072C0000BFE037BD4680BD005400400044025875
:10073C000004025880B500AF00F098F805F00CFAF0
:10074C0000F026F8FFF76CFEFFF74CFF00F048FFB7
:10075C0000F01CFD00F0DCFF00F07EFB01F024F843
:10076C0000F08AFF01F06CF800F03AFA00F0ECFBB4
:10077C0000F0D4FC00F0EEFA00F080FC02F096FDE4
:10078C00024809F031FA00BFFDE700BF5802002013
:10079C0080B59CB000AF07F124034C220021184611
:1007AC000EF0E2F83B1D2022002118460EF0DCF87A
:1007BC00022006F0B9FB00233B602B4B9B692A4AB5
:1007CC0023F440439361284B9B6903F440433B6003
:1007DC003B6800BF244B9B6903F40053B3F5005FE7
:1007EC00F8D101237B624FF48033BB620223BB64DC
:1007FC000223FB6402233B652C237B650123BB6531
:10080C000223FB6502233B660C237B660023BB663D
:10081C000023FB6607F12403184606F0BFFB0346D2
:10082C00002B01D000F04EF83F237B600323BB600C
:10083C000023FB6008233B6140237B614023BB61A9
:10084C004FF48063FB6140233B623B1D0321184640
:10085C0006F07EFF0346002B01D000F033F800BFFA
:10086C007037BD4680BD00BF0048025880B584B0CB
:10087C0000AF3B4600221A605A609A60DA6005F0BD
:10088C0031FB01233B7000237B7000237B601F2313
:10089C003B7287237B720023BB720023FB72012304
:1008AC003B7301237B730023BB730023FB733B4619
:1008BC00184605F04FFB042005F02CFB00BF103749
:1008CC00BD4680BD80B400AF72B600BF00BFFDE76F
:1008DC0080B483B000AF0A4BD3F8F430084A43F02D
:1008EC000203C2F8F430064BD3F8F43003F00203E1
:1008FC007B607B6800BF0C37BD465DF8047B70479E
:10090C000044025880B400AF00BFFDE780B400AFD4
:10091C0000BFFDE780B400AF00BFFDE780B400AFBF
:10092C0000BFFDE780B400AF00BFFDE780B400AFAF
:10093C0000BFBD465DF8047B704780B400AF00BFBC
:10094C00BD465DF8047B704780B400AF00BFBD4668
:10095C005DF8047B704780B500AF05F06FF900BF00
:10096C0080BD000080B500AF02480AF033FD00BF27
:10097C0080BD00BF1804002080B500AF02480AF00B
:10098C0029FD00BF80BD00BFAC04002080B500AFC6
:10099C0002480AF01FFD00BF80BD00BFF00200201E
:1009AC0080B500AF02480AF015FD00BF80BD00BF46
:1009BC008403002080B500AF024809F019FB00BF8A
:1009CC0080BD00BF5802002080B500AF02480AF07D
:1009DC0001FD00BF80BD00BF4005002080B400AF0A
:1009EC0001231846BD465DF8047B704780B582B084
:1009FC0000AF786039600EF013F8034616221A60C7
:100A0C004FF0FF3318460837BD4680BD80B582B025
:100A1C0000AF78604FF0FF317868FFF7E7FF00BF59
:100A2C00FDE7000080B586B000AF7860144A154B26
:100A3C00D31A7B617B693B61134B1B68002B02D182
:100A4C00114B124A1A60104B1A687B6813443A69AE
:100A5C009A4207D20DF0E4FF03460C221A604FF0C5
:100A6C00FF3309E0084B1B68FB60074B1A687B6877
:100A7C001344054A1360FB6818461837BD4680BD01
:100A8C000000022000040000D80000201008002004
:100A9C0080B400AF3E4BD3F888303D4A43F470032A
:100AAC00C2F888303B4B1B6803F00F03062B07D8AA
:100ABC00384B1B6823F00F03364A43F007031360CF
:100ACC00354B1B68344A43F001031360324B002250
:100ADC001A61314B1A683049304B13400B602D4B67
:100AEC001B6803F00803002B07D02A4B1B6823F06C
:100AFC000F03284A43F007031360274B00229A6127
:100B0C00254B0022DA61244B00221A62224B244A24
:100B1C009A62214B234ADA621F4B234A1A631E4BFB
:100B2C0000225A631C4B204A9A631B4B0022DA6347
:100B3C00194B1D4A1A64184B00225A64164B1B6839
:100B4C00154A23F480231360134B00221A66124BB0
:100B5C00D3F8D43003F48053002B13D10E4BD3F8BD
:100B6C00D4300D4A43F48053C2F8D4300F4B43F2C7
:100B7C00D2021A60084BD3F8D430074A23F48053BE
:100B8C00C2F8D43000BFBD465DF8047B704700BF8F
:100B9C0000ED00E000200052004402587FEDF6EA20
:100BAC00000202020000FF0180020101004000521D
:100BBC0080B400AF094BDB68084A43F00203D360F2
:100BCC0000BF064B5B6803F40053002BF9D000BF49
:100BDC0000BFBD465DF8047B704700BF004802585B
:100BEC0080B59CB000AF07F1600300221A605A6018
:100BFC009A60DA6007F1540300221A605A609A6016
:100C0C0007F1380300221A605A609A60DA601A61A0
:100C1C005A619A613B1D3422002118460DF0A4FE46
:100C2C004A4B4B4A1A60494B4FF489725A60474BF6
:100C3C0000229A60454B44F61F62DA60434B002257
:100C4C001A61424B00225A61404B00229A613F4884
:100C5C0008F0CCFE0346002B01D0FFF733FE4FF417
:100C6C0080533B6607F160031946384809F0DCFBFA
:100C7C000346002B01D0FFF725FE344809F03AF863
:100C8C000346002B01D0FFF71DFE00237B650023DC
:100C9C00BB650023FB6507F1540319462B480AF08A
:100CAC0029F90346002B01D0FFF70CFE6023BB6330
:100CBC000023FB6300233B6400237B640023BB64A1
:100CCC000023FB6400233B6507F138030822194617
:100CDC001E4809F095FA0346002B01D0FFF7F2FDF0
:100CEC0007F138030C221946184809F089FA034613
:100CFC00002B01D0FFF7E6FD00237B600023BB60D7
:100D0C000023FB6000233B6100237B614FF4005305
:100D1C00BB610023FB6100237B624FF00073BB625D
:100D2C000023FB6200237B633B1D194607480AF036
:100D3C007DF90346002B01D0FFF7C4FD034800F0FA
:100D4C006FFB00BF7037BD4680BD00BFDC000020CC
:100D5C000000014080B58EB000AF07F128030022DF
:100D6C001A605A609A60DA6007F11C0300221A605C
:100D7C005A609A603B4600221A605A609A60DA60A8
:100D8C001A615A619A61334B4FF080421A60314BB1
:100D9C004FF489725A602F4B00229A602D4B6322BC
:100DAC00DA602C4B00221A612A4B00229A612948E6
:100DBC0008F01CFE0346002B01D0FFF783FD4FF417
:100DCC008053BB6207F128031946224809F02CFB1B
:100DDC000346002B01D0FFF775FD1E4808F08AFF73
:100DEC000346002B01D0FFF76DFD0023FB610023B0
:100DFC007B6207F11C03194616480AF07BF8034680
:100E0C00002B01D0FFF75EFD60233B6000237B606D
:100E1C000023BB6000233B613B46042219460D486E
:100E2C0009F0EEF90346002B01D0FFF74BFD3B46D2
:100E3C0008221946074809F0E3F90346002B01D0B4
:100E4C00FFF740FD034800F0EBFA00BF3837BD4612
:100E5C0080BD00BF2801002080B58EB000AF07F127
:100E6C00280300221A605A609A60DA6007F11C03AA
:100E7C0000221A605A609A603B4600221A605A603F
:100E8C009A60DA601A615A619A612D4B2D4A1A6088
:100E9C002B4B4FF489725A60294B00229A60284BD5
:100EAC004FF6FF72DA60264B00221A61244B0022A7
:100EBC009A61234808F09AFD0346002B01D0FFF7F6
:100ECC0001FD4FF48053BB6207F1280319461C48FF
:100EDC0009F0AAFA0346002B01D0FFF7F3FC1848DF
:100EEC0008F008FF0346002B01D0FFF7EBFC0023B2
:100EFC00FB6100237B6207F11C031946104809F0C3
:100F0C00F9FF0346002B01D0FFF7DCFC60233B60AC
:100F1C0000237B600023BB6000233B613B46002227
:100F2C001946074809F06CF90346002B01D0FFF76E
:100F3C00C9FC034800F074FA00BF3837BD4680BDC9
:100F4C00740100200004004080B58EB000AF07F1A2
:100F5C00280300221A605A609A60DA6007F11C03B9
:100F6C0000221A605A609A603B4600221A605A604E
:100F7C009A60DA601A615A619A613E4B3E4A1A6075
:100F8C003C4B4FF489725A603A4B00229A60394BB1
:100F9C0044F61F62DA60374B00221A61354B00228F
:100FAC009A61344808F022FD0346002B01D0FFF76C
:100FBC0089FC4FF48053BB6207F1280319462D4876
:100FCC0009F032FA0346002B01D0FFF77BFC2948CD
:100FDC0008F090FE0346002B01D0FFF773FC0023B2
:100FEC00FB6100237B6207F11C031946214809F0C1
:100FFC0081FF0346002B01D0FFF764FC60233B60AC
:10100C0000237B600023BB6000233B613B46002236
:10101C001946184809F0F4F80346002B01D0FFF7E5
:10102C0051FC3B4604221946124809F0E9F80346E4
:10103C00002B01D0FFF746FC3B46082219460D4811
:10104C0009F0DEF80346002B01D0FFF73BFC3B46D2
:10105C000C221946074809F0D3F80346002B01D09F
:10106C00FFF730FC034800F0DBF900BF3837BD4612
:10107C0080BD00BFC00100200008004080B588B0D2
:10108C0000AF07F1100300221A605A609A60DA6010
:10109C003B1D00221A605A609A601E4B1E4A1A6051
:1010AC001C4B4FF489725A601A4B00229A60194BF0
:1010BC004FF0FF32DA60174B00221A61154B0022F9
:1010CC009A61144808F092FC0346002B01D0FFF7FC
:1010DC00F9FB4FF480533B6107F1100319460D489F
:1010EC0009F0A2F90346002B01D0FFF7EBFB00231C
:1010FC007B600023FB603B1D1946064809F0FAFE95
:10110C000346002B01D0FFF7DDFB00BF2037BD46A7
:10111C0080BD00BF0C020020000C004080B584B0E4
:10112C0000AF3B1D00221A605A609A60154B164A9C
:10113C001A60144B4FF489725A60124B00229A6059
:10114C00104B42F20F72DA600E4B00229A610D487E
:10115C0008F04CFC0346002B01D0FFF7B3FB002337
:10116C007B600023FB603B1D1946064809F0C2FE5C
:10117C000346002B01D0FFF7A5FB00BF1037BD467F
:10118C0080BD00BF580200200010004080B58EB01A
:10119C0000AF07F1280300221A605A609A60DA60E7
:1011AC0007F11C0300221A605A609A603B46002229
:1011BC001A605A609A60DA601A615A619A613E4B01
:1011CC003E4A1A603C4B4FF489725A603A4B0022EB
:1011DC009A60394B44F61F62DA60374B00221A6171
:1011EC00354B00229A61344808F000FC0346002B72
:1011FC0001D0FFF767FB4FF48053BB6207F1280364
:10120C0019462D4809F010F90346002B01D0FFF7C1
:10121C0059FB294808F06EFD0346002B01D0FFF75F
:10122C0051FB0023FB6100237B6207F11C03194671
:10123C00214809F05FFE0346002B01D0FFF742FB6B
:10124C0060233B6000237B600023BB6000233B6179
:10125C003B4600221946184808F0D2FF0346002BE3
:10126C0001D0FFF72FFB3B4604221946124808F029
:10127C00C7FF0346002B01D0FFF724FB3B46082297
:10128C0019460D4808F0BCFF0346002B01D0FFF7B0
:10129C0019FB3B460C221946074808F0B1FF0346E0
:1012AC00002B01D0FFF70EFB034800F0B9F800BF8C
:1012BC003837BD4680BD00BFA402002000E40040CA
:1012CC0080B58AB000AF78607B681B684D4A93424A
:1012DC000FD14D4BD3F8F0304B4A43F00103C2F819
:1012EC00F030494BD3F8F03003F001037B627B6A9A
:1012FC0084E07B681B68B3F1804F0FD1424BD3F86D
:10130C00E830414A43F00103C2F8E8303E4BD3F8D1
:10131C00E83003F001033B623B6A6FE07B681B68BB
:10132C003A4A93420FD1384BD3F8E830364A43F05F
:10133C000203C2F8E830344BD3F8E83003F0020370
:10134C00FB61FB695AE07B681B68314A93420FD101
:10135C002D4BD3F8E8302C4A43F00403C2F8E830A4
:10136C00294BD3F8E83003F00403BB61BB6945E0BB
:10137C007B681B68274A93420FD1234BD3F8E83084
:10138C00214A43F00803C2F8E8301F4BD3F8E83089
:10139C0003F008037B617B6930E07B681B681E4AA5
:1013AC00934217D1184BD3F8E830174A43F0100387
:1013BC00C2F8E830144BD3F8E83003F010033B616B
:1013CC003B6900220F21362004F057FD362004F033
:1013DC006EFD13E07B681B68104A93420ED10A4BDA
:1013EC00D3F8EC30084A43F00073C2F8EC30064BEB
:1013FC00D3F8EC3003F00073FB60FB6800BF2837B8
:10140C00BD4680BD0000014000440258000400406D
:10141C0000080040000C00400010004000E40040B8
:10142C0080B58CB000AF786007F11C0300221A6005
:10143C005A609A60DA601A617B681B685E4A934254
:10144C0020D15E4BD3F8E0305C4A43F01003C2F875
:10145C00E0305A4BD3F8E03003F01003BB61BB69AA
:10146C004FF4C043FB6102233B6200237B620023E9
:10147C00BB620123FB6207F11C031946504804F0C0
:10148C00A9FD94E07B681B68B3F1804F1FD14B4BD7
:10149C00D3F8E030494A43F00103C2F8E030474B3F
:1014AC00D3F8E03003F001037B617B690623FB6119
:1014BC0002233B6200237B620023BB620123FB629D
:1014CC0007F11C0319463F4804F084FD6FE07B686C
:1014DC001B683D4A93421FD1384BD3F8E030374A52
:1014EC0043F00403C2F8E030344BD3F8E03003F09F
:1014FC0004033B613B694023FB6102233B620023F5
:10150C007B620023BB620223FB6207F11C031946BA
:10151C002E4804F05FFD4AE07B681B682C4A93421E
:10152C0020D1264BD3F8E030244A43F00803C2F80C
:10153C00E030224BD3F8E03003F00803FB60FB688B
:10154C004FF47043FB6102233B6200237B62002358
:10155C00BB620223FB6207F11C0319461D4804F011
:10156C0039FD24E07B681B681B4A93421FD1134B47
:10157C00D3F8E030114A43F02003C2F8E0300F4BAF
:10158C00D3F8E03003F02003BB60BB684FF4F043AA
:10159C00FB6102233B6200237B620023BB620E23B0
:1015AC00FB6207F11C0319460C4804F013FD00BF45
:1015BC003037BD4680BD00BF0000014000440258DA
:1015CC0000100258000002580004004000080258A5
:1015DC0000080040000C025800E4004000140258BF
:1015EC0080B500AF224B234A1A60214B4FF4E132F5
:1015FC005A601F4B00229A601D4B0022DA601C4B74
:10160C0000221A611A4B0C225A61194B00229A6162
:10161C00174B0022DA61164B00221A62144B00227F
:10162C005A62134B00229A62114809F0A9FD034635
:10163C00002B01D0FFF746F900210D480CF023FADE
:10164C000346002B01D0FFF73DF9002108480CF0B0
:10165C0058FA0346002B01D0FFF734F904480CF07C
:10166C00D9F90346002B01D0FFF72CF900BF80BD40
:10167C00F0020020004C004080B500AF224B234A02
:10168C001A60214B4FF4E1325A601F4B00229A60D2
:10169C001D4B0022DA601C4B00221A611A4B0C22E3
:1016AC005A61194B00229A61174B0022DA61164BD2
:1016BC0000221A62144B00225A62134B00229A62C7
:1016CC00114809F05DFD0346002B01D0FFF7FAF835
:1016DC0000210D480CF0D7F90346002B01D0FFF781
:1016EC00F1F8002108480CF00CFA0346002B01D04D
:1016FC00FFF7E8F804480CF08DF90346002B01D0F5
:10170C00FFF7E0F800BF80BD8403002000500040CC
:10171C0080B500AF224B234A1A60214B4FF416526E
:10172C005A601F4B00229A601D4B0022DA601C4B42
:10173C0000221A611A4B0C225A61194B00229A6131
:10174C00174B0022DA61164B00221A62144B00224E
:10175C005A62134B00229A62114809F011FD03469C
:10176C00002B01D0FFF7AEF800210D480CF08BF9DF
:10177C000346002B01D0FFF7A5F8002108480CF018
:10178C00C0F90346002B01D0FFF79CF804480CF07D
:10179C0041F90346002B01D0FFF794F800BF80BD40
:1017AC00180400200010014080B500AF224B234AE2
:1017BC001A60214B4FF4E1325A601F4B00229A60A1
:1017CC001D4B0022DA601C4B00221A611A4B0C22B2
:1017DC005A61194B00229A61174B0022DA61164BA1
:1017EC0000221A62144B00225A62134B00229A6296
:1017FC00114809F0C5FC0346002B01D0FFF762F835
:10180C0000210D480CF03FF90346002B01D0FFF7E7
:10181C0059F8002108480CF074F90346002B01D04C
:10182C00FFF750F804480CF0F5F80346002B01D0F4
:10183C00FFF748F800BF80BDAC0400200044004016
:10184C0080B500AF224B234A1A60214B4FF4E13292
:10185C005A601F4B00229A601D4B0022DA601C4B11
:10186C0000221A611A4B0C225A61194B00229A6100
:10187C00174B0022DA61164B00221A62144B00221D
:10188C005A62134B00229A62114809F079FC034604
:10189C00002B01D0FFF716F800210D480CF0F3F8DF
:1018AC000346002B01D0FFF70DF8002108480CF07F
:1018BC0028F90346002B01D0FFF704F804480CF07C
:1018CC00A9F80346002B01D0FEF7FCFF00BF80BD3A
:1018DC00400500200014014080B5C4B000AF07F5EE
:1018EC008873A3F58673186007F1FC0300221A6055
:1018FC005A609A60DA601A6107F14003B82200213D
:10190C0018460DF031F807F58873A3F586731B683C
:10191C001B68A64A934273D14FF002024FF00003AA
:10192C00C7E910230023C7F8B43007F14003184669
:10193C0006F09AFA0346002B01D0FEF7C3FF9C4B2E
:10194C00D3F8E8309A4A43F40023C2F8E830984BB5
:10195C00D3F8E83003F40023FB63FB6B944BD3F810
:10196C00E030934A43F00103C2F8E030904BD3F8D7
:10197C00E03003F00103BB63BB6B8D4BD3F8E0305D
:10198C008B4A43F00403C2F8E030894BD3F8E030C3
:10199C0003F004037B637B6B0123C7F8FC30022349
:1019AC00C7F800310023C7F804310023C7F8083109
:1019BC000823C7F80C3107F1FC0319467D4804F0E5
:1019CC0009FB4FF40063C7F8FC300223C7F8003161
:1019DC000023C7F804310023C7F808310823C7F8DF
:1019EC000C3107F1FC031946734804F0F3FA00229A
:1019FC000121342004F041FA342004F058FAF6E1C5
:101A0C0007F58873A3F586731B681B686B4A9342B2
:101A1C0073D14FF002024FF00003C7E910230023EB
:101A2C00C7F8B43007F14003184606F01DFA034618
:101A3C00002B01D0FEF746FF5D4BD3F8E8305C4A33
:101A4C0043F48013C2F8E830594BD3F8E83003F470
:101A5C0080133B633B6B564BD3F8E030544A43F056
:101A6C000403C2F8E030524BD3F8E03003F0040327
:101A7C00FB62FB6A4E4BD3F8E0304D4A43F008034F
:101A8C00C2F8E0304A4BD3F8E03003F00803BB62F5
:101A9C00BB6A4FF48053C7F8FC300223C7F80031FF
:101AAC000023C7F804310023C7F808310823C7F80E
:101ABC000C3107F1FC0319463F4804F08BFA042360
:101ACC00C7F8FC300223C7F800310023C7F80431F3
:101ADC000023C7F808310823C7F80C3107F1FC03C1
:101AEC001946374804F076FA00220021352004F01C
:101AFC00C4F9352004F0DBF979E107F58873A3F517
:101B0C0086731B681B682F4A93425FD14FF001020A
:101B1C004FF00003C7E910230023C7F8B83007F1D2
:101B2C004003184606F0A0F90346002B01D0FEF73F
:101B3C00C9FE1F4BD3F8F0301D4A43F01003C2F816
:101B4C00F0301B4BD3F8F03003F010037B627B6A50
:101B5C00174BD3F8E030164A43F00203C2F8E030DA
:101B6C00134BD3F8E03003F002033B623B6A4FF4B3
:101B7C004043C7F8FC300223C7F800310023C7F8F4
:101B8C0004310023C7F808310423C7F80C3107F1DE
:101B9C00FC0319460C4804F01DFA002200212520F4
:101BAC0004F06BF9252004F082F920E1004C004090
:101BBC00004402580000025800080258005000402F
:101BCC00000C0258001001400004025807F58873FD
:101BDC00A3F586731B681B68874A934272D14FF03A
:101BEC0002024FF00003C7E910230023C7F8B430FA
:101BFC0007F14003184606F037F90346002B01D0D5
:101C0C00FEF760FE7D4BD3F8E8307C4A43F400339A
:101C1C00C2F8E830794BD3F8E83003F40033FB61B9
:101C2C00FB69764BD3F8E030744A43F00103C2F8F9
:101C3C00E030724BD3F8E03003F00103BB61BB69B9
:101C4C006E4BD3F8E0306D4A43F00803C2F8E03035
:101C5C006A4BD3F8E03003F008037B617B690823FF
:101C6C00C7F8FC300223C7F800310023C7F8043151
:101C7C000023C7F808310723C7F80C3107F1FC0320
:101C8C0019465F4804F0A6F92023C7F8FC3002235C
:101C9C00C7F800310023C7F804310023C7F8083116
:101CAC000723C7F80C3107F1FC031946554804F01B
:101CBC0091F900220221262004F0DFF8262004F0FE
:101CCC00F6F894E007F58873A3F586731B681B6818
:101CDC004D4A934240F08B804FF001024FF00003CD
:101CEC00C7E910230023C7F8B83007F140031846A2
:101CFC0006F0BAF80346002B01D0FEF7E3FD3F4B8C
:101D0C00D3F8F0303D4A43F02003C2F8F0303B4B9F
:101D1C00D3F8F03003F0200207F58873A3F5807335
:101D2C001A6007F58873A3F580731B68334BD3F8DF
:101D3C00E030324A43F00403C2F8E0302F4BD3F8C2
:101D4C00E03003F0040207F58873A3F582731A6080
:101D5C0007F58873A3F582731B68284BD3F8E03022
:101D6C00264A43F04003C2F8E030244BD3F8E0306D
:101D7C0003F0400207F58873A3F584731A6007F526
:101D8C008873A3F584731B688023C7F8FC30022387
:101D9C00C7F800310023C7F804310023C7F8083115
:101DAC000723C7F80C3107F1FC031946174804F058
:101DBC0011F94FF48043C7F8FC300223C7F8003107
:101DCC000023C7F804310023C7F808310723C7F8EC
:101DDC000C3107F1FC0319460D4804F0FBF8002206
:101DEC000021472004F049F8472004F060F800BFB8
:101DFC0007F58877BD4680BD00440040004402587A
:101E0C0000000258000C025800140140000802584F
:101E1C000018025880B582B000AF786039607B68DA
:101E2C003A685A6400221021094804F07BFA002217
:101E3C000821074804F076FA7B68586C7B680C33F1
:101E4C000122194609F07AFA00BF0837BD4680BD59
:101E5C00000C025880B586B000AF78607B681B7BA5
:101E6C00FF2B03D07B681B7BFE2B06D17B680022EB
:101E7C00DA757B6806221A761CE07B681B7BFD2BCF
:101E8C0006D17B680022DA757B6804221A7611E091
:101E9C007B681B7BFC2B07D07B681B7BFB2B03D04D
:101EAC007B681B7BFA2B05D17B680022DA757B687B
:101EBC0003221A767B68DB7D19467B681A7B7B686C
:101ECC000B445A737B68DB7D0133DAB27B68DA75BD
:101EDC007B68DB7D092B02D97B680022DA757B6875
:101EEC00DA7D7B681B7E9A4240F001817B685B7BCC
:101EFC00FF2B1FD07B685B7BFE2B1BD07B685B7B37
:101F0C00FD2B17D07B685B7BFC2B13D07B685B7B3A
:101F1C00FB2B0FD07B685B7BFA2B0BD07B680022F2
:101F2C00DA757B68586C7B680C330122194609F012
:101F3C0005FAE4E00023FB7501233B610AE07A68B3
:101F4C003B6913440D331A78FB7D1344FB753B69D5
:101F5C0001333B617B681B7E013B3A699A42EEDBA5
:101F6C007B681B7E013B7A6813445B7BFA7D9A424B
:101F7C0015D0FA7D7B681B7E013B79680B445B7B3B
:101F8C000F3B9A420BD07B680022DA757B68586C49
:101F9C007B680C330122194609F0D0F9AFE07B685D
:101FAC005B7BFA3B052B00F29B8001A252F823F0DD
:101FBC00CB200008AF200008932000086320000805
:101FCC0033200008D51F00087B689B7B1BB21B02CB
:101FDC001AB27B68DB7B1BB21343FB817B681B7CD7
:101FEC001BB21B021AB27B685B7C1BB21343BB8116
:101FFC00B7F90E3007EE903AB8EEE77ADFED416AAA
:10200C00C7EE267A7B68C3ED0C7AB7F90C3007EE75
:10201C00903AB8EEE77ADFED3B6AC7EE267A7B683A
:10202C00C3ED0D7A63E07B689B7B1BB21B021AB27B
:10203C007B68DB7B1BB213437B81B7F90A3007EE5D
:10204C00903AB8EEE77ADFED2F6AC7EE267A7B6816
:10205C00C3ED0E7A4BE07B689B7B1BB21B021AB262
:10206C007B68DB7B1BB213433B81B7F9083007EE6F
:10207C00903AB8EEE77ADFED236AC7EE267A7B68F2
:10208C00C3ED0F7A33E07B689B7B012B2AD17B68F5
:10209C0093F8403083F00103DAB27B6883F8402078
:1020AC0020E07B689B7B012B1ED17B6893F8413031
:1020BC0083F00103DAB27B6883F8412014E07B687B
:1020CC009B7B012B12D17B6893F84230002B0CBF09
:1020DC0001230023DBB21A467B6883F8422005E01B
:1020EC0000BF04E000BF02E000BF00E000BF7B685F
:1020FC00586C7B680C330122194609F01FF918370C
:10210C00BD4680BD00EAFF4680B582B000AF786066
:10211C0003F05CF90346002B14BF01230023DAB251
:10212C007B681A7500BF0837BD4680BD80B582B08C
:10213C0000AF78607B689A687B68DA607B681A68A5
:10214C007B689A6003F0B0FCF0EE407A7B68C3EDDC
:10215C00007A7B6893ED037A7B68D3ED027A37EED5
:10216C00277A7B68D3ED007A77EE277AF0EE086A4F
:10217C0087EEA67A7B68D3ED017A77EE677A9FEDCE
:10218C00077A27EE877ADFED066AC7EE267A7B6838
:10219C00C3ED047A00BF0837BD4680BD0000C842BD
:1021AC000048194680B483B000AF78607B681B6927
:1021BC0007EE903AB0EE670A0C37BD465DF8047B2B
:1021CC00704780B582B000AF786039607B683A6840
:1021DC001A617B6818697B6809330122194609F07A
:1021EC00ADF800BF0837BD4680BD80B582B000AFEA
:1021FC0078607B6818697B6803F108014FF6FF7300
:10220C00012209F00DF800BF0837BD4680BD80B52E
:10221C0082B000AF78607B685B7AFF2B02D17B6861
:10222C0000229A737B689B7B19467B685A7A7B6881
:10223C000B449A727B689B7B0133DAB27B689A738E
:10224C007B689B7B042B42D17B689B7AFF2B38D11C
:10225C007B689B7A1A467B68DB7A13447A68127B1C
:10226C001344DBB27A68527B93422AD17B68DB7AC7
:10227C00FD2B06D17B681B7BFB2B02D17B680022DC
:10228C001A757B68DB7A1BB21B021AB27B681B7B4C
:10229C001BB213431BB29AB27B681A807B681B88F3
:1022AC0007EE903AB8EEE76BB2EE045B86EE057B78
:1022BC00F7EEC77B7B68C3ED017A7B6801221A7548
:1022CC0005E07B6800229A737B6800221A757B6894
:1022DC0018697B6809330122194609F02FF800BFF1
:1022EC000837BD4680BD80B483B000AF87ED010ACE
:1022FC00D7ED017AF0EEE77AB0EE670A0C37BD46FF
:10230C005DF8047B704780B582B000AF78603960AF
:10231C007B683A689A637B68986B7B6828330122E8
:10232C00194609F00BF800BF0837BD4680BD80B4D4
:10233C0083B000AF78607B681A6A7B685A6200BF12
:10234C000C37BD465DF8047B7047000080B58EB03D
:10235C0000AF78607B6893F82830552B03D17B68ED
:10236C00002283F834207B6893F8343019467B685C
:10237C0093F828207B680B4483F829207B6893F81A
:10238C0034300133DAB27B6883F834207B6893F8FD
:10239C0034300B2B40F02F82002387F8373000238A
:1023AC00FB854FF00003BB624FF000037B624FF0E4
:1023BC0000033B624FF00003FB614FF00003BB6175
:1023CC004FF000037B614FF000033B614FF00003C3
:1023DC00FB604FF00003BB6000233B630CE07A68AA
:1023EC003B6B134429331A7897F83730134487F82A
:1023FC0037303B6B01333B633B6B092BEFDD7B6869
:10240C0093F8333097F837209A4204D07B68002237
:10241C0083F83420EFE17B6893F82A30532B00F0DB
:10242C00E680532B00F3E781512B02D0522B75D051
:10243C00E1E17B6893F830301BB21B02FB857B68B3
:10244C0093F82F301AB2FB8D1343FB85B7F92E305E
:10245C0007EE903AB8EEE77ADFEDA26AC7EE267A7D
:10246C00B3EE007A67EE877A9FED987A67EE877AFB
:10247C00C7ED027A7B68BA689A607B6893F82E3055
:10248C001BB21B02FB857B6893F82D301AB2FB8DB7
:10249C001343FB85B7F92E3007EE903AB8EEE77A86
:1024AC00DFED906AC7EE267AB3EE007A67EE877A94
:1024BC009FED867A67EE877AC7ED037A7B68FA68B8
:1024CC005A607B6893F82C301BB21B02FB857B682F
:1024DC0093F82B301AB2FB8D1343FB85B7F92E30D2
:1024EC0007EE903AB8EEE77ADFED7E6AC7EE267A11
:1024FC00B3EE007A67EE877A9FED747A67EE877A8F
:10250C00C7ED047A7B683A691A607B68012283F80C
:10251C0035207B68002283F82A206CE17B6893F8D5
:10252C0030301BB21B02FB857B6893F82F301AB23C
:10253C00FB8D1343FB85B7F92E3007EE903AB8EEBE
:10254C00E77ADFED686AC7EE267A9FED617A67EE6F
:10255C00877AC7ED057A7B687A695A617B6893F84C
:10256C002E301BB21B02FB857B6893F82D301AB200
:10257C00FB8D1343FB85B7F92E3007EE903AB8EE7E
:10258C00E77ADFED586AC7EE267A9FED517A67EE4F
:10259C00877AC7ED067A7B68BA691A617B6893F80B
:1025AC002C301BB21B02FB857B6893F82B301AB2C4
:1025BC00FB8D1343FB85B7F92E3007EE903AB8EE3E
:1025CC00E77ADFED486AC7EE267A9FED417A67EE2F
:1025DC00877AC7ED077A7B68FA69DA607B68012233
:1025EC0083F836207B68002283F82A2003E17B687D
:1025FC0093F830301BB21B02FB857B6893F82F30AD
:10260C001AB2FB8D1343FB85B7F92E3007EE903AC7
:10261C00B8EEE77ADFED336AC7EE267A9FED327AB1
:10262C0067EE877AC7ED087A7B683A6A1A62294B9B
:10263C001B68312B08DC274B1B680133254A1360C0
:10264C007B681A6A7B681A627B6893F82C301BB221
:10265C001B02FB857B6893F82B301AB2FB8D13435E
:10266C00FB85B7F92E3007EE903AB8EEE77ADFED3E
:10267C001D6AC7EE267A9FED1C7A67EE877AC7ED46
:10268C000A7A154B93ED007AD7ED0A7A77EE677AD2
:10269C00B0EE670AFFF727FEF0EE407AB3EE0E7A43
:1026AC00F4EEC77AF1EE10FA4CBF01230023DBB233
:1026BC00002B03D07B68BA6ADA612FE0054B1B68EC
:1026CC00042B13DC7B68BA6ADA6127E0CDCC1C41A1
:1026DC000000FA44D4050020D80500200000204357
:1026EC00000020C30000004700003443D7ED0A7AF5
:1026FC001FED067AF4EEC77AF1EE10FA02DD7B6874
:10270C00BA6ADA61D7ED0A7A1FED0B7AF4EEC77A62
:10271C00F1EE10FA02D57B68BA6ADA617B6893F83D
:10272C002E301BB21B02FB857B6893F82D301AB23E
:10273C00FB8D1343FB85B7F92E3007EE903AF8EE7C
:10274C00E77AB1EE677A5FED196AC7EE267A1FED6C
:10275C001A7A67EE877AC7ED097A2D4B93ED007ADA
:10276C00D7ED097A77EE677AB0EE670AFFF7BBFD13
:10277C00F0EE407AB3EE0E7AF4EEC77AF1EE10FA80
:10278C004CBF01230023DBB2002B03D07B687A6A99
:10279C009A611FE01F4B1B68042B03DC7B687A6A71
:1027AC009A6117E0D7ED0A7A9FED1B7AF4EEC77A9F
:1027BC00F1EE10FA02DD7B687A6A9A61D7ED0A7A3B
:1027CC009FED167AF4EEC77AF1EE10FA02D57B681B
:1027DC007A6A9A617B68DB69114A13607B689B6932
:1027EC000B4A13607B68012283F837207B68002238
:1027FC0083F82A2000BF7B68986B7B682833012202
:10280C00194608F09BFD00BF3837BD4680BD00BFA0
:10281C00DC050020D405002000002043000020C36C
:10282C00D805002080B586B000AF78613961FA60B8
:10283C00BB6087ED010A7B693A691A607B69FA68AB
:10284C005A607B694FF000029A607B697A681A6162
:10285C007B69BA685A617B693A6A9A617B6997F8B5
:10286C0024201A777B691A687B695B6819461046C5
:10287C0007F0A2FA7B695B68002B06D17B691B68A9
:10288C001B6840F2DC525A6331E07B695B68042BB5
:10289C0006D17B691B681B6840F2DC529A6326E008
:1028AC007B695B68082B06D17B691B681B6840F24F
:1028BC00DC52DA631BE07B695B680C2B06D17B690D
:1028CC001B681B6840F2DC521A6410E07B695B6881
:1028DC00102B06D17B691B681B6840F2DC529A6591
:1028EC0005E07B691B681B6840F2DC52DA650A2044
:1028FC0003F0C4F900BF1837BD4680BD80B588B061
:10290C0000AFF86087ED020AC7ED010A87ED001AE7
:10291C0097ED007AD7ED017AB4EEE77AF1EE10FA82
:10292C0001D8012334E097ED027AD7ED017A77EEE6
:10293C00676A97ED007AD7ED017A37EE677AC6EEC3
:10294C00877AC7ED067AD7ED067A9FED137A67EE94
:10295C00877A9FED127A77EEC77AC7ED057A97EDF5
:10296C00050A0BF0EDFEF0EE407AFDEEE77A17EE7D
:10297C00903AFB61FB6913F5FA7F01DA084BFB61B6
:10298C00FB69B3F5FA7F02DD4FF4FA73FB61FB6967
:10299C0018462037BD4680BD00007A440000FA433B
:1029AC000CFEFFFF80B582B000AF786087ED000AA7
:1029BC007B683A689A607B68D3ED027AF5EEC07A50
:1029CC00F1EE10FA38DD7B6893ED027A7B68D3ED7B
:1029DC00047AB4EEE77AF1EE10FA03DD7B681A693B
:1029EC007B689A607B6893ED027A7B68D3ED047AFE
:1029FC00F1EE677A7B68D3ED046AB0EE661AF0EEFE
:102A0C00670AB0EE470A7868FFF778FF02467B68E2
:102A1C005B691A447B68DA607B681B7F002B04D1EE
:102A2C007B68DB685A427B68DA607B68DB6803F2A0
:102A3C00DC527B68DA603DE07B6893ED027A7B6860
:102A4C00D3ED047AF1EE677AB4EEE77AF1EE10FA90
:102A5C0007D57B68D3ED047AF1EE677A7B68C3ED1A
:102A6C00027A7B6893ED027A7B68D3ED047AF1EEFF
:102A7C00677A7B68D3ED046AB0EE661AF0EE670AEB
:102A8C00B0EE470A7868FFF739FF02467B689B690E
:102A9C00D21A7B68DA607B681B7F002B04D17B68C1
:102AAC00DB685A427B68DA607B68DB6803F2DC52D5
:102ABC007B68DA607B685B68002B06D17B68DA6820
:102ACC007B681B681B685A6331E07B685B68042B6E
:102ADC0006D17B68DA687B681B681B689A6326E002
:102AEC007B685B68082B06D17B68DA687B681B689F
:102AFC001B68DA631BE07B685B680C2B06D17B6878
:102B0C00DA687B681B681B681A6410E07B685B687A
:102B1C00102B06D17B68DA687B681B681B689A658A
:102B2C0005E07B68DA687B681B681B68DA6500BFA8
:102B3C000837BD4680BD80B483B000AF78607B6839
:102B4C005B68002B06D17B681B681B6840F2DC526B
:102B5C005A6331E07B685B68042B06D17B681B6889
:102B6C001B6840F2DC529A6326E07B685B68082B9A
:102B7C0006D17B681B681B6840F2DC52DA631BE0F1
:102B8C007B685B680C2B06D17B681B681B6840F26A
:102B9C00DC521A6410E07B685B68102B06D17B68F2
:102BAC001B681B6840F2DC529A6505E07B681B6869
:102BBC001B6840F2DC52DA6500BF0C37BD465DF88D
:102BCC00047B704780B483B000AF78607B684FF0B3
:102BDC0000021A607B684FF000025A607B684FF06D
:102BEC0000029A607B684FF00002DA607B684FF05D
:102BFC0000021A617B684FF000025A617B684FF04B
:102C0C0000029A617B684FF00002DA617B684FF03A
:102C1C0000021A627B6818460C37BD465DF8047BCF
:102C2C00704780B588B000AFF86187ED060AC7ED34
:102C3C00050A87ED041AC7ED031A87ED022AC7EDC2
:102C4C00012AFB69BA691A60FB697A695A60FB69E7
:102C5C003A699A60D7ED037AF0EEE77AFB69C3ED37
:102C6C00037AD7ED027AF0EEE77AFB69C3ED047ACA
:102C7C00D7ED017AF0EEE77AFB69C3ED057AF869D6
:102C8C0000F004F800BF2037BD4680BD80B483B08F
:102C9C0000AF78607B684FF000029A617B684FF060
:102CAC000002DA617B684FF000021A6200BF0C3739
:102CBC00BD465DF8047B704780B489B000AFF86006
:102CCC0087ED020AC7ED010A87ED001AD7ED007AED
:102CDC00F5EEC07AF1EE10FA02D8FB681B6AB0E090
:102CEC0097ED027AD7ED017A77EE677AC7ED077A1E
:102CFC00D7ED077AB0EEE77AFB68D3ED057AB4EE40
:102D0C00E77AF1EE10FA02D84FF00003FB61FB6892
:102D1C00D3ED007A97ED077A67EE277AC7ED047A40
:102D2C00FB6893ED067AFB68D3ED016AD7ED077A61
:102D3C0066EEA76AD7ED007A66EEA77A77EE277A69
:102D4C00FB68C3ED067AFB68D3ED047AF5EEC07A26
:102D5C00F1EE10FA24DDFB6893ED067AFB68D3EDF7
:102D6C00047AB4EEE77AF1EE10FA04DDFB681A6926
:102D7C00FB689A6114E0FB6893ED067AFB68D3ED6F
:102D8C00047AF1EE677AB4EEE77AF1EE10FA07D531
:102D9C00FB68D3ED047AF1EE677AFB68C3ED067A33
:102DAC004FF00003BB61D7ED007AF5EEC07AF1EE7F
:102DBC0010FA11DDFB6893ED027AFB68D3ED077A0C
:102DCC00D7ED076A76EEE77A67EE276A97ED007A19
:102DDC00C6EE877AC7ED067AFB68FA69DA61FB689A
:102DEC0093ED067AD7ED047A77EE277A97ED067A8B
:102DFC0077EE277AC7ED057AFB68D3ED037A97ED6A
:102E0C00057AB4EEE77AF1EE10FA03DDFB68DB68C5
:102E1C007B6112E0FB68D3ED037AF1EE677A97EDF4
:102E2C00057AB4EEE77AF1EE10FA06D5FB68D3ED2D
:102E3C00037AF1EE677AC7ED057AFB687A691A6254
:102E4C007B6907EE903AB0EE670A2437BD465DF811
:102E5C00047B704780B400AF00231846BD465DF874
:102E6C00047B704780B400AF00231846BD465DF864
:102E7C00047B704780B483B000AF786039603B68E6
:102E8C0018460C37BD465DF8047B704780B483B0A0
:102E9C0000AF78607B68B3F5007F05D24FF4007209
:102EAC007B68B2FBF3F300E0012318460C37BD46F8
:102EBC005DF8047B7047000080B483B000AF78608D
:102ECC007B684FF000021A607B680C4A5A607B6882
:102EDC004FF000029A607B684FF00002DA607B686A
:102EEC004FF000021A617B6800221A757B68184645
:102EFC000C37BD465DF8047B704700BF00F2C1473C
:102F0C0080B483B000AF78607B6800221A807B6845
:102F1C004FF000025A607B68FF221A727B68002215
:102F2C009A737B6800221A617B6801221A757B6890
:102F3C0018460C37BD465DF8047B704780B483B0EF
:102F4C0000AF78607B684FF000021A607B684FF02E
:102F5C0000025A607B684FF000029A607B684FF069
:102F6C000002DA607B684FF000021A617B684FF058
:102F7C0000025A617B684FF000029A617B684FF047
:102F8C000002DA617B684FF000021A627B684FF036
:102F9C0000025A627B68002283F834207B6800228E
:102FAC0083F835207B68002283F836207B6800226A
:102FBC0083F837207B6800229A637B6818460C37AD
:102FCC00BD465DF8047B704780B483B000AF786079
:102FDC007B68DB6907EE903AB0EE670A0C37BD46AA
:102FEC005DF8047B7047000080B485B000AF78605A
:102FFC007B6893ED087A7B68D3ED097A77EE677A74
:10300C00C7ED037AD7ED037A9FED157AF4EEC77A04
:10301C00F1EE10FA08DDD7ED037A9FED127A77EE18
:10302C00C77AC7ED037A10E0D7ED037A9FED0E7ADD
:10303C00F4EEC77AF1EE10FA07D5D7ED037A9FEDCF
:10304C00097A77EE877AC7ED037AFB6807EE903A38
:10305C00B0EE670A1437BD465DF8047B704700BFBD
:10306C00000034430000B443000034C380B483B088
:10307C0000AF78607B681B6807EE903AB0EE670A89
:10308C000C37BD465DF8047B704780B483B000AF4D
:10309C0078607B685B6807EE903AB0EE670A0C3795
:1030AC00BD465DF8047B704780B483B000AF786098
:1030BC007B68EF221A707B684FF000025A607B68C5
:1030CC004FF000029A607B684FF00002DA607B6878
:1030DC0000221A747B6800225A747B6800229A744E
:1030EC007B6818460C37BD465DF8047B704780B48E
:1030FC0083B000AF78607B684FF000021A607B6889
:10310C004FF000025A607B684FF000029A607B68B7
:10311C004FF00002DA607B6800221A747B68002290
:10312C005A747B6801229A747B6818460C37BD462A
:10313C005DF8047B704780B582B000AF78607B6827
:10314C0000221A607B6800225A607B6800229A6019
:10315C007B680022DA757B6800221A767B681C3348
:10316C001846FFF7A1FF7B6830331846FFF7BFFF07
:10317C007B6800225A647B6818460837BD4680BDC0
:10318C0080B483B000AF786039607B683A681A60AD
:10319C0000BF0C37BD465DF8047B704780B483B02C
:1031AC0000AF786039607B683A685A6000BF0C37B2
:1031BC00BD465DF8047B704780B483B000AF786087
:1031CC0039607B683A689A6000BF0C37BD465DF881
:1031DC00047B704780B483B000AF78607B680022BA
:1031EC001A607B6800225A607B684FF000029A607C
:1031FC007B680022DA607B684FF000021A617B6802
:10320C0000225A617B6800229A617B6801221A773E
:10321C007B6818460C37BD465DF8047B704780B55B
:10322C0082B000AF78607B68184600F0FAFF7B68CC
:10323C0018460837BD4680BD80B500AF064806F07D
:10324C002DFC054B1B6800225A62034B1B685B6A02
:10325C00024A136000BF80BD0C020020E405002070
:10326C0080B500AF0D4B1B685B6A0D4A13600B48B1
:10327C0006F092FC0A4B1A680A4B1B68D31A07EE2D
:10328C00903AF8EE677A084BC3ED007A064B1B6850
:10329C0007EE903AB0EE670A80BD00BF0C0200202A
:1032AC00E8050020E4050020EC05002080B582B084
:1032BC0002AF01224FF40051934803F033F801227E
:1032CC004FF40041914803F02DF801224FF40071A6
:1032DC008D4803F027F8012202218D4803F022F8D3
:1032EC008C4B1B6832229A6304218A4806F064FDD9
:1032FC000A2002F0C3FC00F08BFE874B1B681846BB
:10330C00FEF702FF854B1B6885491846FEF759FFEF
:10331C00844B1B6884491846FEF753FF834B1B688C
:10332C0083491846FEF7EFFF824B1B687A4A1268F6
:10333C0011461846FFF724FF7E4B1B68774A12682C
:10334C0011461846FFF72AFF7A4B1B68754A12681C
:10335C0011461846FFF730FF764B1B687649184626
:10336C00FEF758FD754B1868002301930323009357
:10337C009FED730A142300227249FFF753FA6F4B27
:10338C001B6803F1200000230193032300939FED9E
:10339C006C0A14230C226B49FFF744FA674B1B6829
:1033AC0003F1400000230193032300939FED640A73
:1033BC00142304226349FFF735FA604B1B6803F1B1
:1033CC00600000230193032300939FED5D0A1923F2
:1033DC0008225D49FFF726FA584B1B6803F1800061
:1033EC0001230193142300939FED550A0323082214
:1033FC005449FFF717FA514B1B6803F1A000012346
:10340C000193192300939FED4E0A05230C224E497C
:10341C00FFF708FA40F6B83002F030FC4B4B1B6853
:10342C00DFED4B2A9FED462ADFED451A9FED481A3A
:10343C00DFED480AB0EE000A1846FFF7F2FB464BE8
:10344C001B68DFED432A9FED3E2ADFED3D1A9FED11
:10345C00401ADFED400A9FED410A1846FFF7E1FBE9
:10346C003F4B1B68DFED3A2A9FED352ADFED341A0E
:10347C009FED3C1ADFED360AB6EE000A1846FFF750
:10348C00D0FB394B1B68DFED322A9FED2D2ADFED87
:10349C002C1A9FED2F1ADFED2E0AB0EE000A1846FB
:1034AC00FFF7BFFB314B1B68DFED292A9FED242A68
:1034BC00DFED231A9FED261ADFED250AB0EE000A88
:1034CC001846FFF7AEFB194B1B681846FFF77CFD3F
:1034DC00F0EE407A264BC3ED007A164B1B680122A6
:1034EC0083F84020134B1B68002283F842200F4BBB
:1034FC001B681846FEF71BFF01220121044802F04D
:10350C0011FF00BFBD4680BD0008025800100258D4
:10351C000004025828010020F8050020FC050020BA
:10352C00F002002000060020840300200406002086
:10353C00180400200C060020AC0400200806002013
:10354C0000004842C0010020DC00002010060020D2
:10355C00000000000AD7233C140600209A99193F5A
:10356C0018060020CDCCCC3D1C06002020060020E7
:10357C005C06002080B500AFFFF75EFE00F078F827
:10358C0000F030F9FFF76CFEF0EE407A024BC3ED21
:10359C00007A00BF80BD00BFE0050020B0B582B04E
:1035AC0000AF78607B680D4A934213D1FFF744FE5D
:1035BC000B4BD3E90023541C43F10005084BC3E922
:1035CC000045FFF7D7FFFFF74BFEF0EE407A054BB7
:1035DC00C3ED007A00BF0837BD46B0BD58020020CD
:1035EC00F0050020E005002080B582B000AF7860C7
:1035FC007B681B68164A934205D1164B1B6818460C
:10360C00FEF7A4FE1FE07B681B68134A934205D1AA
:10361C00124B1B681846FEF71DFC14E07B681B68F8
:10362C000F4A934205D10F4B1B681846FEF7EFFD6E
:10363C0009E07B681B680C4A934204D10B4B1B6856
:10364C001846FEF7E4FD00BF0837BD4680BD00BF3D
:10365C000010014004060020004400400C0600202D
:10366C00004C0040FC0500200050004000060020EB
:10367C00B0B500AF4B4B1B681846FEF757FD4A4BD5
:10368C00D3E9002302F00104002554EA050305D018
:10369C00464B1B681846FEF7A8FD04E0444B1B681C
:1036AC001846FEF7A2FD424B1B681846FEF79DFD1F
:1036BC00404B1B6893F84130012B05D101220121AD
:1036CC003D4802F02FFE04E0002201213A4802F0AE
:1036DC0029FE3A4B1B683A4A13603A4B1B68184652
:1036EC00FFF782FCF0EE407A344BC3ED007A354B99
:1036FC001B681846FFF768FCF0EE407A324BC3EDBE
:10370C00007A284B1B681846FEF74CFDF0EE407A09
:10371C002E4BC3ED007A2B4B1B681846FFF7A6FC0B
:10372C00F0EE407A9FED2A7A27EE877A294BD3ED7B
:10373C00007A77EE277A274BC3ED007A214B1B6872
:10374C001846FFF7A2FCF0EE407A9FED217A27EEA7
:10375C00877A214BD3ED007A77EE277A1E4BC3ED97
:10376C00007A1C4BD3ED007A9FED197A27EE877AFD
:10377C001A4BD3ED007A77EE277A184BC3ED007A0B
:10378C00154BD3ED007A9FED127A27EE877A144B06
:10379C00D3ED007A77EE277A114BC3ED007A00BF98
:1037AC00B0BD00BFF8050020F0050020FC0500208E
:1037BC00000600200C060020000402584C060020D5
:1037CC005406002004060020580600202406002081
:1037DC000AD7233C2C060020340600203C0600208F
:1037EC004406002080B500AF0A4B1B6893F84030AC
:1037FC00002B0BD0074B1B6893F84230012B02D1E6
:10380C0000F00AF804E000F09FF901E000F0BAFBC8
:10381C0000BF80BD0C06002080B58AB000AFB94B4C
:10382C0093ED007AB84B1B68D3ED0F7AF1EE006A7A
:10383C0067EEA67ADFEDB56A67EEA67A77EE677A61
:10384C00B04BC3ED007AB24B93ED007AAE4B1B68D4
:10385C00D3ED0E7AF3EE046A67EEA67ADFEDAB6A6F
:10386C0067EEA67A77EE677AA94BC3ED007AA94B7F
:10387C004FF000021A60A44B1B68D3ED0C7AB2EE29
:10388C000E7A67EE877AA44BC3ED007A9E4B1B68C9
:10389C00D3ED0D7AB2EE0E7A67EE877A9F4BC3EDBD
:1038AC00007A3B4600221A605A609A60DA601A610C
:1038BC005A619B4B1B68934AD2ED007A994A92ED60
:1038CC00007A9FED921AF0EE470AB0EE670A18469E
:1038DC00FFF7F2F987ED080A97ED017AD7ED087A30
:1038EC0077EE677AC7ED017A97ED047AD7ED087A0F
:1038FC0077EE677AC7ED047A97ED017A8A4BD3EDB0
:10390C00007A77EE277AC7ED017A97ED047A864B29
:10391C00D3ED007A77EE277AC7ED047A834B1B68D8
:10392C007B4AD2ED007A824A92ED007A9FED771AAB
:10393C00F0EE470AB0EE670A1846FFF7BDF987EDBF
:10394C00070A97ED007AD7ED077A77EE677AC7ED1D
:10395C00007A97ED027AD7ED077A77EE277AC7EDE2
:10396C00027A97ED037AD7ED077A77EE277AC7EDCF
:10397C00037A97ED057AD7ED077A77EE677AC7ED7C
:10398C00057A6C4B1B68634AD2ED007A6A4A92ED59
:10399C00007A9FED5E1AF0EE470AB0EE670A184601
:1039AC00FFF78AF987ED060A97ED017AD7ED067ACB
:1039BC0077EE677AC7ED017A97ED047AD7ED067A40
:1039CC0077EE277AC7ED047A97ED007A524BD3ED58
:1039DC00007A77EE277AC7ED007A97ED027A4E4B94
:1039EC00D3ED007A77EE677AC7ED027A97ED037A1A
:1039FC00494BD3ED007A77EE277AC7ED037A97ED32
:103A0C00057A454BD3ED007A77EE677AC7ED057AE8
:103A1C0097ED007A414BD3ED007A77EE277AC7ED1C
:103A2C00007A97ED027A3D4BD3ED007A77EE277A48
:103A3C00C7ED027A97ED037A384BD3ED007A77EE27
:103A4C00277AC7ED037A97ED057A344BD3ED007ADC
:103A5C0077EE277AC7ED057A00237B624AE07B6A12
:103A6C00012B02D07B6A042B18D17B6A9B00283374
:103A7C003B44283BD3ED007A9FED301ADFED300A42
:103A8C00B0EE670A00F034FBF0EE407A7B6A9B00E4
:103A9C0028333B44283BC3ED007A17E07B6A9B003C
:103AAC0028333B44283BD3ED007AB3EE0E1AFBEEE1
:103ABC000E0AB0EE670A00F01BFBF0EE407A7B6A50
:103ACC009B0028333B44283BC3ED007A1D4B1A68FE
:103ADC007B6A5B011A447B6A9B0028333B44283B7E
:103AEC00D3ED007AB0EE670A1046FEF75BFF7B6AF7
:103AFC0001337B627B6A052BB1DD00BF00BF283729
:103B0C00BD4680BD0C0000200C0600200AD7233CCB
:103B1C00500600205C0600203006002038060020ED
:103B2C001006002024060020280600201406002081
:103B3C004C060020180600205806002000002042E9
:103B4C00000020C20806002080B58CB000AF00F049
:103B5C0077F93B4600221A605A609A60DA601A6163
:103B6C005A61A34B1B68A34AD2ED007AA24A92ED8C
:103B7C00007A9FEDA21AF0EE470AB0EE670A1846DB
:103B8C00FFF79AF887ED0A0A97ED017AD7ED0A7AD2
:103B9C0077EE677AC7ED017A97ED047AD7ED0A7A5A
:103BAC0077EE677AC7ED047A97ED017A944BD3EDF3
:103BBC00007A77EE277AC7ED017A97ED047A904B6D
:103BCC00D3ED007A77EE277AC7ED047A8D4B1B681C
:103BDC008D4AD2ED007A8D4A92ED007A9FED871ACC
:103BEC00F0EE470AB0EE670A1846FFF765F887ED66
:103BFC00090A97ED007AD7ED097A77EE677AC7ED67
:103C0C00007A97ED027AD7ED097A77EE277AC7ED2D
:103C1C00027A97ED037AD7ED097A77EE277AC7ED1A
:103C2C00037A97ED057AD7ED097A77EE677AC7EDC7
:103C3C00057A774B1B68774AD2ED007A764A92ED7B
:103C4C00007A9FED6E1AF0EE470AB0EE670A18463E
:103C5C00FFF732F887ED080A97ED017AD7ED087A6D
:103C6C0077EE677AC7ED017A97ED047AD7ED087A8B
:103C7C0077EE277AC7ED047A684B1B68684AD2ED59
:103C8C00007A684A92ED007A9FED5C1AF0EE470AD2
:103C9C00B0EE670A1846FFF70FF887ED070A97EDA5
:103CAC00007AD7ED077A77EE277AC7ED007A97ED91
:103CBC00027AD7ED077A77EE677AC7ED027A97ED3D
:103CCC00037AD7ED077A77EE277AC7ED037A97ED6B
:103CDC00057AD7ED077A77EE677AC7ED057A524BFE
:103CEC001B68524AD2ED007A514A92ED007A9FED50
:103CFC00431AF0EE470AB0EE670A1846FEF7DCFFEF
:103D0C0087ED060A97ED007AD7ED067A77EE277ADB
:103D1C00C7ED007A97ED027AD7ED067A77EE277A1F
:103D2C00C7ED027A97ED037AD7ED067A77EE277A0C
:103D3C00C7ED037A97ED057AD7ED067A77EE277AF9
:103D4C00C7ED057A0023FB624AE0FB6A012B02D027
:103D5C00FB6A042B18D1FB6A9B0030333B44303B8D
:103D6C00D3ED007A9FED331ADFED330AB0EE670A1C
:103D7C0000F0BEF9F0EE407AFB6A9B0030333B4416
:103D8C00303BC3ED007A17E0FB6A9B0030333B44B9
:103D9C00303BD3ED007AB3EE0E1AFBEE0E0AB0EE0A
:103DAC00670A00F0A5F9F0EE407AFB6A9B0030330D
:103DBC003B44303BC3ED007A204B1A68FB6A5B0135
:103DCC001A44FB6A9B0030333B44303BD3ED007A02
:103DDC00B0EE670A1046FEF7E5FDFB6A0133FB62A5
:103DEC00FB6A052BB1DD00BF00BF3037BD4680BD7F
:103DFC00100600200C000020240600200AD7233CCB
:103E0C002806002014060020500600204C06002036
:103E1C00180600205C060020580600201C06002016
:103E2C00400600203C06002020060020480600200A
:103E3C004406002000002042000020C2080600209A
:103E4C0080B500AF454B464A1A60464B4FF0000216
:103E5C001A60454B1B781946444800F015FA034686
:103E6C0093ED007A424BD3ED007A77EE677AB0EEA1
:103E7C00670AFEF738FAF0EE407AB0EE087AF4EE04
:103E8C00C77AF1EE10FA1CD5374B1B781946374818
:103E9C0000F0FAF9034693ED017A364BD3ED007A34
:103EAC0077EE677AB0EE670AFEF71DFAF0EE407A0D
:103EBC00B0EE087AF4EEC77AF1EE10FA01D50123D0
:103ECC0000E00023002B0CD0274B1B780133DAB217
:103EDC00254B1A70244B1B78032B02D9224B002242
:103EEC001A70214B1B781946204800F0CDF9034677
:103EFC001B68214A13601C4B1B7819461B4800F0A9
:103F0C00C3F903465B681D4A13601B4BD3ED007A63
:103F1C00174B93ED007A9FED1A1AF0EE470AB0EEAC
:103F2C00670A00F021F9F0EE407A134BC3ED007AEA
:103F3C00124BD3ED007A0F4B93ED007A9FED101AD4
:103F4C00F0EE470AB0EE670A00F00EF9F0EE407A98
:103F5C000A4BC3ED007A00BF80BD00BF0C000020EF
:103F6C00000070415C060020600600206406002002
:103F7C003C06002044060020400600204806002095
:103F8C000000484380B582B000AF00237B600CE09A
:103F9C000A4B1A687B685B0113441846FEF7CBFD8D
:103FAC0000F00EF87B6801337B607B68052BEFDD3E
:103FBC0000BF00BF0837BD4680BD00BF080600200B
:103FCC0080B500AF0D4B1B681846FEF75FFE0C4B1F
:103FDC001B681846FEF75AFE0A4B1B681846FEF77C
:103FEC0055FE094B1B681846FEF750FE074B1B6825
:103FFC001846FEF74BFE00BF80BD00BF1006002028
:10400C0014060020180600201C06002020060020A4
:10401C0080B598B000AF4FF00002324BC7E90223D5
:10402C004FF000022F4BC7E9042307F1100207F1F0
:10403C0008013B46184600F038F93B4619462A4819
:10404C0000F054F94FF00002284BC7E908234FF059
:10405C000002264BC7E90A2307F1280207F12001C9
:10406C0007F11803184600F020F907F11803194658
:10407C001D4800F03BF94FF000021C4BC7E90E2322
:10408C004FF00002194BC7E9102307F1400207F16A
:10409C00380107F13003184600F007F907F1300337
:1040AC001946114800F022F94FF000020D4BC7E9F8
:1040BC0014234FF000020D4BC7E9162307F15802E9
:1040CC0007F1500107F14803184600F0EEF807F12C
:1040DC0048031946044800F009F900BF6037BD4693
:1040EC0080BD00BF008051406406002000005E408F
:1040FC0080B487B000AF87ED030AC7ED020A87EDE5
:10410C00011A97ED027AD7ED017AB4EEE77AF1EE67
:10411C0010FA04DBBB687B617B683B6103E07B6866
:10412C007B61BB683B6197ED037AD7ED057AB4EE02
:10413C00E77AF1EE10FA01DD7B690BE097ED037A7B
:10414C00D7ED047AB4EEE77AF1EE10FA01D53B69BB
:10415C0000E0FB6807EE903AB0EE670A1C37BD46EC
:10416C005DF8047B7047000080B487B000AF87ED2A
:10417C00030AC7ED020A87ED011A97ED037AD7ED12
:10418C00027A77EE677AC7ED057AD7ED017A9FED63
:10419C001D7A67EE877A97ED057AB4EEE77AF1EE41
:1041AC0010FA08DDD7ED017A9FED167A67EE877A63
:1041BC00C7ED057A18E0D7ED017AF1EE677A9FED3D
:1041CC00117A67EE877A97ED057AB4EEE77AF1EE1D
:1041DC0010FA09D5D7ED017AF1EE677A9FED097ADD
:1041EC0067EE877AC7ED057A97ED027AD7ED057AF7
:1041FC0077EE277AB0EE670A1C37BD465DF8047B74
:10420C00704700BF0AD7233C80B485B000AF7860FC
:10421C007B68FB607B6818461437BD465DF8047BF1
:10422C00704780B582B000AF78607B68184600F0AC
:10423C006EF80021786800F07BF87B681846083728
:10424C00BD4680BD80B582B000AF78607B681B68CE
:10425C00002B10D07B6859697B685B6A04331A4663
:10426C00786800F0C8F87B6819687B685B681A4648
:10427C00786800F0DBF87B681846FFF7C5FF7B68B1
:10428C0018460837BD4680BD80B582B000AF786057
:10429C0039607B6808333A681146184600F0F0F82C
:1042AC00034618460837BD4680BD80B584B000AFC4
:1042BC00F860B9607A60B86800F0F8F8034693EDDE
:1042CC00007BF7EEC77BFB68C3ED007A786800F0E3
:1042DC00EDF8034693ED007BF7EEC77BFB68C3ED6F
:1042EC00017AFB6818461037BD4680BD80B582B098
:1042FC0000AF78603960386800F0E3F8034619467F
:10430C00786800F0E9F800BF0837BD4680BD80B57D
:10431C0084B000AF78607B68FB60FB68BB607B6837
:10432C00184600F00FF97B6818461037BD4680BD63
:10433C0090B589B000AF786039600820FEF7A6FD13
:10434C0002463B68B3FBF2F30133FB610823FB60CD
:10435C00FB6902333B6107F1100207F10C031146B4
:10436C00184600F008F903461A687B685A607B68A7
:10437C005B681946786800F012F902467B681A608F
:10438C007B681A687B685968FB69CB1A5B089B00D1
:10439C001344BB61FB699B00BA6913447B617A6966
:1043AC00B969786800F037F97B680833B969184641
:1043BC0000F04CF97B6803F118027B69043B194649
:1043CC00104600F043F97B68DA687B689A607B687A
:1043DC00DC690820FEF75AFD02463B68B3FBF2F19C
:1043EC0001FB02F29B1ADB00E2187B689A6100BFAA
:1043FC002437BD4690BD80B586B000AFF860B9607B
:10440C007A60BB687B6108E07B691B681946F868B9
:10441C0000F035F97B6904337B617A697B689A42D9
:10442C00F2D300BF00BF1837BD4680BD80B58AB03F
:10443C0000AFF860B9607A6007F11003F9681846AC
:10444C0000F044F9BB687B627B683B6207F11003A8
:10445C00FB617B6ABB613B6A7B61FEF7FBFC03463D
:10446C00002B03D0B8690AF042F904E07A69B96903
:10447C00F86900F029FB00BF00BF2837BD4680BD9E
:10448C0080B586B000AF7860396007F108033A68F0
:10449C007968184600F02DF907F10803184600F06A
:1044AC003BF9034618461837BD4680BD80B483B02F
:1044BC0000AF78607B6818460C37BD465DF8047B0E
:1044CC00704780B483B000AF78607B6818460C37B7
:1044DC00BD465DF8047B7047B0B586B000AF786020
:1044EC0039607B689A697B681B6A083B9A4219D0D1
:1044FC007D687B689C69386800F01AF903467D6119
:10450C003C61FB60F86800F013F903461946386902
:10451C0000F054FA00BF7B689B6903F108027B68CA
:10452C009A6107E0386800F003F903461946786889
:10453C0000F00AF9786800F053F90346184618376A
:10454C00BD46B0BD80B582B000AF78607B680022FC
:10455C001A607B6800225A607B680833184600F0AA
:10456C0058F97B681833184600F053F97B681846E5
:10457C000837BD4680BD80B483B000AF7860396029
:10458C007B681A683B681B689A4201D23B6800E062
:10459C007B6818460C37BD465DF8047B704780B5C8
:1045AC0086B000AF7860396007F10C037968184663
:1045BC0000F08CF83B687B6107F10C033B617B6975
:1045CC00BB60FEF747FC0346002B16D0BB680022ED
:1045DC0099009B0F002B00D001220B46BB601346A9
:1045EC0003F00103DBB2002B01D00AF09AF8BB6890
:1045FC0018460AF080F8034607E0BB68002219460B
:10460C00386900F050FB034600BF00BF00BF1846DE
:10461C001837BD4680BD80B586B000AFF860B96074
:10462C007A60BB687B6108E0F86800F009F9024623
:10463C007B691A607B6904337B617A697B689A4277
:10464C00F2D300BF00BF1837BD4680BD90B583B014
:10465C0000AF786039607B683A68DA603B681A684A
:10466C007B685A607B685C6800F022F90346DB00CB
:10467C00E2187B689A6000BF0C37BD4690BD90B5C0
:10468C0089B000AF786039607C680820FEF7FEFBCB
:10469C000246FC613B68BB617A61FB693B61BB69AB
:1046AC00FB607B69BB60FEF7D5FB0346002B03D098
:1046BC00F8680AF01CF804E0BA68F968386900F088
:1046CC001CFB00BF00BF2437BD4690BD80B586B033
:1046DC0000AF78603960386800F0F2F802467B6809
:1046EC007B613A617B69FB6000BF78681837BD4617
:1046FC0080BD80B584B000AFF860B9607A60B968ED
:10470C00F86800F0E8F87968F86800F000F900BF84
:10471C00F8681037BD4680BD80B483B000AF7860B8
:10472C007B681B6818460C37BD465DF8047B7047E8
:10473C0080B483B000AF78607B6818460C37BD46F8
:10474C005DF8047B70470000B0B586B000AF7860B0
:10475C003960786800F04BF90446786800F059F934
:10476C0003469C420CBF01230023DBB2002B02D07A
:10477C001A4809F0D9FF0121786800F05BF97A68D2
:10478C007B685B6A1C1D104600F05AF803462360D8
:10479C007D687B689C693868FFF7CAFF03467D61BA
:1047AC003C61FB60F868FFF7C3FF034619463869A4
:1047BC0000F004F900BF7B6803F118027B685B6AA8
:1047CC00043319461046FFF741FF7B68DA697B68B2
:1047DC009A6100BF1837BD46B0BD00BFECED0008B4
:1047EC0080B586B000AF786007F108037968184689
:1047FC0000F03BF907F10803184600F045F907F102
:10480C0008031846FFF788FF034618461837BD46BD
:10481C0080BD80B483B000AF78607B6800221A60E2
:10482C007B6800225A607B6800229A607B680022B9
:10483C00DA607B6818460C37BD465DF8047B704720
:10484C0090B587B000AF78607C680820FEF71EFB3F
:10485C0003467C613B617B69FB603B69BB60FEF797
:10486C00F9FA0346002B16D0BB680022D9005B0F67
:10487C00002B00D001220B46BB60134603F0010352
:10488C00DBB2002B01D009F04CFFBB68184609F0D5
:10489C0032FF034607E0BB6800221946F86800F0B7
:1048AC007FFA034600BF00BF18461C37BD4690BDBB
:1048BC0080B500AF0820FEF7E9FA0346184680BD24
:1048CC0080B483B000AF78607B6818460C37BD4667
:1048DC005DF8047B704780B483B000AF78603960BA
:1048EC003B681A687B681A603B685A687B685A6038
:1048FC003B689A687B689A603B68DA687B68DA6028
:10490C007B6818460C37BD465DF8047B704790B544
:10491C0085B000AF786039607B681A687B685B682B
:10492C00D31ADB101A463B681344FB60FB68002B60
:10493C0008DBFFF7BDFF03461A46FB68934201DA1A
:10494C00012300E00023002B07D07B681A683B682A
:10495C00DB001A447B681A602BE0FB68002B07DD38
:10496C00FFF7A6FF03461A46FB6893FBF2F307E03A
:10497C00FB68DC43FFF79CFF0346B4FBF3F3DB431C
:10498C00BB607B68DA68BB689B0013441946786887
:10499C00FFF75CFE7B685C68FFF78AFF03461A46EC
:1049AC00BB6802FB03F3FA68D31ADB00E2187B68DE
:1049BC001A607B6818461437BD4690BD90B583B01D
:1049CC0000AF786039607B6819460820FEF752FA10
:1049DC0004463868FFF7ACFE0246234692E8030013
:1049EC0083E80300234618460C37BD4690BD80B5BE
:1049FC0082B000AF78607B6803F118027B680833E3
:104A0C001946104600F06FF8034618460837BD46A5
:104A1C0080BD80B582B000AF78607B681846FFF728
:104A2C004FFF0346184600F08AF80346184608372D
:104A3C00BD4680BD80B582B000AF786039603B6800
:104A4C005A1C7B685B687968486A79680968411AFE
:104A5C0089105B1A9A4204D900223968786800F0F0
:104A6C0088F800BF0837BD4680BD80B582B000AF66
:104A7C00786039603B68183319467868FFF72BFF6C
:104A8C0078680837BD4680BD80B582B000AF7860CD
:104A9C007B681A687B685B689A420AD17B68DB6822
:104AAC00043B19467868FFF7D1FD7B689A687B68F0
:104ABC001A607B681B68A3F108027B681A607B682C
:104ACC0018460837BD4680BD80B584B000AFF8608D
:104ADC00B9607A607B689B001946B86809F009FEDA
:104AEC001037BD4680BD80B582B000AF78603960AC
:104AFC00FFF7DEFE034619467B68DA683B68DB6825
:104B0C00D31A9B101A467B68DB68002B14BF012359
:104B1C000023DBB2D31A01FB03F37A6811687A68BD
:104B2C0052688A1AD21013443A6891683A6812682B
:104B3C008A1AD210134418460837BD4680BD80B57A
:104B4C0086B000AF78606FF000433B617B687B619F
:104B5C006FF06043FB6007F10C0207F11003114684
:104B6C00184600F0D9F803461B6818461837BD469E
:104B7C0080BD90B58BB000AFF860B9601346FB7187
:104B8C00FB685A6AFB685B69D31A9B1001333B6262
:104B9C00BB683A6A1344FB61FB685A68FB695B00AB
:104BAC009A422DD9FB681A68FB685968FB69CB1AC5
:104BBC005B089900FB79002B02D0BB689B0000E0DE
:104BCC0000230B4413447B62FB685B697A6A9A424C
:104BDC0009D2FB685869FB685B6A04337A6A194628
:104BEC0000F0AEF848E0FB685869FB685B6A191D79
:104BFC003B6A9B007A6A13441A4600F0B9F83BE012
:104C0C00FB685C68FB68043307F108021146184620
:104C1C00FFF7B1FC03461B6823440233BB61FB68FE
:104C2C00B9691846FFF7BBFC7861BA69FB69D31AFE
:104C3C005B089A00FB79002B02D0BB689B0000E05C
:104C4C00002313447A6913447B62FB685869FB6840
:104C5C005B6A04337A6A194600F072F8F868FB68EC
:104C6C001968FB685B681A46FFF7E0FBFB687A691A
:104C7C001A60FB68BA695A60FB680833796A18468F
:104C8C00FFF7E4FCFB6803F118003A6A6FF040434D
:104C9C0013449B007A6A13441946FFF7D7FC00BFF4
:104CAC002C37BD4690BD80B586B000AFF860B960BA
:104CBC007A60FB687B616FF06042BB6893428CBF8B
:104CCC0001230023DBB2002B14BF01230023DBB232
:104CDC00002B07D0BB68B3F1804F01D309F021FD45
:104CEC0009F01CFDBB689B00184609F004FD034647
:104CFC0000BF18461837BD4680BD80B584B000AFE4
:104D0C00F860B9607A607B68DB001946B86809F016
:104D1C00F0FC1037BD4680BD80B483B000AF786026
:104D2C0039603B681A687B681B689A4201D23B6801
:104D3C0000E07B6818460C37BD465DF8047B704775
:104D4C0090B585B000AFF860B9607A60F86800F093
:104D5C0051F80446B86800F04DF803467A681946D5
:104D6C00204600F052F8034618461437BD4690BD55
:104D7C0090B585B000AFF860B9607A60F86800F063
:104D8C0039F80446B86800F035F803467A681946D5
:104D9C00204600F05DF8034618461437BD4690BD1A
:104DAC0080B586B000AFF860B9607A60FB687B6153
:104DBC006FF07042BB6893428CBF01230023DBB2BF
:104DCC00002B14BF01230023DBB2002B07D0BB68E0
:104DDC00B3F1005F01D309F0A4FC09F09FFCBB68A0
:104DEC00DB00184609F087FC034600BF184618374D
:104DFC00BD4680BD80B483B000AF78607B68184638
:104E0C000C37BD465DF8047B7047B0B584B000AF7D
:104E1C00F860B9607A60F86800F03DF80446B8684C
:104E2C0000F039F805467B68184600F034F8034664
:104E3C001A462946204600F039F802463B1D114619
:104E4C00184600F043F8034618461037BD46B0BD6F
:104E5C00B0B584B000AFF860B9607A60F86800F063
:104E6C001AF80446B86800F016F805467B68184630
:104E7C0000F011F803461A462946204600F032F895
:104E8C0002463B1D1146184600F020F80346184612
:104E9C001037BD46B0BD80B483B000AF78607B687E
:104EAC0018460C37BD465DF8047B704780B584B05E
:104EBC0000AFF860B9607A607A68B968F86800F099
:104ECC0021F8034618461037BD4680BD80B483B028
:104EDC0000AF786039603B6818460C37BD465DF80A
:104EEC00047B704780B584B000AFF860B9607A601D
:104EFC007A68B968F86800F022F80346184610374B
:104F0C00BD4680BD80B584B000AFF860B9607A60F2
:104F1C00FDF7A8FF0346002B06D07A68B968F8683D
:104F2C0000F02AF8034606E07A68B968F86800F0E1
:104F3C0046F8034600BF18461037BD4680BD80B505
:104F4C0084B000AFF860B9607A60FDF78BFF034660
:104F5C00002B06D07A68B968F86800F05AF8034656
:104F6C0006E07A68B968F86800F076F8034600BF86
:104F7C0018461037BD4680BD80B487B000AFF860CE
:104F8C00B9607A60BA68FB68D31A9B107B610CE03D
:104F9C00FB681A687B681A60FB680433FB607B68EB
:104FAC0004337B607B69013B7B617B69002BEFDC0D
:104FBC007B6818461C37BD465DF8047B704780B58E
:104FCC0086B000AFF860B9607A60BA68FB68D31A33
:104FDC009B107B617B69012BCCBF01230023DBB2CF
:104FEC00002B07D07B699B001A46F968786809F09A
:104FFC00A1FC06E07B69012B03D1F968786800F00D
:10500C005CF87B699B007A68134418461837BD46D8
:10501C0080BD80B487B000AFF860B9607A60BA68C0
:10502C00FB68D31A9B107B610CE0BB68043BBB6034
:10503C00BB681A687B68043B7B607B681A607B6981
:10504C00013B7B617B69002BEFDC7B6818461C37CE
:10505C00BD465DF8047B704780B586B000AFF86044
:10506C00B9607A60BA68FB68D31A9B107B617B6964
:10507C00012BCCBF01230023DBB2002B0BD07B69AF
:10508C009B005B427A68D0187B699B001A46F968D2
:10509C0009F050FC08E07B69012B05D17B68043BCF
:1050AC00F968184600F009F87B699B005B427A6846
:1050BC00134418461837BD4680BD80B483B000AF8A
:1050CC00786039603B681A687B681A6000BF0C37DF
:1050DC00BD465DF8047B7047F8B500AF182009F0A9
:1050EC000AFB03461C462046FDF7E6FE3F4B1C60C0
:1050FC00182009F000FB03461C462046FDF700FF74
:10510C003B4B1C60182009F0F6FA03461C4620465F
:10511C00FDF7F6FE374B1C603C2009F0ECFA034619
:10512C001C462046FDF70AFF334B1C60C82009F0D3
:10513C00F3FA03461C4620232360231D06221A6023
:10514C0004F1080305251E4604E03046FEF742F83C
:10515C00013D2036002DF8DA04F10803274A1360CC
:10516C00482009F0C8FA03461C462046FDF7E3FF29
:10517C00234B1C60242009F0BEFA03461C46204633
:10518C00FDF720FD1F4B1C60242009F0B4FA0346E8
:10519C001C462046FDF716FD1B4B1C60242009F015
:1051AC00AAFA03461C462046FDF70CFD174B1C6063
:1051BC00242009F0A0FA03461C462046FDF702FD08
:1051CC00134B1C60242009F096FA03461C4620461B
:1051DC00FDF7F8FC0F4B1C600F48FEF720F80F4A48
:1051EC000F490D4809F07EFA00BFF8BDF805002004
:1051FC00FC05002000060020040600200806002004
:10520C000C060020100600201406002018060020B2
:10521C001C06002020060020640600200000002050
:10522C003152000880B58AB000AF786007F10803EE
:10523C007968184600F01BF807F1180379681846CE
:10524C00FFF713FC7B68184600F020F8034607F1C3
:10525C00180207F10801786800F023F87B681846FB
:10526C00FEF7F0FF7B6818462837BD4680BD80B539
:10527C0082B000AF786039603B68083319467868B3
:10528C00FFF729FB78680837BD4680BD80B483B032
:10529C0000AF78607B6818460C37BD465DF8047B20
:1052AC00704780B48DB000AFF860B9607A603B6035
:1052BC0000BF3437BD465DF8047B704780B500AF46
:1052CC00FFF70AFF80BD000080B489B000AF002357
:1052DC007B610023BB7400237B740023BB610EE055
:1052EC00394ABB6908335B0013449A88BB695B007D
:1052FC0020333B4423F8202CBB690133BB61BB69D1
:10530C00062BEDDD3B88C3F30B039BB23B800023E4
:10531C00FB810023FB613AE0FB69002B03F00103E6
:10532C00B8BF5B42012B0BD1FB695B105B002033D8
:10533C003B4433F8203CDBB27A6953407B610CE090
:10534C00FB695B105B0020333B4433F8203C1B0AA9
:10535C009BB21A467B6953407B610823FB7410E0B7
:10536C007B6903F40043002B05D07B695B0083F45D
:10537C0040537B6102E07B695B007B61FB7C013B02
:10538C00FB74FB7C002BEBD1FB690133FB61FB69EC
:10539C000F2BC1DD7B691B0B03F00F037B617B695A
:1053AC00BB74094B9B8A1B0B9BB27B74BA7C7B7CBA
:1053BC009A4201D1012300E0002318462437BD4650
:1053CC005DF8047B704700BF8C06002080B584B06C
:1053DC0002AF0023FB711E23BB71BA1D42F2107386
:1053EC0000930123EC21204801F052F8142000F026
:1053FC0045FC0023FB712AE0FB795033DBB25B00E8
:10540C00DBB2BB71BA1D42F2107300930123EC2185
:10541C00154801F03DF83A1D42F210730093022337
:10542C00ED21114801F04CF93B791BB21B021AB269
:10543C007B791BB213431AB2FB7991B20B4A083336
:10544C005B0013440A469A80FB790133FB71FB79AC
:10545C00062BD1D9FFF738FF0346002BFAD00123D6
:10546C0018460837BD4680BD840000208C060020FD
:10547C002DE9B04FD0B000AF0023C7F830314FF05A
:10548C0000024FF00003C7E94A234FF000024FF02F
:10549C000003C7E948230023C7F83C310023C7F8B1
:1054AC0038310023C7F834314FF000024FF00003BD
:1054BC00C7E946234FF000024FF00003C7E944232D
:1054CC00DA4B1A69D94BDB8B1B02D31AC7F8303174
:1054DC00D64BDB8A9BB20022184611464FF00004D3
:1054EC004FF00005CD0345EA5045C403CF4B5B8B11
:1054FC009BB200229A469346D7F83031DA17984679
:10550C00914608FB0BF20AFB09F31344AAFB0812A1
:10551C00C7F80C210A46C7F80821D7F80C21134408
:10552C00C7F80C31D7E94223002B07DA12F1FF013F
:10553C00396643F100037B66D7E918234FF000006E
:10554C004FF00001100A40EA0360191202460B46A4
:10555C00A118B96545EB0303FB65D7E91634C7E918
:10556C004A34B24B1B8B9BB20022C7F8D830C7F819
:10557C00DC204FF000044FF00005D7E9361213463B
:10558C001D040B4645EA13450B461C04A74B9B8B8D
:10559C009BB20022C7F8D030C7F8D420D7F83031EE
:1055AC00DA17C7F8C830C7F8CC20D7E934894B468E
:1055BC00D7E932AB524602FB03F25B46414601FB94
:1055CC0003F3134442465146A2FB0112C7F80421CF
:1055DC000A46C7F80021D7F804211344C7F8043150
:1055EC00D7E94023002B07DA12F17F01396543F12B
:1055FC0000037B65D7E914234FF000004FF0000146
:10560C00D00940EA4360D91102460B46A118B9648F
:10561C0045EB0303FB64D7E91234C7E94834834BE9
:10562C00DB680022C7F8C030C7F8C420D7F828318F
:10563C00D7E930452A4602FB03F2D7F82C31214634
:10564C0001FB03F31A44D7F828312146A3FB0113BD
:10565C00C7F8FC300B46C7F8F830D7F8FC30D31835
:10566C00C7F8FC30D7E93E23002B07DA70495118F4
:10567C00396443F100037B64D7E910234FF0000039
:10568C004FF00001500D40EAC3205915D7E94823CB
:10569C00841AC7F8B84061EB0303C7F8BC30D7E9EC
:1056AC002E23002B08DA41F6FF715118B96343F130
:1056BC000003FB63D7E90E234FF000004FF000010D
:1056CC00500B40EAC340591302460B46574B9A60A5
:1056DC00D7F83031DA17C7F8B030C7F8B420534BCD
:1056EC001B8C9BB20022C7F8A830C7F8AC20D7E9B6
:1056FC002C452B46D7E92A89424602FB03F24B463E
:10570C00214601FB03F3134422464146A2FB01123E
:10571C00C7F8F4200A46C7F8F020D7F8F420134451
:10572C00C7F8F430D7E93C23002B07DA414951186C
:10573C00396343F100037B63D7E90C234FF000007E
:10574C004FF00001D00D40EA4320D91502460B461C
:10575C00134603F5FA631A46344B5A60334B5B68B5
:10576C00B3F5FA6F7FDAD7F83031DA17C7F8A03013
:10577C00C7F8A420D7F83031DA17C7F89830C7F833
:10578C009C20D7E928452B46D7E92689424602FBBF
:10579C0003F24B46214601FB03F3134422464146D8
:1057AC00A2FB0112C7F8EC200A46C7F8E820D7F88C
:1057BC00EC201344C7F8EC30D7E93A4522462B4687
:1057CC009118B9625B41FB62D7E90A232146511853
:1057DC00C7F89010294643EB0101C7F89410D7E99C
:1057EC002423002B06DA511E396243F101037B623C
:1057FC00D7E908234FF000004FF000015810D917DB
:10580C0002460B461346C7F83431084B5B68A3F5C8
:10581C00FA62064B5B68A3F5FA6303FB02F21346CC
:10582C005B001344002B07DA013305E08C060020E3
:10583C00FFFF1F00FFFF7F005B10C7F83831654B7F
:10584C005B68A3F5FA62634B5B68A3F5FA6303FB31
:10585C0002F213469B001344002B00DA0733DB10D3
:10586C00C7F83C3137E05B4B5B68B3F5FA6F32DB62
:10587C00D7F8303103FB03F35B00DA17C7F8883035
:10588C00C7F88C20D7E92223002B06DA511EB96108
:10589C0043F11F03FB61D7E906234FF000004FF0E3
:1058AC0000015811D91702460B461346C7F834317C
:1058BC00484B5B68A3F5FA62464B5B68A3F5FA6349
:1058CC0002FB03F3002B00DA0F331B11C7F838313E
:1058DC000023C7F83C31D7F83831DA17C7F88030D5
:1058EC00C7F88420D7E94823D7E920452146511A27
:1058FC003961294663EB01037B61D7E90434C7E9BD
:10590C004634D7F83C31DA17BB67FA67D7E94A2334
:10591C00D7E91E452146511AB960294663EB0103AC
:10592C00FB60D7E90234C7E944342A4B5A68D7F8EC
:10593C003431D31A274A5360264BDB6800223B676D
:10594C007A67D7F81031D7E91C452A4602FB03F2D7
:10595C00D7F81431214601FB03F31344D7F8102177
:10596C002146A2FB0112C7F8E4200A46C7F8E02042
:10597C00D7F8E4201344C7F8E430D7E93823002BD8
:10598C0007DA15495118396043F100037B60D7E9F8
:10599C0000234FF000004FF00001500D40EAC320EF
:1059AC005915D7E94623841ABC6661EB0303FB66E1
:1059BC004FF4A0324FF00003D7E91A01FAF780FC3C
:1059CC0002460B46034B9A6000BF07F5A077BD4615
:1059DC00BDE8B08F8C060020FFFF1F0080B584B09F
:1059EC0002AF4423FB71FA1D42F2107300930123A2
:1059FC00EC212B4800F04CFD032000F03FF9002374
:105A0C00FB71FA1D42F2107300930123EC21244820
:105A1C0000F03EFD3A1D42F2107300930323ED217A
:105A2C001F4800F04DFE3B791A047B791B0213438F
:105A3C00BA7913431A461B4BDA605423FB71FA1DD7
:105A4C0042F2107300930123EC21154800F020FD65
:105A5C00032000F013F90023FB71FA1D42F21073BE
:105A6C0000930123EC210E4800F012FD3A1D42F286
:105A7C00107300930323ED21094800F021FE3B79BC
:105A8C001A047B791B021343BA7913431A46054B4C
:105A9C001A61FFF7EDFC00BF0837BD4680BD00BFA3
:105AAC00840000208C06002080B500AFFFF796FF25
:105ABC00104B9B6807EE903AF8EEE77A9FED0E7A62
:105ACC0067EE877A0D4BC3ED027A0A4B5B6807EEE3
