:020000040800F2
:10000000000002208D5F000811090008190900088E
:100010002109000829090008310900080000000032
:100020000000000000000000000000003909000886
:10003000470900080000000055090008630900088E
:10004000E15F0008E15F0008E15F0008E15F000890
:10005000E15F0008E15F0008E15F0008E15F000880
:10006000E15F0008E15F0008E15F0008E15F000870
:10007000E15F0008E15F0008E15F0008E15F000860
:10008000E15F0008E15F0008E15F0008E15F000850
:10009000E15F0008E15F0008E15F0008E15F000840
:1000A000E15F0008E15F0008E15F0008E15F000830
:1000B000E15F0008E15F0008E15F0008E15F000820
:1000C000E15F0008E15F0008E15F0008E15F000810
:1000D000E15F00087109000885090008E15F000878
:1000E000E15F0008E15F000800000000E15F000838
:1000F000E15F0008E15F0008E15F0008E15F0008E0
:10010000E15F0008E15F0008E15F0008E15F0008CF
:1001100099090008AD090008C1090008E15F00085D
:10012000E15F0008E15F0008E15F0008E15F0008AF
:10013000E15F0008E15F0008E15F0008E15F00089F
:1001400000000000000000000000000000000000AF
:10015000E15F0008E15F0008E15F0008D5090008E1
:10016000E15F0008E15F0008E15F0008E15F00086F
:10017000E15F0008E15F0008E15F000800000000A7
:10018000E15F0008E15F0008E15F0008E15F00084F
:10019000E15F0008E15F0008E15F0008E15F00083F
:1001A000E15F0008E15F0008E15F00080000000077
:1001B000E15F0008E15F0008E15F0008E15F00081F
:1001C000E15F0008E15F000800000000000000009F
:1001D0000000000000000000E15F000800000000D7
:1001E000000000000000000000000000000000000F
:1001F0000000000000000000E15F0008E15F00086F
:10020000E15F0008E15F000800000000E15F000816
:10021000E15F0008E15F0008E15F0008E15F0008BE
:10022000E15F000800000000E15F0008000000003E
:10023000E15F0008E15F000800000000E15F0008E6
:10024000E15F0008E15F0008E15F0008E15F00088E
:10025000E15F0008E15F0008E15F0008E15F00087E
:10026000E15F0008E15F0008E15F0008E15F00086E
:10027000E15F0008E15F0008E15F000800000000A6
:10028000E15F0008E15F0008E15F0008E15F00084E
:1002900000000000E15F0008E15F000800000000CE
:1002A00000000000E15F0008E15F0008E15F000876
:1002B000E15F0008E15F0008E15F0008E15F00081E
:0C02C000E15F0008E15F0008E15F00085A
:1002CC007BB972B90029BEBF00204FF0004106E097
:1002DC0008BF00281CBF6FF000414FF0FF3000F04A
:1002EC0057B8ADF1080C6DE904CE002909DB002BE1
:1002FC001ADB0EF04BFEDDF804E0DDE9022304B05E
:10030C007047404261EB4101002B1BDB0EF03EFEBF
:10031C00DDF804E0DDE9022304B0404261EB410169
:10032C00524263EB43037047524263EB43030EF0BC
:10033C002DFEDDF804E0DDE9022304B0404261EB60
:10034C0041017047524263EB43030EF01FFEDDF890
:10035C0004E0DDE9022304B0524263EB430370472F
:10036C0053B94AB9002908BF00281CBF4FF0FF3110
:10037C004FF0FF3000F00CB8ADF1080C6DE904CE75
:10038C000EF004FEDDF804E0DDE9022304B0704752
:10039C00704700BF0348044B834202D0034B03B1A8
:1003AC00184770476800002068000020000000001B
:1003BC000548064B1B1AD90F01EBA301491002D0BB
:1003CC00034B03B1184770476800002068000020F9
:1003DC000000000010B5064C237843B9FFF7DAFF94
:1003EC00044B13B10448AFF300800123237010BDFC
:1003FC00680000200000000054F2000808B5054B0E
:10040C001BB105490548AFF30080BDE80840FFF774
:10041C00CFBF00BF000000006C00002054F20008A9
:10042C0080B58EB000AF07F1240300221A605A6029
:10043C009A60DA601A61664BD3F8E030644A43F094
:10044C000403C2F8E030624BD3F8E03003F004034D
:10045C003B623B6A5E4BD3F8E0305D4A43F080036D
:10046C00C2F8E0305A4BD3F8E03003F08003FB6164
:10047C00FB69574BD3F8E030554A43F00103C2F8FF
:10048C00E030534BD3F8E03003F00103BB61BB69A0
:10049C004F4BD3F8E0304E4A43F00203C2F8E03041
:1004AC004B4BD3F8E03003F002037B617B69484B84
:1004BC00D3F8E030464A43F02003C2F8E030444B16
:1004CC00D3F8E03003F020033B613B69404BD3F899
:1004DC00E0303F4A43F01003C2F8E0303C4BD3F815
:1004EC00E03003F01003FB60FB68394BD3F8E030CD
:1004FC00374A43F00803C2F8E030354BD3F8E0300C
:10050C0003F00803BB60BB68314BD3F8E030304AD2
:10051C0043F04003C2F8E0302D4BD3F8E03003F049
:10052C0040037B607B6800224FF40C51294806F095
:10053C0039F900220321284806F034F900224FF43F
:10054C000041264806F02EF900221821244806F016
:10055C0029F94FF40C537B620123BB620223FB622B
:10056C0000233B6307F1240319461A4805F072FF78
:10057C0003237B620123BB620223FB6200233B63E8
:10058C0007F124031946144805F064FF4FF40043A7
:10059C007B620123BB620223FB6200233B6307F1F6
:1005AC00240319460D4805F055FF18237B620123DF
:1005BC00BB620223FB6200233B6307F12403194651
:1005CC00074805F047FF00BF3837BD4680BD00BF68
:1005DC000044025800080258000402580010025847
:1005EC00000C025880B500AF1B4B1C4A1A601A4B0A
:1005FC001B4A5A60184B00229A60174B0122DA6092
:10060C00154B00221A61144B00225A61124B002226
:10061C009A61114B0022DA610F4B00221A620E48CC
:10062C0006F0DAF80346002B01D000F04BF900215C
:10063C00094806F021FE0346002B01D000F042F9D8
:10064C000021054806F063FE0346002B01D000F0A4
:10065C0039F900BF80BD00BF840000200054004069
:10066C00724E406080B5B8B000AF786007F1CC0333
:10067C0000221A605A609A60DA601A6107F110035E
:10068C00B822002118460EF0AFFB7B681B68264A87
:10069C00934245D14FF008024FF00003C7E9042301
:1006AC000023C7F8903007F11003184607F01CFE22
:1006BC000346002B01D000F005F91C4BD3F8E030B9
:1006CC001A4A43F00203C2F8E030184BD3F8E0307A
:1006DC0003F00203FB60FB68C023C7F8CC30122385
:1006EC00C7F8D0300023C7F8D4300023C7F8D8306F
:1006FC000423C7F8DC3007F1CC0319460C4805F08D
:10070C00A9FE0A4BD3F8E830084A43F40013C2F8A8
:10071C00E830064BD3F8E83003F40013BB60BB6839
:10072C0000BFE037BD4680BD005400400044025875
:10073C000004025880B500AF00F098F805F04CFCAE
:10074C0000F026F8FFF76CFEFFF74CFF00F048FFB7
:10075C0000F01CFD00F0DCFF00F07EFB01F024F843
:10076C0000F08AFF01F06CF800F03AFA00F0ECFBB4
:10077C0000F0D4FC00F0EEFA00F080FC02F0C2FDB8
:10078C00024809F071FC00BFFDE700BF58020020D1
:10079C0080B59CB000AF07F124034C220021184611
:1007AC000EF022FB3B1D2022002118460EF01CFBF4
:1007BC00022006F0F9FD00233B602B4B9B692A4A73
:1007CC0023F440439361284B9B6903F440433B6003
:1007DC003B6800BF244B9B6903F40053B3F5005FE7
:1007EC00F8D101237B624FF48033BB620223BB64DC
:1007FC000223FB6402233B652C237B650123BB6531
:10080C000223FB6502233B660C237B660023BB663D
:10081C000023FB6607F12403184606F0FFFD034690
:10082C00002B01D000F04EF83F237B600323BB600C
:10083C000023FB6008233B6140237B614023BB61A9
:10084C004FF48063FB6140233B623B1D0321184640
:10085C0007F0BEF90346002B01D000F033F800BFBF
:10086C007037BD4680BD00BF0048025880B584B0CB
:10087C0000AF3B4600221A605A609A60DA6005F0BD
:10088C0071FD01233B7000237B7000237B601F23D1
:10089C003B7287237B720023BB720023FB72012304
:1008AC003B7301237B730023BB730023FB733B4619
:1008BC00184605F08FFD042005F06CFD00BF1037C5
:1008CC00BD4680BD80B400AF72B600BF00BFFDE76F
:1008DC0080B483B000AF0A4BD3F8F430084A43F02D
:1008EC000203C2F8F430064BD3F8F43003F00203E1
:1008FC007B607B6800BF0C37BD465DF8047B70479E
:10090C000044025880B400AF00BFFDE780B400AFD4
:10091C0000BFFDE780B400AF00BFFDE780B400AFBF
:10092C0000BFFDE780B400AF00BFFDE780B400AFAF
:10093C0000BFBD465DF8047B704780B400AF00BFBC
:10094C00BD465DF8047B704780B400AF00BFBD4668
:10095C005DF8047B704780B500AF05F0AFFB00BFBE
:10096C0080BD000080B500AF02480AF073FF00BFE5
:10097C0080BD00BF1804002080B500AF02480AF00B
:10098C0069FF00BF80BD00BFAC04002080B500AF84
:10099C0002480AF05FFF00BF80BD00BFF0020020DC
:1009AC0080B500AF02480AF055FF00BF80BD00BF04
:1009BC008403002080B500AF024809F059FD00BF48
:1009CC0080BD00BF5802002080B500AF02480AF07D
:1009DC0041FF00BF80BD00BF4005002080B400AFC8
:1009EC0001231846BD465DF8047B704780B582B084
:1009FC0000AF786039600EF053FA034616221A6085
:100A0C004FF0FF3318460837BD4680BD80B582B025
:100A1C0000AF78604FF0FF317868FFF7E7FF00BF59
:100A2C00FDE7000080B586B000AF7860144A154B26
:100A3C00D31A7B617B693B61134B1B68002B02D182
:100A4C00114B124A1A60104B1A687B6813443A69AE
:100A5C009A4207D20EF024FA03460C221A604FF089
:100A6C00FF3309E0084B1B68FB60074B1A687B6877
:100A7C001344054A1360FB6818461837BD4680BD01
:100A8C000000022000040000D800002020080020F4
:100A9C0080B400AF3E4BD3F888303D4A43F470032A
:100AAC00C2F888303B4B1B6803F00F03062B07D8AA
:100ABC00384B1B6823F00F03364A43F007031360CF
:100ACC00354B1B68344A43F001031360324B002250
:100ADC001A61314B1A683049304B13400B602D4B67
:100AEC001B6803F00803002B07D02A4B1B6823F06C
:100AFC000F03284A43F007031360274B00229A6127
:100B0C00254B0022DA61244B00221A62224B244A24
:100B1C009A62214B234ADA621F4B234A1A631E4BFB
:100B2C0000225A631C4B204A9A631B4B0022DA6347
:100B3C00194B1D4A1A64184B00225A64164B1B6839
:100B4C00154A23F480231360134B00221A66124BB0
:100B5C00D3F8D43003F48053002B13D10E4BD3F8BD
:100B6C00D4300D4A43F48053C2F8D4300F4B43F2C7
:100B7C00D2021A60084BD3F8D430074A23F48053BE
:100B8C00C2F8D43000BFBD465DF8047B704700BF8F
:100B9C0000ED00E000200052004402587FEDF6EA20
:100BAC00000202020000FF0180020101004000521D
:100BBC0080B400AF094BDB68084A43F00203D360F2
:100BCC0000BF064B5B6803F40053002BF9D000BF49
:100BDC0000BFBD465DF8047B704700BF004802585B
:100BEC0080B59CB000AF07F1600300221A605A6018
:100BFC009A60DA6007F1540300221A605A609A6016
:100C0C0007F1380300221A605A609A60DA601A61A0
:100C1C005A619A613B1D3422002118460EF0E4F80B
:100C2C004A4B4B4A1A60494B4FF489725A60474BF6
:100C3C0000229A60454B44F61F62DA60434B002257
:100C4C001A61424B00225A61404B00229A613F4884
:100C5C0009F00CF90346002B01D0FFF733FE4FF4DB
:100C6C0080533B6607F160031946384809F01CFEB7
:100C7C000346002B01D0FFF725FE344809F07AFA21
:100C8C000346002B01D0FFF71DFE00237B650023DC
:100C9C00BB650023FB6507F1540319462B480AF08A
:100CAC0069FB0346002B01D0FFF70CFE6023BB63EE
:100CBC000023FB6300233B6400237B640023BB64A1
:100CCC000023FB6400233B6507F138030822194617
:100CDC001E4809F0D5FC0346002B01D0FFF7F2FDAE
:100CEC0007F138030C221946184809F0C9FC0346D1
:100CFC00002B01D0FFF7E6FD00237B600023BB60D7
:100D0C000023FB6000233B6100237B614FF4005305
:100D1C00BB610023FB6100237B624FF00073BB625D
:100D2C000023FB6200237B633B1D194607480AF036
:100D3C00BDFB0346002B01D0FFF7C4FD034800F0B8
:100D4C006FFB00BF7037BD4680BD00BFDC000020CC
:100D5C000000014080B58EB000AF07F128030022DF
:100D6C001A605A609A60DA6007F11C0300221A605C
:100D7C005A609A603B4600221A605A609A60DA60A8
:100D8C001A615A619A61334B4FF080421A60314BB1
:100D9C004FF489725A602F4B00229A602D4B6322BC
:100DAC00DA602C4B00221A612A4B00229A612948E6
:100DBC0009F05CF80346002B01D0FFF783FD4FF4DC
:100DCC008053BB6207F128031946224809F06CFDD9
:100DDC000346002B01D0FFF775FD1E4809F0CAF938
:100DEC000346002B01D0FFF76DFD0023FB610023B0
:100DFC007B6207F11C03194616480AF0BBFA03463E
:100E0C00002B01D0FFF75EFD60233B6000237B606D
:100E1C000023BB6000233B613B46042219460D486E
:100E2C0009F02EFC0346002B01D0FFF74BFD3B468F
:100E3C0008221946074809F023FC0346002B01D071
:100E4C00FFF740FD034800F0EBFA00BF3837BD4612
:100E5C0080BD00BF2801002080B58EB000AF07F127
:100E6C00280300221A605A609A60DA6007F11C03AA
:100E7C0000221A605A609A603B4600221A605A603F
:100E8C009A60DA601A615A619A612D4B2D4A1A6088
:100E9C002B4B4FF489725A60294B00229A60284BD5
:100EAC004FF6FF72DA60264B00221A61244B0022A7
:100EBC009A61234808F0DAFF0346002B01D0FFF7B4
:100ECC0001FD4FF48053BB6207F1280319461C48FF
:100EDC0009F0EAFC0346002B01D0FFF7F3FC18489D
:100EEC0009F048F90346002B01D0FFF7EBFC002377
:100EFC00FB6100237B6207F11C03194610480AF0C2
:100F0C0039FA0346002B01D0FFF7DCFC60233B6071
:100F1C0000237B600023BB6000233B613B46002227
:100F2C001946074809F0ACFB0346002B01D0FFF72C
:100F3C00C9FC034800F074FA00BF3837BD4680BDC9
:100F4C00740100200004004080B58EB000AF07F1A2
:100F5C00280300221A605A609A60DA6007F11C03B9
:100F6C0000221A605A609A603B4600221A605A604E
:100F7C009A60DA601A615A619A613E4B3E4A1A6075
:100F8C003C4B4FF489725A603A4B00229A60394BB1
:100F9C0044F61F62DA60374B00221A61354B00228F
:100FAC009A61344808F062FF0346002B01D0FFF72A
:100FBC0089FC4FF48053BB6207F1280319462D4876
:100FCC0009F072FC0346002B01D0FFF77BFC29488B
:100FDC0009F0D0F80346002B01D0FFF773FC002377
:100FEC00FB6100237B6207F11C03194621480AF0C0
:100FFC00C1F90346002B01D0FFF764FC60233B6072
:10100C0000237B600023BB6000233B613B46002236
:10101C001946184809F034FB0346002B01D0FFF7A2
:10102C0051FC3B4604221946124809F029FB0346A1
:10103C00002B01D0FFF746FC3B46082219460D4811
:10104C0009F01EFB0346002B01D0FFF73BFC3B468F
:10105C000C221946074809F013FB0346002B01D05C
:10106C00FFF730FC034800F0DBF900BF3837BD4612
:10107C0080BD00BFC00100200008004080B588B0D2
:10108C0000AF07F1100300221A605A609A60DA6010
:10109C003B1D00221A605A609A601E4B1E4A1A6051
:1010AC001C4B4FF489725A601A4B00229A60194BF0
:1010BC004FF0FF32DA60174B00221A61154B0022F9
:1010CC009A61144808F0D2FE0346002B01D0FFF7BA
:1010DC00F9FB4FF480533B6107F1100319460D489F
:1010EC0009F0E2FB0346002B01D0FFF7EBFB0023DA
:1010FC007B600023FB603B1D194606480AF03AF959
:10110C000346002B01D0FFF7DDFB00BF2037BD46A7
:10111C0080BD00BF0C020020000C004080B584B0E4
:10112C0000AF3B1D00221A605A609A60154B164A9C
:10113C001A60144B4FF489725A60124B00229A6059
:10114C00104B42F20F72DA600E4B00229A610D487E
:10115C0008F08CFE0346002B01D0FFF7B3FB0023F5
:10116C007B600023FB603B1D194606480AF002F920
:10117C000346002B01D0FFF7A5FB00BF1037BD467F
:10118C0080BD00BF580200200010004080B58EB01A
:10119C0000AF07F1280300221A605A609A60DA60E7
:1011AC0007F11C0300221A605A609A603B46002229
:1011BC001A605A609A60DA601A615A619A613E4B01
:1011CC003E4A1A603C4B4FF489725A603A4B0022EB
:1011DC009A60394B44F61F62DA60374B00221A6171
:1011EC00354B00229A61344808F040FE0346002B30
:1011FC0001D0FFF767FB4FF48053BB6207F1280364
:10120C0019462D4809F050FB0346002B01D0FFF77F
:10121C0059FB294808F0AEFF0346002B01D0FFF71D
:10122C0051FB0023FB6100237B6207F11C03194671
:10123C0021480AF09FF80346002B01D0FFF742FB30
:10124C0060233B6000237B600023BB6000233B6179
:10125C003B4600221946184809F012FA0346002BA7
:10126C0001D0FFF72FFB3B4604221946124809F028
:10127C0007FA0346002B01D0FFF724FB3B4608225C
:10128C0019460D4809F0FCF90346002B01D0FFF775
:10129C0019FB3B460C221946074809F0F1F90346A5
:1012AC00002B01D0FFF70EFB034800F0B9F800BF8C
:1012BC003837BD4680BD00BFA402002000E40040CA
:1012CC0080B58AB000AF78607B681B684D4A93424A
:1012DC000FD14D4BD3F8F0304B4A43F00103C2F819
:1012EC00F030494BD3F8F03003F001037B627B6A9A
:1012FC0084E07B681B68B3F1804F0FD1424BD3F86D
:10130C00E830414A43F00103C2F8E8303E4BD3F8D1
:10131C00E83003F001033B623B6A6FE07B681B68BB
:10132C003A4A93420FD1384BD3F8E830364A43F05F
:10133C000203C2F8E830344BD3F8E83003F0020370
:10134C00FB61FB695AE07B681B68314A93420FD101
:10135C002D4BD3F8E8302C4A43F00403C2F8E830A4
:10136C00294BD3F8E83003F00403BB61BB6945E0BB
:10137C007B681B68274A93420FD1234BD3F8E83084
:10138C00214A43F00803C2F8E8301F4BD3F8E83089
:10139C0003F008037B617B6930E07B681B681E4AA5
:1013AC00934217D1184BD3F8E830174A43F0100387
:1013BC00C2F8E830144BD3F8E83003F010033B616B
:1013CC003B6900220F21362004F097FF362004F0F1
:1013DC00AEFF13E07B681B68104A93420ED10A4B98
:1013EC00D3F8EC30084A43F00073C2F8EC30064BEB
:1013FC00D3F8EC3003F00073FB60FB6800BF2837B8
:10140C00BD4680BD0000014000440258000400406D
:10141C0000080040000C00400010004000E40040B8
:10142C0080B58CB000AF786007F11C0300221A6005
:10143C005A609A60DA601A617B681B685E4A934254
:10144C0020D15E4BD3F8E0305C4A43F01003C2F875
:10145C00E0305A4BD3F8E03003F01003BB61BB69AA
:10146C004FF4C043FB6102233B6200237B620023E9
:10147C00BB620123FB6207F11C031946504804F0C0
:10148C00E9FF94E07B681B68B3F1804F1FD14B4B95
:10149C00D3F8E030494A43F00103C2F8E030474B3F
:1014AC00D3F8E03003F001037B617B690623FB6119
:1014BC0002233B6200237B620023BB620123FB629D
:1014CC0007F11C0319463F4804F0C4FF6FE07B682A
:1014DC001B683D4A93421FD1384BD3F8E030374A52
:1014EC0043F00403C2F8E030344BD3F8E03003F09F
:1014FC0004033B613B694023FB6102233B620023F5
:10150C007B620023BB620223FB6207F11C031946BA
:10151C002E4804F09FFF4AE07B681B682C4A9342DC
:10152C0020D1264BD3F8E030244A43F00803C2F80C
:10153C00E030224BD3F8E03003F00803FB60FB688B
:10154C004FF47043FB6102233B6200237B62002358
:10155C00BB620223FB6207F11C0319461D4804F011
:10156C0079FF24E07B681B681B4A93421FD1134B05
:10157C00D3F8E030114A43F02003C2F8E0300F4BAF
:10158C00D3F8E03003F02003BB60BB684FF4F043AA
:10159C00FB6102233B6200237B620023BB620E23B0
:1015AC00FB6207F11C0319460C4804F053FF00BF03
:1015BC003037BD4680BD00BF0000014000440258DA
:1015CC0000100258000002580004004000080258A5
:1015DC0000080040000C025800E4004000140258BF
:1015EC0080B500AF224B234A1A60214B4FF4E132F5
:1015FC005A601F4B00229A601D4B0022DA601C4B74
:10160C0000221A611A4B0C225A61194B00229A6162
:10161C00174B0022DA61164B00221A62144B00227F
:10162C005A62134B00229A62114809F0E9FF0346F3
:10163C00002B01D0FFF746F900210D480CF063FC9C
:10164C000346002B01D0FFF73DF9002108480CF0B0
:10165C0098FC0346002B01D0FFF734F904480CF03A
:10166C0019FC0346002B01D0FFF72CF900BF80BDFD
:10167C00F0020020004C004080B500AF224B234A02
:10168C001A60214B4FF4E1325A601F4B00229A60D2
:10169C001D4B0022DA601C4B00221A611A4B0C22E3
:1016AC005A61194B00229A61174B0022DA61164BD2
:1016BC0000221A62144B00225A62134B00229A62C7
:1016CC00114809F09DFF0346002B01D0FFF7FAF8F3
:1016DC0000210D480CF017FC0346002B01D0FFF73E
:1016EC00F1F8002108480CF04CFC0346002B01D00B
:1016FC00FFF7E8F804480CF0CDFB0346002B01D0B3
:10170C00FFF7E0F800BF80BD8403002000500040CC
:10171C0080B500AF224B234A1A60214B4FF416526E
:10172C005A601F4B00229A601D4B0022DA601C4B42
:10173C0000221A611A4B0C225A61194B00229A6131
:10174C00174B0022DA61164B00221A62144B00224E
:10175C005A62134B00229A62114809F051FF03465A
:10176C00002B01D0FFF7AEF800210D480CF0CBFB9D
:10177C000346002B01D0FFF7A5F8002108480CF018
:10178C0000FC0346002B01D0FFF79CF804480CF03A
:10179C0081FB0346002B01D0FFF794F800BF80BDFE
:1017AC00180400200010014080B500AF224B234AE2
:1017BC001A60214B4FF4E1325A601F4B00229A60A1
:1017CC001D4B0022DA601C4B00221A611A4B0C22B2
:1017DC005A61194B00229A61174B0022DA61164BA1
:1017EC0000221A62144B00225A62134B00229A6296
:1017FC00114809F005FF0346002B01D0FFF762F8F2
:10180C0000210D480CF07FFB0346002B01D0FFF7A5
:10181C0059F8002108480CF0B4FB0346002B01D00A
:10182C00FFF750F804480CF035FB0346002B01D0B1
:10183C00FFF748F800BF80BDAC0400200044004016
:10184C0080B500AF224B234A1A60214B4FF4E13292
:10185C005A601F4B00229A601D4B0022DA601C4B11
:10186C0000221A611A4B0C225A61194B00229A6100
:10187C00174B0022DA61164B00221A62144B00221D
:10188C005A62134B00229A62114809F0B9FE0346C2
:10189C00002B01D0FFF716F800210D480CF033FB9C
:1018AC000346002B01D0FFF70DF8002108480CF07F
:1018BC0068FB0346002B01D0FFF704F804480CF03A
:1018CC00E9FA0346002B01D0FEF7FCFF00BF80BDF8
:1018DC00400500200014014080B5C4B000AF07F5EE
:1018EC008873A3F58673186007F1FC0300221A6055
:1018FC005A609A60DA601A6107F14003B82200213D
:10190C0018460DF071FA07F58873A3F586731B68FA
:10191C001B68A64A934273D14FF002024FF00003AA
:10192C00C7E910230023C7F8B43007F14003184669
:10193C0006F0DAFC0346002B01D0FEF7C3FF9C4BEC
:10194C00D3F8E8309A4A43F40023C2F8E830984BB5
:10195C00D3F8E83003F40023FB63FB6B944BD3F810
:10196C00E030934A43F00103C2F8E030904BD3F8D7
:10197C00E03003F00103BB63BB6B8D4BD3F8E0305D
:10198C008B4A43F00403C2F8E030894BD3F8E030C3
:10199C0003F004037B637B6B0123C7F8FC30022349
:1019AC00C7F800310023C7F804310023C7F8083109
:1019BC000823C7F80C3107F1FC0319467D4804F0E5
:1019CC0049FD4FF40063C7F8FC300223C7F800311F
:1019DC000023C7F804310023C7F808310823C7F8DF
:1019EC000C3107F1FC031946734804F033FD002257
:1019FC000121342004F081FC342004F098FCF6E141
:101A0C0007F58873A3F586731B681B686B4A9342B2
:101A1C0073D14FF002024FF00003C7E910230023EB
:101A2C00C7F8B43007F14003184606F05DFC0346D6
:101A3C00002B01D0FEF746FF5D4BD3F8E8305C4A33
:101A4C0043F48013C2F8E830594BD3F8E83003F470
:101A5C0080133B633B6B564BD3F8E030544A43F056
:101A6C000403C2F8E030524BD3F8E03003F0040327
:101A7C00FB62FB6A4E4BD3F8E0304D4A43F008034F
:101A8C00C2F8E0304A4BD3F8E03003F00803BB62F5
:101A9C00BB6A4FF48053C7F8FC300223C7F80031FF
:101AAC000023C7F804310023C7F808310823C7F80E
:101ABC000C3107F1FC0319463F4804F0CBFC04231E
:101ACC00C7F8FC300223C7F800310023C7F80431F3
:101ADC000023C7F808310823C7F80C3107F1FC03C1
:101AEC001946374804F0B6FC00220021352004F0DA
:101AFC0004FC352004F01BFC79E107F58873A3F591
:101B0C0086731B681B682F4A93425FD14FF001020A
:101B1C004FF00003C7E910230023C7F8B83007F1D2
:101B2C004003184606F0E0FB0346002B01D0FEF7FD
:101B3C00C9FE1F4BD3F8F0301D4A43F01003C2F816
:101B4C00F0301B4BD3F8F03003F010037B627B6A50
:101B5C00174BD3F8E030164A43F00203C2F8E030DA
:101B6C00134BD3F8E03003F002033B623B6A4FF4B3
:101B7C004043C7F8FC300223C7F800310023C7F8F4
:101B8C0004310023C7F808310423C7F80C3107F1DE
:101B9C00FC0319460C4804F05DFC002200212520B2
:101BAC0004F0ABFB252004F0C2FB20E1004C00400C
:101BBC00004402580000025800080258005000402F
:101BCC00000C0258001001400004025807F58873FD
:101BDC00A3F586731B681B68874A934272D14FF03A
:101BEC0002024FF00003C7E910230023C7F8B430FA
:101BFC0007F14003184606F077FB0346002B01D093
:101C0C00FEF760FE7D4BD3F8E8307C4A43F400339A
:101C1C00C2F8E830794BD3F8E83003F40033FB61B9
:101C2C00FB69764BD3F8E030744A43F00103C2F8F9
:101C3C00E030724BD3F8E03003F00103BB61BB69B9
:101C4C006E4BD3F8E0306D4A43F00803C2F8E03035
:101C5C006A4BD3F8E03003F008037B617B690823FF
:101C6C00C7F8FC300223C7F800310023C7F8043151
:101C7C000023C7F808310723C7F80C3107F1FC0320
:101C8C0019465F4804F0E6FB2023C7F8FC3002231A
:101C9C00C7F800310023C7F804310023C7F8083116
:101CAC000723C7F80C3107F1FC031946554804F01B
:101CBC00D1FB00220221262004F01FFB262004F079
:101CCC0036FB94E007F58873A3F586731B681B68D5
:101CDC004D4A934240F08B804FF001024FF00003CD
:101CEC00C7E910230023C7F8B83007F140031846A2
:101CFC0006F0FAFA0346002B01D0FEF7E3FD3F4B4A
:101D0C00D3F8F0303D4A43F02003C2F8F0303B4B9F
:101D1C00D3F8F03003F0200207F58873A3F5807335
:101D2C001A6007F58873A3F580731B68334BD3F8DF
:101D3C00E030324A43F00403C2F8E0302F4BD3F8C2
:101D4C00E03003F0040207F58873A3F582731A6080
:101D5C0007F58873A3F582731B68284BD3F8E03022
:101D6C00264A43F04003C2F8E030244BD3F8E0306D
:101D7C0003F0400207F58873A3F584731A6007F526
:101D8C008873A3F584731B688023C7F8FC30022387
:101D9C00C7F800310023C7F804310023C7F8083115
:101DAC000723C7F80C3107F1FC031946174804F058
:101DBC0051FB4FF48043C7F8FC300223C7F80031C5
:101DCC000023C7F804310023C7F808310723C7F8EC
:101DDC000C3107F1FC0319460D4804F03BFB0022C3
:101DEC000021472004F089FA472004F0A0FA00BF34
:101DFC0007F58877BD4680BD00440040004402587A
:101E0C0000000258000C025800140140000802584F
:101E1C000018025880B483B000AF78607B689B6870
:101E2C0007EE903AB0EE670A0C37BD465DF8047BBE
:101E3C007047000080B582B000AF786039607B6875
:101E4C003A685A6400221021094804F0ABFC0022C5
:101E5C000821074804F0A6FC7B68586C7B680C339F
:101E6C000122194609F0AAFC00BF0837BD4680BD07
:101E7C00000C025880B586B000AF78607B681B7B85
:101E8C00FF2B03D07B681B7BFE2B06D17B680022CB
:101E9C00DA757B6806221A761CE07B681B7BFD2BAF
:101EAC0006D17B680022DA757B6804221A7611E071
:101EBC007B681B7BFC2B07D07B681B7BFB2B03D02D
:101ECC007B681B7BFA2B05D17B680022DA757B685B
:101EDC0003221A767B68DB7D19467B681A7B7B684C
:101EEC000B445A737B68DB7D0133DAB27B68DA759D
:101EFC007B68DB7D092B02D97B680022DA757B6855
:101F0C00DA7D7B681B7E9A4240F001817B685B7BAB
:101F1C00FF2B1FD07B685B7BFE2B1BD07B685B7B16
:101F2C00FD2B17D07B685B7BFC2B13D07B685B7B1A
:101F3C00FB2B0FD07B685B7BFA2B0BD07B680022D2
:101F4C00DA757B68586C7B680C330122194609F0F2
:101F5C0035FCE4E00023FB7501233B610AE07A6861
:101F6C003B6913440D331A78FB7D1344FB753B69B5
:101F7C0001333B617B681B7E013B3A699A42EEDB85
:101F8C007B681B7E013B7A6813445B7BFA7D9A422B
:101F9C0015D0FA7D7B681B7E013B79680B445B7B1B
:101FAC000F3B9A420BD07B680022DA757B68586C29
:101FBC007B680C330122194609F000FCAFE07B680A
:101FCC005B7BFA3B052B00F29B8001A252F823F0BD
:101FDC00EB200008CF200008B32000088320000865
:101FEC0053200008F51F00087B689B7B1BB21B026B
:101FFC001AB27B68DB7B1BB21343FB817B681B7CB7
:10200C001BB21B021AB27B685B7C1BB21343BB81F5
:10201C00B7F90E3007EE903AB8EEE77ADFED416A89
:10202C00C7EE267A7B68C3ED0C7AB7F90C3007EE55
:10203C00903AB8EEE77ADFED3B6AC7EE267A7B681A
:10204C00C3ED0D7A63E07B689B7B1BB21B021AB25B
:10205C007B68DB7B1BB213437B81B7F90A3007EE3D
:10206C00903AB8EEE77ADFED2F6AC7EE267A7B68F6
:10207C00C3ED0E7A4BE07B689B7B1BB21B021AB242
:10208C007B68DB7B1BB213433B81B7F9083007EE4F
:10209C00903AB8EEE77ADFED236AC7EE267A7B68D2
:1020AC00C3ED0F7A33E07B689B7B012B2AD17B68D5
:1020BC0093F8403083F00103DAB27B6883F8402058
:1020CC0020E07B689B7B012B1ED17B6893F8413011
:1020DC0083F00103DAB27B6883F8412014E07B685B
:1020EC009B7B012B12D17B6893F84230002B0CBFE9
:1020FC0001230023DBB21A467B6883F8422005E0FB
:10210C0000BF04E000BF02E000BF00E000BF7B683E
:10211C00586C7B680C330122194609F04FFB1837B9
:10212C00BD4680BD00EAFF4680B582B000AF786046
:10213C0003F08CFB0346002B14BF01230023DAB2FF
:10214C007B681A7500BF0837BD4680BD80B582B06C
:10215C0000AF78607B689A687B68DA607B681A6885
:10216C007B689A6003F0E0FEF0EE407A7B68C3ED8A
:10217C00007A7B6893ED037A7B68D3ED027A37EEB5
:10218C00277A7B68D3ED007A77EE277AF0EE086A2F
:10219C0087EEA67A7B68D3ED017A77EE677A9FEDAE
:1021AC00077A27EE877ADFED066AC7EE267A7B6818
:1021BC00C3ED047A00BF0837BD4680BD0000C8429D
:1021CC000048194680B483B000AF78607B681B6907
:1021DC0007EE903AB0EE670A0C37BD465DF8047B0B
:1021EC00704780B582B000AF786039607B683A6820
:1021FC005A617B6858697B680D330122194609F0D6
:10220C00DDFA00BF0837BD4680BD80B582B000AF97
:10221C0078607B6858697B6803F10C014FF6FF739B
:10222C00012209F03DFA00BF0837BD4680BD80B5DC
:10223C0082B000AF78607B685B7BFF2B02D17B6840
:10224C0000229A747B689B7C19467B685A7B7B685E
:10225C000B449A737B689B7C0133DAB27B689A746B
:10226C007B689B7C042B59D17B689B7BFF2B32D1E9
:10227C007B689B7B1A467B68DB7B13447A68127CF9
:10228C001344DBB27A68527C934224D17B685A881F
:10229C007B681A807B689A887B685A807B68DB7BBA
:1022AC001BB21B021AB27B681B7C1BB213431BB202
:1022BC009AB27B689A807B689B8807EE903AB8EE5E
:1022CC00E76BB2EE045B86EE057BF7EEC77B7B68B3
:1022DC00C3ED027A02E07B6800229A747B681A884C
:1022EC007B685B889A4209D17B685A887B689B889B
:1022FC009A4203D17B6800221A760FE07B689B8898
:10230C001A467B685B88D31AB3F57A7F03DD7B684A
:10231C0000221A7602E07B6801221A767B685869E3
:10232C007B680D330122194609F048FA00BF0837C3
:10233C00BD4680BD80B483B000AF87ED010AD7EDF8
:10234C00017AF0EEE77AB0EE670A0C37BD465DF81D
:10235C00047B704780B582B000AF786039607B68D1
:10236C003A689A637B68986B7B682833012219461C
:10237C0009F024FA00BF0837BD4680BD80B483B095
:10238C0000AF78607B681A6A7B685A6200BF0C37B2
:10239C00BD465DF8047B704780B58EB000AF7860A9
:1023AC007B6893F82830552B03D17B68002283F887
:1023BC0034207B6893F8343019467B6893F82820D6
:1023CC007B680B4483F829207B6893F83430013305
:1023DC00DAB27B6883F834207B6893F834300B2BAB
:1023EC0040F02F82002387F837300023FB854FF015
:1023FC000003BB624FF000037B624FF000033B62B3
:10240C004FF00003FB614FF00003BB614FF0000382
:10241C007B614FF000033B614FF00003FB604FF01A
:10242C000003BB6000233B630CE07A683B6B1344F6
:10243C0029331A7897F83730134487F837303B6BC9
:10244C0001333B633B6B092BEFDD7B6893F8333037
:10245C0097F837209A4204D07B68002283F8342006
:10246C00EFE17B6893F82A30532B00F0E680532B76
:10247C0000F3E781512B02D0522B75D0E1E17B6840
:10248C0093F830301BB21B02FB857B6893F82F301E
:10249C001AB2FB8D1343FB85B7F92E3007EE903A39
:1024AC00B8EEE77ADFEDA26AC7EE267AB3EE007AD1
:1024BC0067EE877A9FED987A67EE877AC7ED027A96
:1024CC007B68BA689A607B6893F82E301BB21B024B
:1024DC00FB857B6893F82D301AB2FB8D1343FB857B
:1024EC00B7F92E3007EE903AB8EEE77ADFED906A46
:1024FC00C7EE267AB3EE007A67EE877A9FED867A7E
:10250C0067EE877AC7ED037A7B68FA685A607B6856
:10251C0093F82C301BB21B02FB857B6893F82B3095
:10252C001AB2FB8D1343FB85B7F92E3007EE903AA8
:10253C00B8EEE77ADFED7E6AC7EE267AB3EE007A64
:10254C0067EE877A9FED747A67EE877AC7ED047A27
:10255C007B683A691A607B68012283F835207B68B6
:10256C00002283F82A206CE17B6893F830301BB290
:10257C001B02FB857B6893F82F301AB2FB8D13433B
:10258C00FB85B7F92E3007EE903AB8EEE77ADFED1F
:10259C00686AC7EE267A9FED617A67EE877AC7ED97
:1025AC00057A7B687A695A617B6893F82E301BB286
:1025BC001B02FB857B6893F82D301AB2FB8D1343FD
:1025CC00FB85B7F92E3007EE903AB8EEE77ADFEDDF
:1025DC00586AC7EE267A9FED517A67EE877AC7ED77
:1025EC00067A7B68BA691A617B6893F82C301BB247
:1025FC001B02FB857B6893F82B301AB2FB8D1343BF
:10260C00FB85B7F92E3007EE903AB8EEE77ADFED9E
:10261C00486AC7EE267A9FED417A67EE877AC7ED56
:10262C00077A7B68FA69DA607B68012283F83620C6
:10263C007B68002283F82A2003E17B6893F8303012
:10264C001BB21B02FB857B6893F82F301AB2FB8DF3
:10265C001343FB85B7F92E3007EE903AB8EEE77AC4
:10266C00DFED336AC7EE267A9FED327A67EE877A12
:10267C00C7ED087A7B683A6A1A62294B1B68312BC2
:10268C0008DC274B1B680133254A13607B681A6AE8
:10269C007B681A627B6893F82C301BB21B02FB859B
:1026AC007B6893F82B301AB2FB8D1343FB85B7F97B
:1026BC002E3007EE903AB8EEE77ADFED1D6AC7EEE2
:1026CC00267A9FED1C7A67EE877AC7ED0A7A154B4E
:1026DC0093ED007AD7ED0A7A77EE677AB0EE670A57
:1026EC00FFF728FEF0EE407AB3EE0E7AF4EEC77ADE
:1026FC00F1EE10FA4CBF01230023DBB2002B03D008
:10270C007B68BA6ADA612FE0054B1B68042B13DC7B
:10271C007B68BA6ADA6127E0CDCC1C410000FA4430
:10272C00D4050020D805002000002043000020C361
:10273C000000004700003443D7ED0A7A1FED067AFB
:10274C00F4EEC77AF1EE10FA02DD7B68BA6ADA6150
:10275C00D7ED0A7A1FED0B7AF4EEC77AF1EE10FA88
:10276C0002D57B68BA6ADA617B6893F82E301BB2AB
:10277C001B02FB857B6893F82D301AB2FB8D13433B
:10278C00FB85B7F92E3007EE903AF8EEE77AB1EE0A
:10279C00677A5FED196AC7EE267A1FED1A7A67EE33
:1027AC00877AC7ED097A2D4B93ED007AD7ED097A2C
:1027BC0077EE677AB0EE670AFFF7BCFDF0EE407A71
:1027CC00B3EE0E7AF4EEC77AF1EE10FA4CBF012399
:1027DC000023DBB2002B03D07B687A6A9A611FE07E
:1027EC001F4B1B68042B03DC7B687A6A9A6117E029
:1027FC00D7ED0A7A9FED1B7AF4EEC77AF1EE10FA58
:10280C0002DD7B687A6A9A61D7ED0A7A9FED167AB7
:10281C00F4EEC77AF1EE10FA02D57B687A6A9A6107
:10282C007B68DB69114A13607B689B690B4A1360F8
:10283C007B68012283F837207B68002283F82A20EA
:10284C0000BF7B68986B7B6828330122194608F01F
:10285C00B5FF00BF3837BD4680BD00BFDC0500208A
:10286C00D405002000002043000020C3D805002020
:10287C0080B586B000AF78613961FA60BB6087EDD6
:10288C00010A7B693A691A607B69FA685A607B694C
:10289C004FF000029A607B697A681A617B69BA68AA
:1028AC005A617B693A6A9A617B6997F824201A7796
:1028BC007B691A687B695B681946104607F0BCFC9B
:1028CC007B695B68002B06D17B691B681B6840F237
:1028DC00DC525A6331E07B695B68042B06D17B695F
:1028EC001B681B6840F2DC529A6326E07B695B68CC
:1028FC00082B06D17B691B681B6840F2DC52DA633B
:10290C001BE07B695B680C2B06D17B691B681B6821
:10291C0040F2DC521A6410E07B695B68102B06D124
:10292C007B691B681B6840F2DC529A6505E07B6989
:10293C001B681B6840F2DC52DA650A2003F0DEFBF0
:10294C0000BF1837BD4680BD80B588B000AFF860B9
:10295C0087ED020AC7ED010A87ED001A97ED007AA0
:10296C00D7ED017AB4EEE77AF1EE10FA01D8012333
:10297C0034E097ED027AD7ED017A77EE676A97ED3E
:10298C00007AD7ED017A37EE677AC6EE877AC7ED13
:10299C00067AD7ED067A9FED137A67EE877A9FED6C
:1029AC00127A77EEC77AC7ED057A97ED050A0CF027
:1029BC0007F9F0EE407AFDEEE77A17EE903AFB61FC
:1029CC00FB6913F5FA7F01DA084BFB61FB69B3F580
:1029DC00FA7F02DD4FF4FA73FB61FB69184620376E
:1029EC00BD4680BD00007A440000FA430CFEFFFF98
:1029FC0080B582B000AF786087ED000A7B683A68DA
:102A0C009A607B68D3ED027AF5EEC07AF1EE10FA9B
:102A1C0038DD7B6893ED027A7B68D3ED047AB4EEF3
:102A2C00E77AF1EE10FA03DD7B681A697B689A602D
:102A3C007B6893ED027A7B68D3ED047AF1EE677ACA
:102A4C007B68D3ED046AB0EE661AF0EE670AB0EE5E
:102A5C00470A7868FFF778FF02467B685B691A447F
:102A6C007B68DA607B681B7F002B04D17B68DB689A
:102A7C005A427B68DA607B68DB6803F2DC527B6865
:102A8C00DA603DE07B6893ED027A7B68D3ED047AE3
:102A9C00F1EE677AB4EEE77AF1EE10FA07D57B68BF
:102AAC00D3ED047AF1EE677A7B68C3ED027A7B682A
:102ABC0093ED027A7B68D3ED047AF1EE677A7B684A
:102ACC00D3ED046AB0EE661AF0EE670AB0EE470A70
:102ADC007868FFF739FF02467B689B69D21A7B68DE
:102AEC00DA607B681B7F002B04D17B68DB685A4261
:102AFC007B68DA607B68DB6803F2DC527B68DA6047
:102B0C007B685B68002B06D17B68DA687B681B6886
:102B1C001B685A6331E07B685B68042B06D17B68C9
:102B2C00DA687B681B681B689A6326E07B685B68C5
:102B3C00082B06D17B68DA687B681B681B68DA6334
:102B4C001BE07B685B680C2B06D17B68DA687B68C2
:102B5C001B681B681A6410E07B685B68102B06D13D
:102B6C007B68DA687B681B681B689A6505E07B6884
:102B7C00DA687B681B681B68DA6500BF0837BD46DE
:102B8C0080BD80B483B000AF78607B685B68002B3D
:102B9C0006D17B681B681B6840F2DC525A6331E03B
:102BAC007B685B68042B06D17B681B681B6840F252
:102BBC00DC529A6326E07B685B68082B06D17B6845
:102BCC001B681B6840F2DC52DA631BE07B685B68B5
:102BDC000C2B06D17B681B681B6840F2DC521A6414
:102BEC0010E07B685B68102B06D17B681B681B6848
:102BFC0040F2DC529A6505E07B681B681B6840F26A
:102C0C00DC52DA6500BF0C37BD465DF8047B7047BB
:102C1C0080B483B000AF78607B684FF000021A601C
:102C2C007B684FF000025A607B684FF000029A609C
:102C3C007B684FF00002DA607B684FF000021A618B
:102C4C007B684FF000025A617B684FF000029A617A
:102C5C007B684FF00002DA617B684FF000021A6269
:102C6C007B6818460C37BD465DF8047B704780B511
:102C7C0088B000AFF86187ED060AC7ED050A87ED4D
:102C8C00041AC7ED031A87ED022AC7ED012AFB6966
:102C9C00BA691A60FB697A695A60FB693A699A6089
:102CAC00D7ED037AF0EEE77AFB69C3ED037AD7ED43
:102CBC00027AF0EEE77AFB69C3ED047AD7ED017A7C
:102CCC00F0EEE77AFB69C3ED057AF86900F004F8D9
:102CDC0000BF2037BD4680BD80B483B000AF7860A4
:102CEC007B684FF000029A617B684FF00002DA615A
:102CFC007B684FF000021A6200BF0C37BD465DF8CE
:102D0C00047B704780B489B000AFF86087ED020A8D
:102D1C00C7ED010A87ED001AD7ED007AF5EEC07AFF
:102D2C00F1EE10FA02D8FB681B6AB0E097ED027A5C
:102D3C00D7ED017A77EE677AC7ED077AD7ED077A88
:102D4C00B0EEE77AFB68D3ED057AB4EEE77AF1EEF4
:102D5C0010FA02D84FF00003FB61FB68D3ED007A48
:102D6C0097ED077A67EE277AC7ED047AFB6893ED47
:102D7C00067AFB68D3ED016AD7ED077A66EEA76A8F
:102D8C00D7ED007A66EEA77A77EE277AFB68C3ED6B
:102D9C00067AFB68D3ED047AF5EEC07AF1EE10FA00
:102DAC0024DDFB6893ED067AFB68D3ED047AB4EE70
:102DBC00E77AF1EE10FA04DDFB681A69FB689A6198
:102DCC0014E0FB6893ED067AFB68D3ED047AF1EE20
:102DDC00677AB4EEE77AF1EE10FA07D5FB68D3ED1B
:102DEC00047AF1EE677AFB68C3ED067A4FF00003C4
:102DFC00BB61D7ED007AF5EEC07AF1EE10FA11DD79
:102E0C00FB6893ED027AFB68D3ED077AD7ED076A7E
:102E1C0076EEE77A67EE276A97ED007AC6EE877A48
:102E2C00C7ED067AFB68FA69DA61FB6893ED067AFE
:102E3C00D7ED047A77EE277A97ED067A77EE277A34
:102E4C00C7ED057AFB68D3ED037A97ED057AB4EEFE
:102E5C00E77AF1EE10FA03DDFB68DB687B6112E0C8
:102E6C00FB68D3ED037AF1EE677A97ED057AB4EE51
:102E7C00E77AF1EE10FA06D5FB68D3ED037AF1EEA2
:102E8C00677AC7ED057AFB687A691A627B6907EE87
:102E9C00903AB0EE670A2437BD465DF8047B704764
:102EAC0080B400AF00231846BD465DF8047B704724
:102EBC0080B400AF00231846BD465DF8047B704714
:102ECC0080B483B000AF786039603B6818460C372B
:102EDC00BD465DF8047B704780B483B000AF78606A
:102EEC007B68B3F5007F05D24FF400727B68B2FBB0
:102EFC00F3F300E0012318460C37BD465DF8047B64
:102F0C007047000080B483B000AF78607B684FF0EE
:102F1C0000021A607B680C4A5A607B684FF0000212
:102F2C009A607B684FF00002DA607B684FF0000219
:102F3C001A617B6800221A757B6818460C37BD46EF
:102F4C005DF8047B704700BF00F2C14780B483B0CA
:102F5C0000AF78607B6800221A807B6800225A8060
:102F6C007B6800229A807B684FF000029A607B6835
:102F7C00FF221A737B6800229A747B6800225A61C4
:102F8C007B6801221A767B6818460C37BD465DF8C3
:102F9C00047B704780B483B000AF78607B684FF0DF
:102FAC0000021A607B684FF000025A607B684FF099
:102FBC0000029A607B684FF00002DA607B684FF089
:102FCC0000021A617B684FF000025A617B684FF077
:102FDC0000029A617B684FF00002DA617B684FF067
:102FEC0000021A627B684FF000025A627B68002272
:102FFC0083F834207B68002283F835207B6800221C
:10300C0083F836207B68002283F837207B68002207
:10301C009A637B6818460C37BD465DF8047B704795
:10302C0080B483B000AF78607B68DB6907EE903AC0
:10303C00B0EE670A0C37BD465DF8047B70470000A4
:10304C0080B485B000AF78607B6893ED087A7B68BC
:10305C00D3ED097A77EE677AC7ED037AD7ED037A69
:10306C009FED157AF4EEC77AF1EE10FA08DDD7ED84
:10307C00037A9FED127A77EEC77AC7ED037A10E0E8
:10308C00D7ED037A9FED0E7AF4EEC77AF1EE10FAD3
:10309C0007D5D7ED037A9FED097A77EE877AC7EDDE
:1030AC00037AFB6807EE903AB0EE670A1437BD4618
:1030BC005DF8047B704700BF000034430000B4434C
:1030CC00000034C380B483B000AF78607B681B68A9
:1030DC0007EE903AB0EE670A0C37BD465DF8047BFC
:1030EC00704780B483B000AF78607B685B6807EE94
:1030FC00903AB0EE670A0C37BD465DF8047B70471A
:10310C0080B483B000AF78607B68EF221A707B6864
:10311C004FF000025A607B684FF000029A607B68A7
:10312C004FF00002DA607B6800221A747B68002280
:10313C005A747B6800229A747B6818460C37BD461B
:10314C005DF8047B704780B483B000AF78607B6817
:10315C004FF000021A607B684FF000025A607B68E7
:10316C004FF000029A607B684FF00002DA607B68D7
:10317C0000221A747B6800225A747B6801229A74AC
:10318C007B6818460C37BD465DF8047B704780B5EC
:10319C0082B000AF78607B6800221A607B680022E6
:1031AC005A607B6800229A607B680022DA757B6823
:1031BC0000221A767B681C331846FFF7A1FF7B6848
:1031CC0030331846FFF7BFFF7B6800225A647B68D8
:1031DC0018460837BD4680BD80B483B000AF786018
:1031EC0039607B683A681A6000BF0C37BD465DF8E1
:1031FC00047B704780B483B000AF786039607B6823
:10320C003A685A6000BF0C37BD465DF8047B7047C6
:10321C0080B483B000AF786039607B683A689A609C
:10322C0000BF0C37BD465DF8047B704780B483B09B
:10323C0000AF78607B6800221A607B6800225A60BD
:10324C007B684FF000029A607B680022DA607B6832
:10325C004FF000021A617B6800225A617B680022E1
:10326C009A617B6801221A777B6818460C37BD4639
:10327C005DF8047B704780B582B000AF78607B68E6
:10328C00184601F00EFA7B6818460837BD4680BD1B
:10329C0080B500AF064806F041FE054B1B680022C6
:1032AC005A62034B1B685B6A024A136000BF80BD05
:1032BC000C020020E405002080B500AF0D4B1B680C
:1032CC005B6A0D4A13600B4806F0A6FE0A4B1A689F
:1032DC000A4B1B68D31A07EE903AF8EE677A084B44
:1032EC00C3ED007A064B1B6807EE903AB0EE670A06
:1032FC0080BD00BF0C020020E8050020E405002082
:10330C00EC05002080B582B002AF01224FF40051D1
:10331C00934803F047FA01224FF40041914803F01F
:10332C0041FA01224FF400718D4803F03BFA01225F
:10333C0002218D4803F036FA8C4B1B6832229A63BB
:10334C0004218A4806F078FF0A2002F0D7FE01F02B
:10335C00BBF8874B1B681846FEF7E6FE854B1B68CF
:10336C0085491846FEF73DFF844B1B688449184677
:10337C00FEF737FF834B1B6883491846FEF7EAFFBD
:10338C00824B1B687A4A126811461846FFF724FFD5
:10339C007E4B1B68774A126811461846FFF72AFFC6
:1033AC007A4B1B68754A126811461846FFF730FFB6
:1033BC00764B1B6876491846FEF73CFD754B186832
:1033CC0000230193032300939FED730A142300221F
:1033DC007249FFF74DFA6F4B1B6803F12000002375
:1033EC000193032300939FED6C0A14230C226B4969
:1033FC00FFF73EFA674B1B6803F140000023019373
:10340C00032300939FED640A142304226349FFF7FE
:10341C002FFA604B1B6803F1600000230193032318
:10342C0000939FED5D0A192308225D49FFF720FAEE
:10343C00584B1B6803F18000012301931423009364
:10344C009FED550A032308225449FFF711FA514BFB
:10345C001B6803F1A00001230193192300939FED36
:10346C004E0A05230C224E49FFF702FA40F6B830FB
:10347C0002F044FE4B4B1B68DFED4B2A9FED462AB6
:10348C00DFED451A9FED481ADFED480AB0EE000A51
:10349C001846FFF7ECFB464B1B68DFED432A9FED0C
:1034AC003E2ADFED3D1A9FED401ADFED400A9FEDFD
:1034BC00410A1846FFF7DBFB3F4B1B68DFED3A2A4E
:1034CC009FED352ADFED341A9FED3C1ADFED360AFD
:1034DC00B6EE000A1846FFF7CAFB394B1B68DFED46
:1034EC00322A9FED2D2ADFED2C1A9FED2F1ADFEDDE
:1034FC002E0AB0EE000A1846FFF7B9FB314B1B68D9
:10350C00DFED292A9FED242ADFED231A9FED261AE1
:10351C00DFED250AB0EE000A1846FFF7A8FB194BA1
:10352C001B681846FFF77CFDF0EE407A264BC3ED86
:10353C00007A164B1B68012283F84020134B1B6842
:10354C00002283F842200F4B1B681846FEF716FF2B
:10355C0001220121044803F025F900BFBD4680BDBE
:10356C0000080258001002580004025828010020DC
:10357C00F8050020FC050020F002002000060020C9
:10358C008403002004060020180400200C060020F0
:10359C00AC0400200806002000004842C0010020B6
:1035AC00DC00002010060020000000000AD7233C9D
:1035BC0014060020CDCCCC3E18060020CDCCCC3D42
:1035CC001C060020200600205C06002080B500AF01
:1035DC00FFF75EFE00F078F800F026F9FFF76CFEBE
:1035EC00F0EE407A024BC3ED007A00BF80BD00BF05
:1035FC00E0050020B0B582B000AF78607B680D4A62
:10360C00934213D1FFF744FE0B4BD3E90023541C18
:10361C0043F10005084BC3E90045FFF7D7FFFFF75F
:10362C004BFEF0EE407A054BC3ED007A00BF083735
:10363C00BD46B0BD58020020F0050020E00500207A
:10364C0080B582B000AF78607B681B68164A9342E5
:10365C0005D1164B1B681846FEF79EFE1FE07B68D3
:10366C001B68134A934205D1124B1B681846FEF790
:10367C0001FC14E07B681B680F4A934205D10F4B89
:10368C001B681846FEF7D3FD09E07B681B680C4AE3
:10369C00934204D10B4B1B681846FEF7C8FD00BFC4
:1036AC000837BD4680BD00BF001001400406002055
:1036BC00004400400C060020004C0040FC0500209B
:1036CC000050004000060020B0B500AF464B1B6810
:1036DC001846FEF73BFD454BD3E9002302F00104ED
:1036EC00002554EA050305D0414B1B681846FEF72C
:1036FC008CFD04E03F4B1B681846FEF786FD3D4BE6
:10370C001B681846FEF781FD3B4B1B6893F8413054
:10371C00012B05D101220121384803F043F804E0C4
:10372C0000220121354803F03DF8354B1B68354A22
:10373C001360354B1B681846FFF782FCF0EE407A9D
:10374C002F4BC3ED007A304B1B681846FFF768FC13
:10375C00F0EE407A2D4BC3ED007A234B1B681846D4
:10376C00FEF730FDF0EE407A294BC3ED007A264B84
:10377C001B681846FFF7A6FCF0EE407A9FED257A01
:10378C0027EE877A244BD3ED007A77EE277A224BFB
:10379C00C3ED007A1C4B1B681846FFF7A2FCF0EE39
:1037AC00407A9FED1C7A27EE877A1C4BD3ED007A7A
:1037BC0077EE277A194BC3ED007A0D4B1B68184630
:1037CC00FEF728FBF0EE407A154BC3ED007A094B5F
:1037DC001B681846FEF71EFBF0EE407A114BC3ED4A
:1037EC00007A00BFB0BD00BFF8050020F005002036
:1037FC00FC050020000600200C06002000040258E6
:10380C004C06002054060020040600205806002018
:10381C00240600200AD7233C2C0600203406002066
:10382C003C0600204406002080B500AF0A4B1B6804
:10383C0093F84030002B0BD0074B1B6893F84230A9
:10384C00012B02D100F00AF804E000F09FF901E02E
:10385C0000F0F4FD00BF80BD0C06002080B58AB0DE
:10386C0000AFB94B93ED007AB84B1B68D3ED0F7AD0
:10387C00F1EE006A67EEA67ADFEDB56A67EEA67A1E
:10388C0077EE677AB04BC3ED007AB24B93ED007ACA
:10389C00AE4B1B68D3ED0E7AF3EE046A67EEA67A94
:1038AC00DFEDAB6A67EEA67A77EE677AA94BC3EDCC
:1038BC00007AA94B4FF000021A60A44B1B68D3EDA1
:1038CC000C7AB2EE0E7A67EE877AA44BC3ED007ACF
:1038DC009E4B1B68D3ED0D7AB2EE0E7A67EE877AAB
:1038EC009F4BC3ED007A3B4600221A605A609A60E7
:1038FC00DA601A615A619B4B1B68934AD2ED007ACD
:10390C00994A92ED007A9FED921AF0EE470AB0EECA
:10391C00670A1846FFF7F6F987ED080A97ED017A62
:10392C00D7ED087A77EE677AC7ED017A97ED047ACE
:10393C00D7ED087A77EE677AC7ED047A97ED017ABE
:10394C008A4BD3ED007A77EE277AC7ED017A97EDA3
:10395C00047A864BD3ED007A77EE277AC7ED047A9A
:10396C00834B1B687B4AD2ED007A824A92ED007A37
:10397C009FED771AF0EE470AB0EE670A1846FFF78C
:10398C00C1F987ED070A97ED007AD7ED077A77EE44
:10399C00677AC7ED007A97ED027AD7ED077A77EE62
:1039AC00277AC7ED027A97ED037AD7ED077A77EE8F
:1039BC00277AC7ED037A97ED057AD7ED077A77EE7C
:1039CC00677AC7ED057A6C4B1B68634AD2ED007AB7
:1039DC006A4A92ED007A9FED5E1AF0EE470AB0EE5D
:1039EC00670A1846FFF78EF987ED060A97ED017AFC
:1039FC00D7ED067A77EE677AC7ED017A97ED047A00
:103A0C00D7ED067A77EE277AC7ED047A97ED007A30
:103A1C00524BD3ED007A77EE277AC7ED007A97ED0B
:103A2C00027A4E4BD3ED007A77EE677AC7ED027AC5
:103A3C0097ED037A494BD3ED007A77EE277AC7EDF1
:103A4C00037A97ED057A454BD3ED007A77EE677ADA
:103A5C00C7ED057A97ED007A414BD3ED007A77EEFE
:103A6C00277AC7ED007A97ED027A3D4BD3ED007AB9
:103A7C0077EE277AC7ED027A97ED037A384BD3EDC0
:103A8C00007A77EE277AC7ED037A97ED057A344BF7
:103A9C00D3ED007A77EE277AC7ED057A00237B62A7
:103AAC004AE07B6A012B02D07B6A042B18D17B6A1B
:103ABC009B0028333B44283BD3ED007A9FED301A12
:103ACC00DFED300AB0EE670A00F052FDF0EE407AFE
:103ADC007B6A9B0028333B44283BC3ED007A17E0FC
:103AEC007B6A9B0028333B44283BD3ED007AB3EE32
:103AFC000E1AFBEE0E0AB0EE670A00F039FDF0EE7E
:103B0C00407A7B6A9B0028333B44283BC3ED007A08
:103B1C001D4B1A687B6A5B011A447B6A9B00283335
:103B2C003B44283BD3ED007AB0EE670A1046FEF713
:103B3C005FFF7B6A01337B627B6A052BB1DD00BFC3
:103B4C0000BF2837BD4680BD0C0000200C060020AD
:103B5C000AD7233C500600205C06002030060020CB
:103B6C00380600201006002024060020280600201D
:103B7C00140600204C0600201806002058060020D1
:103B8C0000002042000020C20806002080B58CB046
:103B9C0000AFB64B1B78002B02D100F095F90CE06E
:103BAC00B24B1B78012B02D100F044FA05E0AF4B6D
:103BBC001B78022B01D100F045FB3B4600221A601A
:103BCC005A609A60DA601A615A61A94B1B68A94A5B
:103BDC00D2ED007AA84A92ED007A9FEDA81AF0EE89
:103BEC00470AB0EE670A1846FFF78CF887ED0A0A09
:103BFC0097ED017AD7ED0A7A77EE677AC7ED017AFD
:103C0C0097ED047AD7ED0A7A77EE677AC7ED047AE6
:103C1C0097ED017A9A4BD3ED007A77EE277AC7EDC0
:103C2C00017A97ED047A964BD3ED007A77EE277AEA
:103C3C00C7ED047A934B1B68934AD2ED007A934AF2
:103C4C0092ED007A9FED8D1AF0EE470AB0EE670AFE
:103C5C001846FFF757F887ED090A97ED007AD7ED6C
:103C6C00097A77EE677AC7ED007A97ED027AD7ED8D
:103C7C00097A77EE277AC7ED027A97ED037AD7EDBA
:103C8C00097A77EE277AC7ED037A97ED057AD7EDA7
:103C9C00097A77EE677AC7ED057A7D4B1B687D4A0A
:103CAC00D2ED007A7C4A92ED007A9FED741AF0EE18
:103CBC00470AB0EE670A1846FFF724F887ED080AA2
:103CCC0097ED017AD7ED087A77EE677AC7ED017A2E
:103CDC0097ED047AD7ED087A77EE277AC7ED047A58
:103CEC006E4B1B681B7E002B32D06D4B1B686D4AD4
:103CFC00D2ED007A6C4A92ED007A9FED601AF0EEEC
:103D0C00470AB0EE670A1846FEF7FCFF87ED070A74
:103D1C0097ED007AD7ED077A77EE277AC7ED007A20
:103D2C0097ED027AD7ED077A77EE677AC7ED027ACC
:103D3C0097ED037AD7ED077A77EE277AC7ED037AFA
:103D4C0097ED057AD7ED077A77EE677AC7ED057AA6
:103D5C00564B1B681B7E002B32D0554B1B68554AAB
:103D6C00D2ED007A544A92ED007A9FED441AF0EEAF
:103D7C00470AB0EE670A1846FEF7C4FF87ED060A3D
:103D8C0097ED007AD7ED067A77EE277AC7ED007AB1
:103D9C0097ED027AD7ED067A77EE277AC7ED027A9D
:103DAC0097ED037AD7ED067A77EE277AC7ED037A8B
:103DBC0097ED057AD7ED067A77EE277AC7ED057A77
:103DCC000023FB624AE0FB6A012B02D0FB6A042B46
:103DDC0018D1FB6A9B0030333B44303BD3ED007A67
:103DEC009FED361ADFED360AB0EE670A00F0C0FB25
:103DFC00F0EE407AFB6A9B0030333B44303BC3ED22
:103E0C00007A17E0FB6A9B0030333B44303BD3ED28
:103E1C00007AB3EE0E1AFBEE0E0AB0EE670A00F053
:103E2C00A7FBF0EE407AFB6A9B0030333B44303BFF
:103E3C00C3ED007A234B1A68FB6A5B011A44FB6AD8
:103E4C009B0030333B44303BD3ED007AB0EE670A35
:103E5C001046FEF7CDFDFB6A0133FB62FB6A052BB6
:103E6C00B1DD00BF00BF3037BD4680BD74060020F9
:103E7C00100600200C000020240600200AD7233C4A
:103E8C002806002014060020500600204C060020B6
:103E9C00180600205C06002058060020FC050020B7
:103EAC001C060020400600203C06002000060020D6
:103EBC002006002048060020440600200000204276
:103ECC00000020C20806002080B500AF4E4B4F4AC0
:103EDC001A604F4B4FF000021A604E4B1B7819467C
:103EEC004D4800F011FC034693ED007A4B4BD3ED9B
:103EFC00007A77EE677AB0EE670AFEF71BFAF0EEFF
:103F0C00407AB0EE087AF4EEC77AF1EE10FA1CD5CE
:103F1C00404B1B781946404800F0F6FB034693EDE6
:103F2C00017A3F4BD3ED007A77EE677AB0EE670AF1
:103F3C00FEF700FAF0EE407AB0EE087AF4EEC77AAB
:103F4C00F1EE10FA01D5012300E00023002B1FD065
:103F5C00304B1B781946304800F0D6FB03461B7AD1
:103F6C00002B0CBF01230023DBB2002B0DD0294BFF
:103F7C001B780133DAB2274B1A70264B1B78022BB5
:103F8C0006D9244B00221A7002E0264B01221A702B
:103F9C00204B1B781946204800F0B6FB03461B68E3
:103FAC00214A13601B4B1B7819461B4800F0ACFBD5
:103FBC0003465B681D4A13601B4BD3ED007A174B0D
:103FCC0093ED007A9FED1A1AF0EE470AB0EE670AED
:103FDC0000F00AFBF0EE407A134BC3ED007A134B62
:103FEC00D3ED007A0E4B93ED007A9FED111AF0EEA3
:103FFC00470AB0EE670A00F0F7FAF0EE407A0B4B86
:10400C00C3ED007A00BF80BD0C00002000007041A1
:10401C005C06002060060020780600203C0600208C
:10402C0044060020740600204006002048060020AC
:10403C000000484380B500AF734B1B78002B7CD13C
:10404C00724B734A1A60734B4FF000021A60724B3A
:10405C001B781946714800F057FB03461B68704AE1
:10406C0013606D4B1B7819466C4800F04DFB0346F2
:10407C005B686C4A13606A4BD3ED007A6A4B93ED24
:10408C00007A9FED6A1AF0EE470AB0EE670A00F06C
:10409C00ABFAF0EE407A624BC3ED007A614BD3ED94
:1040AC00007A634B93ED007A9FED601AF0EE470AAD
:1040BC00B0EE670A00F098FAF0EE407A594BC3ED77
:1040CC00007A00F03DFA5B4BD3ED007AB3EE0E7A3A
:1040DC0077EEC77AB0EE670AFEF72CF9F0EE407A6D
:1040EC00B0EE087AF4EEC77AF1EE10FA4CBF012369
:1040FC000023DBB2002B09D04F4BB3F900309BB23D
:10410C0001339BB21AB24C4B1A8009E04A4BB3F9FB
:10411C000030002B00DA01335B101AB2464B1A80C8
:10412C00454BB3F90030B3F5FA7F6ADD424B002200
:10413C001A80354B02221A7063E0334B1B78022B2A
:10414C005FD1324B3D4A1A60324B4FF000021A607D
:10415C00314B1B781946314800F0D6FA03461B68E0
:10416C002F4A13602C4B1B7819462C4800F0CCFAC4
:10417C0003465B682B4A1360294BD3ED007A2A4B1C
:10418C0093ED007A9FED291AF0EE470AB0EE670A1C
:10419C0000F02AFAF0EE407A214BC3ED007A214B65
:1041AC00D3ED007A224B93ED007A9FED201AF0EEBE
:1041BC00470AB0EE670A00F017FAF0EE407A194B96
:1041CC00C3ED007A1B4BD3ED007AB2EE0E7A77EE8C
:1041DC00C77AB0EE670AFEF7ADF8F0EE407AB0EEB3
:1041EC00087AF4EEC77AF1EE10FA4CBF01230023E3
:1041FC00DBB2002B05D0044B00221A70104B0222AC
:10420C001A7000BF80BD00BF750600200C00002096
:10421C000000F041500600206006002078060020C7
:10422C0040060020480600203C06002000004843C1
:10423C004406002024060020620600200000704185
:10424C007406002080B500AF6F4B1B78002B40F03C
:10425C0085806E4B6E4A1A606E4B4FF000021A60EE
:10426C006D4B1B686D4A13606B4B5B686C4A13603B
:10427C006A4BD3ED007A6B4B93ED007A9FED6A1A83
:10428C00F0EE470AB0EE670A00F0AEF9F0EE407AB5
:10429C00624BC3ED007A624BD3ED007A634B93ED26
:1042AC00007A9FED611AF0EE470AB0EE670A00F053
:1042BC009BF9F0EE407A5A4BC3ED007A564B93EDD6
:1042CC00007A584BD3ED007A77EE677AB0EE670A36
:1042DC00FEF730F8F0EE407AB0EE087AF4EEC77ADA
:1042EC00F1EE10FA16D54C4B93ED017A4F4BD3ED02
:1042FC00007A77EE677AB0EE670AFEF71BF8F0EEFD
:10430C00407AB0EE087AF4EEC77AF1EE10FA01D5E5
:10431C00012300E00023002B09D0454BB3F90030FA
:10432C009BB201339BB21AB2414B1A8009E0404B4D
:10433C00B3F90030002B00DA01335B101AB23C4B9E
:10434C001A803B4BB3F90030B3F5FA7F59DD384B8B
:10435C0000221A802C4B01221A7052E02A4B1B7837
:10436C00012B4ED1294B2A4A1A602A4B4FF00002DE
:10437C001A60294B1B68294A1360274B5B68284A33
:10438C001360264BD3ED007A264B93ED007A9FED0C
:10439C00261AF0EE470AB0EE670A00F025F9F0EEA7
:1043AC00407A1E4BC3ED007A1D4BD3ED007A1F4BA8
:1043BC0093ED007A9FED1C1AF0EE470AB0EE670AF7
:1043CC0000F012F9F0EE407A154BC3ED007A00F0D4
:1043DC00C3F8184BB3F900309BB201339BB21AB23D
:1043EC00144B1A80134BB3F90030B3F5967F08DDEC
:1043FC00104B00221A80044B00221A700E4B002224
:10440C001A7000BF80BD00BF760600200C00002093
:10441C000000704150060020680600204006002075
:10442C00480600203C0600200000484344060020BB
:10443C0064060020660600207406002080B582B059
:10444C0000AF00237B600CE00A4B1A687B685B01B1
:10445C0013441846FEF795FB00F00EF87B68013309
:10446C007B607B68052BEFDD00BF00BF0837BD46C6
:10447C0080BD00BF0806002080B500AF0D4B1B6847
:10448C001846FEF729FC0C4B1B681846FEF724FC5B
:10449C000A4B1B681846FEF71FFC094B1B68184695
:1044AC00FEF71AFC074B1B681846FEF715FC00BFFD
:1044BC0080BD00BF10060020140600201806002046
:1044CC001C0600202006002080B58AB000AF164BD9
:1044DC00164A1A60144B154A5A60154A3B1D07CAF6
:1044EC0083E807003B1D1946124800F01EF9124ADA
:1044FC0007F1100307CA83E8070007F110031946F8
:10450C000C4800F012F90D4A07F11C0307CA83E8A6
:10451C00070007F11C031946064800F006F900BF16
:10452C002837BD4680BD00BF680600200000A041B2
:10453C006CF200087806002078F2000884F200087B
:10454C0080B500AF01220221024802F02BF900BF16
:10455C0080BD00BF0004025880B500AF00220221CC
:10456C00024802F01FF900BF80BD00BF00040258D2
:10457C0080B487B000AF87ED030AC7ED020A87ED60
:10458C00011A97ED027AD7ED017AB4EEE77AF1EEE3
:10459C0010FA04DBBB687B617B683B6103E07B68E2
:1045AC007B61BB683B6197ED037AD7ED057AB4EE7E
:1045BC00E77AF1EE10FA01DD7B690BE097ED037AF7
:1045CC00D7ED047AB4EEE77AF1EE10FA01D53B6937
:1045DC0000E0FB6807EE903AB0EE670A1C37BD4668
:1045EC005DF8047B7047000080B487B000AF87EDA6
:1045FC00030AC7ED020A87ED011A97ED037AD7ED8E
:10460C00027A77EE677AC7ED057AD7ED017A9FEDDE
:10461C001D7A67EE877A97ED057AB4EEE77AF1EEBC
:10462C0010FA08DDD7ED017A9FED167A67EE877ADE
:10463C00C7ED057A18E0D7ED017AF1EE677A9FEDB8
:10464C00117A67EE877A97ED057AB4EEE77AF1EE98
:10465C0010FA09D5D7ED017AF1EE677A9FED097A58
:10466C0067EE877AC7ED057A97ED027AD7ED057A72
:10467C0077EE277AB0EE670A1C37BD465DF8047BEF
:10468C00704700BF0AD7233C80B485B000AF786078
:10469C007B68FB607B6818461437BD465DF8047B6D
:1046AC00704780B582B000AF78607B68184600F028
:1046BC004DF80021786800F05AF87B6818460837E6
:1046CC00BD4680BD80B582B000AF78607B681B684A
:1046DC00002B10D07B6859697B685B6A04331A46DF
:1046EC00786800F0AAF87B6819687B685B681A46E2
:1046FC00786800F0BDF87B681846FFF7C5FF7B684B
:10470C0018460837BD4680BD80B582B000AF7860D2
:10471C0039607B6808333A681146184600F0D2F8C5
:10472C00034618460837BD4680BD80B582B000AF41
:10473C0078603960386800F0DBF803461946786811
:10474C0000F0E1F800BF0837BD4680BD80B584B0ED
:10475C0000AF78607B68FB60FB68BB607B681846C9
:10476C0000F007F97B6818461037BD4680BD90B540
:10477C0089B000AF786039600C20FEF7ADFB0246C3
:10478C003B68B3FBF2F30133FB610823FB60FB696D
:10479C0002333B6107F1100207F10C031146184676
:1047AC0000F000F903461A687B685A607B685B6806
:1047BC001946786800F00AF902467B681A607B6833
:1047CC001A687B685968FB69CB1A5B089B00134419
:1047DC00BB61FB699B00BA6913447B617A69B96957
:1047EC00786800F02FF97B680833B969184600F037
:1047FC0044F97B6803F118027B69043B19461046A7
:10480C0000F03BF97B68DA687B689A607B68DC694E
:10481C000C20FEF761FB02463B68B3FBF2F101FB97
:10482C0002F29A1A13465B0013449B00E2187B6851
:10483C009A6100BF2437BD4690BD80B586B000AFED
:10484C00F860B9607A60BB687B6108E07B691B68C3
:10485C001946F86800F02DF97B6904337B617A699D
:10486C007B689A42F2D300BF00BF1837BD4680BDAB
:10487C0080B58AB000AFF860B9607A6007F11003B8
:10488C00F968184600F03CF9BB687B627B683B62B8
:10489C0007F11003FB617B6ABB613B6A7B61FEF72E
:1048AC00FFFA0346002B03D0B8690AF060F904E064
:1048BC007A69B969F86900F034FB00BF00BF28378A
:1048CC00BD4680BD80B586B000AF7860396007F119
:1048DC0008033A687968184600F025F907F10803CF
:1048EC00184600F033F9034618461837BD4680BD0C
:1048FC0080B483B000AF78607B6818460C37BD4637
:10490C005DF8047B7047B0B586B000AF7860396055
:10491C007B689A697B681B6A0C3B9A4219D07D684C
:10492C007B689C69386800F01DF903467D613C6129
:10493C00FB60F86800F016F903461946386900F078
:10494C006BFA00BF7B689B6903F10C027B689A6170
:10495C0007E0386800F006F903461946786800F05D
:10496C000DF9786800F056F9034618461837BD461D
:10497C00B0BD80B582B000AF78607B6800221A6051
:10498C007B6800225A607B680833184600F05BF99C
:10499C007B681833184600F056F97B6818460837C0
:1049AC00BD4680BD80B483B000AF786039607B6851
:1049BC001A683B681B689A4201D23B6800E07B682E
:1049CC0018460C37BD465DF8047B704780B586B041
:1049DC0000AF7860396007F10C037968184600F075
:1049EC008FF83B687B6107F10C033B617B69BB6013
:1049FC00FEF756FA0346002B16D0BB68002299002E
:104A0C009B0F002B00D001220B46BB60134603F01A
:104A1C000103DBB2002B01D00AF0C3F8BB681846C7
:104A2C000AF0A9F8034607E0BB680022194638696A
:104A3C0000F070FB034600BF00BF00BF18461837DC
:104A4C00BD4680BD80B586B000AFF860B9607A60B5
:104A5C00BB687B6108E0F86800F00CF902467B69E2
:104A6C001A607B6904337B617A697B689A42F2D362
:104A7C0000BF00BF1837BD4680BD90B583B000AFF6
:104A8C00786039607B683A68DA603B681A687B68E2
:104A9C005A607B685C6800F02CF9024613465B0098
:104AAC0013449B00E2187B689A6000BF0C37BD462C
:104ABC0090BD90B589B000AF786039607C680C20EF
:104ACC00FEF70AFA0246FC613B68BB617A61FB693E
:104ADC003B61BB69FB607B69BB60FEF7E1F9034698
:104AEC00002B03D0F8680AF042F804E0BA68F968C1
:104AFC00386900F039FB00BF00BF2437BD4690BDBC
:104B0C0080B586B000AF78603960386800F0F9F88D
:104B1C0002467B687B613A617B69FB6000BF786809
:104B2C001837BD4680BD80B584B000AFF860B96061
:104B3C007A60B968F86800F0EFF87968F86800F006
:104B4C0007F900BFF8681037BD4680BD80B483B04C
:104B5C0000AF78607B681B6818460C37BD465DF863
:104B6C00047B704780B483B000AF78607B681846D4
:104B7C000C37BD465DF8047B70470000B0B586B0BD
:104B8C0000AF78603960786800F05EF904467868A8
:104B9C0000F06CF903469C420CBF01230023DBB2EE
:104BAC00002B02D01A4809F0FFFF0121786800F0B1
:104BBC006EF97A687B685B6A1C1D104600F05AF827
:104BCC00034623607D687B689C693868FFF7CAFFE1
:104BDC0003467D613C61FB60F868FFF7C3FF034649
:104BEC001946386900F018F900BF7B6803F1180208
:104BFC007B685B6A043319461046FFF73EFF7B68FF
:104C0C00DA697B689A6100BF1837BD46B0BD00BF3A
:104C1C0090F2000880B586B000AF786007F1080309
:104C2C007968184600F04EF907F10803184600F0B1
:104C3C0058F907F108031846FFF788FF0346184692
:104C4C001837BD4680BD80B483B000AF78607B68F8
:104C5C0000221A607B6800225A607B6800229A60EE
:104C6C007B680022DA607B6818460C37BD465DF81D
:104C7C00047B7047F0B587B000AF78607E680C207D
:104C8C00FEF72AF903467E613B617B69FB603B6959
:104C9C00BB60FEF705F90346002B1DD0BB68002155
:104CAC000C22A3FB02454FF000024FF000032A0038
:104CBC000023002A00D001212346BB600B4603F0E1
:104CCC000103DBB2002B01D009F06BFFBB68184667
:104CDC0009F051FF034607E0BB6800221946F8684B
:104CEC0000F098FA034600BF00BF18461C37BD46BB
:104CFC00F0BD80B500AF0C20FEF7EEF80346184669
:104D0C0080BD80B483B000AF78607B6818460C37E8
:104D1C00BD465DF8047B704780B483B000AF78600B
:104D2C0039603B681A687B681A603B685A687B6814
:104D3C005A603B689A687B689A603B68DA687B6863
:104D4C00DA607B6818460C37BD465DF8047B70470B
:104D5C0090B585B000AF786039607B681A687B6865
:104D6C005B68D31A9B102B4A02FB03F31A463B6871
:104D7C001344FB60FB68002B08DBFFF7BAFF03460C
:104D8C001A46FB68934201DA012300E00023002B52
:104D9C000AD07B6819683A6813465B0013449B0081
:104DAC00CA187B681A602FE0FB68002B07DDFFF741
:104DBC00A0FF03461A46FB6893FBF2F307E0FB687F
:104DCC00DC43FFF796FF0346B4FBF3F3DB43BB6016
:104DDC007B68DA68BB689B00134419467868FFF758
:104DEC004CFE7B685C68FFF784FF03461A46BB6881
:104DFC0002FB03F3FA68D31A1A4613465B001344FA
:104E0C009B00E2187B681A607B6818461437BD4615
:104E1C0090BD00BFABAAAAAA90B583B000AF7860D2
:104E2C0039607B6819460C20FEF74AF8044638684E
:104E3C00FFF798FE0246234607CA83E8070023467D
:104E4C0018460C37BD4690BD80B582B000AF786077
:104E5C007B6803F118027B6808331946104600F092
:104E6C006FF8034618460837BD4680BD80B582B042
:104E7C0000AF78607B681846FFF743FF034618467F
:104E8C0000F092F8034618460837BD4680BD80B541
:104E9C0082B000AF786039603B685A1C7B685B68F5
:104EAC007968486A79680968411A89105B1A9A42CC
:104EBC0004D900223968786800F092F800BF0837EE
:104ECC00BD4680BD80B582B000AF786039603B686C
:104EDC00183319467868FFF71FFF78680837BD4606
:104EEC0080BD80B582B000AF78607B681A687B6843
:104EFC005B689A420AD17B68DB68043B1946786888
:104F0C00FFF7BBFD7B689A687B681A607B681B683F
:104F1C00A3F10C027B681A607B6818460837BD4603
:104F2C0080BD80B584B000AFF860B9607A607B68F2
:104F3C009B001946B86809F01CFE1037BD4680BDB1
:104F4C0080B582B000AF78603960FFF7D2FE0346BF
:104F5C0019467B68DA683B68DB68D31A9B101A46E3
:104F6C007B68DB68002B14BF01230023DBB2D31A50
:104F7C0001FB03F37A6811687A6852688A1A9210F6
:104F8C00084901FB02F213443A6891683A681268C6
:104F9C008A1A9210034901FB02F21344184608378F
:104FAC00BD4680BDABAAAAAA80B586B000AF78601A
:104FBC006FF000433B617B687B61084BFB6007F142
:104FCC000C0207F110031146184600F0DFF80346F7
:104FDC001B6818461837BD4680BD00BF5555551582
:104FEC0090B58BB000AFF860B9601346FB71FB68ED
:104FFC005A6AFB685B69D31A9B1001333B62BB682E
:10500C003A6A1344FB61FB685A68FB695B009A427D
:10501C002DD9FB681A68FB685968FB69CB1A5B08C9
:10502C009900FB79002B02D0BB689B0000E00023A9
:10503C000B4413447B62FB685B697A6A9A4209D21F
:10504C00FB685869FB685B6A04337A6A194600F09E
:10505C00B1F848E0FB685869FB685B6A191D3B6A4C
:10506C009B007A6A13441A4600F0BCF83BE0FB68DC
:10507C005C68FB68043307F1080211461846FFF719
:10508C0091FC03461B6823440233BB61FB68B9697E
:10509C001846FFF79BFC7861BA69FB69D31A5B0869
:1050AC009A00FB79002B02D0BB689B0000E0002328
:1050BC0013447A6913447B62FB685869FB685B6A2A
:1050CC0004337A6A194600F075F8F868FB681968B9
:1050DC00FB685B681A46FFF7CBFBFB687A691A60C2
:1050EC00FB68BA695A60FB680833796A1846FFF79F
:1050FC00C4FCFB6803F118003A6A6FF04043134498
:10510C009B007A6A13441946FFF7B7FC00BF2C3793
:10511C00BD4690BD80B586B000AFF860B9607A60CE
:10512C00FB687B616FF06042BB6893428CBF0123CC
:10513C000023DBB2002B14BF01230023DBB2002BB6
:10514C0007D0BB68B3F1804F01D309F02AFD09F0F9
:10515C0025FDBB689B00184609F00DFD034600BFFA
:10516C0018461837BD4680BD80B584B000AFF860D6
:10517C00B9607A607A6813465B0013449B00194649
:10518C00B86809F0F6FC1037BD4680BD80B483B01A
:10519C0000AF786039603B681A687B681B689A427C
:1051AC0001D23B6800E07B6818460C37BD465DF8C1
:1051BC00047B704790B585B000AFF860B9607A6039
:1051CC00F86800F057F80446B86800F053F8034646
:1051DC007A681946204600F058F8034618461437EA
:1051EC00BD4690BD90B585B000AFF860B9607A60EF
:1051FC00F86800F03FF80446B86800F03BF8034646
:10520C007A681946204600F063F8034618461437AE
:10521C00BD4690BD80B586B000AFF860B9607A60CD
:10522C00FB687B61114ABB6893428CBF012300234E
:10523C00DBB2002B14BF01230023DBB2002B07D001
:10524C00BB680B4A934201D909F0ABFC09F0A6FCF0
:10525C00BA6813465B0013449B00184609F08BFC9C
:10526C00034600BF18461837BD4680BDAAAAAA0A35
:10527C005555551580B483B000AF78607B681846DF
:10528C000C37BD465DF8047B7047B0B584B000AFF9
:10529C00F860B9607A60F86800F03DF80446B868C8
:1052AC0000F039F805467B68184600F034F80346E0
:1052BC001A462946204600F039F802463B1D114695
:1052CC00184600F043F8034618461037BD46B0BDEB
:1052DC00B0B584B000AFF860B9607A60F86800F0DF
:1052EC001AF80446B86800F016F805467B681846AC
:1052FC0000F011F803461A462946204600F032F811
:10530C0002463B1D1146184600F020F8034618468D
:10531C001037BD46B0BD80B483B000AF78607B68F9
:10532C0018460C37BD465DF8047B704780B584B0D9
:10533C0000AFF860B9607A607A68B968F86800F014
:10534C0021F8034618461037BD4680BD80B483B0A3
:10535C0000AF786039603B6818460C37BD465DF885
:10536C00047B704780B584B000AFF860B9607A6098
:10537C007A68B968F86800F022F8034618461037C6
:10538C00BD4680BD80B584B000AFF860B9607A606E
:10539C00FDF78EFD0346002B06D07A68B968F868D5
:1053AC0000F02AF8034606E07A68B968F86800F05D
:1053BC0046F8034600BF18461037BD4680BD80B581
:1053CC0084B000AFF860B9607A60FDF771FD0346F8
:1053DC00002B06D07A68B968F86800F05AF80346D2
:1053EC0006E07A68B968F86800F076F8034600BF02
:1053FC0018461037BD4680BD80B487B000AFF8604A
:10540C00B9607A60BA68FB68D31A9B107B610CE0B8
:10541C00FB681A687B681A60FB680433FB607B6866
:10542C0004337B607B69013B7B617B69002BEFDC88
:10543C007B6818461C37BD465DF8047B704780B509
:10544C0086B000AFF860B9607A60BA68FB68D31AAE
:10545C009B107B617B69012BCCBF01230023DBB24A
:10546C00002B07D07B699B001A46F968786809F015
:10547C00A1FC06E07B69012B03D1F968786800F088
:10548C005CF87B699B007A68134418461837BD4654
:10549C0080BD80B487B000AFF860B9607A60BA683C
:1054AC00FB68D31A9B107B610CE0BB68043BBB60B0
:1054BC00BB681A687B68043B7B607B681A607B69FD
:1054CC00013B7B617B69002BEFDC7B6818461C374A
:1054DC00BD465DF8047B704780B586B000AFF860C0
:1054EC00B9607A60BA68FB68D31A9B107B617B69E0
:1054FC00012BCCBF01230023DBB2002B0BD07B692B
:10550C009B005B427A68D0187B699B001A46F9684D
:10551C0009F050FC08E07B69012B05D17B68043B4A
:10552C00F968184600F009F87B699B005B427A68C1
:10553C00134418461837BD4680BD80B483B000AF05
:10554C00786039603B681A687B681A6000BF0C375A
:10555C00BD465DF8047B7047F8B500AF182009F024
:10556C000AFB03461C462046FDF7CCFC3F4B1C6057
:10557C001C2009F000FB03461C462046FDF7E6FC08
:10558C003B4B1C601C2009F0F6FA03461C462046D7
:10559C00FDF7DCFC374B1C603C2009F0ECFA0346B1
:1055AC001C462046FDF7F6FC334B1C60C82009F066
:1055BC00F3FA03461C4620232360231D06221A609F
:1055CC0004F1080305251E4604E03046FDF72EFEC7
:1055DC00013D2036002DF8DA04F10803274A136048
:1055EC00482009F0C8FA03461C462046FDF7CFFDBB
:1055FC00234B1C60242009F0BEFA03461C462046AF
:10560C00FDF706FB1F4B1C60242009F0B4FA03467F
:10561C001C462046FDF7FCFA1B4B1C60242009F0AD
:10562C00AAFA03461C462046FDF7F2FA174B1C60FB
:10563C00242009F0A0FA03461C462046FDF7E8FAA0
:10564C00134B1C60242009F096FA03461C46204696
:10565C00FDF7DEFA0F4B1C600F48FDF70CFE0F4AEE
:10566C000F490D4809F07EFA00BFF8BDF80500207F
:10567C00FC0500200006002004060020080600207F
:10568C000C0600201006002014060020180600202E
:10569C001C060020200600207806002000000020B8
:1056AC00B156000880B58AB000AF786007F10803E6
:1056BC007968184600F01BF807F11803796818464A
:1056CC00FFF700FC7B68184600F020F8034607F152
:1056DC00180207F10801786800F023F87B68184677
:1056EC00FEF7F0FF7B6818462837BD4680BD80B5B5
:1056FC0082B000AF786039603B680833194678682F
:10570C00FFF70AFB78680837BD4680BD80B483B0CC
:10571C0000AF78607B6818460C37BD465DF8047B9B
:10572C00704780B48DB000AFF860B9607A603B60B0
:10573C0000BF3437BD465DF8047B704780B500AFC1
:10574C00FFF70AFF80BD000080B489B000AF0023D2
:10575C007B610023BB7400237B740023BB610EE0D0
:10576C00394ABB6908335B0013449A88BB695B00F8
:10577C0020333B4423F8202CBB690133BB61BB694C
:10578C00062BEDDD3B88C3F30B039BB23B80002360
:10579C00FB810023FB613AE0FB69002B03F0010362
:1057AC00B8BF5B42012B0BD1FB695B105B00203354
:1057BC003B4433F8203CDBB27A6953407B610CE00C
:1057CC00FB695B105B0020333B4433F8203C1B0A25
:1057DC009BB21A467B6953407B610823FB7410E033
:1057EC007B6903F40043002B05D07B695B0083F4D9
:1057FC0040537B6102E07B695B007B61FB7C013B7E
:10580C00FB74FB7C002BEBD1FB690133FB61FB6967
:10581C000F2BC1DD7B691B0B03F00F037B617B69D5
:10582C00BB74094B9B8A1B0B9BB27B74BA7C7B7C35
:10583C009A4201D1012300E0002318462437BD46CB
:10584C005DF8047B704700BFA006002080B584B0D3
:10585C0002AF0023FB711E23BB71BA1D42F2107301
:10586C0000930123EC21204801F052F8142000F0A1
:10587C0045FC0023FB712AE0FB795033DBB25B0063
:10588C00DBB2BB71BA1D42F2107300930123EC2101
:10589C00154801F03DF83A1D42F2107300930223B3
:1058AC00ED21114801F04CF93B791BB21B021AB2E5
:1058BC007B791BB213431AB2FB7991B20B4A0833B2
:1058CC005B0013440A469A80FB790133FB71FB7928
:1058DC00062BD1D9FFF738FF0346002BFAD0012352
:1058EC0018460837BD4680BD84000020A006002065
:1058FC002DE9B04FD0B000AF0023C7F830314FF0D6
:10590C0000024FF00003C7E94A234FF000024FF0AA
:10591C000003C7E948230023C7F83C310023C7F82C
:10592C0038310023C7F834314FF000024FF0000338
:10593C00C7E946234FF000024FF00003C7E94423A8
:10594C00DA4B1A69D94BDB8B1B02D31AC7F83031EF
:10595C00D64BDB8A9BB20022184611464FF000044E
:10596C004FF00005CD0345EA5045C403CF4B5B8B8C
:10597C009BB200229A469346D7F83031DA179846F4
:10598C00914608FB0BF20AFB09F31344AAFB08121D
:10599C00C7F80C210A46C7F80821D7F80C21134484
:1059AC00C7F80C31D7E94223002B07DA12F1FF01BB
:1059BC00396643F100037B66D7E918234FF00000EA
:1059CC004FF00001100A40EA0360191202460B4620
:1059DC00A118B96545EB0303FB65D7E91634C7E994
:1059EC004A34B24B1B8B9BB20022C7F8D830C7F895
:1059FC00DC204FF000044FF00005D7E936121346B7
:105A0C001D040B4645EA13450B461C04A74B9B8B08
:105A1C009BB20022C7F8D030C7F8D420D7F8303169
:105A2C00DA17C7F8C830C7F8CC20D7E934894B4609
:105A3C00D7E932AB524602FB03F25B46414601FB0F
:105A4C0003F3134442465146A2FB0112C7F804214A
:105A5C000A46C7F80021D7F804211344C7F80431CB
:105A6C00D7E94023002B07DA12F17F01396543F1A6
:105A7C0000037B65D7E914234FF000004FF00001C1
:105A8C00D00940EA4360D91102460B46A118B9640B
:105A9C0045EB0303FB64D7E91234C7E94834834B65
:105AAC00DB680022C7F8C030C7F8C420D7F828310B
:105ABC00D7E930452A4602FB03F2D7F82C312146B0
:105ACC0001FB03F31A44D7F828312146A3FB011339
