:020000040800F2
:1000000000000220B9620008710C0008790C000899
:10001000810C0008890C0008910C00080000000009
:10002000000000000000000000000000990C000823
:10003000A70C000800000000B50C0008C30C000865
:100040000D6300080D6300080D6300080D630008D0
:100050000D6300080D6300080D6300080D630008C0
:100060000D6300080D6300080D6300080D630008B0
:100070000D6300080D6300080D6300080D630008A0
:100080000D6300080D6300080D6300080D63000890
:100090000D6300080D6300080D6300080D63000880
:1000A0000D6300080D6300080D6300080D63000870
:1000B0000D6300080D6300080D6300080D63000860
:1000C0000D6300080D6300080D6300080D63000850
:1000D0000D630008D10C0008E50C0008F90C0008BD
:1000E0000D6300080D630008000000000D630008A8
:1000F0000D6300080D6300080D6300080D63000820
:100100000D6300080D6300080D6300080D6300080F
:100110000D0D0008210D0008350D00080D630008C5
:100120000D6300080D6300080D6300080D630008EF
:100130000D6300080D6300080D6300080D630008DF
:1001400000000000000000000000000000000000AF
:100150000D6300080D6300080D6300080D630008BF
:100160000D6300080D6300080D6300080D630008AF
:100170000D6300080D6300080D6300080000000017
:100180000D6300080D6300080D630008490D0008A9
:100190000D6300080D6300080D6300080D6300087F
:1001A0000D6300080D6300080D63000800000000E7
:1001B0000D6300080D6300080D6300080D6300085F
:1001C0000D6300080D63000800000000000000003F
:1001D00000000000000000000D63000800000000A7
:1001E000000000000000000000000000000000000F
:1001F00000000000000000000D6300080D6300080F
:100200000D6300080D630008000000000D63000886
:100210000D6300080D6300080D6300080D630008FE
:100220000D630008000000000D63000800000000DE
:100230000D6300080D630008000000000D63000856
:100240000D6300080D6300080D6300080D630008CE
:100250000D6300080D6300080D6300080D630008BE
:100260000D6300080D6300080D6300080D630008AE
:100270000D6300080D6300080D6300080000000016
:100280000D6300080D6300080D6300080D6300088E
:10029000000000000D6300080D630008000000006E
:1002A000000000000D6300080D6300080D630008E6
:1002B0000D6300080D6300080D6300080D6300085E
:0C02C0000D6300080D6300080D630008CA
:1002D00081F0004102E000BF83F0004330B54FEAF7
:1002E00041044FEA430594EA050F08BF90EA020F64
:1002F0001FBF54EA000C55EA020C7FEA645C7FEAF7
:10030000655C00F0E2804FEA5454D4EB5555B8BF19
:100310006D420CDD2C4480EA020281EA030382EA8A
:10032000000083EA010180EA020281EA0303362D1C
:1003300088BF30BD11F0004F4FEA01314FF4801CEF
:100340004CEA113102D0404261EB410113F0004F01
:100350004FEA03334CEA133302D0524263EB4303B8
:1003600094EA050F00F0A780A4F10104D5F1200E56
:100370000DDB02FA0EFC22FA05F2801841F10001B1
:1003800003FA0EF2801843FA05F359410EE0A5F185
:1003900020050EF1200E012A03FA0EFC28BF4CF0B6
:1003A000020C43FA05F3C01851EBE37101F000456C
:1003B00007D54FF0000EDCF1000C7EEB00006EEB79
:1003C0000101B1F5801F1BD3B1F5001F0CD3490803
:1003D0005FEA30004FEA3C0C04F101044FEA44525A
:1003E00012F5800F80F09A80BCF1004F08BF5FEAE1
:1003F000500C50F1000041EB045141EA050130BDC1
:100400005FEA4C0C404141EB0101013C28BFB1F5D2
:10041000801FE9D291F0000F04BF01460020B1FA1D
:1004200081F308BF2033A3F10B03B3F120020CDAF0
:100430000C3208DD02F1140CC2F10C0201FA0CF0CE
:1004400021FA02F10CE002F11402D8BFC2F1200C33
:1004500001FA02F120FA0CFCDCBF41EA0C019040E9
:10046000E41AA2BF01EB0451294330BD6FEA040432
:100470001F3C1CDA0C340EDC04F11404C4F120021D
:1004800020FA04F001FA02F340EA030021FA04F32F
:1004900045EA030130BDC4F10C04C4F1200220FA86
:1004A00002F001FA04F340EA0300294630BD21FAC4
:1004B00004F0294630BD94F0000F83F4801306BF8A
:1004C00081F480110134013D4EE77FEA645C18BF7E
:1004D0007FEA655C29D094EA050F08BF90EA020F15
:1004E00005D054EA000C04BF1946104630BD91EA0D
:1004F000030F1EBF0021002030BD5FEA545C05D110
:100500004000494128BF41F0004130BD14F580044E
:100510003CBF01F5801130BD01F0004545F0FE41C2
:1005200041F470014FF0000030BD7FEA645C1ABFF7
:10053000194610467FEA655C1CBF0B46024650EA2E
:10054000013406BF52EA033591EA030F41F400215A
:1005500030BD00BF90F0000F04BF0021704730B5E0
:100560004FF4806404F132044FF000054FF00001B5
:1005700050E700BF90F0000F04BF0021704730B576
:100580004FF4806404F1320410F0004548BF40424B
:100590004FF000013EE700BF42004FEAE2014FEAA0
:1005A00031014FEA02701FBF12F07F4393F07F4F7B
:1005B00081F06051704732F07F4208BF704793F07E
:1005C0007F4F04BF41F40021704730B54FF4607491
:1005D00001F0004521F000411CE700BF50EA010294
:1005E00008BF704730B54FF000050AE050EA01023D
:1005F00008BF704730B511F0004502D5404261EBAD
:1006000041014FF4806404F132045FEA915C3FF4ED
:10061000D8AE4FF003025FEADC0C18BF03325FEA8A
:10062000DC0C18BF033202EBDC02C2F1200300FA3B
:1006300003FC20FA02F001FA03FE40EA0E0021FA60
:1006400002F11444BDE600BF7BB972B90029BEBFF8
:1006500000204FF0004106E008BF00281CBF6FF0EB
:1006600000414FF0FF3000F057B8ADF1080C6DE9D4
:1006700004CE002909DB002B1ADB0FF01BF8DDF894
:1006800004E0DDE9022304B07047404261EB410120
:10069000002B1BDB0FF00EF8DDF804E0DDE9022390
:1006A00004B0404261EB4101524263EB43037047A7
:1006B000524263EB43030EF0FDFFDDF804E0DDE999
:1006C000022304B0404261EB41017047524263EBA8
:1006D00043030EF0EFFFDDF804E0DDE9022304B090
:1006E000524263EB4303704753B94AB9002908BF2C
:1006F00000281CBF4FF0FF314FF0FF3000F00CB866
:10070000ADF1080C6DE904CE0EF0D4FFDDF804E085
:10071000DDE9022304B07047704700BF0348044B73
:10072000834202D0034B03B1184770476800002092
:1007300068000020000000000548064B1B1AD90F76
:1007400001EBA301491002D0034B03B118477047D6
:1007500068000020680000200000000010B5064C72
:10076000237843B9FFF7DAFF044B13B10448AFF322
:1007700000800123237010BD6800002000000000ED
:1007800070F9000808B5054B1BB105490548AFF3E2
:100790000080BDE80840FFF7CFBF00BF00000000A9
:1007A0006C00002070F9000880B58CB000AF07F134
:1007B0001C0300221A605A609A60DA601A615E4B6C
:1007C000D3F8E0305C4A43F00403C2F8E0305A4BFF
:1007D000D3F8E03003F00403BB61BB69564BD3F898
:1007E000E030554A43F08003C2F8E030524BD3F872
:1007F000E03003F080037B617B694F4BD3F8E0303E
:100800004D4A43F00103C2F8E0304B4BD3F8E030DF
:1008100003F001033B613B69474BD3F8E030464AA4
:1008200043F00203C2F8E030434BD3F8E03003F06A
:100830000203FB60FB68404BD3F8E0303E4A43F0D4
:100840002003C2F8E0303C4BD3F8E03003F0200343
:10085000BB60BB68384BD3F8E030374A43F0100335
:10086000C2F8E030344BD3F8E03003F010037B6083
:100870007B68314BD3F8E0302F4A43F00803C2F8CD
:10088000E0302D4BD3F8E03003F008033B603B68C9
:1008900000224FF40C51294806F020F900220321D0
:1008A000274806F01BF900224FF40041254806F0C6
:1008B00015F900221821244806F010F94FF40C53C2
:1008C000FB6101233B6202237B620023BB6207F1D1
:1008D0001C031946194805F059FF0323FB61012346
:1008E0003B6202237B620023BB6207F11C031946B3
:1008F000134805F04BFF4FF40043FB6101233B62BB
:1009000002237B620023BB6207F11C0319460D48DA
:1009100005F03CFF1823FB6101233B6202237B624D
:100920000023BB6207F11C031946074805F02EFFA0
:1009300000BF3037BD4680BD004402580008025851
:100940000004025800100258000C025880B500AF95
:100950001B4B1C4A1A601A4B1B4A5A60184B002248
:100960009A60174B0122DA60154B00221A61144B72
:1009700000225A61124B00229A61114B0022DA6167
:100980000F4B00221A620E4806F0C2F80346002BF5
:1009900001D000F04DF90021094806F009FE034698
:1009A000002B01D000F044F90021054806F04BFE71
:1009B0000346002B01D000F03BF900BF80BD00BF13
:1009C0008400002000540040724E406080B5B8B0F2
:1009D00000AF786007F1CC0300221A605A609A6079
:1009E000DA601A6107F11003B822002118460EF0F0
:1009F0008FFD7B681B68264A934245D14FF0080261
:100A00004FF00003C7E904230023C7F8903007F133
:100A10001003184607F004FE0346002B01D000F037
:100A200007F91C4BD3F8E0301A4A43F00203C2F82E
:100A3000E030184BD3F8E03003F00203FB60FB68B2
:100A4000C023C7F8CC301223C7F8D0300023C7F832
:100A5000D4300023C7F8D8300423C7F8DC3007F1BE
:100A6000CC0319460C4805F091FE0A4BD3F8E83048
:100A7000084A43F40013C2F8E830064BD3F8E830D4
:100A800003F40013BB60BB6800BFE037BD4680BD08
:100A900000540040004402580004025880B500AFE2
:100AA00000F09AF805F034FC00F028F8FFF77CFE1F
:100AB000FFF74CFF00F054FF00F028FD01F034F880
:100AC00000F08AFB01F07CF800F096FF00F048FA95
:100AD00000F0FAFB00F0E2FC00F0FCFA00F08EFC03
:100AE00001F0BAF800F0D4FF03F03AF8024809F038
:100AF00057FC00BFFDE700BF5802002080B59CB046
:100B000000AF07F124034C22002118460EF000FD2F
:100B10003B1D2022002118460EF0FAFC022006F0B0
:100B2000DFFD00233B602B4B9B692A4A23F44043A3
:100B30009361284B9B6903F440433B603B6800BFD3
:100B4000244B9B6903F40053B3F5005FF8D10123F4
:100B50007B624FF48033BB620223BB640223FB64DD
:100B600002233B652C237B650123BB650223FB65C8
:100B700002233B660C237B660023BB660023FB66D7
:100B800007F12403184606F0E5FD0346002B01D0CB
:100B900000F04EF83F237B600323BB600023FB6023
:100BA00008233B6140237B614023BB614FF480639A
:100BB000FB6140233B623B1D0321184607F0A4F96B
:100BC0000346002B01D000F033F800BF7037BD465C
:100BD00080BD00BF0048025880B584B000AF3B46DE
:100BE00000221A605A609A60DA6005F057FD01230E
:100BF0003B7000237B7000237B601F233B728723A5
:100C00007B720023BB720023FB7201233B73012321
:100C10007B730023BB730023FB733B46184605F030
:100C200075FD042005F052FD00BF1037BD4680BDA4
:100C300080B400AF72B600BF00BFFDE780B483B0E0
:100C400000AF0A4BD3F8F430084A43F00203C2F86D
:100C5000F430064BD3F8F43003F002037B607B687A
:100C600000BF0C37BD465DF8047B70470044025856
:100C700080B400AF00BFFDE780B400AF00BFFDE768
:100C800080B400AF00BFFDE780B400AF00BFFDE758
:100C900080B400AF00BFFDE780B400AF00BFBD4629
:100CA0005DF8047B704780B400AF00BFBD465DF8BF
:100CB000047B704780B400AF00BFBD465DF8047B85
:100CC000704780B500AF05F095FB00BF80BD000008
:100CD00080B500AF02480AF059FF00BF80BD00BFD9
:100CE000AC04002080B500AF02480AF04FFF00BFFF
:100CF00080BD00BF4005002080B500AF02480AF06B
:100D000045FF00BF80BD00BFD405002080B500AF07
:100D100002480AF03BFF00BF80BD00BFF002002088
:100D200080B500AF02480AF031FF00BF80BD00BFB0
:100D30008403002080B500AF024809F035FD00BFF4
:100D400080BD00BF5802002080B500AF02480AF005
:100D50001DFF00BF80BD00BF1804002080B400AF9D
:100D600001231846BD465DF8047B704780B582B00C
:100D700000AF786039600EF027FC034616221A6037
:100D80004FF0FF3318460837BD4680BD80B582B0AE
:100D900000AF78604FF0FF317868FFF7E7FF00BFE2
:100DA000FDE7000080B586B000AF7860144A154BAF
:100DB000D31A7B617B693B61134B1B68002B02D10B
:100DC000114B124A1A60104B1A687B6813443A6937
:100DD0009A4207D20EF0F8FB03460C221A604FF03D
:100DE000FF3309E0084B1B68FB60074B1A687B6800
:100DF0001344054A1360FB6818461837BD4680BD8A
:100E00000000022000040000D80000203815002057
:100E100080B400AF3E4BD3F888303D4A43F47003B2
:100E2000C2F888303B4B1B6803F00F03062B07D832
:100E3000384B1B6823F00F03364A43F00703136057
:100E4000354B1B68344A43F001031360324B0022D8
:100E50001A61314B1A683049304B13400B602D4BEF
:100E60001B6803F00803002B07D02A4B1B6823F0F4
:100E70000F03284A43F007031360274B00229A61AF
:100E8000254B0022DA61244B00221A62224B244AAD
:100E90009A62214B234ADA621F4B234A1A631E4B84
:100EA00000225A631C4B204A9A631B4B0022DA63D0
:100EB000194B1D4A1A64184B00225A64164B1B68C2
:100EC000154A23F480231360134B00221A66124B39
:100ED000D3F8D43003F48053002B13D10E4BD3F846
:100EE000D4300D4A43F48053C2F8D4300F4B43F250
:100EF000D2021A60084BD3F8D430074A23F4805347
:100F0000C2F8D43000BFBD465DF8047B704700BF17
:100F100000ED00E000200052004402587FEDF6EAA8
:100F2000000202020000FF018002010100400052A5
:100F300080B400AF094BDB68084A43F00203D3607A
:100F400000BF064B5B6803F40053002BF9D000BFD1
:100F500000BFBD465DF8047B704700BF00480258E3
:100F600080B59CB000AF07F1600300221A605A60A0
:100F70009A60DA6007F1540300221A605A609A609E
:100F800007F1380300221A605A609A60DA601A6129
:100F90005A619A613B1D3422002118460EF0B8FABE
:100FA0004A4B4B4A1A60494B4FF489725A60474B7F
:100FB00000229A60454B44F61F62DA60434B0022E0
:100FC0001A61424B00225A61404B00229A613F480D
:100FD00009F0E8F80346002B01D0FFF729FE4FF493
:100FE00080533B6607F160031946384809F0F8FD65
:100FF0000346002B01D0FFF71BFE344809F056FAD8
:101000000346002B01D0FFF713FE00237B6500236E
:10101000BB650023FB6507F1540319462B480AF012
:1010200045FB0346002B01D0FFF702FE6023BB63A4
:101030000023FB6300233B6400237B640023BB6429
:101040000023FB6400233B6507F13803082219469F
:101050001E4809F0B1FC0346002B01D0FFF7E8FD64
:1010600007F138030C221946184809F0A5FC03467D
:10107000002B01D0FFF7DCFD00237B600023BB6069
:101080000023FB6000233B6100237B614FF400538E
:10109000BB610023FB6100237B624FF00073BB62E6
:1010A0000023FB6200237B633B1D194607480AF0BF
:1010B00099FB0346002B01D0FFF7BAFD034800F06F
:1010C0006FFB00BF7037BD4680BD00BFDC00002055
:1010D0000000014080B58EB000AF07F12803002268
:1010E0001A605A609A60DA6007F11C0300221A60E5
:1010F0005A609A603B4600221A605A609A60DA6031
:101100001A615A619A61334B4FF080421A60314B39
:101110004FF489725A602F4B00229A602D4B632244
:10112000DA602C4B00221A612A4B00229A6129486E
:1011300009F038F80346002B01D0FFF779FD4FF492
:101140008053BB6207F128031946224809F048FD85
:101150000346002B01D0FFF76BFD1E4809F0A6F9EE
:101160000346002B01D0FFF763FD0023FB61002342
:101170007B6207F11C03194616480AF097FA0346EA
:10118000002B01D0FFF754FD60233B6000237B6000
:101190000023BB6000233B613B46042219460D48F7
:1011A00009F00AFC0346002B01D0FFF741FD3B4646
:1011B00008221946074809F0FFFB0346002B01D01F
:1011C000FFF736FD034800F0EBFA00BF3837BD46A5
:1011D00080BD00BF2801002080B58EB000AF07F1B0
:1011E000280300221A605A609A60DA6007F11C0333
:1011F00000221A605A609A603B4600221A605A60C8
:101200009A60DA601A615A619A612D4B2D4A1A6010
:101210002B4B4FF489725A60294B00229A60284B5D
:101220004FF6FF72DA60264B00221A61244B00222F
:101230009A61234808F0B6FF0346002B01D0FFF760
:10124000F7FC4FF48053BB6207F1280319461C4892
:1012500009F0C6FC0346002B01D0FFF7E9FC184853
:1012600009F024F90346002B01D0FFF7E1FC00232D
:10127000FB6100237B6207F11C03194610480AF04A
:1012800015FA0346002B01D0FFF7D2FC60233B6028
:1012900000237B600023BB6000233B613B460022B0
:1012A0001946074809F088FB0346002B01D0FFF7D9
:1012B000BFFC034800F074FA00BF3837BD4680BD5C
:1012C000740100200004004080B58EB000AF07F12B
:1012D000280300221A605A609A60DA6007F11C0342
:1012E00000221A605A609A603B4600221A605A60D7
:1012F0009A60DA601A615A619A613E4B3E4A1A60FE
:101300003C4B4FF489725A603A4B00229A60394B39
:1013100044F61F62DA60374B00221A61354B002217
:101320009A61344808F03EFF0346002B01D0FFF7D6
:101330007FFC4FF48053BB6207F1280319462D4808
:1013400009F04EFC0346002B01D0FFF771FC294841
:1013500009F0ACF80346002B01D0FFF769FC00232D
:10136000FB6100237B6207F11C03194621480AF048
:101370009DF90346002B01D0FFF75AFC60233B6028
:1013800000237B600023BB6000233B613B460022BF
:101390001946184809F010FB0346002B01D0FFF74F
:1013A00047FC3B4604221946124809F005FB034658
:1013B000002B01D0FFF73CFC3B46082219460D48A4
:1013C00009F0FAFA0346002B01D0FFF731FC3B4647
:1013D0000C221946074809F0EFFA0346002B01D00A
:1013E000FFF726FC034800F0DBF900BF3837BD46A5
:1013F00080BD00BFC00100200008004080B588B05B
:1014000000AF07F1100300221A605A609A60DA6098
:101410003B1D00221A605A609A601E4B1E4A1A60D9
:101420001C4B4FF489725A601A4B00229A60194B78
:101430004FF0FF32DA60174B00221A61154B002281
:101440009A61144808F0AEFE0346002B01D0FFF766
:10145000EFFB4FF480533B6107F1100319460D4831
:1014600009F0BEFB0346002B01D0FFF7E1FB002390
:101470007B600023FB603B1D194606480AF016F905
:101480000346002B01D0FFF7D3FB00BF2037BD463A
:1014900080BD00BF0C020020000C004080B584B06D
:1014A00000AF3B1D00221A605A609A60154B164A25
:1014B0001A60144B4FF489725A60124B00229A60E2
:1014C000104B42F20F72DA600E4B00229A610D4807
:1014D00008F068FE0346002B01D0FFF7A9FB0023AC
:1014E0007B600023FB603B1D194606480AF0DEF8CE
:1014F0000346002B01D0FFF79BFB00BF1037BD4612
:1015000080BD00BF580200200010004080B58EB0A2
:1015100000AF07F1280300221A605A609A60DA606F
:1015200007F11C0300221A605A609A603B460022B1
:101530001A605A609A60DA601A615A619A613E4B89
:101540003E4A1A603C4B4FF489725A603A4B002273
:101550009A60394B44F61F62DA60374B00221A61F9
:10156000354B00229A61344808F01CFE0346002BDC
:1015700001D0FFF75DFB4FF48053BB6207F12803F6
:1015800019462D4809F02CFB0346002B01D0FFF72C
:101590004FFB294808F08AFF0346002B01D0FFF7D4
:1015A00047FB0023FB6100237B6207F11C03194604
:1015B00021480AF07BF80346002B01D0FFF738FBE7
:1015C00060233B6000237B600023BB6000233B6102
:1015D0003B4600221946184809F0EEF90346002B55
:1015E00001D0FFF725FB3B4604221946124809F0BB
:1015F000E3F90346002B01D0FFF71AFB3B46082214
:1016000019460D4809F0D8F90346002B01D0FFF721
:101610000FFB3B460C221946074809F0CDF903465B
:10162000002B01D0FFF704FB034800F0B9F800BF1E
:101630003837BD4680BD00BFA402002000E4004052
:1016400080B58AB000AF78607B681B684D4A9342D2
:101650000FD14D4BD3F8F0304B4A43F00103C2F8A1
:10166000F030494BD3F8F03003F001037B627B6A22
:1016700084E07B681B68B3F1804F0FD1424BD3F8F5
:10168000E830414A43F00103C2F8E8303E4BD3F85A
:10169000E83003F001033B623B6A6FE07B681B6844
:1016A0003A4A93420FD1384BD3F8E830364A43F0E8
:1016B0000203C2F8E830344BD3F8E83003F00203F9
:1016C000FB61FB695AE07B681B68314A93420FD18A
:1016D0002D4BD3F8E8302C4A43F00403C2F8E8302D
:1016E000294BD3F8E83003F00403BB61BB6945E044
:1016F0007B681B68274A93420FD1234BD3F8E8300D
:10170000214A43F00803C2F8E8301F4BD3F8E83011
:1017100003F008037B617B6930E07B681B681E4A2D
:10172000934217D1184BD3F8E830174A43F010030F
:10173000C2F8E830144BD3F8E83003F010033B61F3
:101740003B6900220F21362004F073FF362004F09D
:101750008AFF13E07B681B68104A93420ED10A4B44
:10176000D3F8EC30084A43F00073C2F8EC30064B73
:10177000D3F8EC3003F00073FB60FB6800BF283740
:10178000BD4680BD000001400044025800040040F6
:1017900000080040000C00400010004000E4004041
:1017A00080B58CB000AF786007F11C0300221A608E
:1017B0005A609A60DA601A617B681B685E4A9342DD
:1017C00020D15E4BD3F8E0305C4A43F01003C2F8FE
:1017D000E0305A4BD3F8E03003F01003BB61BB6933
:1017E0004FF4C043FB6102233B6200237B62002372
:1017F000BB620123FB6207F11C031946504804F049
:10180000C5FF94E07B681B68B3F1804F1FD14B4B41
:10181000D3F8E030494A43F00103C2F8E030474BC7
:10182000D3F8E03003F001037B617B690623FB61A1
:1018300002233B6200237B620023BB620123FB6225
:1018400007F11C0319463F4804F0A0FF6FE07B68D6
:101850001B683D4A93421FD1384BD3F8E030374ADA
:1018600043F00403C2F8E030344BD3F8E03003F027
:1018700004033B613B694023FB6102233B6200237D
:101880007B620023BB620223FB6207F11C03194643
:101890002E4804F07BFF4AE07B681B682C4A934289
:1018A00020D1264BD3F8E030244A43F00803C2F895
:1018B000E030224BD3F8E03003F00803FB60FB6814
:1018C0004FF47043FB6102233B6200237B620023E1
:1018D000BB620223FB6207F11C0319461D4804F09A
:1018E00055FF24E07B681B681B4A93421FD1134BB2
:1018F000D3F8E030114A43F02003C2F8E0300F4B38
:10190000D3F8E03003F02003BB60BB684FF4F04332
:10191000FB6102233B6200237B620023BB620E2338
:10192000FB6207F11C0319460C4804F02FFF00BFAF
:101930003037BD4680BD00BF000001400044025862
:10194000001002580000025800040040000802582D
:1019500000080040000C025800E400400014025847
:1019600080B500AF224B234A1A60214B4FF4E1327D
:101970005A601F4B00229A601D4B0022DA601C4BFC
:1019800000221A611A4B0C225A61194B00229A61EB
:10199000174B0022DA61164B00221A62144B002208
:1019A0005A62134B00229A62114809F0C5FF0346A0
:1019B000002B01D0FFF73CF900210D480CF03FFC53
:1019C0000346002B01D0FFF733F9002108480CF043
:1019D00074FC0346002B01D0FFF72AF904480CF0F1
:1019E000F5FB0346002B01D0FFF722F900BF80BDB5
:1019F000F0020020004C004080B500AF224B234A8B
:101A00001A60214B4FF4E1325A601F4B00229A605A
:101A10001D4B0022DA601C4B00221A611A4B0C226B
:101A20005A61194B00229A61174B0022DA61164B5A
:101A300000221A62144B00225A62134B00229A624F
:101A4000114809F079FF0346002B01D0FFF7F0F8A9
:101A500000210D480CF0F3FB0346002B01D0FFF7EB
:101A6000E7F8002108480CF028FC0346002B01D0C1
:101A7000FFF7DEF804480CF0A9FB0346002B01D069
:101A8000FFF7D6F800BF80BD84030020005000405F
:101A900080B500AF224B234A1A60214B4FF4E1324C
:101AA0005A601F4B00229A601D4B0022DA601C4BCB
:101AB00000221A611A4B0C225A61194B00229A61BA
:101AC000174B0022DA61164B00221A62144B0022D7
:101AD0005A62134B00229A62114809F02DFF034607
:101AE000002B01D0FFF7A4F800210D480CF0A7FB54
:101AF0000346002B01D0FFF79BF8002108480CF0AB
:101B0000DCFB0346002B01D0FFF792F804480CF0F1
:101B10005DFB0346002B01D0FFF78AF800BF80BDB4
:101B200018040020007C004080B500AF224B234AFF
:101B30001A60214B4FF4E1325A601F4B00229A6029
:101B40001D4B0022DA601C4B00221A611A4B0C223A
:101B50005A61194B00229A61174B0022DA61164B29
:101B600000221A62144B00225A62134B00229A621E
:101B7000114809F0E1FE0346002B01D0FFF758F8A9
:101B800000210D480CF05BFB0346002B01D0FFF752
:101B90004FF8002108480CF090FB0346002B01D0C1
:101BA000FFF746F804480CF011FB0346002B01D068
:101BB000FFF73EF800BF80BDAC04002000100140DC
:101BC00080B500AF224B234A1A60214B4FF4E1321B
:101BD0005A601F4B00229A601D4B0022DA601C4B9A
:101BE00000221A611A4B0C225A61194B00229A6189
:101BF000174B0022DA61164B00221A62144B0022A6
:101C00005A62134B00229A62114809F095FE03466E
:101C1000002B01D0FFF70CF800210D480CF00FFB52
:101C20000346002B01D0FFF703F8002108480CF011
:101C300044FB0346002B01D0FEF7FAFF04480CF0EA
:101C4000C5FA0346002B01D0FEF7F2FF00BF80BDAE
:101C5000400500200044004080B500AF224B234ADD
:101C60001A60214B4FF4E1325A601F4B00229A60F8
:101C70001D4B0022DA601C4B00221A611A4B0C2209
:101C80005A61194B00229A61174B0022DA61164BF8
:101C900000221A62144B00225A62134B00229A62ED
:101CA000114809F049FE0346002B01D0FEF7C0FFA2
:101CB00000210D480CF0C3FA0346002B01D0FEF7BB
:101CC000B7FF002108480CF0F8FA0346002B01D0BA
:101CD000FEF7AEFF04480CF079FA0346002B01D062
:101CE000FEF7A6FF00BF80BDD405002000480040DD
:101CF00080B5C6B000AF07F58C73A3F58A73186082
:101D000007F5827300221A605A609A60DA601A61DD
:101D100007F14803B822002118460DF0F9FB07F53A
:101D20008C73A3F58A731B681B68D24A934273D1E4
:101D30004FF002024FF00003C7E912230023C7F857
:101D4000BC3007F14803184606F06AFC0346002B36
:101D500001D0FEF76DFFC84BD3F8E830C64A43F414
:101D60000023C2F8E830C44BD3F8E83003F4002372
:101D70007B647B6CC04BD3F8E030BF4A43F0010377
:101D8000C2F8E030BC4BD3F8E03003F001033B6411
:101D90003B6CB94BD3F8E030B74A43F00403C2F8C8
:101DA000E030B54BD3F8E03003F00403FB63FB6B8A
:101DB0000123C7F804310223C7F808310023C7F80C
:101DC0000C310023C7F810310823C7F8143107F588
:101DD00082731946A94804F0D9FC4FF40063C7F890
:101DE00004310223C7F808310023C7F80C3100235F
:101DF000C7F810310823C7F8143107F58273194664
:101E00009F4804F0C3FC00220221342004F011FC9E
:101E1000342004F028FC64E207F58C73A3F58A7380
:101E20001B681B68974A934273D14FF002024FF030
:101E30000003C7E912230023C7F8BC3007F14803A9
:101E4000184606F0EDFB0346002B01D0FEF7F0FE2E
:101E5000894BD3F8E830884A43F48013C2F8E8305D
:101E6000854BD3F8E83003F48013BB63BB6B824B24
:101E7000D3F8E030804A43F00403C2F8E0307E4BF0
:101E8000D3F8E03003F004037B637B6B7A4BD3F829
:101E9000E030794A43F00803C2F8E030764BD3F8DB
:101EA000E03003F008033B633B6B4FF48053C7F80B
:101EB00004310223C7F808310023C7F80C3100238E
:101EC000C7F810310823C7F8143107F58273194693
:101ED0006B4804F05BFC0423C7F804310223C7F805
:101EE00008310023C7F80C310023C7F8103108234C
:101EF000C7F8143107F582731946634804F046FCAD
:101F000000220121352004F094FB352004F0ABFBC6
:101F1000E7E107F58C73A3F58A731B681B685B4ABE
:101F200093424ED14FF002024FF00003C7E9122353
:101F30000023C7F8BC3007F14803184606F070FBD1
:101F40000346002B01D0FEF773FE4B4BD3F8E8306D
:101F5000494A43F00043C2F8E830474BD3F8E83031
:101F600003F00043FB62FB6A434BD3F8E030424A84
:101F700043F01003C2F8E0303F4BD3F8E03003F0F9
:101F80001003BB62BB6A0323C7F804310223C7F8FE
:101F900008310023C7F80C310023C7F8103108239B
:101FA000C7F8143107F582731946394804F0EEFB7F
:101FB00000220021532004F03CFB532004F053FB8B
:101FC0008FE107F58C73A3F58A731B681B68314A90
:101FD000934263D14FF001024FF00003C7E912238F
:101FE0000023C7F8C03007F14803184606F018FB75
:101FF0000346002B01D0FEF71BFE1F4BD3F8F03039
:102000001D4A43F01003C2F8F0301B4BD3F8F030F8
:1020100003F010037B627B6A174BD3F8E030164A5B
:1020200043F00203C2F8E030134BD3F8E03003F082
:1020300002033B623B6A4FF44043C7F8043102237A
:10204000C7F808310023C7F80C310023C7F8103156
:102050000423C7F8143107F5827319460E4804F0BB
:1020600095FB00220021252004F0E3FA252004F04E
:10207000FAFA36E1004C00400044025800000258D1
:102080000008025800500040000C0258007C00403C
:1020900000100258001001400004025807F58C732C
:1020A000A3F58A731B681B68904A934240F08380B3
:1020B0004FF002024FF00003C7E912230023C7F8D4
:1020C000BC3007F14803184606F0AAFA0346002B75
:1020D00001D0FEF7ADFD864BD3F8E830844A43F4D7
:1020E0000033C2F8E830824BD3F8E83003F4003311
:1020F000FB61FB697E4BD3F8E0307D4A43F001037E
:10210000C2F8E0307A4BD3F8E03003F0010207F573
:102110008C73A3F580731A6007F58C73A3F5807335
:102120001B68734BD3F8E030714A43F00803C2F8E0
:10213000E0306F4BD3F8E03003F0080207F58C7302
:10214000A3F582731A6007F58C73A3F582731B687D
:102150000823C7F804310223C7F808310023C7F861
:102160000C310023C7F810310723C7F8143107F5E5
:10217000827319465F4804F009FB2023C7F8043135
:102180000223C7F808310023C7F80C310023C7F831
:1021900010310723C7F8143107F5827319465648E2
:1021A00004F0F4FA00220521262004F042FA262049
:1021B00004F059FA95E007F58C73A3F58A731B6850
:1021C0001B684E4A934240F08C804FF002024FF061
:1021D0000003C7E912230023C7F8BC3007F1480306
:1021E000184606F01DFA0346002B01D0FEF720FD2D
:1021F0003F4BD3F8E8303E4A43F48023C2F8E8303E
:102200003B4BD3F8E83003F4802207F58C73A3F539
:1022100084731A6007F58C73A3F584731B68344BC1
:10222000D3F8E030324A43F00203C2F8E030304BDA
:10223000D3F8E03003F0020207F58C73A3F5867340
:102240001A6007F58C73A3F586731B68284BD3F8C7
:10225000E030274A43F00803C2F8E030244BD3F8BB
:10226000E03003F0080207F58C73A3F588731A6059
:1022700007F58C73A3F588731B684FF48063C7F868
:1022800004310223C7F808310023C7F80C310023BA
:10229000C7F810310723C7F8143107F582731946C0
:1022A000174804F073FA4FF40073C7F8043102239F
:1022B000C7F808310023C7F80C310023C7F81031E4
:1022C0000723C7F8143107F5827319460A4804F04A
:1022D0005DFA00220421272004F0ABF9272004F046
:1022E000C2F900BF07F58C77BD4680BD00440040B1
:1022F0000044025800000258000C025800480040F8
:102300000004025880B483B000AF78607B689B689B
:1023100007EE903AB0EE670A0C37BD465DF8047BD5
:102320007047000080B582B000AF786039607B688C
:102330003A685A6400221021094804F0CFFB0022B9
:102340000821074804F0CAFB7B68586C7B680C3393
:102350000122194609F0CEFB00BF0837BD4680BDFB
:10236000000C025880B586B000AF78607B681B7B9C
:10237000FF2B03D07B681B7BFE2B06D17B680022E2
:10238000DA757B6806221A761CE07B681B7BFD2BC6
:1023900006D17B680022DA757B6804221A7611E088
:1023A0007B681B7BFC2B07D07B681B7BFB2B03D044
:1023B0007B681B7BFA2B05D17B680022DA757B6872
:1023C00003221A767B68DB7D19467B681A7B7B6863
:1023D0000B445A737B68DB7D0133DAB27B68DA75B4
:1023E0007B68DB7D092B02D97B680022DA757B686C
:1023F000DA7D7B681B7E9A4240F001817B685B7BC3
:10240000FF2B1FD07B685B7BFE2B1BD07B685B7B2D
:10241000FD2B17D07B685B7BFC2B13D07B685B7B31
:10242000FB2B0FD07B685B7BFA2B0BD07B680022E9
:10243000DA757B68586C7B680C330122194609F009
:1024400059FBE4E00023FB7501233B610AE07A6855
:102450003B6913440D331A78FB7D1344FB753B69CC
:1024600001333B617B681B7E013B3A699A42EEDB9C
:102470007B681B7E013B7A6813445B7BFA7D9A4242
:1024800015D0FA7D7B681B7E013B79680B445B7B32
:102490000F3B9A420BD07B680022DA757B68586C40
:1024A0007B680C330122194609F024FBAFE07B68FE
:1024B0005B7BFA3B052B00F29B8001A252F823F0D4
:1024C000CF250008B32500089725000867250008D8
:1024D00037250008D92400087B689B7B1BB21B02B0
:1024E0001AB27B68DB7B1BB21343FB817B681B7CCE
:1024F0001BB21B021AB27B685B7C1BB21343BB810D
:10250000B7F90E3007EE903AB8EEE77ADFED416AA0
:10251000C7EE267A7B68C3ED0C7AB7F90C3007EE6C
:10252000903AB8EEE77ADFED3B6AC7EE267A7B6831
:10253000C3ED0D7A63E07B689B7B1BB21B021AB272
:102540007B68DB7B1BB213437B81B7F90A3007EE54
:10255000903AB8EEE77ADFED2F6AC7EE267A7B680D
:10256000C3ED0E7A4BE07B689B7B1BB21B021AB259
:102570007B68DB7B1BB213433B81B7F9083007EE66
:10258000903AB8EEE77ADFED236AC7EE267A7B68E9
:10259000C3ED0F7A33E07B689B7B012B2AD17B68EC
:1025A00093F8403083F00103DAB27B6883F840206F
:1025B00020E07B689B7B012B1ED17B6893F8413028
:1025C00083F00103DAB27B6883F8412014E07B6872
:1025D0009B7B012B12D17B6893F84230002B0CBF00
:1025E00001230023DBB21A467B6883F8422005E012
:1025F00000BF04E000BF02E000BF00E000BF7B6856
:10260000586C7B680C330122194609F073FA1837AD
:10261000BD4680BD00EAFF4680B582B000AF78605D
:1026200003F0B0FA0346002B14BF01230023DAB2F3
:102630007B681A7400BF0837BD4680BD80B582B084
:1026400000AF78607B685A687B689A607B681A681C
:102650007B685A6003F004FEF0EE407A7B68C3EDBD
:10266000007A7B6893ED027A7B68D3ED017A37EECE
:10267000277A7B68D3ED007A77EE277AF0EE086A46
:1026800087EEA67A7B68D3ED057A77EE677A9FEDC1
:10269000077A27EE877ADFED066AC7EE267A7B682F
:1026A000C3ED037A00BF0837BD4680BD0000C842B5
:1026B0000048194680B483B000AF78607B68DB685F
:1026C00007EE903AB0EE670A0C37BD465DF8047B22
:1026D000704780B582B000AF786039607B683A6837
:1026E0005A617B6858697B680D330122194609F0ED
:1026F00001FA00BF0837BD4680BD80B582B000AF8B
:1027000078607B6858697B6803F10C014FF6FF73B2
:10271000012209F061F900BF0837BD4680BD80B5D0
:1027200082B000AF78607B685B7BFF2B02D17B6857
:1027300000229A747B689B7C19467B685A7B7B6875
:102740000B449A737B689B7C0133DAB27B689A7482
:102750007B685A887B681A807B689A887B685A8075
:102760007B68DA7E7B689A767B689B7C042B34D10D
:102770007B689B7BFF2B2AD17B689B7B1A467B68FF
:10278000DB7B13447A68127C1344DBB27A68527C98
:1027900093421CD17B68DB7B1BB21B021AB27B68A5
:1027A0001B7C1BB213431BB29AB27B689A807B6876
:1027B0009B8807EE903AB8EEE76BB2EE045B86EECC
:1027C000057BF7EEC77B7B68C3ED027A05E07B688B
:1027D00000229A747B680022DA767B685A887B68CC
:1027E0009B889A4210D17B681B8B01339AB27B681D
:1027F0001A837B681B8B322B21D97B680022DA7607
:102800007B6800221A831AE07B689B7E002B0BD02A
:102810007B689B881A467B685B88D31A322B03DD62
:102820007B680022DA760AE07B689B88092B03D854
:102830007B680022DA7602E07B680122DA767B6828
:1028400058697B680D330122194609F053F900BF1E
:102850000837BD4680BD80B586B000AF786139616C
:10286000FA60BB6087ED010A7B693A691A607B698F
:10287000FA685A607B694FF000029A607B697A6857
:102880001A617B69BA685A617B693A6A9A617B69A5
:1028900097F824201A777B691A687B695B68194668
:1028A000104607F065FE7B695B68002B06D17B69EB
:1028B0001B681B6840F2DC525A6331E07B695B683D
:1028C000042B06D17B691B681B6840F2DC529A63BB
:1028D00026E07B695B68082B06D17B691B681B6857
:1028E00040F2DC52DA631BE07B695B680C2B06D19B
:1028F0007B691B681B6840F2DC521A6410E07B693C
:102900005B68102B06D17B691B681B6840F2DC52A8
:102910009A6505E07B691B681B6840F2DC52DA654A
:102920000A2003F087FD00BF1837BD4680BD0000B8
:1029300080B588B000AFF86087ED020AC7ED010AE4
:1029400087ED001A97ED007AD7ED017AB4EEE77AB9
:10295000F1EE10FA01D8012334E097ED027AD7EDB9
:10296000017A77EE676A97ED007AD7ED017A37EE54
:10297000677AC6EE877AC7ED067AD7ED067A9FEDBD
:10298000137A67EE877A9FED127A77EEC77AC7EDF2
:10299000057A97ED050A0CF0A7FCF0EE407AFDEE03
:1029A000E77A17EE903AFB61FB6913F5FA7F01DADB
:1029B000084BFB61FB69B3F5FA7F02DD4FF4FA7354
:1029C000FB61FB6918462037BD4680BD00007A4494
:1029D0000000FA430CFEFFFF80B582B000AF7860C4
:1029E00087ED000A7B683A689A607B68D3ED027ACB
:1029F000F5EEC07AF1EE10FA38DD7B6893ED027ADD
:102A00007B68D3ED047AB4EEE77AF1EE10FA03DDD9
:102A10007B681A697B689A607B6893ED027A7B68B1
:102A2000D3ED047AF1EE677A7B68D3ED046AB0EEF9
:102A3000661AF0EE670AB0EE470A7868FFF778FF8B
:102A400002467B685B691A447B68DA607B681B7F9F
:102A5000002B04D17B68DB685A427B68DA607B68B4
:102A6000DB6803F2DC527B68DA603DE07B6893ED63
:102A7000027A7B68D3ED047AF1EE677AB4EEE77AF6
:102A8000F1EE10FA07D57B68D3ED047AF1EE677AA0
:102A90007B68C3ED027A7B6893ED027A7B68D3EDA5
:102AA000047AF1EE677A7B68D3ED046AB0EE661AB9
:102AB000F0EE670AB0EE470A7868FFF739FF024682
:102AC0007B689B69D21A7B68DA607B681B7F002B6E
:102AD00004D17B68DB685A427B68DA607B68DB681C
:102AE00003F2DC527B68DA607B685B68002B06D1FE
:102AF0007B68DA687B681B681B685A6331E07B6817
:102B00005B68042B06D17B68DA687B681B681B68EE
:102B10009A6326E07B685B68082B06D17B68DA68DD
:102B20007B681B681B68DA631BE07B685B680C2BA7
:102B300006D17B68DA687B681B681B681A6410E042
:102B40007B685B68102B06D17B68DA687B681B6842
:102B50001B689A6505E07B68DA687B681B681B6800
:102B6000DA6500BF0837BD4680BD80B483B000AFD2
:102B700078607B685B68002B06D17B681B681B68EC
:102B800040F2DC525A6331E07B685B68042B06D16B
:102B90007B681B681B6840F2DC529A6326E07B6806
:102BA0005B68082B06D17B681B681B6840F2DC520F
:102BB000DA631BE07B685B680C2B06D17B681B68C3
:102BC0001B6840F2DC521A6410E07B685B68102BD3
:102BD00006D17B681B681B6840F2DC529A6505E0F1
:102BE0007B681B681B6840F2DC52DA6500BF0C375B
:102BF000BD465DF8047B704780B582B000AF87EDBD
:102C0000010A97ED010A0CF067FAF0EE407AB0EE97
:102C1000670A0837BD4680BD80B582B000AF87ED3A
:102C2000010A97ED010A0CF067F9F0EE407AB0EE78
:102C3000670A0837BD4680BD80B584B000AFF86034
:102C4000B96087ED010AFB68BA689A67FB687A6821
:102C50009A64F86800F0DCFAFB68986FFB684D3303
:102C60000122194608F046FF00BF1037BD4680BD5F
:102C700080B582B000AF78607B6893F84D30802BD0
:102C800003D17B68002283F874207B6893F874304A
:102C900019467B6893F84D207B680B4483F84E20DF
:102CA0007B6893F874300133DAB27B6883F8742060
:102CB0007B6893F87430262B40F0ED807B6893F8A6
:102CC00072300D2B04D17B6893F873300A2B04D03B
:102CD0007B68002283F87420E5E07B6893F8553028
:102CE0001BB21B021AB27B6893F854301BB2134319
:102CF0001BB207EE903AB8EEE77ADFED6C6AC7EEEA
:102D0000267A7B68C3ED007A7B6893F857301BB254
:102D10001B021AB27B6893F856301BB213431BB2E6
:102D200007EE903AB8EEE77ADFED606AC7EE267AF2
:102D30007B68C3ED017A7B6893F859301BB21B02A4
:102D40001AB27B6893F858301BB213431BB207EEDC
:102D5000903AB8EEE77ADFED556AC7EE267A7B68DF
:102D6000C3ED027A7B6893F85B301BB21B021AB288
:102D70007B6893F85A301BB213431BB207EE903AAC
:102D8000F8EEE77A7B68C3ED037A7B6893F85D30F1
:102D90001BB21B021AB27B6893F85C301BB2134360
:102DA0001BB207EE903AF8EEE77A7B68C3ED047A3F
:102DB0007B6893F85F301BB21B021AB27B6893F8F2
:102DC0005E301BB213431BB207EE903AF8EEE77A7F
:102DD0007B68C3ED057A7B6893F861301BB21B02F8
:102DE0001AB27B6893F860301BB213431BB207EE34
:102DF000903AB8EEE77ADFED2E6AC7EE267A7B6866
:102E0000C3ED067A7B6893F863301BB21B021AB2DB
:102E10007B6893F862301BB213431BB207EE903A03
:102E2000B8EEE77ADFED226AC7EE267A7B68C3ED5B
:102E3000077A7B6893F865301BB21B021AB27B6875
:102E400093F864301BB213431BB207EE903AB8EE0E
:102E5000E77ADFED176AC7EE267A7B68C3ED087A5A
:102E60007B6893F867301BB21B021AB27B6893F839
:102E700066301BB213431BB207EE903AB8EEE77A06
:102E8000DFED0B6AC7EE267A7B68C3ED0A7A7B68B2
:102E9000002283F874207B68986F7B684D33012291
:102EA000194608F027FE0837BD4680BD0000804265
:102EB0000000C84280B584B000AF78600B4A07F1CB
:102EC000080392E8030083E803007B68986F07F12A
:102ED00008014FF0FF33082208F07EFD7B684FF0B9
:102EE00000025A6200BF1037BD4680BD88F9000855
:102EF00080B483B000AF87ED010AD7ED017AB7EE59
:102F0000E77A9FED096B27EE066B9FED095B86EE76
:102F1000057BF7EEC77BB0EE670A0C37BD465DF860
:102F2000047B7047AFF30080182D4454FB21094007
:102F3000000000000080664080B592B000AF78606D
:102F40007B6893ED037A7B68D3ED117A27EE277ABD
:102F5000DFEDAE6AC7EE267AC7ED117A7B6893ED96
:102F6000047A7B68D3ED117A27EE277ADFEDA76A22
:102F7000C7EE267AC7ED107A7B6893ED057A7B68F9
:102F8000D3ED117A27EE277ADFEDA06AC7EE267A15
:102F9000C7ED0F7A7B68D3ED077AB0EE670AFFF7CB
:102FA000A7FF87ED0E0A7B68D3ED067AB0EE670ABD
:102FB000FFF79EFF87ED0D0A7B68D3ED087AB0EE30
:102FC000670AFFF795FF87ED0C0A97ED0E0AFFF7EA
:102FD00013FE87ED0B0A97ED0E0AFFF71DFE87ED36
:102FE0000A0A97ED0D0AFFF707FE87ED090A97ED2C
:102FF0000D0AFFF711FE87ED080A97ED0C0AFFF79F
:10300000FBFD87ED070A97ED0C0AFFF705FE87ED3C
:10301000060A97ED077AD7ED097A27EE277AD7EDDA
:10302000117A27EE277AD7ED076AD7ED087A66EE90
:10303000A76AD7ED0A7A66EEA76A97ED066AD7ED1A
:103040000B7A66EE277A76EEE76AD7ED107A66EEAF
:10305000A77A37EE277AD7ED076AD7ED087A66EEBA
:10306000A76AD7ED0B7A66EEA76A97ED066AD7EDE9
:103070000A7A66EE277A76EEA76AD7ED0F7A66EEC1
:10308000A77A77EE277AC7ED057A97ED067AD7ED1E
:10309000097A27EE277AD7ED117A27EE277AD7ED2E
:1030A000066AD7ED087A66EEA76AD7ED0A7A66EE69
:1030B000A76A97ED076AD7ED0B7A66EE277A76EE68
:1030C000A76AD7ED107A66EEA77A37EE277AD7EDA2
:1030D000066AD7ED087A66EEA76AD7ED0B7A66EE38
:1030E000A76A97ED076AD7ED0A7A66EE277A76EE39
:1030F000E76AD7ED0F7A66EEA77A77EE277AC7ED03
:10310000047AD7ED087AB1EE677AD7ED117A27EE17
:10311000277AD7ED096AD7ED0A7A66EEA76AD7ED66
:10312000107A66EEA77A37EE277AD7ED096AD7EDDF
:103130000B7A66EEA76AD7ED0F7A66EEA77A77EE7E
:10314000277AC7ED037A7B68D3ED117A97ED037A7E
:1031500077EE677AC7ED037A7B6893ED0D7A7B682B
:10316000D3ED0B6AD7ED057A76EEA77AF6EE006A14
:1031700067EEA66A7B68D3ED127A66EEA77A77EEE1
:10318000277A7B68C3ED0D7A7B6893ED0E7A7B68B6
:10319000D3ED0C6AD7ED047A76EEA77AF6EE006AE4
:1031A00067EEA66A7B68D3ED127A66EEA77A77EEB1
:1031B000277A7B68C3ED0E7A7B6893ED0F7A7B6884
:1031C000D3ED0D6A7B68D3ED127A66EEA77A77EEBF
:1031D000277A7B68C3ED0F7A7B6893ED107A7B6862
:1031E000D3ED0E6A7B68D3ED127A66EEA77A77EE9E
:1031F000277A7B68C3ED107A7B687A69DA627B682C
:103200003A691A6300BF4837BD4680BD00007A4462
:1032100080B483B000AF78607B684FF000025A63DF
:103220007B684FF000029A637B684FF00002DA631C
:103230007B684FF000021A647B684FF00002DA628C
:103240007B684FF000021A6300BF0C37BD465DF883
:10325000047B704780B582B000AF786039607B68CE
:103260003A689A607B689B6879680122184608F082
:1032700041FC00BF0837BD4680BD000080B586B068
:1032800000AF78607B681B78FF2B02D17B6800223F
:10329000DA717B681B78FE2B02D17B6800221A75DD
:1032A0007B68DB7919467B681A787B680B445A7017
:1032B0007B68DB790133DAB27B68DA717B68DB79B2
:1032C000062B76D17B685A787B689B781344DAB2F8
:1032D0007B68DB781344DAB27B681B791344DAB27B
:1032E0007B685B791344FB757B685B78FF2B5DD152
:1032F0007B689B79FA7D9A4258D17B689B781BB298
:103300001B021AB27B68DB781BB21343BB82B7F98E
:10331000143007EE903AB8EEE77ADFED2B6AC7EE8D
:10332000267AC7ED047A7B681B791BB21B021AB29E
:103330007B685B791BB21343FB81B7F90E3007EE54
:10334000903AB8EEE77ADFED206AC7EE267AC7ED4D
:10335000027AD7ED047ABFEE007AF4EEC77AF1EE86
:1033600010FA23DBD7ED047AB7EE007AF4EEC77AD1
:10337000F1EE10FA1AD8D7ED027ABFEE007AF4EE29
:10338000C77AF1EE10FA11DBD7ED027AB7EE007AC8
:10339000F4EEC77AF1EE10FA08D87B683A69DA6081
:1033A0007B68BA681A617B6801221A757B68002203
:1033B000DA717B689B6879680122184608F09AFBED
:1033C00000BF1837BD4680BD0078FF4680B483B08B
:1033D00000AF78607B684FF000021A607B684FF0A6
:1033E00000025A607B684FF000029A607B684FF0E1
:1033F0000002DA607B684FF000021A617B684FF0D0
:1034000000025A617B684FF000029A617B684FF0BE
:103410000002DA617B684FF000021A627B6818468E
:103420000C37BD465DF8047B704780B588B000AFAF
:10343000F86187ED060AC7ED050A87ED041AC7EDA6
:10344000031A87ED022AC7ED012AFB69BA691A60DF
:10345000FB697A695A60FB693A699A60D7ED037A29
:10346000F0EEE77AFB69C3ED037AD7ED027AF0EE6E
:10347000E77AFB69C3ED047AD7ED017AF0EEE77ADB
:10348000FB69C3ED057AF86900F004F800BF203746
:10349000BD4680BD80B483B000AF78607B684FF0DC
:1034A00000029A617B684FF00002DA617B684FF09E
:1034B00000021A6200BF0C37BD465DF8047B7047FE
:1034C00080B489B000AFF86087ED020AC7ED010A49
:1034D00087ED001AD7ED007AF5EEC07AF1EE10FA1A
:1034E00002D8FB681B6AB0E097ED027AD7ED017A4B
:1034F00077EE677AC7ED077AD7ED077AB0EEE77A0D
:10350000FB68D3ED057AB4EEE77AF1EE10FA02D853
:103510004FF00003FB61FB68D3ED007A97ED077A6B
:1035200067EE277AC7ED047AFB6893ED067AFB68AD
:10353000D3ED016AD7ED077A66EEA76AD7ED007A78
:1035400066EEA77A77EE277AFB68C3ED067AFB680A
:10355000D3ED047AF5EEC07AF1EE10FA24DDFB68C3
:1035600093ED067AFB68D3ED047AB4EEE77AF1EED8
:1035700010FA04DDFB681A69FB689A6114E0FB68C5
:1035800093ED067AFB68D3ED047AF1EE677AB4EE38
:10359000E77AF1EE10FA07D5FB68D3ED047AF1EE85
:1035A000677AFB68C3ED067A4FF00003BB61D7ED85
:1035B000007AF5EEC07AF1EE10FA11DDFB6893EDBA
:1035C000027AFB68D3ED077AD7ED076A76EEE77AE1
:1035D00067EE276A97ED007AC6EE877AC7ED067A1E
:1035E000FB68FA69DA61FB6893ED067AD7ED047A35
:1035F00077EE277A97ED067A77EE277AC7ED057A88
:10360000FB68D3ED037A97ED057AB4EEE77AF1EE35
:1036100010FA03DDFB68DB687B6112E0FB68D3ED29
:10362000037AF1EE677A97ED057AB4EEE77AF1EE78
:1036300010FA06D5FB68D3ED037AF1EE677AC7ED91
:10364000057AFB687A691A627B6907EE903AB0EEF8
:10365000670A2437BD465DF8047B704780B400AF2D
:1036600000231846BD465DF8047B704780B400AF68
:1036700000231846BD465DF8047B704780B483B0D4
:1036800000AF786039603B6818460C37BD465DF87E
:10369000047B704780B483B000AF78607B68B3F57B
:1036A000007F05D24FF400727B68B2FBF3F300E0B9
:1036B000012318460C37BD465DF8047B70470000B7
:1036C00080B483B000AF78607B684FF000021A606E
:1036D0007B684FF000025A607B684FF000029A60EE
:1036E0007B684FF00002DA607B6800221A747B6806
:1036F000044A5A617B6818460C37BD465DF8047B66
:10370000704700BF0086BA4780B483B000AF7860CE
:103710007B6800221A807B6800225A807B68002226
:103720009A807B684FF000029A607B68FF221A73D0
:103730007B6800229A747B6800225A617B680022B1
:103740001A837B6801229A767B680122DA767B688D
:1037500018460C37BD465DF8047B704780B483B0D3
:1037600000AF78607B689B6907EE903AB0EE670A1D
:103770000C37BD465DF8047B7047000080B485B00F
:1037800000AF78607B6893ED087A7B68D3ED097AA7
:1037900077EE677AC7ED037AD7ED037A9FED157A56
:1037A000F4EEC77AF1EE10FA08DDD7ED037A9FED5B
:1037B000127A77EEC77AC7ED037A10E0D7ED037A75
:1037C0009FED0E7AF4EEC77AF1EE10FA07D5D7ED39
:1037D000037A9FED097A77EE877AC7ED037AFB6863
:1037E00007EE903AB0EE670A1437BD465DF8047BE9
:1037F000704700BF000034430000B443000034C3EE
:1038000080B483B000AF78607B68D3ED0E7AF1EEC0
:10381000677AB0EE670A0C37BD465DF8047B7047E7
:1038200080B483B000AF78607B685B6B07EE903A42
:10383000B0EE670A0C37BD465DF8047B704780B474
:1038400083B000AF78607B68EF221A707B684FF01E
:1038500000025A607B684FF000029A607B684FF06C
:103860000002DA607B6800221A747B6800225A74B6
:103870007B6800229A747B6818460C37BD465DF859
:10388000047B704780B483B000AF78607B684FF0F2
:1038900000021A607B684FF000025A607B684FF0AC
:1038A00000029A607B684FF00002DA607B680022B9
:1038B0001A747B6800225A747B6801229A747B68B0
:1038C00018460C37BD465DF8047B704780B582B062
:1038D00000AF78607B6800221A607B6800225A6023
:1038E0007B6800229A607B680022DA757B68002280
:1038F0001A767B681C331846FFF7A1FF7B683033CC
:103900001846FFF7BFFF7B6800225A647B681846A1
:103910000837BD4680BD80B483B000AF78603960A1
:103920007B683A681A6000BF0C37BD465DF8047BBF
:10393000704780B483B000AF786039607B683A68C4
:103940005A6000BF0C37BD465DF8047B704780B4F9
:1039500083B000AF786039607B683A689A6000BFD6
:103960000C37BD465DF8047B704780B483B000AF70
:1039700078607B6800221A607B6800225A607B684E
:103980004FF000029A607B680022DA607B684FF09B
:1039900000021A617B6800225A617B6800229A61EA
:1039A0007B6801221A777B6818460C37BD465DF8A4
:1039B000047B704780B483B000AF78607B684FF0C1
:1039C00000021A607B684FF000025A607B6818465C
:1039D0000C37BD465DF8047B704780B582B000AF00
:1039E00078607B680022DA717B6800229A607B68CD
:1039F0000C331846FFF7DEFF7B6800221A757B68E0
:103A000018460837BD4680BD80B483B000AF7860EB
:103A10007B684FF000021A607B684FF000025A602A
:103A20007B684FF000029A607B684FF00002DA601A
:103A30007B684FF000021A617B684FF000025A6108
:103A40007B684FF000029A617B684FF00002DA61F8
:103A50007B684FF000021A627B684FF000025A62E6
:103A60007B684FF000029A627B684FF00002DA62D6
:103A70007B684FF000021A637B684FF000025A63C4
:103A80007B684FF000029A637B684FF00002DA63B4
:103A90007B684FF000021A647B680C4A5A647B68AA
:103AA0004FF000029A647B68002283F874207B68E0
:103AB000002283F875207B6800229A677B6818468D
:103AC0000C37BD465DF8047B704700BFEDB01C416C
:103AD00080B582B000AF78607B68184601F00FF8BF
:103AE0007B6818460837BD4680BD000080B500AF32
:103AF000064806F0AFFB054B1B6800225A62034BD9
:103B00001B685B6A024A136000BF80BD0C02002084
:103B10006C06002080B500AF0D4B1B685B6A0D4A38
:103B200013600B4806F014FC0A4B1A680A4B1B681A
:103B3000D31A07EE903AF8EE677A084BC3ED007A95
:103B4000064B1B6807EE903AB0EE670A80BD00BFD7
:103B50000C020020700600206C0600207406002075
:103B600080B582B002AF01224FF40051934802F0B9
:103B7000B5FF01224FF40041914802F0AFFF01224E
:103B80004FF400718D4802F0A9FF8E4B1B68322262
:103B90009A6304218B4806F0EBFC0A2002F04AFCF1
:103BA00000F016FB884B1B681846FEF735FD874B67
:103BB0001B6887491846FEF78CFD864B1B688649B3
:103BC0001846FEF786FD854B1B689FED850A8549E3
:103BD0001846FFF731F8844B1B687B4A1268114680
:103BE0001846FFF798FE804B1B68784A126811460A
:103BF0001846FFF79EFE7C4B1B68764A12681146FA
:103C00001846FFF7A4FE784B1B6878491846FEF764
:103C100089FB774B1B6877491846FFF71BFB764BF0
:103C20001868002301930C2300939FED740A1D2351
:103C300000227349FEF70FFE6F4B1B6803F1200053
:103C4000002301930A2300939FED6C0A20230C228A
:103C50006B49FEF700FE684B1B6803F14000002330
:103C60000193092300939FED650A202304226449F0
:103C7000FEF7F1FD604B1B6803F160000023019328
:103C8000072300939FED5D0A222308225D49FEF77A
:103C9000E2FD594B1B6803F18000012301931E23B1
:103CA00000939FED560A0C2308225549FEF7D3FDD9
:103CB000514B1B6803F1A0000123019322230093C1
:103CC0009FED4E0A07230C224E49FEF7C4FD40F635
:103CD000B83002F0AFFB4C4B1B68DFED4C2A9FED78
:103CE000472ADFED461A9FED491ADFED490AB1EE8A
:103CF000040A1846FFF799FB464B1B68DFED432A81
:103D00009FED3E2ADFED3D1A9FED401ADFED420A9E
:103D1000B6EE000A1846FFF788FB404B1B68DFED44
:103D20003B2A9FED362ADFED351A9FED381ADFED7D
:103D30003C0A9FED3B0A1846FFF777FB394B1B689F
:103D4000DFED322A9FED2D2ADFED2C1A9FED2F1A81
:103D5000DFED2E0AB0EE000A1846FFF766FB324B85
:103D60001B68DFED2A2A9FED252ADFED241A9FED3F
:103D7000271ADFED260AB0EE000A1846FFF755FBBA
:103D8000164B1B681846FFF7E9FCF0EE407A274B0C
:103D9000C3ED007A144B1B68012283F84020124BBC
:103DA0001B68002283F842200C4B1B681846FFF763
:103DB00081F800F0C3FC00BFBD4680BD000802587A
:103DC00000100258280100208006002084060020F0
:103DD000F002002088060020840300208C060020CA
:103DE0000AD7233C18040020940600204005002038
:103DF00098060020D40500209006002000004842CC
:103E0000C0010020DC0000209C0600200000000013
:103E1000CDCC4C3EA0060020CDCCCC3DA40600204D
:103E20009A99993EA8060020AC060020E8060020DA
:103E300080B500AF00F07CF800F0B8FA00BF80BD9C
:103E4000B0B582B000AF78607B680D4A934213D161
:103E5000FFF74CFE0B4BD3E90023541C43F1000544
:103E6000084BC3E90045FFF7E3FFFFF753FEF0EE11
:103E7000407A054BC3ED007A00BF0837BD46B0BDA0
:103E800058020020780600206806002080B582B025
:103E900000AF78607B681B681B4A934205D11B4BBF
:103EA0001B681846FEF7E4FE2AE07B681B68184A88
:103EB000934205D1174B1B681846FEF753FA1FE0D3
:103EC0007B681B68144A934205D1144B1B68184643
:103ED000FFF7D4F914E07B681B68114A934205D1BF
:103EE000104B1B681846FEF71AFC09E07B681B683C
:103EF0000D4A934204D10D4B1B681846FEF70FFC88
:103F000000BF0837BD4680BD007C00408C06002005
:103F1000004400409406002000480040980600201D
:103F2000004C00408406002000500040880600201D
:103F300080B500AF714B1B681846FEF77FFB704BD6
:103F4000D3E900014FF00A024FF00003FCF7CCFB6D
:103F5000134305D16B4B1B681846FEF7CEFB10E0F0
:103F6000674BD3E900014FF00A024FF00003FCF762
:103F7000BBFB511F0B4304D1634B1B681846FEF774
:103F8000BCFB624B1B6893F84130012B05D1012229
:103F900001215F4802F0A2FD04E0002201215C48FB
:103FA00002F09CFD5B4B1B685B4A13605B4B1B681C
:103FB0001846FFF7E3FBF0EE407A564BC3ED007A6C
:103FC000574B93ED007A534BD3ED007A77EE277A77
:103FD000534BC3ED007A534B1B8801339AB2514BBC
:103FE0001A80474BD3E900014FF496724FF000035B
:103FF000FCF77AFB134314D1494BD3ED006A494BCC
:104000001B8807EE903AB8EEE77AC6EE877A424B05
:10401000C3ED007A424B4FF000021A60414B002280
:104020001A803E4B1B681846FFF798FBF0EE407A6B
:104030003D4BC3ED007A314B1B681846FEF73AFB47
:10404000F0EE407A394BC3ED007A344B1B681846CA
:10405000FEF772FF314B1B681846FFF7D1FBF0EEFD
:10406000407A334BC3ED007A2C4B1B681846FFF7A0
:10407000D7FBF0EE407A2F4BC3ED007A214B1B6843
:10408000DB7E002B0AD01F4B1B681846FEF73AF95F
:10409000F0EE407A284BC3ED007A0EE0244BD3EDCE
:1040A000007A9FED267A27EE877A234BD3ED007AAC
:1040B00077EE277A204BC3ED007A134B1B68DB7E2B
:1040C000002B0AD0104B1B681846FEF71BF9F0EEC8
:1040D000407A1B4BC3ED007A0EE0164BD3ED007A0D
:1040E0009FED167A27EE877A154BD3ED007A77EE9F
:1040F000277A134BC3ED007A00BF80BD80060020F5
:1041000078060020840600208806002094060020FF
:1041100000040258D0060020D80600208C0600209B
:10412000DC060020E0060020E4060020B0060020A7
:10413000B8060020C0060020C80600200AD7233C8D
:10414000CC06002080B582B000AF00237B600CE07D
:104150000A4B1A687B685B0113441846FEF705FD9D
:1041600000F00EF87B6801337B607B68052BEFDD88
:1041700000BF00BF0837BD4680BD00BF90060020CD
:1041800080B500AF0D4B1B681846FFF783F90C4B49
:104190001B681846FFF77EF90A4B1B681846FFF7A5
:1041A00079F9094B1B681846FFF774F9074B1B6830
:1041B0001846FFF76FF900BF80BD00BF9C060020C6
:1041C000A0060020A4060020A8060020AC060020BF
:1041D00080B58CB000AF1C4B1C4A1A601A4B1B4AAE
:1041E0005A601B4A3B4607CA83E807003B4619460C
:1041F000184800F0B7FC184A07F10C0307CA83E817
:10420000070007F10C031946124800F0ABFC134AF3
:1042100007F1180307CA83E8070007F118031946D6
:104220000C4800F09FFC0E4A07F1240307CA83E8FC
:10423000070007F124031946064800F093FC00BF6D
:104240003037BD4680BD00BFEC0600200000A04115
:10425000B0F9000888130020BCF90008C8F900086C
:10426000D4F9000880B500AF01220221024802F013
:1042700035FC00BF80BD00BF0004025880B500AF10
:1042800000220221024802F029FC00BF80BD00BFCD
:104290000004025880B487B000AF87ED030AC7ED71
:1042A000020A87ED011A97ED027AD7ED017AB4EE92
:1042B000E77AF1EE10FA04DBBB687B617B683B6157
:1042C00003E07B687B61BB683B6197ED037AD7EDC8
:1042D000057AB4EEE77AF1EE10FA01DD7B690BE0C6
:1042E00097ED037AD7ED047AB4EEE77AF1EE10FA9F
:1042F00001D53B6900E0FB6807EE903AB0EE670A33
:104300001C37BD465DF8047B7047000080B487B061
:1043100000AF87ED030AC7ED020A87ED011A97ED9A
:10432000037AD7ED027A77EE677AC7ED057AD7ED93
:10433000017A9FED1D7A67EE877A97ED057AB4EEE4
:10434000E77AF1EE10FA08DDD7ED017A9FED167AE3
:1043500067EE877AC7ED057A18E0D7ED017AF1EEBE
:10436000677A9FED117A67EE877A97ED057AB4EE5A
:10437000E77AF1EE10FA09D5D7ED017AF1EE677A16
:104380009FED097A67EE877AC7ED057A97ED027A95
:10439000D7ED057A77EE277AB0EE670A1C37BD466F
:1043A0005DF8047B704700BF0AD7233C80B58AB014
:1043B00000AFAB4B1B680133AA4A5B0113440833BF
:1043C000D3E90001A84BD3E90023904271EB03032A
:1043D00004D2A34B1B680133A14A1360A04B1A6897
:1043E000A24B1B689A4202D9FFF7ACFE9FE19C4B9F
:1043F0001B689C4A5B01134410331B689C4A136082
:10440000974B1B68974A5B01134414331B68994A06
:104410001360934B1B68934A5B01134418331B686A
:10442000954A1360944BD3ED007A944B93ED007A48
:104430009FED931AF0EE470AB0EE670AFFF766FFAA
:10444000F0EE407A8C4BC3ED007A854B1B68854AB1
:104450005B0113441C331B78012B02D1FFF702FFD1
:1044600001E0FFF70BFF3B4600221A605A609A609A
:10447000DA601A615A61834B1B687F4AD2ED007A79
:104480007E4A92ED007A9FED801AF0EE470AB0EE78
:10449000670A1846FFF714F887ED080A97ED017AC6
:1044A000D7ED087A77EE677AC7ED017A97ED047A4F
:1044B000D7ED087A77EE677AC7ED047A97ED017A3F
:1044C000724BD3ED007A77EE277AC7ED017A97ED3C
:1044D000047A6E4BD3ED007A77EE277AC7ED047A33
:1044E0006B4B1B686B4AD2ED007A6B4A92ED007AF7
:1044F0009FED651AF0EE470AB0EE670A1846FEF720
:10450000DFFF87ED070A97ED007AD7ED077A77EEA0
:10451000677AC7ED007A97ED027AD7ED077A77EEE2
:10452000277AC7ED027A97ED037AD7ED077A77EE0F
:10453000277AC7ED037A97ED057AD7ED077A77EEFC
:10454000677AC7ED057A554B1B68554AD2ED007A5C
:10455000544A92ED007A9FED4C1AF0EE470AB0EE05
:10456000670A1846FEF7ACFF87ED060A97ED017A59
:10457000D7ED067A77EE677AC7ED017A97ED047A80
:10458000D7ED067A77EE277AC7ED047A97ED007AB1
:10459000374BD3ED007A77EE277AC7ED007A97EDA7
:1045A000027A334BD3ED007A77EE677AC7ED027A61
:1045B00097ED037A2E4BD3ED007A77EE277AC7ED8D
:1045C000037A97ED057A2A4BD3ED007A77EE677A76
:1045D000C7ED057A97ED007A264BD3ED007A77EE9A
:1045E000277AC7ED007A97ED027A224BD3ED007A55
:1045F00077EE277AC7ED027A97ED037A1D4BD3ED5C
:10460000007A77EE277AC7ED037A97ED057A194B92
:10461000D3ED007A77EE277AC7ED057A00237B6227
:1046200081E07B6A012B02D07B6A042B40D17B6A3C
:104630009B0028333B44283BD3ED007A9FED1A1AA8
:10464000DFED1A0AB0EE670AFFF724FEF0EE407ABB
:104650007B6A9B0028333B44283BC3ED007A3FE054
:10466000B0130020F8060020780600207813002000
:10467000BC060020C40600200C000020B00600206C
:104680000000C8439C0600200AD7233CB406002043
:10469000A0060020D4060020D0060020A40600209A
:1046A000E8060020E406002000002042000020C2AE
:1046B0007B6A9B0028333B44283BD3ED007AB3EE62
:1046C0000E1AFBEE0E0AB0EE670AFFF7E3FDF0EEFE
:1046D000407A7B6A9B0028333B44283BC3ED007A39
:1046E000144BD3ED007AB2EE007AF4EEC77AF1EE15
:1046F00010FA04D54FF000033B613B697B600E4B21
:104700001A687B6A5B011A447B6A9B0028333B442E
:10471000283BD3ED007AB0EE670A1046FEF75CF94D
:104720007B6A01337B627B6A052B7FF77AAF283780
:10473000BD4680BDB00600209006002080B500AFC9
:104740004FF4FA724FF000030120B2EE0E1ADFEDC3
:10475000BA0A9FEDB90A00F071F940F6C4124FF0A1
:1047600000030120B3EE0B1AF1EE0C0AB8EE000ABA
:1047700000F064F940F6C4124FF000030120B2EEDD
:104780000E1AF9EE0C0A9FEDAC0A00F057F94FF43F
:104790007A724FF000030020B2EE0E1AF9EE0C0A06
:1047A000B9EE0C0A00F04AF94FF0C8024FF00003CE
:1047B0000020B2EE0E1ADFEDA00AB1EE0C0A00F0F6
:1047C0003DF940F6C4124FF000030120B3EE0B1A7E
:1047D000F1EE0C0A9FED980A00F030F940F6B8327D
:1047E0004FF000030120B2EE0E1AF9EE0C0A9FED15
:1047F000920A00F023F94FF47A724FF0000301207F
:10480000B2EE0E1ADFED8C0AB9EE0C0A00F016F9C2
:104810004FF47A724FF000030020B2EE0E1AF9EE58
:104820000C0AB9EE0C0A00F009F94FF416724FF0B9
:1048300000030020B2EE0E1ADFED7F0AB1EE0C0A83
:1048400000F0FCF840F6C4124FF000030120B3EE74
:104850000B1AF1EE0C0A9FED780A00F0EFF840F623
:10486000B8324FF000030120B2EE0E1AF9EE0C0A36
:104870009FED710A00F0E2F84FF47A724FF00003F6
:104880000120B2EE0E1ADFED6C0AB9EE0C0A00F050
:10489000D5F84FF47A724FF000030020B2EE0E1AF2
:1048A000F9EE0C0AB9EE0C0A00F0C8F84FF4617288
:1048B0004FF000030020B2EE0E1ADFED5F0AB1EEFA
:1048C0000C0A00F0BBF840F6C4124FF000030120C0
:1048D000B3EE0B1AF1EE0C0A9FED570A00F0AEF89A
:1048E00040F6B8324FF000030120B2EE0E1AF9EE96
:1048F0000C0A9FED510A00F0A1F840F2DC524FF093
:1049000000030120B2EE0E1ADFED4B0AB9EE0C0ADD
:1049100000F094F84FF47A724FF000030020B2EEEA
:104920000E1AF9EE0C0AB9EE0C0A00F087F84FF4F3
:1049300096624FF000030020B2EE0E1ADFED3E0A41
:10494000B1EE0C0A00F07AF840F6C4124FF0000302
:104950000120B3EE0B1AF1EE0C0A9FED370A00F0BE
:104960006DF840F6B8324FF000030120B2EE0E1A97
:10497000F9EE0C0A9FED300A00F060F84FF4FA628D
:104980004FF000030120B2EE0E1ADFED2B0AB9EE54
:104990000C0A00F053F84FF47A724FF00003002035
:1049A000B2EE0E1AF9EE0C0AB9EE0C0A00F046F857
:1049B00040F2DC524FF000030020B2EE0E1ADFEDA1
:1049C0001E0AB1EE0C0A00F039F840F6C4124FF09E
:1049D00000030120B3EE0B1AF1EE0C0A9FED160A4C
:1049E00000F02CF840F6B8324FF000030120B2EE90
:1049F0000E1AF9EE0C0A9FED100A00F01FF840F6AF
:104A0000C4124FF000030120B2EE0E1ADFED0A0AC5
:104A1000B9EE0C0A00F012F84FF47A724FF000036E
:104A20000020B2EE0E1AF9EE0C0AB9EE0C0A00F0F4
:104A300005F800BF80BD00BF00000000B0B487B023
:104A400000AF87ED050AC7ED040A87ED031A01469A
:104A5000C7E900230B46FB721F4B19681F4BD3E9B4
:104A600000231F48490101440831C1E900231A4BC2
:104A70001B681B4A5B01134410337A691A60164B9A
:104A80001B68174A5B01134414333A691A60124BCE
:104A90001B68134A5B0113441833FA681A600E4B03
:104AA0001B680F4A5B0113441C33FA7A1A700A4BD5
:104AB0001B680133084A1360084BD3E90001D7E9AA
:104AC0000023841841EB0305044BC3E9004500BFF4
:104AD0001C37BD46B0BC70477813002080130020FF
:104AE000F806002080B485B000AF78607B68FB607A
:104AF0007B6818461437BD465DF8047B704780B567
:104B000082B000AF78607B68184600F03CF8002166
:104B1000786800F049F87B6818460837BD4680BDC4
:104B200080B582B000AF78607B681B68002B10D026
:104B30007B6859697B685B6A04331A46786800F0C1
:104B400099F87B6819687B685B681A46786800F09A
:104B5000ACF87B681846FFF7C5FF7B681846083736
:104B6000BD4680BD80B582B000AF786039603868DE
:104B700000F0C5F803461946786800F0CBF800BF8E
:104B80000837BD4680BD80B584B000AF78607B68D3
:104B9000FB60FB68BB607B68184600F0F1F87B683F
:104BA00018461037BD4680BD90B589B000AF78601B
:104BB00039600C20FEF76EFD02463B68B3FBF2F352
:104BC0000133FB610823FB60FB6902333B6107F1A2
:104BD000100207F10C031146184600F0EAF80346EC
:104BE0001A687B685A607B685B681946786800F0D1
:104BF000F4F802467B681A607B681A687B6859681B
:104C0000FB69CB1A5B089B001344BB61FB699B00EB
:104C1000BA6913447B617A69B969786800F019F957
:104C20007B680833B969184600F02EF97B6803F1F8
:104C300018027B69043B1946104600F025F97B6891
:104C4000DA687B689A607B68DC690C20FEF722FDDD
:104C500002463B68B3FBF2F101FB02F29A1A1346DB
:104C60005B0013449B00E2187B689A6100BF243705
:104C7000BD4690BD80B586B000AFF860B9607A607F
:104C8000BB687B6108E07B691B681946F86800F027
:104C900017F97B6904337B617A697B689A42F2D3A6
:104CA00000BF00BF1837BD4680BD80B58AB000AFD9
:104CB000F860B9607A6007F11003F968184600F0EF
:104CC00026F9BB687B627B683B6207F11003FB61DE
:104CD0007B6ABB613B6A7B61FEF7C0FC0346002B2D
:104CE00003D0B8690AF0DFF804E07A69B969F869B5
:104CF00000F0A7FA00BF00BF2837BD4680BD80B4D2
:104D000083B000AF78607B6818460C37BD465DF80D
:104D1000047B7047B0B586B000AF786039607B68BF
:104D20009A697B681B6A0C3B9A4219D07D687B6844
:104D30009C69386800F00AF903467D613C61FB60BC
:104D4000F86800F003F903461946386900F0F4F9F1
:104D500000BF7B689B6903F10C027B689A6107E0E6
:104D6000386800F0F3F803461946786800F0FAF85E
:104D7000786800F043F9034618461837BD46B0BDC1
:104D800080B582B000AF78607B6800221A607B68D3
:104D900000225A607B680833184600F048F97B68A7
:104DA0001833184600F043F97B6818460837BD46AB
:104DB00080BD80B483B000AF786039607B681A68CA
:104DC0003B681B689A4201D23B6800E07B6818464A
:104DD0000C37BD465DF8047B704780B586B000AFE8
:104DE0007860396007F10C037968184600F08FF895
:104DF0003B687B6107F10C033B617B69BB60FEF79D
:104E00002DFC0346002B16D0BB68002299009B0F97
:104E1000002B00D001220B46BB60134603F00103B8
:104E2000DBB2002B01D00AF058F8BB6818460AF034
:104E30003EF8034607E0BB6800221946386900F0D7
:104E4000F9FA034600BF00BF00BF18461837BD4639
:104E500080BD80B586B000AFF860B9607A60BB688D
:104E60007B6108E0F86800F0F9F802467B691A6097
:104E70007B6904337B617A697B689A42F2D300BF15
:104E800000BF1837BD4680BD90B583B000AF7860D5
:104E900039607B683A68DA603B681A687B685A60F8
:104EA0007B685C6800F019F9024613465B00134406
:104EB0009B00E2187B689A6000BF0C37BD4690BD2E
:104EC00090B589B000AF786039607C680C20FEF73F
:104ED000E1FB0246FC613B68BB617A61FB693B61B7
:104EE000BB69FB607B69BB60FEF7B8FB0346002B28
:104EF00003D0F86809F0D7FF04E0BA68F9683869A8
:104F000000F0C2FA00BF00BF2437BD4690BD80B597
:104F100086B000AF78603960386800F0E6F8024685
:104F20007B687B613A617B69FB6000BF78681837FA
:104F3000BD4680BD80B483B000AF78607B681B68DD
:104F400018460C37BD465DF8047B704780B483B0CB
:104F500000AF78607B6818460C37BD465DF8047B6F
:104F600070470000B0B586B000AF786039607868EF
:104F700000F0FAF80446786800F008F903469C420D
:104F80000CBF01230023DBB2002B02D01A4809F02A
:104F9000A7FF0121786800F00AF97A687B685B6AEC
:104FA0001C1D104600F05AF8034623607D687B689C
:104FB0009C693868FFF7CAFF03467D613C61FB606E
:104FC000F868FFF7C3FF03461946386900F0B4F8E4
:104FD00000BF7B6803F118027B685B6A04331946E3
:104FE0001046FFF751FF7B68DA697B689A6100BF62
:104FF0001837BD46B0BD00BFE0F9000880B586B0E7
:1050000000AF786007F108037968184600F0EAF805
:1050100007F10803184600F0F4F807F108031846F2
:10502000FFF788FF034618461837BD4680BD80B499
:1050300083B000AF78607B6800221A607B68002232
:105040005A607B6800229A607B680022DA607B6885
:1050500018460C37BD465DF8047B7047F0B587B045
:1050600000AF78607E680C20FEF714FB03467E617B
:105070003B617B69FB603B69BB60FEF7EFFA03466F
:10508000002B1DD0BB6800210C22A3FB02454FF072
:1050900000024FF000032A000023002A00D0012163
:1050A0002346BB600B4603F00103DBB2002B01D0AB
:1050B00009F013FFBB68184609F0F9FE034607E044
:1050C000BB6800221946F86800F034FA034600BFB6
:1050D00000BF18461C37BD46F0BD80B500AF0C20A0
:1050E000FEF7D8FA0346184680BD80B483B000AFFF
:1050F00078607B6818460C37BD465DF8047B7047C6
:1051000080B483B000AF786039603B681A687B6810
:105110001A603B685A687B685A603B689A687B688B
:105120009A603B68DA687B68DA607B6818460C37FF
:10513000BD465DF8047B704790B583B000AF7860E2
:1051400039607B6819460C20FEF798FA04463868E7
:10515000FFF7FCFE0246234607CA83E80700234602
:1051600018460C37BD4690BD80B582B000AF786060
:105170007B6803F118027B6808331946104600F07B
:105180006FF8034618460837BD4680BD80B582B02B
:1051900000AF78607B681846FFF7A7FF0346184604
:1051A00000F092F8034618460837BD4680BD80B52A
:1051B00082B000AF786039603B685A1C7B685B68DE
:1051C0007968486A79680968411A89105B1A9A42B5
:1051D00004D900223968786800F092F800BF0837D7
:1051E000BD4680BD80B582B000AF786039603B6855
:1051F000183319467868FFF783FF78680837BD468B
:1052000080BD80B582B000AF78607B681A687B682B
:105210005B689A420AD17B68DB68043B1946786870
:10522000FFF732FE7B689A687B681A607B681B68B0
:10523000A3F10C027B681A607B6818460837BD46EC
:1052400080BD80B584B000AFF860B9607A607B68DB
:105250009B001946B86809F028FE1037BD4680BD8E
:1052600080B582B000AF78603960FFF736FF034643
:1052700019467B68DA683B68DB68D31A9B101A46CC
:105280007B68DB68002B14BF01230023DBB2D31A39
:1052900001FB03F37A6811687A6852688A1A9210DF
:1052A000084901FB02F213443A6891683A681268AF
:1052B0008A1A9210034901FB02F213441846083778
:1052C000BD4680BDABAAAAAA80B586B000AF786003
:1052D0006FF000433B617B687B61084BFB6007F12B
:1052E0000C0207F110031146184600F0DFF80346E0
:1052F0001B6818461837BD4680BD00BF555555156B
:1053000090B58BB000AFF860B9601346FB71FB68D5
:105310005A6AFB685B69D31A9B1001333B62BB6816
:105320003A6A1344FB61FB685A68FB695B009A4266
:105330002DD9FB681A68FB685968FB69CB1A5B08B2
:105340009900FB79002B02D0BB689B0000E0002392
:105350000B4413447B62FB685B697A6A9A4209D208
:10536000FB685869FB685B6A04337A6A194600F087
:10537000B1F848E0FB685869FB685B6A191D3B6A35
:105380009B007A6A13441A4600F0BCF83BE0FB68C5
:105390005C68FB68043307F1080211461846FFF702
:1053A00008FD03461B6823440233BB61FB68B969EF
:1053B0001846FFF712FD7861BA69FB69D31A5B08DA
:1053C0009A00FB79002B02D0BB689B0000E0002311
:1053D00013447A6913447B62FB685869FB685B6A13
:1053E00004337A6A194600F075F8F868FB681968A2
:1053F000FB685B681A46FFF758FCFB687A691A601D
:10540000FB68BA695A60FB680833796A1846FFF787
:105410003BFDFB6803F118003A6A6FF04043134408
:105420009B007A6A13441946FFF72EFD00BF2C3704
:10543000BD4690BD80B586B000AFF860B9607A60B7
:10544000FB687B616FF06042BB6893428CBF0123B5
:105450000023DBB2002B14BF01230023DBB2002B9F
:1054600007D0BB68B3F1804F01D309F036FD09F0D6
:1054700031FDBB689B00184609F019FD034600BFCB
:1054800018461837BD4680BD80B584B000AFF860BF
:10549000B9607A607A6813465B0013449B00194632
:1054A000B86809F002FD1037BD4680BD80B483B0F6
:1054B00000AF786039603B681A687B681B689A4265
:1054C00001D23B6800E07B6818460C37BD465DF8AA
:1054D000047B704790B585B000AFF860B9607A6022
:1054E000F86800F057F80446B86800F053F803462F
:1054F0007A681946204600F058F8034618461437D3
:10550000BD4690BD90B585B000AFF860B9607A60D7
:10551000F86800F03FF80446B86800F03BF803462E
:105520007A681946204600F063F803461846143797
:10553000BD4690BD80B586B000AFF860B9607A60B6
:10554000FB687B61114ABB6893428CBF0123002337
:10555000DBB2002B14BF01230023DBB2002B07D0EA
:10556000BB680B4A934201D909F0B7FC09F0B2FCC1
:10557000BA6813465B0013449B00184609F097FC79
:10558000034600BF18461837BD4680BDAAAAAA0A1E
:105590005555551580B483B000AF78607B681846C8
:1055A0000C37BD465DF8047B7047B0B584B000AFE2
:1055B000F860B9607A60F86800F03DF80446B868B1
:1055C00000F039F805467B68184600F034F80346C9
:1055D0001A462946204600F039F802463B1D11467E
:1055E000184600F043F8034618461037BD46B0BDD4
:1055F000B0B584B000AFF860B9607A60F86800F0C8
:105600001AF80446B86800F016F805467B68184694
:1056100000F011F803461A462946204600F032F8F9
:1056200002463B1D1146184600F020F80346184676
:105630001037BD46B0BD80B483B000AF78607B68E2
:1056400018460C37BD465DF8047B704780B584B0C2
:1056500000AFF860B9607A607A68B968F86800F0FD
:1056600021F8034618461037BD4680BD80B483B08C
:1056700000AF786039603B6818460C37BD465DF86E
:10568000047B704780B584B000AFF860B9607A6081
:105690007A68B968F86800F022F8034618461037AF
:1056A000BD4680BD80B584B000AFF860B9607A6057
:1056B000FDF7DCFF0346002B06D07A68B968F8686E
:1056C00000F02AF8034606E07A68B968F86800F046
:1056D00046F8034600BF18461037BD4680BD80B56A
:1056E00084B000AFF860B9607A60FDF7BFFF034691
:1056F000002B06D07A68B968F86800F05AF80346BB
:1057000006E07A68B968F86800F076F8034600BFEA
:1057100018461037BD4680BD80B487B000AFF86032
:10572000B9607A60BA68FB68D31A9B107B610CE0A1
:10573000FB681A687B681A60FB680433FB607B684F
:1057400004337B607B69013B7B617B69002BEFDC71
:105750007B6818461C37BD465DF8047B704780B5F2
:1057600086B000AFF860B9607A60BA68FB68D31A97
:105770009B107B617B69012BCCBF01230023DBB233
:10578000002B07D07B699B001A46F968786809F0FE
:10579000A5FE06E07B69012B03D1F968786800F06B
:1057A0005CF87B699B007A68134418461837BD463D
:1057B00080BD80B487B000AFF860B9607A60BA6825
:1057C000FB68D31A9B107B610CE0BB68043BBB6099
:1057D000BB681A687B68043B7B607B681A607B69E6
:1057E000013B7B617B69002BEFDC7B6818461C3733
:1057F000BD465DF8047B704780B586B000AFF860A9
:10580000B9607A60BA68FB68D31A9B107B617B69C8
:10581000012BCCBF01230023DBB2002B0BD07B6913
:105820009B005B427A68D0187B699B001A46F96836
:1058300009F054FE08E07B69012B05D17B68043B2D
:10584000F968184600F009F87B699B005B427A68AA
:10585000134418461837BD4680BD80B483B000AFEE
:10586000786039603B681A687B681A6000BF0C3743
:10587000BD465DF8047B7047F8B500AF182009F00D
:1058800016FB03461C462046FDF71AFF444B1C60DE
:105890001C2009F00CFB03461C462046FDF734FF94
:1058A000404B1C601C2009F002FB03461C462046AE
:1058B000FDF72AFF3C4B1C607C2009F0F8FA0346F8
:1058C0001C462046FEF7A0F8384B1C60C82009F0A3
:1058D000FFFA03461C4620232360231D06221A607C
:1058E00004F1080305251E4604E03046FEF73DF8A6
:1058F000013D2036002DF8DA04F108032C4A13602C
:10590000482009F0D4FA03461C462046FDF7DEFF86
:10591000284B1C60182009F0CAFA03461C46204692
:10592000FEF75BF8244B1C60242009F0C0FA034604
:105930001C462046FDF74AFD204B1C60242009F040
:10594000B6FA03461C462046FDF740FD1C4B1C6082
:10595000242009F0ACFA03461C462046FDF736FD2C
:10596000184B1C60242009F0A2FA03461C4620466E
:10597000FDF72CFD144B1C60242009F098FA034617
:105980001C462046FDF722FD104B1C601048FEF718
:105990009FF8104A10490E4809F080FA00BFF8BD80
:1059A0008006002084060020880600208C06002047
:1059B0009006002094060020980600209C060020F7
:1059C000A0060020A4060020A8060020AC060020A7
:1059D0008813002000000020DD59000880B58AB03F
:1059E00000AF786007F108037968184600F01BF8EB
:1059F00007F1180379681846FFF7F4FB7B6818462F
:105A000000F020F8034607F1180207F10801786852
:105A100000F023F87B681846FFF782F87B68184689
:105A20002837BD4680BD80B582B000AF7860396050
:105A30003B68083319467868FFF762FB78680837D7
:105A4000BD4680BD80B483B000AF78607B681846E7
:105A50000C37BD465DF8047B704780B48DB000AF55
:105A6000F860B9607A603B6000BF3437BD465DF8CE
:105A7000047B704780B500AFFFF7FEFE80BD0000DD
:105A800080B489B000AF00237B610023BB74002386
:105A90007B740023BB610EE0394ABB6908335B00AD
:105AA00013449A88BB695B0020333B4423F8202CC5
:105AB000BB690133BB61BB69062BEDDD3B88C3F3DA
:105AC0000B039BB23B800023FB810023FB613AE088
:105AD000FB69002B03F00103B8BF5B42012B0BD124
