:020000040800F2
:10000000000002203D15000811070008190700082C
:100010002107000829070008310700080000000038
:100020000000000000000000000000003907000888
:100030004707000800000000550700086307000894
:1000400091150008911500089115000891150008F8
:1000500091150008911500089115000891150008E8
:1000600091150008911500089115000891150008D8
:1000700091150008911500089115000891150008C8
:1000800091150008911500089115000891150008B8
:1000900091150008911500089115000891150008A8
:1000A0009115000891150008911500089115000898
:1000B0009115000891150008911500089115000888
:1000C0009115000891150008911500089115000878
:1000D0009115000871070008911500089115000896
:1000E0009115000891150008000000009115000806
:1000F0009115000891150008911500089115000848
:100100009115000891150008911500089115000837
:100110008507000891150008911500089115000841
:100120009115000891150008911500089115000817
:100130009115000891150008911500089115000807
:1001400000000000000000000000000000000000AF
:1001500091150008911500089115000891150008E7
:1001600091150008911500089115000891150008D7
:100170009115000891150008911500080000000075
:1001800091150008911500089115000891150008B7
:1001900091150008911500089115000891150008A7
:1001A0009115000891150008911500080000000045
:1001B0009115000891150008911500089115000887
:1001C00091150008911500080000000000000000D3
:1001D0000000000000000000911500080000000071
:1001E000000000000000000000000000000000000F
:1001F00000000000000000009115000891150008A3
:1002000091150008911500080000000091150008E4
:100210009115000891150008911500089115000826
:100220009115000800000000911500080000000072
:1002300091150008911500080000000091150008B4
:1002400091150008911500089115000891150008F6
:1002500091150008911500089115000891150008E6
:1002600091150008911500089115000891150008D6
:100270009115000891150008911500080000000074
:1002800091150008911500089115000891150008B6
:100290000000000091150008911500080000000002
:1002A0000000000091150008911500089115000844
:1002B0009115000891150008911500089115000886
:0C02C00091150008911500089115000828
:1002CC0053B94AB9002908BF00281CBF4FF0FF31B1
:1002DC004FF0FF3000F00CB8ADF1080C6DE904CE16
:1002EC0008F060FFDDF804E0DDE9022304B070479C
:1002FC00704700BF0348044B834202D0034B03B149
:10030C0018477047600000206000002000000000CB
:10031C000548064B1B1AD90F01EBA301491002D05B
:10032C00034B03B1184770476000002060000020A9
:10033C000000000010B5064C237843B9FFF7DAFF34
:10034C00044B13B10448AFF300800123237010BD9C
:10035C0060000020000000006C94000808B5054BFC
:10036C001BB105490548AFF30080BDE80840FFF715
:10037C00CFBF00BF00000000640000206C94000898
:10038C0080B485B000AF214BD3F8E0301F4A43F066
:10039C008003C2F8E0301D4BD3F8E03003F080034B
:1003AC00FB60FB68194BD3F8E030184A43F00103AB
:1003BC00C2F8E030154BD3F8E03003F00103BB601A
:1003CC00BB68124BD3F8E030104A43F02003C2F85C
:1003DC00E0300E4BD3F8E03003F020037B607B68F9
:1003EC000A4BD3F8E030094A43F00203C2F8E0307C
:1003FC00064BD3F8E03003F002033B603B6800BFD0
:10040C001437BD465DF8047B704700BF00440258AA
:10041C0080B500AF1B4B1C4A1A601A4B1B4A5A6022
:10042C00184B00229A60174B0122DA60154B002200
:10043C001A61144B00225A61124B00229A61114B23
:10044C000022DA610F4B00221A620E4801F082FC86
:10045C000346002B01D000F035F90021094801F0CA
:10046C0015FD0346002B01D000F02CF900210548A6
:10047C0001F057FD0346002B01D000F023F900BF1B
:10048C0080BD00BF7C00002000540040724E4060D4
:10049C0080B5B8B000AF786007F1CC0300221A60C9
:1004AC005A609A60DA601A6107F11003B8220021D1
:1004BC00184608F0EFFD7B681B68264A934245D12D
:1004CC004FF008024FF00003C7E904230023C7F8DC
:1004DC00903007F11003184602F010FD0346002B74
:1004EC0001D000F0EFF81C4BD3F8E0301A4A43F07F
:1004FC000203C2F8E030184BD3F8E03003F00203EB
:10050C00FB60FB68C023C7F8CC301223C7F8D0308F
:10051C000023C7F8D4300023C7F8D8300423C7F819
:10052C00DC3007F1CC0319460C4801F06BFA0A4B8E
:10053C00D3F8E830084A43F40013C2F8E830064B0D
:10054C00D3F8E83003F40013BB60BB6800BFE0379E
:10055C00BD4680BD005400400044025800040258BF
:10056C0080B500AF00F082F801F00EF800F010F842
:10057C00FFF706FFFFF74CFF00F002FB00F008FA54
:10058C0000F04AFB00F086FF00F092FFFCE7000051
:10059C0080B59CB000AF07F124034C220021184613
:1005AC0008F078FD3B1D20220021184608F072FD52
:1005BC00022001F003FD00233B602B4B9B692A4A70
:1005CC0023F440439361284B9B6903F440433B6005
:1005DC003B6800BF244B9B6903F40053B3F5005FE9
:1005EC00F8D101237B624FF48033BB620223BB64DE
:1005FC000223FB6402233B652C237B650123BB6533
:10060C000223FB6502233B660C237B660023BB663F
:10061C000023FB6607F12403184601F009FD03468D
:10062C00002B01D000F04EF83F237B600323BB600E
:10063C000023FB6008233B6140237B614023BB61AB
:10064C004FF48063FB6140233B623B1D0321184642
:10065C0002F0C8F80346002B01D000F033F800BFBD
:10066C007037BD4680BD00BF0048025880B584B0CD
:10067C0000AF3B4600221A605A609A60DA6001F0C3
:10068C0049F901233B7000237B7000237B601F23FF
:10069C003B7287237B720023BB720023FB72012306
:1006AC003B7301237B730023BB730023FB733B461B
:1006BC00184601F067F9042001F044F900BF103727
:1006CC00BD4680BD80B400AF72B600BF00BFFDE771
:1006DC0080B483B000AF0A4BD3F8F430084A43F02F
:1006EC000203C2F8F430064BD3F8F43003F00203E3
:1006FC007B607B6800BF0C37BD465DF8047B7047A0
:10070C000044025880B400AF00BFFDE780B400AFD6
:10071C0000BFFDE780B400AF00BFFDE780B400AFC1
:10072C0000BFFDE780B400AF00BFFDE780B400AFB1
:10073C0000BFBD465DF8047B704780B400AF00BFBE
:10074C00BD465DF8047B704780B400AF00BFBD466A
:10075C005DF8047B704780B500AF00F087FF00BFE9
:10076C0080BD000080B500AF024805F033FA00BF31
:10077C0080BD00BFB401002080B500AF024805F079
:10078C0029FA00BF80BD00BF2001002080B400AF5B
:10079C0001231846BD465DF8047B704780B582B0D6
:1007AC0000AF7860396008F0D1FC034616221A605D
:1007BC004FF0FF3318460837BD4680BD80B582B078
:1007CC0000AF78604FF0FF317868FFF7E7FF00BFAC
:1007DC00FDE7000080B586B000AF7860144A154B79
:1007EC00D31A7B617B693B61134B1B68002B02D1D5
:1007FC00114B124A1A60104B1A687B6813443A6901
:10080C009A4207D208F0A2FC03460C221A604FF061
:10081C00FF3309E0084B1B68FB60074B1A687B68C9
:10082C001344054A1360FB6818461837BD4680BD53
:10083C000000022000040000D0000020B0030020C3
:10084C0080B400AF3E4BD3F888303D4A43F470037C
:10085C00C2F888303B4B1B6803F00F03062B07D8FC
:10086C00384B1B6823F00F03364A43F00703136021
:10087C00354B1B68344A43F001031360324B0022A2
:10088C001A61314B1A683049304B13400B602D4BB9
:10089C001B6803F00803002B07D02A4B1B6823F0BE
:1008AC000F03284A43F007031360274B00229A6179
:1008BC00254B0022DA61244B00221A62224B244A77
:1008CC009A62214B234ADA621F4B234A1A631E4B4E
:1008DC0000225A631C4B204A9A631B4B0022DA639A
:1008EC00194B1D4A1A64184B00225A64164B1B688C
:1008FC00154A23F480231360134B00221A66124B03
:10090C00D3F8D43003F48053002B13D10E4BD3F80F
:10091C00D4300D4A43F48053C2F8D4300F4B43F219
:10092C00D2021A60084BD3F8D430074A23F4805310
:10093C00C2F8D43000BFBD465DF8047B704700BFE1
:10094C0000ED00E000200052004402587FEDF6EA72
:10095C00000202020000FF0180020101004000526F
:10096C0080B400AF094BDB68084A43F00203D36044
:10097C0000BF064B5B6803F40053002BF9D000BF9B
:10098C0000BFBD465DF8047B704700BF00480258AD
:10099C0080B58EB000AF07F1280300221A605A60B0
:1009AC009A60DA6007F11C0300221A605A609A60A0
:1009BC003B4600221A605A609A60DA601A615A61EA
:1009CC009A613E4B3E4A1A603C4B40F6BD225A603F
:1009DC003A4B00229A60394B40F2CF72DA60374BB7
:1009EC0000221A61354B00229A61344804F048F811
:1009FC000346002B01D0FFF765FE4FF48053BB621A
:100A0C0007F1280319462D4804F006FA0346002B7B
:100A1C0001D0FFF757FE294804F089F80346002B54
:100A2C0001D0FFF74FFE0023FB6100237B6207F12F
:100A3C001C031946214804F007FF0346002B01D084
:100A4C00FFF740FE70233B6000237B600023BB60FC
:100A5C0000233B613B4600221946184804F0C8F8B5
:100A6C000346002B01D0FFF72DFE3B46042219460E
:100A7C00124804F0BDF80346002B01D0FFF722FE0C
:100A8C003B46082219460D4804F0B2F80346002BE9
:100A9C0001D0FFF717FE3B460C221946074804F01D
:100AAC00A7F80346002B01D0FFF70CFE034800F01B
:100ABC002BF800BF3837BD4680BD00BFD4000020E6
:100ACC0000E4004080B485B000AF78607B681B68A0
:100ADC000B4A93420ED10B4BD3F8EC30094A43F03E
:100AEC000073C2F8EC30074BD3F8EC3003F0007312
:100AFC00FB60FB6800BF1437BD465DF8047B704794
:100B0C0000E400400044025880B588B000AF786023
:100B1C0007F10C0300221A605A609A60DA601A61BD
:100B2C007B681B68134A93421FD1134BD3F8E030F8
:100B3C00114A43F02003C2F8E0300F4BD3F8E030F9
:100B4C0003F02003BB60BB684FF4F043FB6002234F
:100B5C003B6100237B610023BB610E23FB6107F12A
:100B6C000C031946054800F04DFF00BF2037BD4669
:100B7C0080BD00BF00E4004000440258001402583D
:100B8C0080B500AF224B234A1A60214B4FF4E1325F
:100B9C005A601F4B00229A601D4B0022DA601C4BDE
:100BAC0000221A611A4B0C225A61194B00229A61CD
:100BBC00174B0022DA61164B00221A62144B0022EA
:100BCC005A62134B00229A62114804F0D9FE034674
:100BDC00002B01D0FFF776FD00210D4807F053FBE9
:100BEC000346002B01D0FFF76DFD0021084807F0EC
:100BFC0088FB0346002B01D0FFF764FD044807F087
:100C0C0009FB0346002B01D0FFF75CFD00BF80BD44
:100C1C0020010020004C004080B500AF224B234A3D
:100C2C001A60214B4FF416525A601F4B00229A60E7
:100C3C001D4B0022DA601C4B00221A611A4B0C224D
:100C4C005A61194B00229A61174B0022DA61164B3C
:100C5C0000221A62144B00225A62134B00229A6231
:100C6C00114804F08DFE0346002B01D0FFF72AFD3E
:100C7C0000210D4807F007FB0346002B01D0FFF7BE
:100C8C0021FD0021084807F03CFB0346002B01D056
:100C9C00FFF718FD044807F0BDFA0346002B01D0FE
:100CAC00FFF710FD00BF80BDB40100200010014013
:100CBC0080B5BAB000AF786007F1D40300221A6097
:100CCC005A609A60DA601A6107F11803B8220021A1
:100CDC00184608F0DFF97B681B68554A93424ED1E1
:100CEC004FF002024FF00003C7E906230023C7F8B8
:100CFC008C3007F11803184602F000F90346002B5C
:100D0C0001D0FFF7DFFC4B4BD3F8E830494A43F4F2
:100D1C000023C2F8E830474BD3F8E83003F4002343
:100D2C007B617B69434BD3F8E030424A43F00103CB
:100D3C00C2F8E0303F4BD3F8E03003F001033B61E5
:100D4C003B690323C7F8D4300223C7F8D8300023FB
:100D5C00C7F8DC300023C7F8E0300823C7F8E430CC
:100D6C0007F1D4031946344800F04CFE0022002150
:100D7C00342000F09AFD342000F0B1FD53E07B6884
:100D8C001B682E4A93424ED14FF001024FF00003E4
:100D9C00C7E906230023C7F8903007F1180318465B
:100DAC0002F0ACF80346002B01D0FFF78BFC214B73
:100DBC00D3F8F0301F4A43F01003C2F8F0301D4B4B
:100DCC00D3F8F03003F01003FB60FB68194BD3F839
:100DDC00E030184A43F00203C2F8E030154BD3F868
:100DEC00E03003F00203BB60BB684FF44043C7F82C
:100DFC00D4300223C7F8D8300023C7F8DC300023E6
:100E0C00C7F8E0300423C7F8E43007F1D4031946DF
:100E1C000B4800F0F7FD00220021252000F045FDD5
:100E2C00252000F05CFD00BFE837BD4680BD00BF4B
:100E3C00004C0040004402580000025800100140D1
:100E4C000004025880B483B000AF87ED010AD7EDDF
:100E5C00017AF0EEE77AB0EE670A0C37BD465DF822
:100E6C00047B704780B588B000AF786039607B68D0
:100E7C003A685A637B68586B7B68243301221946A5
:100E8C0004F05CFE1C4A07F1180392E8030018609A
:100E9C00043319707B68586B07F118014FF6FF7318
:100EAC00052204F0BDFDC82000F000FC134B3B6193
:100EBC0000233B757B68586B07F110014FF6FF73ED
:100ECC00052204F0ADFD40F6B83000F0EFFB4AF619
:100EDC00FF23BB6000233B737B68586B07F1080151
:100EEC004FF6FF73052204F09BFDC82000F0DEFBDB
:100EFC0000BF2037BD4680BD84940008FFAA0104C2
:100F0C0080B58EB000AF78607B6893F82430552B99
:100F1C0003D17B68002283F830207B6893F8303053
:100F2C0019467B6893F824207B680B4483F82520B2
:100F3C007B6893F830300133DAB27B6883F8302069
:100F4C007B6893F830300B2B40F02F82002387F80E
:100F5C0037300023FB854FF00003BB624FF00003DA
:100F6C007B624FF000033B624FF00003FB614FF0DC
:100F7C000003BB614FF000037B614FF000033B614A
:100F8C004FF00003FB604FF00003BB6000233B639A
:100F9C000CE07A683B6B134425331A7897F837309A
:100FAC00134487F837303B6B01333B633B6B092BA6
:100FBC00EFDD7B6893F82F3097F837209A4204D0F6
:100FCC007B68002283F83020EFE17B6893F82630B1
:100FDC00532B00F0E680532B00F3E781512B02D00A
:100FEC00522B75D0E1E17B6893F82C301BB21B02BD
:100FFC00FB857B6893F82B301AB2FB8D1343FB8572
:10100C00B7F92E3007EE903AB8EEE77ADFEDA26A28
:10101C00C7EE267AB3EE007A67EE877A9FED987A60
:10102C0067EE877AC7ED027A7B68BA689A607B684C
:10103C0093F82A301BB21B02FB857B6893F829308E
:10104C001AB2FB8D1343FB85B7F92E3007EE903A9D
:10105C00B8EEE77ADFED906AC7EE267AB3EE007A47
:10106C0067EE877A9FED867A67EE877AC7ED037A0B
:10107C007B68FA685A607B6893F828301BB21B02B5
:10108C00FB857B6893F827301AB2FB8D1343FB85E5
:10109C00B7F92E3007EE903AB8EEE77ADFED7E6ABC
:1010AC00C7EE267AB3EE007A67EE877A9FED747AF4
:1010BC0067EE877AC7ED047A7B683A691A607B68B9
:1010CC00012283F831207B68002283F826206CE112
:1010DC007B6893F82C301BB21B02FB857B6893F862
:1010EC002B301AB2FB8D1343FB85B7F92E3007EE6C
:1010FC00903AB8EEE77ADFED686AC7EE267A9FED94
:10110C00617A67EE877AC7ED057A7B687A695A61EE
:10111C007B6893F82A301BB21B02FB857B6893F823
:10112C0029301AB2FB8D1343FB85B7F92E3007EE2D
:10113C00903AB8EEE77ADFED586AC7EE267A9FED63
:10114C00517A67EE877AC7ED067A7B68BA691A61BD
:10115C007B6893F828301BB21B02FB857B6893F8E5
:10116C0027301AB2FB8D1343FB85B7F92E3007EEEF
:10117C00903AB8EEE77ADFED486AC7EE267A9FED33
:10118C00417A67EE877AC7ED077A7B68FA69DA608D
:10119C007B68012283F832207B68002283F82620AA
:1011AC0003E17B6893F82C301BB21B02FB857B6838
:1011BC0093F82B301AB2FB8D1343FB85B7F92E3005
:1011CC0007EE903AB8EEE77ADFED336AC7EE267A8F
:1011DC009FED327A67EE877AC7ED087A7B683A6AB8
:1011EC001A62294B1B68312B08DC274B1B68013317
:1011FC00254A13607B681A6A7B681A627B6893F8CD
:10120C0028301BB21B02FB857B6893F827301AB27F
:10121C00FB8D1343FB85B7F92E3007EE903AB8EEF1
:10122C00E77ADFED1D6AC7EE267A9FED1C7A67EE32
:10123C00877AC7ED0A7A154B93ED007AD7ED0A7AC7
:10124C0077EE677AB0EE670AFFF7FCFDF0EE407AB6
:10125C00B3EE0E7AF4EEC77AF1EE10FA4CBF01231E
:10126C000023DBB2002B03D07B68BA6ADA612FE073
:10127C00054B1B68042B13DC7B68BA6ADA6127E028
:10128C00CDCC1C410000FA44480200204C02002046
:10129C0000002043000020C300000047000034433E
:1012AC00D7ED0A7A1FED067AF4EEC77AF1EE10FA52
:1012BC0002DD7B68BA6ADA61D7ED0A7A1FED0B7A28
:1012CC00F4EEC77AF1EE10FA02D57B68BA6ADA61ED
:1012DC007B6893F82A301BB21B02FB857B6893F862
:1012EC0029301AB2FB8D1343FB85B7F92E3007EE6C
:1012FC00903AF8EEE77AB1EE677A5FED196AC7EECD
:10130C00267A1FED1A7A67EE877AC7ED097A2D4B8C
:10131C0093ED007AD7ED097A77EE677AB0EE670A2B
:10132C00FFF790FDF0EE407AB3EE0E7AF4EEC77A4A
:10133C00F1EE10FA4CBF01230023DBB2002B03D0DB
:10134C007B687A6A9A611FE01F4B1B68042B03DCD5
:10135C007B687A6A9A6117E0D7ED0A7A9FED1B7A5F
:10136C00F4EEC77AF1EE10FA02DD7B687A6A9A61C4
:10137C00D7ED0A7A9FED167AF4EEC77AF1EE10FAF1
:10138C0002D57B687A6A9A617B68DB69114A1360C3
:10139C007B689B690B4A13607B68012283F83320BE
:1013AC007B68002283F8262000BF7B68586B7B6823
:1013BC0024330122194604F0C1FB00BF3837BD4667
:1013CC0080BD00BF500200204802002000002043D6
:1013DC00000020C34C02002080B483B000AF7860C2
:1013EC007B684FF000021A607B684FF000025A6075
:1013FC007B684FF000029A607B684FF00002DA6065
:10140C007B6800221A747B6818460C37BD465DF861
:10141C00047B704780B483B000AF78607B684FF07A
:10142C0000021A607B684FF000025A607B684FF034
:10143C0000029A607B684FF00002DA607B684FF024
:10144C0000021A617B684FF000025A617B684FF012
:10145C0000029A617B684FF00002DA617B684FF002
:10146C0000021A627B68002283F830207B6800221D
:10147C0083F831207B68002283F832207B680022BD
:10148C0083F833207B6818460C37BD465DF8047B27
:10149C007047000080B500AF034B1B68034918462A
:1014AC00FFF7E0FC00BF80BD58020020B401002013
:1014BC0080B400AF00BFBD465DF8047B70470000F0
:1014CC0080B582B000AF78607B681B68054A934298
:1014DC0004D1054B1B681846FFF712FD00BF0837F7
:1014EC00BD4680BD001001405802002098B500AFE9
:1014FC00142007F0F7FC03461C462046FFF76CFF50
:10150C00064B1C60382007F0EDFC03461C462046B9
:10151C00FFF780FF024B1C6000BF98BD54020020F7
:10152C005802002080B500AFFFF7E0FF80BD00003F
:10153C00DFF838D0FFF714FAFFF782F90C480D49A1
:10154C000D4A002302E0D458C4500433C4188C4212
:10155C00F9D30A4A0A4C002301E013600432A24278
:10156C00FBD307F0F9FDFEF7FBFF704700000220EC
:10157C000000002060000020D894000860000020CB
:10158C00AC030020FEE7000080B582B000AF032062
:10159C0000F080F901F0DCFA0246154B9B691B0A3E
:1015AC0003F00F031349CB5C03F01F0322FA03F380
:1015BC007B600F4B9B6903F00F030E4AD35C03F067
:1015CC001F037A6822FA03F30B4A13600B4A7B68F9
:1015DC0013600F2000F014F80346002B01D00123F8
:1015EC0002E0FFF775F8002318460837BD4680BDAA
:1015FC00004402588C9400080400002000000020D5
:10160C0080B582B000AF7860154B1B78002B01D1F0
:10161C00012321E0134B1A68114B1B7819464FF428
:10162C007A73B3FBF1F3B2FBF3F3184600F065F9F0
:10163C000346002B01D001230EE07B680F2B0AD848
:10164C00002279684FF0FF3000F02FF9064A7B68D2
:10165C001360002300E0012318460837BD4680BD07
:10166C000C000020000000200800002080B400AF17
:10167C00064B1B781A46064B1B681344044A13602E
:10168C0000BFBD465DF8047B704700BF0C00002016
:10169C005C02002080B400AF034B1B681846BD46AB
:1016AC005DF8047B704700BF5C02002080B584B0FD
:1016BC0000AF7860FFF7EEFFB8607B68FB60FB68FB
:1016CC00B3F1FF3F05D00A4B1B781A46FB68134455
:1016DC00FB6000BFFFF7DEFF0246BB68D31AFA6857
:1016EC009A42F7D800BF00BF1037BD4680BD00BF7F
:1016FC000C00002080B485B000AF78607B6803F0EC
:10170C000703FB600B4BDB68BB60BA684FF6FF034B
:10171C001340BB60FB681A02BB681A43064B1343A9
:10172C00BB60044ABB68D36000BF1437BD465DF88C
:10173C00047B704700ED00E00000FA0580B400AFB8
:10174C00044BDB681B0A03F007031846BD465DF823
:10175C00047B704700ED00E080B483B000AF03461B
:10176C00FB80B7F90630002B0BDBFB8803F01F0264
:10177C000749B7F906305B09012000FA02F241F87B
:10178C00232000BF0C37BD465DF8047B704700BFBB
:10179C0000E100E080B483B000AF03463960FB8009
:1017AC00B7F90630002B0ADB3B68DAB20C49B7F903
:1017BC0006301201D2B20B4483F800230AE03B68D6
:1017CC00DAB20849FB8803F00F03043B1201D2B2D2
:1017DC000B441A7600BF0C37BD465DF8047B70478E
:1017EC0000E100E000ED00E080B489B000AFF860EB
:1017FC00B9607A60FB6803F00703FB61FB69C3F116
:10180C000703042B28BF0423BB61FB690433062B9D
:10181C0002D9FB69033B00E000237B614FF0FF32F0
:10182C00BB6902FA03F3DA43BB681A407B699A403E
:10183C004FF0FF317B6901FA03F3D9437B680B400E
:10184C00134318462437BD465DF8047B70470000EF
:10185C0080B582B000AF78607B68013BB3F1807FCC
:10186C0001D301230FE00A4A7B68013B53600F212F
:10187C004FF0FF30FFF78EFF054B00229A60044BB0
:10188C0007221A60002318460837BD4680BD00BFEA
:10189C0010E000E080B582B000AF78607868FFF7A8
:1018AC0029FF00BF0837BD4680BD80B586B000AFAC
:1018BC000346B9607A60FB81FFF740FF78617A6874
:1018CC00B9687869FFF790FF0246B7F90E301146F8
:1018DC001846FFF75FFF00BF1837BD4680BD80B5C7
:1018EC0082B000AF0346FB80B7F906301846FFF70D
:1018FC0033FF00BF0837BD4680BD80B582B000AF56
:10190C0078607868FFF7A4FF034618460837BD4691
:10191C0080BD000080B400AFBFF35F8F00BF074BEA
:10192C005B6A064A23F480335362054B00225A60EB
:10193C0000BFBD465DF8047B704700BF00ED00E0C2
:10194C0090ED00E080B483B000AF78600B4A7B6808
:10195C0043F0010353600A4B5B6A094A43F480333A
:10196C005362BFF34F8F00BFBFF36F8F00BF00BF39
:10197C000C37BD465DF8047B704700BF90ED00E06E
:10198C0000ED00E080B483B000AF78607B685A78DB
:10199C001B4B9A601A4B1B69194A23F00103136104
:1019AC00174A7B685B68D3607B681B7B1A077B6874
:1019BC00DB7A1B061A437B689B7ADB041A437B6831
:1019CC005B7B9B041A437B689B7B5B041A437B68A1
:1019DC00DB7B1B041A437B685B7A1B021A437B6814
:1019EC001B7A5B0013437A6812781146044A0B4346
:1019FC00136100BF0C37BD465DF8047B704700BF18
:101A0C0090ED00E080B489B000AF786039600023BD
:101A1C00FB61864B7B618CE13B681A680121FB6999
:101A2C0001FA03F313403B613B69002B00F07E810C
:101A3C003B685B6803F00303012B05D03B685B68D4
:101A4C0003F00303022B30D17B689B68BB61FB69FD
:101A5C005B00032202FA03F3DB43BA691340BB6158
:101A6C003B68DA68FB695B0002FA03F3BA6913435B
:101A7C00BB617B68BA699A607B685B68BB61012259
:101A8C00FB6902FA03F3DB43BA691340BB613B68A1
:101A9C005B681B0903F00102FB6902FA03F3BA69E4
:101AAC001343BB617B68BA695A603B685B6803F09F
:101ABC000303032B17D07B68DB68BB61FB695B00FE
:101ACC00032202FA03F3DB43BA691340BB613B68A0
:101ADC009A68FB695B0002FA03F3BA691343BB61B2
:101AEC007B68BA69DA603B685B6803F00303022B1E
:101AFC0023D1FB69DA087B68083253F82230BB61CA
:101B0C00FB6903F007039B000F2202FA03F3DB438C
:101B1C00BA691340BB613B681A69FB6903F00703A0
:101B2C009B0002FA03F3BA691343BB61FB69DA0841
:101B3C007B680832B96943F822107B681B68BB616B
:101B4C00FB695B00032202FA03F3DB43BA6913401F
:101B5C00BB613B685B6803F00302FB695B0002FA44
:101B6C0003F3BA691343BB617B68BA691A603B68BB
:101B7C005B6803F44033002B00F0D8802C4BD3F877
:101B8C00F4302B4A43F00203C2F8F430284BD3F85C
:101B9C00F43003F00203FB60FB68264AFB699B08E8
:101BAC00023352F82330BB61FB6903F003039B0043
:101BBC000F2202FA03F3DB43BA691340BB617B6863
:101BCC001D4A93424AD07B681C4A93422BD07B68B7
:101BDC001B4A934225D07B681A4A93421FD07B68DC
:101BEC00194A934219D07B68184A934213D07B68E8
:101BFC00174A93420DD07B68164A934207D07B68F4
:101C0C00154A934201D1092329E00A2327E007232F
:101C1C0025E0062323E0052321E004231FE0032312
:101C2C001DE002231BE0012319E000BF80000058D7
:101C3C0000440258000400580000025800040258E6
:101C4C0000080258000C02580010025800140258E8
:101C5C0000180258001C0258002402580023FA698C
:101C6C0002F0030292009340BA691343BB613849F6
:101C7C00FB699B080233BA6941F823204FF0B0434B
:101C8C001B68BB613B69DB43BA691340BB613B68B2
:101C9C005B6803F48013002B03D0BA693B691343D0
:101CAC00BB614FF0B042BB6913604FF0B0435B684F
:101CBC00BB613B69DB43BA691340BB613B685B6842
:101CCC0003F40013002B03D0BA693B691343BB61C7
:101CDC004FF0B042BB6953607B695B68BB613B6989
:101CEC00DB43BA691340BB613B685B6803F40033A8
:101CFC00002B03D0BA693B691343BB617B69BA699A
:101D0C005A607B691B68BB613B69DB43BA69134052
:101D1C00BB613B685B6803F48033002B03D0BA696A
:101D2C003B691343BB617B69BA691A60FB69013378
:101D3C00FB613B681A68FB6922FA03F3002B7FF402
:101D4C006BAE00BF00BF2437BD465DF8047B704707
:101D5C000004005880B582B000AF78607B68002B1F
:101D6C0001D101238BE07B6893F84130DBB2002B6F
:101D7C0006D17B68002283F840207868FEF788FB48
:101D8C007B68242283F841207B681B681A687B6877
:101D9C001B6822F001021A607B685A687B681B681A
:101DAC0022F070621A617B681B689A687B681B68FA
:101DBC0022F400429A607B68DB68012B07D17B68B8
:101DCC009A687B681B6842F400429A6006E07B6864
:101DDC009A687B681B6842F404429A607B68DB68F3
:101DEC00022B08D17B681B685A687B681B6842F41D
:101DFC0000625A6007E07B681B685A687B681B6846
:101E0C0022F400625A607B681B6859687B681A6808
:101E1C001D4B0B4353607B681B68DA687B681B683F
:101E2C0022F40042DA607B681A697B685B6942EADB
:101E3C0003017B689B691A027B681B680A43DA60A2
:101E4C007B68D9697B681A6A7B681B680A431A60CD
:101E5C007B681B681A687B681B6842F001021A6079
:101E6C007B6800225A647B68202283F841207B68BF
:101E7C0000221A637B68002283F842200023184654
:101E8C000837BD4680BD00BF0080000280B483B01F
:101E9C0000AF786039607B6893F84130DBB2202B5F
:101EAC0038D17B6893F84030012B01D1022332E00A
:101EBC007B68012283F840207B68242283F8412030
:101ECC007B681B681A687B681B6822F001021A6029
:101EDC007B681B681A687B681B6822F480521A6046
:101EEC007B681B6819687B681B683A680A431A6030
:101EFC007B681B681A687B681B6842F001021A60D9
:101F0C007B68202283F841207B68002283F84020E4
:101F1C00002300E0022318460C37BD465DF8047B15
:101F2C00704780B485B000AF786039607B6893F8F7
:101F3C004130DBB2202B39D17B6893F84030012B38
:101F4C0001D1022333E07B68012283F840207B68B7
:101F5C00242283F841207B681B681A687B681B6805
:101F6C0022F001021A607B681B681B68FB60FB682F
:101F7C0023F47063FB603B681B02FA681343FB603D
:101F8C007B681B68FA681A607B681B681A687B6838
:101F9C001B6842F001021A607B68202283F8412002
:101FAC007B68002283F84020002300E002231846BF
:101FBC001437BD465DF8047B7047000080B584B0D3
:101FCC0000AF7860194BDB6803F00403042B0AD0D4
:101FDC00164BDB6803F007037A689A4201D00123A1
:101FEC001FE000231DE0114BDB6823F007020F49B3
:101FFC007B681343CB60FFF74DFBF86009E0FFF7FC
:10200C0049FB0246FB68D31AB3F57A7F01D9012349
:10201C0007E0064B5B6803F40053B3F5005FEED1A9
:10202C00002318461037BD4680BD00BF004802583B
:10203C0080B58CB000AF78607B68002B01D1012398
:10204C00C8E37B681B6803F00103002B00F087805A
:10205C00884B1B6903F03803FB62864B9B6ABB629F
:10206C00FB6A102B07D0FB6A182B10D1BB6A03F04C
:10207C000303022B0BD17F4B1B6803F40033002BA3
:10208C006CD07B685B68002B68D10123A2E37B6872
:10209C005B68B3F5803F06D1764B1B68754A43F4F9
:1020AC00803313602EE07B685B68002B0CD1714B86
:1020BC001B68704A23F4803313606E4B1B686D4AA7
:1020CC0023F4802313601DE07B685B68B3F5A02FBD
:1020DC000CD1684B1B68674A43F480231360654B33
:1020EC001B68644A43F4803313600BE0614B1B683C
:1020FC00604A23F4803313605E4B1B685D4A23F403
:10210C00802313607B685B68002B13D0FFF7C2FA47
:10211C00786208E0FFF7BEFA02467B6AD31A642B9A
:10212C0001D9032356E3534B1B6803F40033002BF4
:10213C00F0D014E0FFF7AEFA786208E0FFF7AAFAE5
:10214C0002467B6AD31A642B01D9032342E3494B21
:10215C001B6803F40033002BF0D100E000BF7B6858
:10216C001B6803F00203002B00F08C80414B1B69B1
:10217C0003F038033B623F4B9B6AFB613B6A002BCD
:10218C0007D03B6A182B37D1FB6903F00303002BF4
:10219C0032D1384B1B6803F00403002B05D07B684D
:1021AC00DB68002B01D1012314E3324B1B6823F0B5
:1021BC0019027B68DB682F4913430B60FFF76AFA3F
:1021CC00786208E0FFF766FA02467B6AD31A022BA4
:1021DC0001D90323FEE2274B1B6803F00403002BF9
:1021EC00F0D0244B5B6823F0FE427B681B691B0616
:1021FC00204913434B6045E07B68DB68002B26D0FD
:10220C001C4B1B6823F019027B68DB6819491343CC
:10221C000B60FFF73FFA786208E0FFF73BFA0246E3
:10222C007B6AD31A022B01D90323D3E2114B1B680F
:10223C0003F00403002BF0D00E4B5B6823F0FE423E
:10224C007B681B691B060B4913434B601AE0094B57
:10225C001B68084A23F001031360FFF71BFA78622E
:10226C000AE0FFF717FA02467B6AD31A022B03D94E
:10227C000323AFE200440258964B1B6803F004039F
:10228C00002BEED17B681B6803F01003002B6AD087
:10229C00904B1B6903F03803BB618E4B9B6A7B61CF
:1022AC00BB69082B07D0BB69182B1BD17B6903F0CA
:1022BC000303012B16D1874B1B6803F48073002B8F
:1022CC0005D07B68DB69802B01D0012382E2814B36
:1022DC00DB6823F07C527B681B6A1B067D49134329
:1022EC00CB6040E07B68DB69002B23D0794B1B680B
:1022FC00784A43F080031360FFF7CCF9786208E06A
:10230C00FFF7C8F902467B6AD31A022B01D90323C3
:10231C0060E2704B1B6803F48073002BF0D06D4BA4
:10232C00DB6823F07C527B681B6A1B0669491343EC
:10233C00CB6018E0674B1B68664A23F08003136080
:10234C00FFF7A8F9786208E0FFF7A4F902467B6A68
:10235C00D31A022B01D903233CE25E4B1B6803F416
:10236C008073002BF0D17B681B6803F00803002BF3
:10237C0036D07B685B69002B19D0564B5B6F554A86
:10238C0043F001035367FFF785F9786208E0FFF724
:10239C0081F902467B6AD31A022B01D9032319E275
:1023AC004C4B5B6F03F00203002BF0D018E0494B51
:1023BC005B6F484A23F001035367FFF76BF97862B0
:1023CC0008E0FFF767F902467B6AD31A022B01D9A2
:1023DC000323FFE13F4B5B6F03F00203002BF0D1B3
:1023EC007B681B6803F02003002B36D07B689B694D
:1023FC00002B19D0374B1B68364A43F480531360BB
:10240C00FFF748F9786208E0FFF744F902467B6A67
:10241C00D31A022B01D90323DCE12E4B1B6803F4E6
:10242C000053002BF0D018E02A4B1B68294A23F4E8
:10243C0080531360FFF72EF9786208E0FFF72AF952
:10244C0002467B6AD31A022B01D90323C2E1214B2A
:10245C001B6803F40053002BF0D17B681B6803F05E
:10246C000403002B00F086801B4B1B681A4A43F4B4
:10247C0080731360FFF70EF9786208E0FFF70AF932
:10248C0002467B6AD31A642B01D90323A2E1124BB7
:10249C001B6803F48073002BF0D07B689B68012BC6
:1024AC0006D10C4B1B6F0B4A43F00103136732E050
:1024BC007B689B68002B11D1064B1B6F054A23F0E0
:1024CC0001031367034B1B6F024A23F004031367CA
:1024DC0021E000BF00440258004802587B689B680A
:1024EC00052B0CD1834B1B6F824A43F004031367FB
:1024FC00804B1B6F7F4A43F0010313670BE07D4B4E
:10250C001B6F7C4A23F0010313677A4B1B6F794ACC
:10251C0023F0040313677B689B68002B15D0FFF72F
:10252C00B9F878620AE0FFF7B5F802467B6AD31A6D
:10253C0041F28832934201D903234BE16D4B1B6F5F
:10254C0003F00203002BEED014E0FFF7A3F878623F
:10255C000AE0FFF79FF802467B6AD31A41F28832F1
:10256C00934201D9032335E1624B1B6F03F0020345
:10257C00002BEED17B685B6A002B00F02A815D4B4F
:10258C001B6903F03803182B00F0BA807B685B6A78
:10259C00022B40F09580574B1B68564A23F08073F2
:1025AC001360FFF777F8786208E0FFF773F80246DC
:1025BC007B6AD31A022B01D903230BE14D4B1B6809
:1025CC0003F00073002BF0D14A4B9A6A4A4B13402C
:1025DC007A68916A7A68D26A12010A4345491343B0
:1025EC008B627B681B6B013BC3F308027B685B6BE4
:1025FC00013B5B029BB21A437B689B6B013B1B0448
:10260C0003F4FE031A437B68DB6B013B1B0603F0F0
:10261C00FE43384913430B63364BDB6A354A23F0D0
:10262C000103D362334B5A6B344B13407A68926C70
:10263C00D200304913434B632E4BDB6A23F00C0260
:10264C007B681B6C2B491343CB622A4BDB6A23F050
:10265C0002027B685B6C27491343CB62254BDB6A18
:10266C00244A43F48033D362224BDB6A214A43F47D
:10267C000033D3621F4BDB6A1E4A43F48023D362C0
:10268C001C4BDB6A1B4A43F00103D362194B1B68DA
:10269C00184A43F080731360FEF7FCFF786208E081
:1026AC00FEF7F8FF02467B6AD31A022B01D90323EB
:1026BC0090E0104B1B6803F00073002BF0D088E007
:1026CC000C4B1B680B4A23F080731360FEF7E2FF80
:1026DC00786208E0FEF7DEFF02467B6AD31A022B13
:1026EC0001D9032376E0034B1B6803F00073002B26
:1026FC00F0D16EE0004402580CFCFFFF0700FFFF16
:10270C00364B9B6A3B61354B1B6BFB607B685B6A92
:10271C00012B31D03B6903F003027B689B6A9A4220
:10272C002AD13B691B0903F03F027B68DB6A9A42A2
:10273C0022D1FB68C3F308027B681B6B013B9A42F6
:10274C001AD1FB685B0A03F07F027B685B6B013B71
:10275C009A4211D1FB681B0C03F07F027B689B6BC8
:10276C00013B9A4208D1FB681B0E03F07F027B6889
:10277C00DB6B013B9A4201D001232BE0174B5B6BC7
:10278C00DB08C3F30C033B617B689B6C3A699A4290
:10279C001FD0124BDB6A114A23F00103D362FEF700
:1027AC0079FF786200BFFEF775FF02467B6A9342A1
:1027BC00F9D00A4B5A6B0A4B13407A68926CD200D0
:1027CC00064913434B63054BDB6A044A43F0010390
:1027DC00D362002318463037BD4680BD00440258F2
:1027EC000700FFFF80B586B000AF786039607B686A
:1027FC00002B01D101239CE18A4B1B6803F00F03D2
:10280C003A689A4210D9874B1B6823F00F0285490E
:10281C003B6813430B60834B1B6803F00F033A6850
:10282C009A4201D0012384E17B681B6803F0040306
:10283C00002B10D07B681A697B4B9B6903F07003EB
:10284C009A4208D9784B9B6923F070027B681B690C
:10285C00754913438B617B681B6803F00803002BDD
:10286C0010D07B685A69704BDB6903F070039A4295
:10287C0008D96D4BDB6923F070027B685B696A4990
:10288C001343CB617B681B6803F01003002B10D043
:10289C007B689A69644BDB6903F4E0639A4208D95C
:1028AC00614BDB6923F4E0627B689B695E491343EF
:1028BC00CB617B681B6803F02003002B10D07B6876
:1028CC00DA69594B1B6A03F070039A4208D9564BCC
:1028DC001B6A23F070027B68DB69534913430B625C
:1028EC007B681B6803F00203002B10D07B68DA684E
:1028FC004D4B9B6903F00F039A4208D94A4B9B69D5
:10290C0023F00F027B68DB68474913438B617B68BC
:10291C001B6803F00103002B55D0434B9B6923F438
:10292C0070627B689B68404913438B617B685B6872
:10293C00022B07D13C4B1B6803F40033002B21D135
:10294C000123F6E07B685B68032B07D1364B1B68D1
:10295C0003F00073002B15D10123EAE07B685B6860
:10296C00012B07D1304B1B6803F48073002B09D16A
:10297C000123DEE02C4B1B6803F00403002B01D178
:10298C000123D6E0284B1B6923F007027B685B68A8
:10299C00254913430B61FEF77DFE78610AE0FEF7D3
:1029AC0079FE02467B69D31A41F28832934201D9EF
:1029BC000323BEE01C4B1B6903F038027B685B6889
:1029CC00DB009A42EBD17B681B6803F00203002BFF
:1029DC0010D07B68DA68144B9B6903F00F039A42A2
:1029EC0008D2114B9B6923F00F027B68DB680E4900
:1029FC0013438B610B4B1B6803F00F033A689A422D
:102A0C0014D2084B1B6823F00F0206493B68134392
:102A1C000B60044B1B6803F00F033A689A4205D015
:102A2C00012386E000200052004402587B681B689A
:102A3C0003F00403002B10D07B681A693F4B9B6991
:102A4C0003F070039A4208D23C4B9B6923F070024E
:102A5C007B681B69394913438B617B681B6803F0E6
:102A6C000803002B10D07B685A69344BDB6903F0E8
:102A7C0070039A4208D2314BDB6923F070027B68F9
:102A8C005B692E491343CB617B681B6803F0100311
:102A9C00002B10D07B689A69284BDB6903F4E06348
:102AAC009A4208D2254BDB6923F4E0627B689B6970
:102ABC0022491343CB617B681B6803F02003002B76
:102ACC0010D07B68DA691D4B1B6A03F070039A42C5
:102ADC0008D21A4B1B6A23F070027B68DB6917491A
:102AEC0013430B6200F034F80246144B9B691B0A2B
:102AFC0003F00F031249CB5C03F01F0322FA03F31C
:102B0C003B610E4B9B6903F00F030D4AD35C03F042
:102B1C001F033A6922FA03F30A4A13600A4A3B6913
:102B2C0013600A4B1B681846FEF76AFD0346FB73DD
:102B3C00FB7B18461837BD4680BD00BF00440258C9
:102B4C008C940008040000200000002008000020E5
:102B5C0080B489B000AFB34B1B6903F03803182B5A
:102B6C0000F2558101A252F823F000BFDD2B0008C2
:102B7C001B2E00081B2E00081B2E00081B2E000805
:102B8C001B2E00081B2E00081B2E0008032C00080F
:102B9C001B2E00081B2E00081B2E00081B2E0008E5
:102BAC001B2E00081B2E00081B2E0008092C0008E9
:102BBC001B2E00081B2E00081B2E00081B2E0008C5
:102BCC001B2E00081B2E00081B2E00080F2C0008C3
:102BDC00944B1B6803F02003002B09D0914B1B680E
:102BEC00DB0803F00303904A22FA03F3BB6111E103
:102BFC008D4BBB610EE18D4BBB610BE18C4BBB6113
:102C0C0008E1884B9B6A03F003037B61854B9B6A4D
:102C1C001B0903F03F033B61824BDB6A03F00103AA
:102C2C00FB60804B5B6BDB08C3F30C03FA6802FBA5
:102C3C0003F307EE903AF8EE677AC7ED027A3B6938
:102C4C00002B00F0E1807B69022B00F083807B6914
:102C5C00022B00F2A1807B69002B03D07B69012B36
:102C6C0056D099E06F4B1B6803F02003002B2DD03E
:102C7C006C4B1B68DB0803F003036B4A22FA03F36B
:102C8C007B607B6807EE903AF8EE676A3B6907EE6B
:102C9C00903AF8EE677A86EEA77A624B1B6BC3F319
:102CAC00080307EE903AF8EE676A97ED026ADFEDDB
:102CBC00615AC6EE257A76EEA77AF7EE006A77EEC1
:102CCC00A67A67EE277AC7ED077A87E03B6907EEAD
:102CDC00903AF8EE677ADFED586A86EEA77A514B98
:102CEC001B6BC3F3080307EE903AF8EE676A97ED97
:102CFC00026ADFED505AC6EE257A76EEA77AF7EE29
:102D0C00006A77EEA67A67EE277AC7ED077A65E058
:102D1C003B6907EE903AF8EE677ADFED486A86EE8B
:102D2C00A77A404B1B6BC3F3080307EE903AF8EEFF
:102D3C00676A97ED026ADFED3F5AC6EE257A76EEAA
:102D4C00A77AF7EE006A77EEA67A67EE277AC7EDD8
:102D5C00077A43E03B6907EE903AF8EE677ADFEDCD
:102D6C00386A86EEA77A2F4B1B6BC3F3080307EE6A
:102D7C00903AF8EE676A97ED026ADFED2E5AC6EECE
:102D8C00257A76EEA77AF7EE006A77EEA67A67EEEA
:102D9C00277AC7ED077A21E03B6907EE903AF8EE07
:102DAC00677ADFED266A86EEA77A1E4B1B6BC3F3A0
:102DBC00080307EE903AF8EE676A97ED026ADFEDCA
:102DCC001D5AC6EE257A76EEA77AF7EE006A77EEF4
:102DDC00A67A67EE277AC7ED077A00BF114B1B6BFB
:102DEC005B0A03F07F0301333B603B6807EE903ACC
:102DFC00B8EE677AD7ED076AC6EE877AFCEEE77A0B
:102E0C0017EE903ABB6105E00023BB6102E0074B73
:102E1C00BB6100BFBB6918462437BD465DF8047B17
:102E2C00704700BF004402580090D00300093D00D9
:102E3C0040787D01000000460024744C0024744A44
:102E4C0020BCBE4B80B582B000AFFFF781FE0246BE
:102E5C00104B9B691B0A03F00F030F49CB5C03F06B
:102E6C001F0322FA03F37B600A4B9B6903F00F03E9
:102E7C00094AD35C03F01F037A6822FA03F3074A6A
:102E8C001360074A7B681360044B1B6818460837AD
:102E9C00BD4680BD004402588C94000804000020FC
:102EAC000000002080B500AFFFF7CCFF0246064BB8
:102EBC00DB691B0903F007030449CB5C03F01F0318
:102ECC0022FA03F3184680BD004402588C94000883
:102EDC0080B500AFFFF7B6FF0246064BDB691B0A55
:102EEC0003F007030449CB5C03F01F0322FA03F33E
:102EFC00184680BD004402588C9400082DE9B04F50
:102F0C00C6B000AFC7F80401002387F817310023BF
:102F1C0087F81631D7F80431D3E9002302F00064A6
:102F2C00002554EA050349D0D7F804315B6EB3F59C
:102F3C00401F2FD0B3F5401F28D8B3F5001F1AD06F
:102F4C00B3F5001F22D8002B03D0B3F5801F07D098
:102F5C001CE0AB4BDB6AAA4A43F40033D3621AE0A1
:102F6C00D7F8043108330221184601F025FC03463A
:102F7C0087F817310FE0D7F80431283302211846AF
:102F8C0001F0CCFC034687F8173104E0012387F8E5
:102F9C00173100E000BF97F81731002B0AD1984B7E
:102FAC001B6D23F44011D7F804315B6E944A0B432C
:102FBC00136503E097F8173187F81631D7F8043109
:102FCC00D3E9002302F480784FF0000958EA090392
:102FDC0047D0D7F804319B6D042B2AD801A252F8A4
:102FEC0023F000BF0530000813300008293000081A
:102FFC004730000847300008814BDB6A804A43F4B5
:10300C000033D3621AE0D7F8043108330021184694
:10301C0001F0D2FB034687F817310FE0D7F80431E3
:10302C0028330021184601F079FC034687F8173144
:10303C0004E0012387F8173100E000BF97F817313F
:10304C00002B0AD16E4B1B6D23F00701D7F804310E
:10305C009B6D6B4A0B43136503E097F8173187F8A8
:10306C001631D7F80431D3E9002302F4806A4FF00B
:10307C00000B5AEA0B035BD0D7F80431D3F8A43019
:10308C00B3F5200F3BD0B3F5200F34D8B3F5000FB8
:10309C0037D0B3F5000F2ED8B3F5C00F33D0B3F53E
:1030AC00C00F28D8B3F5800F1AD0B3F5800F22D8F3
:1030BC00002B03D0B3F5001F07D01CE0504BDB6A8C
:1030CC004F4A43F40033D3621EE0D7F8043108337F
:1030DC000021184601F070FB034687F8173113E006
:1030EC00D7F8043128330021184601F017FC0346A9
:1030FC0087F8173108E0012387F8173104E000BF87
:10310C0002E000BF00E000BF97F81731002B0BD195
:10311C003B4B9B6D23F46001D7F80431D3F8A430FA
:10312C00374A0B43936503E097F8173187F816314C
:10313C00D7F80431D3E9002302F40063C7F8F83060
:10314C000023C7F8FC30D7E93E120B4613435DD081
:10315C00D7F80431D3F8A830B3F1A06F3BD0B3F15A
:10316C00A06F34D8B3F1806F37D0B3F1806F2ED805
:10317C00B3F1407F33D0B3F1407F28D8B3F1007F57
:10318C001AD0B3F1007F22D8002B03D0B3F1807F8B
:10319C0007D01CE01A4BDB6A194A43F40033D362A4
:1031AC001EE0D7F8043108330021184601F004FB67
:1031BC00034687F8173113E0D7F804312833002180
:1031CC00184601F0ABFB034687F8173108E00123E2
:1031DC0087F8173104E000BF02E000BF00E000BF39
:1031EC0097F81731002B0DD1054B9B6D23F0E06147
:1031FC00D7F80431D3F8A830014A0B43936505E0A6
:10320C000044025897F8173187F81631D7F8043173
:10321C00D3E9002302F00073C7F8F0300023C7F89D
:10322C00F430D7E93C120B4613433AD0D7F80431AB
:10323C00DB6C302B1FD0302B19D8202B0CD0202B33
:10324C0015D8002B19D0102B11D1AA4BDB6AA94A27
:10325C0043F40033D36211E0D7F804310833022170
:10326C00184601F0A9FA034687F8173106E0012346
:10327C0087F8173102E000BF00E000BF97F8173164
:10328C00002B0AD19B4BDB6C23F03001D7F80431B7
:10329C00DB6C984A0B43D36403E097F8173187F83B
:1032AC001631D7F80431D3E9002302F48053C7F860
:1032BC00E8300023C7F8EC30D7E93A120B46134339
:1032CC0051D0D7F80431DB6DB3F5804F35D0B3F561
:1032DC00804F2ED8B3F5405F31D0B3F5405F28D87E
:1032EC00B3F5005F1AD0B3F5005F22D8002B03D0E2
:1032FC00B3F5805F07D01CE07E4BDB6A7D4A43F45C
:10330C000033D3621CE0D7F804310833002118468F
:10331C0001F052FA034687F8173111E0D7F804315F
:10332C0028330021184601F0F9FA034687F81731C3
:10333C0006E0012387F8173102E000BF00E000BF70
:10334C0097F81731002B0AD16A4B1B6D23F4E0411F
:10335C00D7F80431DB6D674A0B43136503E097F82C
:10336C00173187F81631D7F80431D3E9002302F46A
:10337C000053C7F8E0300023C7F8E430D7E938121F
:10338C000B46134353D0D7F804311B6EB3F5A02F63
:10339C0033D0B3F5A02F2CD8B3F5802F2FD0B3F5A5
:1033AC00802F26D8B3F5403F2BD0B3F5403F20D823
:1033BC00B3F5003F12D0B3F5003F1AD8002B22D042
:1033CC00B3F5803F15D1D7F80431083301211846E5
:1033DC0001F0F2F9034687F8173115E0D7F80431FC
:1033EC0028330121184601F099FA034687F8173162
:1033FC000AE0012387F8173106E000BF04E000BFA4
:10340C0002E000BF00E000BF97F81731002B0AD193
:10341C00384B1B6D23F4E021D7F804311B6E354A71
:10342C000B43136503E097F8173187F81631D7F87B
:10343C000431D3E9002302F48043C7F8D8300023C9
:10344C00C7F8DC30D7E936120B46134358D0D7F8FF
:10345C000431D3F8AC30B3F1A04F33D0B3F1A04F5B
:10346C002CD8B3F1804F2FD0B3F1804F26D8B3F1C5
:10347C00405F2BD0B3F1405F20D8B3F1005F12D086
:10348C00B3F1005F1AD8002B22D0B3F1805F15D1B5
:10349C00D7F8043108330121184601F08DF90346A1
:1034AC0087F8173115E0D7F8043128330121184675
:1034BC0001F034FA034687F817310AE0012387F844
:1034CC00173106E000BF04E000BF02E000BF00E0DF
:1034DC0000BF97F81731002B0ED1064B9B6D23F0D4
:1034EC00E041D7F80431D3F8AC30024A0B43936572
:1034FC0006E000BF0044025897F8173187F81631E0
:10350C00D7F80431D3E9002302F40043C7F8D030D4
:10351C000023C7F8D430D7E934120B46134337D005
:10352C00D7F80431DB6EB3F1005F0ED0B3F1005F5E
:10353C0016D8002B18D0B3F1805F11D1C44BDB6AC5
:10354C00C34A43F40033D3620FE0D7F80431083395
:10355C000121184601F030F9034687F8173104E0D1
:10356C00012387F8173100E000BF97F81731002BC3
:10357C000AD1B74B1B6D23F04051D7F80431DB6EE9
:10358C00B34A0B43136503E097F8173187F81631EC
:10359C00D7F80431D3E9002302F08073C7F8C830A0
:1035AC000023C7F8CC30D7E932120B46134339D07D
:1035BC00D7F804319B6C032B1CD801A252F823F0D2
:1035CC0009360008DD350008EB350008093600081F
:1035DC009F4BDB6A9E4A43F40033D3620FE0D7F86B
:1035EC00043108330221184601F0E6F8034687F847
:1035FC00173104E0012387F8173100E000BF97F87A
:10360C001731002B0AD1924BDB6C23F00301D7F856
:10361C0004319B6C8E4A0B43D36403E097F817314B
:10362C0087F81631D7F80431D3E9002302F480036C
:10363C00C7F8C0300023C7F8C430D7E930120B46A6
:10364C00134300F09980834B1B68824A43F48073C8
:10365C001360FEF71FF8C7F810010BE0FEF71AF81D
:10366C000246D7F81031D31A642B03D9032387F8F9
:10367C00173105E0774B1B6803F48073002BEDD0FA
:10368C0097F81731002B73D1714B1A6FD7F804319F
:10369C00D3F8B030534003F44073002B15D06C4B6F
:1036AC001B6F23F44073C7F80C31694B1B6F684ACE
:1036BC0043F480331367664B1B6F654A23F48033E6
:1036CC001367634AD7F80C311367D7F80431D3F872
:1036DC00B030B3F5807F18D1FDF7DCFFC7F81001CF
:1036EC000DE0FDF7D7FF0246D7F81031D21A41F2A0
:1036FC0088339A4203D9032387F8173105E0544BDA
:10370C001B6F03F00203002BEBD097F81731002B43
:10371C0029D1D7F80431D3F8B03003F44073B3F5A2
:10372C00407F0ED14A4B1B6923F47C51D7F80431EE
:10373C00D3F8B0301A09484B1340454A0B43136178
:10374C0005E0434B1B69424A23F47C531361404B05
:10375C00196FD7F80431D3F8B030C3F30B033C4ADC
:10376C000B43136708E097F8173187F8163103E01D
:10377C0097F8173187F81631D7F80431D3E90023BD
:10378C0002F00103C7F8B8300023C7F8BC30D7E902
:10379C002E120B46134300F08F80D7F804319B6F29
:1037AC00282B71D801A252F823F000BF9D380008D5
:1037BC0095380008953800089538000895380008A9
:1037CC0095380008953800089538000869380008C5
:1037DC009538000895380008953800089538000889
:1037EC009538000895380008953800087F3800088F
:1037FC009538000895380008953800089538000869
:10380C009538000895380008953800089D38000850
:10381C009538000895380008953800089538000848
:10382C009538000895380008953800089D38000830
:10383C009538000895380008953800089538000828
:10384C009538000895380008953800089D38000810
:10385C000044025800480258CFFFFF00D7F804314B
:10386C0008330121184600F0A7FF034687F81731EB
:10387C000FE0D7F8043128330121184601F04EF837
:10388C00034687F8173104E0012387F8173100E06D
:10389C0000BF97F81731002B0AD1BF4B5B6D23F09B
:1038AC003801D7F804319B6FBB4A0B43536503E0D7
:1038BC0097F8173187F81631D7F80431D3E900237C
:1038CC0002F00203C7F8B0300023C7F8B430D7E9D0
:1038DC002C120B46134341D0D7F804315B6F052BE8
:1038EC0024D801A252F823F0413900080D39000800
:1038FC0023390008413900084139000841390008D2
:10390C00D7F8043108330121184600F055FF03465F
:10391C0087F817310FE0D7F8043128330121184606
:10392C0000F0FCFF034687F8173104E0012387F809
:10393C00173100E000BF97F81731002B0AD1964BD6
:10394C005B6D23F00701D7F804315B6F924A0B4390
:10395C00536503E097F8173187F81631D7F804311F
:10396C00D3E9002302F00403C7F8A8300023C7F8FA
:10397C00AC30D7E92A120B46134344D0D7F80431A4
:10398C00D3F89030052B25D801A252F823F000BFB4
:10399C00E9390008B5390008CB390008E9390008C5
:1039AC00E9390008E9390008D7F804310833012156
:1039BC00184600F001FF034687F817310FE0D7F8DF
:1039CC00043128330121184600F0A8FF034687F87C
:1039DC00173104E0012387F8173100E000BF97F896
:1039EC001731002B0BD16C4B9B6D23F00701D7F8D3
:1039FC000431D3F89030684A0B43936503E097F891
:103A0C00173187F81631D7F80431D3E9002302F0C7
:103A1C002003C7F8A0300023C7F8A430D7E9281238
:103A2C000B46134355D0D7F80431D3F88C30B3F18F
:103A3C00A04F33D0B3F1A04F2CD8B3F1804F2FD07F
:103A4C00B3F1804F26D8B3F1405F2BD0B3F1405F78
:103A5C0020D8B3F1005F12D0B3F1005F1AD8002B5D
:103A6C0022D0B3F1805F15D1D7F80431083300218F
:103A7C00184600F0A1FE034687F8173115E0D7F879
:103A8C00043128330221184600F048FF034687F81A
:103A9C0017310AE0012387F8173106E000BF04E074
:103AAC0000BF02E000BF00E000BF97F81731002B09
:103ABC000BD1394B5B6D23F0E041D7F80431D3F8CF
:103ACC008C30354A0B43536503E097F8173187F870
:103ADC001631D7F80431D3E9002302F04003C7F8BC
:103AEC0098300023C7F89C30D7E926120B461343B5
:103AFC0058D0D7F80431D3F89830B3F5A05F33D051
:103B0C00B3F5A05F2CD8B3F5805F2FD0B3F5805FF1
:103B1C0026D8B3F5406F2BD0B3F5406F20D8B3F552
:103B2C00006F12D0B3F5006F1AD8002B22D0B3F56A
:103B3C00806F15D1D7F8043108330021184600F0F6
:103B4C003BFE034687F8173115E0D7F804312833CC
:103B5C000221184600F0E2FE034687F817310AE00E
:103B6C00012387F8173106E000BF04E000BF02E034
:103B7C0000BF00E000BF97F81731002B0ED1064BA9
:103B8C009B6D23F4E051D7F80431D3F89830024AF6
:103B9C000B43936506E000BF0044025897F81731B9
:103BAC0087F81631D7F80431D3E9002302F08003EB
:103BBC00C7F890300023C7F89430D7E924120B468D
:103BCC00134355D0D7F80431D3F89C30B3F5204FBC
:103BDC0033D0B3F5204F2CD8B3F5004F2FD0B3F51D
:103BEC00004F26D8B3F5C04F2BD0B3F5C04F20D81B
:103BFC00B3F5804F12D0B3F5804F1AD8002B22D0DA
:103C0C00B3F5005F15D1D7F80431083300211846FD
:103C1C0000F0D2FD034687F8173115E0D7F80431D0
:103C2C0028330221184600F079FE034687F8173135
:103C3C000AE0012387F8173106E000BF04E000BF5B
:103C4C0002E000BF00E000BF97F81731002B0BD14A
:103C5C00A04B9B6D23F46041D7F80431D3F89C3012
:103C6C009C4A0B43936503E097F8173187F816319C
:103C7C00D7F80431D3E9002302F00803C7F88830E1
:103C8C000023C7F88C30D7E922120B4613431ED001
:103C9C00D7F80431D3F88030B3F5805F0CD1D7F866
:103CAC00043128330221184600F038FE0346002B5D
:103CBC0002D0012387F81631864B5B6D23F44051FB
:103CCC00D7F80431D3F88030824A0B435365D7F8C8
:103CDC000431D3E9002302F01003C7F8803000232D
:103CEC00C7F88430D7E920120B4613431ED0D7F8FF
:103CFC000431D3F89430B3F5807F0CD1D7F804316C
:103D0C0028330221184600F009FE0346002B02D08E
:103D1C00012387F816316F4B9B6D23F44071D7F854
:103D2C000431D3F894306B4A0B439365D7F80431C4
:103D3C00D3E9002302F40023BB670023FB67D7E918
:103D4C001E120B4613433ED0D7F80431D3F8A030E3
:103D5C00B3F5003F22D0B3F5003F1BD8002B03D0A6
:103D6C00B3F5803F0BD015E0D7F8043108330021B0
:103D7C00184600F021FD034687F817310FE0D7F8FD
:103D8C00043128330221184600F0C8FD034687F899
:103D9C00173104E0012387F8173100E000BF97F8D2
:103DAC001731002B0BD14B4B9B6D23F44031D7F8C3
:103DBC000431D3F8A030474A0B43936503E097F8DE
:103DCC00173187F81631D7F80431D3E9002302F400
:103DDC0080233B6700237B67D7E91C120B461343F8
:103DEC003BD0D7F80431D3F88430B3F5401F1FD043
:103DFC00B3F5401F18D8B3F5801F03D0B3F5001FDF
:103E0C0007D011E0334BDB6A324A43F40033D36200
:103E1C000FE0D7F8043128330121184600F07EFD5D
:103E2C00034687F8173104E0012387F8173100E0C7
:103E3C0000BF97F81731002B0BD1264B5B6D23F489
:103E4C004011D7F80431D3F88430224A0B43536520
:103E5C0003E097F8173187F81631D7F80431D3E916
:103E6C00002302F48033BB660023FB66D7E91A12E9
:103E7C000B46134334D0D7F804311B6D002B03D001
:103E8C00B3F5803F07D011E0124BDB6A114A43F4C3
:103E9C000033D3620EE0D7F8043108330221184600
:103EAC0000F08AFC034687F8173103E0012387F8FA
:103EBC00173100BF97F81731002B0DD1054BDB6C78
:103ECC0023F48031D7F804311B6D024A0B43D364C1
:103EDC0006E000BF0044025897F8173187F81631F6
:103EEC00D7F80431D3E9002302F000533B660023DA
:103EFC007B66D7E918120B4613430CD0D7F8043164
:103F0C0028330221184600F009FD0346002B02D08D
:103F1C00012387F81631D7F80431D3E9002302F4D2
:103F2C000033BB650023FB65D7E916120B46134320
:103F3C0036D0D7F80431DB6FB3F5407F18D0B3F52A
:103F4C00407F11D8B3F5007F14D0B3F5007F0BD8A8
:103F5C00002B11D0B3F5807F06D1B74BDB6AB64A84
:103F6C0043F40033D36208E0012387F8173104E0EF
:103F7C0000BF02E000BF00E000BF97F81731002B34
:103F8C000AD1AD4B5B6D23F44071D7F80431DB6F74
:103F9C00A94A0B43536503E097F8173187F816319C
:103FAC00D7F80431D3E9002302F480133B650023D6
:103FBC007B65D7E914120B46134309D09E4B1B6D3E
:103FCC0023F00041D7F804311B6F9B4A0B43136558
:103FDC00D7F80431D3E9002302F40013BB640023A7
:103FEC00FB64D7E912120B46134309D0924B1B6D9D
:103FFC0023F08071D7F804319B6E8F4A0B43136505
:10400C00D7F80431D3E9002302F080433B6400234A
:10401C007B64D7E910120B4613430ED0864B1B69F9
:10402C00854A23F400431361834B1969D7F8043193
:10403C00D3F8B430804A0B431361D7F80431D3E979
:10404C00002302F00043BB630023FB63D7E90E128D
:10405C000B46134309D0784BDB6C23F04051D7F857
:10406C0004315B6D744A0B43D364D7F80431D3E944
:10407C00002302F400033B6300237B63D7E90C129B
:10408C000B4613430AD06C4B5B6D23F44001D7F8FD
:10409C000431D3F88830684A0B435365D7F80431A0
:1040AC00D3E900230021B96203F00103FB62D7E9D5
:1040BC000A120B46134311D0D7F8043108330021F0
:1040CC00184600F079FB034687F8173197F817313B
:1040DC00002B03D097F8173187F81631D7F8043135
:1040EC00D3E900230021396203F002037B62D7E994
:1040FC0008120B46134311D0D7F8043108330121B1
:10410C00184600F059FB034687F8173197F817311A
:10411C00002B03D097F8173187F81631D7F80431F4
:10412C00D3E900230021B96103F00403FB61D7E953
:10413C0006120B46134311D0D7F804310833022171
:10414C00184600F039FB034687F8173197F81731FA
:10415C00002B03D097F8173187F81631D7F80431B4
:10416C00D3E900230021396103F008037B61D7E90F
:10417C0004120B46134311D0D7F804312833002115
:10418C00184600F0CBFB034687F8173197F8173128
:10419C00002B03D097F8173187F81631D7F8043174
:1041AC00D3E900230021B96003F01003FB60D7E9C9
:1041BC0002120B46134311D0D7F8043128330121D6
:1041CC00184600F0ABFB034687F8173197F8173108
:1041DC00002B03D097F8173187F81631D7F8043134
:1041EC00D3E900230021396003F020037B60D7E979
:1041FC0000120B46134311D0D7F804312833022197
:10420C00184600F08BFB034687F8173197F81731E7
:10421C00002B03D097F8173187F8163197F8163121
:10422C00002B01D1002300E00123184607F58C7701
:10423C00BD46BDE8B08F00BF0044025880B500AF4A
:10424C00FEF700FE0246064B1B6A1B0903F0070330
:10425C000449CB5C03F01F0322FA03F3184680BD1C
:10426C00004402588C94000880B489B000AF786088
:10427C00A14B9B6A03F00303BB619F4B9B6A1B0B17
:10428C0003F03F037B619C4BDB6A1B0903F00103CA
:10429C003B61994BDB6BDB08C3F30C033A6902FB04
:1042AC0003F307EE903AF8EE677AC7ED037A7B6971
:1042BC00002B00F01181BB69022B00F08380BB69DD
:1042CC00022B00F2A180BB69002B03D0BB69012B30
:1042DC0056D099E0884B1B6803F02003002B2DD09F
:1042EC00854B1B68DB0803F00303844A22FA03F3B3
:1042FC00BB60BB6807EE903AF8EE676A7B6907EE25
:10430C00903AF8EE677A86EEA77A7B4B9B6BC3F3F9
:10431C00080307EE903AF8EE676A97ED036ADFED53
:10432C00785AC6EE257A76EEA77AF7EE006A77EE23
:10433C00A67A67EE277AC7ED077A87E07B6907EEE6
:10434C00903AF8EE677ADFED6F6A86EEA77A6A4BE1
:10435C009B6BC3F3080307EE903AF8EE676A97ED90
:10436C00036ADFED675AC6EE257A76EEA77AF7EE8A
:10437C00006A77EEA67A67EE277AC7ED077A65E0D2
:10438C007B6907EE903AF8EE677ADFED5F6A86EEAE
:10439C00A77A594B9B6BC3F3080307EE903AF8EEE0
:1043AC00676A97ED036ADFED565AC6EE257A76EE0C
:1043BC00A77AF7EE006A77EEA67A67EE277AC7ED52
:1043CC00077A43E07B6907EE903AF8EE677ADFED07
:1043DC004F6A86EEA77A484B9B6BC3F3080307EE34
:1043EC00903AF8EE676A97ED036ADFED455AC6EE30
:1043FC00257A76EEA77AF7EE006A77EEA67A67EE64
:10440C00277AC7ED077A21E07B6907EE903AF8EE40
:10441C00677ADFED3D6A86EEA77A374B9B6BC3F369
:10442C00080307EE903AF8EE676A97ED036ADFED42
:10443C00345AC6EE257A76EEA77AF7EE006A77EE56
:10444C00A67A67EE277AC7ED077A00BF2A4B9B6BDB
:10445C005B0A03F07F0307EE903AF8EE677AB7EE4B
:10446C00007A37EE877AD7ED076AC6EE877AFCEECC
:10447C00E77A17EE902A7B681A601F4B9B6B1B0C1C
:10448C0003F07F0307EE903AF8EE677AB7EE007A06
:10449C0037EE877AD7ED076AC6EE877AFCEEE77AB5
:1044AC0017EE902A7B685A60134B9B6B1B0E03F024
:1044BC007F0307EE903AF8EE677AB7EE007A37EEA4
:1044CC00877AD7ED076AC6EE877AFCEEE77A17EEA5
:1044DC00902A7B689A6008E07B6800221A607B68EF
:1044EC0000225A607B6800229A6000BF2437BD46C8
:1044FC005DF8047B704700BF004402580090D00365
:10450C00000000460024744C0024744A20BCBE4BAE
:10451C0080B489B000AF7860A14B9B6A03F00303B1
:10452C00BB619F4B9B6A1B0D03F03F037B619C4B54
:10453C00DB6A1B0A03F001033B61994B5B6CDB08E4
:10454C00C3F30C033A6902FB03F307EE903AF8EE5F
:10455C00677AC7ED037A7B69002B00F01181BB6988
:10456C00022B00F08380BB69022B00F2A180BB6997
:10457C00002B03D0BB69012B56D099E0884B1B68EC
:10458C0003F02003002B2DD0854B1B68DB0803F0B8
:10459C000303844A22FA03F3BB60BB6807EE903A2C
:1045AC00F8EE676A7B6907EE903AF8EE677A86EE6A
:1045BC00A77A7B4B1B6CC3F3080307EE903AF8EE1B
:1045CC00676A97ED036ADFED785AC6EE257A76EEC8
:1045DC00A77AF7EE006A77EEA67A67EE277AC7ED30
:1045EC00077A87E07B6907EE903AF8EE677ADFEDA1
:1045FC006F6A86EEA77A6A4B1B6CC3F3080307EE4F
:10460C00903AF8EE676A97ED036ADFED675AC6EEEB
:10461C00257A76EEA77AF7EE006A77EEA67A67EE41
:10462C00277AC7ED077A65E07B6907EE903AF8EEDA
:10463C00677ADFED5F6A86EEA77A594B1B6CC3F382
:10464C00080307EE903AF8EE676A97ED036ADFED20
:10465C00565AC6EE257A76EEA77AF7EE006A77EE12
:10466C00A67A67EE277AC7ED077A43E07B6907EEF7
:10467C00903AF8EE677ADFED4F6A86EEA77A484BF0
:10468C001B6CC3F3080307EE903AF8EE676A97EDDC
:10469C00036ADFED455AC6EE257A76EEA77AF7EE79
:1046AC00006A77EEA67A67EE277AC7ED077A21E0E3
:1046BC007B6907EE903AF8EE677ADFED3D6A86EE9D
:1046CC00A77A374B1B6CC3F3080307EE903AF8EE4E
:1046DC00676A97ED036ADFED345AC6EE257A76EEFB
:1046EC00A77AF7EE006A77EEA67A67EE277AC7ED1F
:1046FC00077A00BF2A4B1B6C5B0A03F07F0307EEA3
:10470C00903AF8EE677AB7EE007A37EE877AD7ED03
:10471C00076AC6EE877AFCEEE77A17EE902A7B687A
:10472C001A601F4B1B6C1B0C03F07F0307EE903AB7
:10473C00F8EE677AB7EE007A37EE877AD7ED076A2C
:10474C00C6EE877AFCEEE77A17EE902A7B685A6001
:10475C00134B1B6C1B0E03F07F0307EE903AF8EE25
:10476C00677AB7EE007A37EE877AD7ED076AC6EE2E
:10477C00877AFCEEE77A17EE902A7B689A6008E05D
:10478C007B6800221A607B6800225A607B680022DA
:10479C009A6000BF2437BD465DF8047B704700BFAC
:1047AC00004402580090D003000000460024744CD2
:1047BC000024744A20BCBE4B80B584B000AF786036
:1047CC0039600023FB73534B9B6A03F00303032BE9
:1047DC0001D1012399E04F4B1B684E4A23F08063B3
:1047EC001360FCF757FFB86008E0FCF753FF024674
:1047FC00BB68D31A022B01D9032386E0454B1B68F7
:10480C0003F00063002BF0D1424B9B6A23F47C3203
:10481C007B681B681B033F4913438B627B685B6897
:10482C00013BC3F308027B689B68013B5B029BB2B4
:10483C001A437B68DB68013B1B0403F4FE031A4339
:10484C007B681B69013B1B0603F0FE433149134394
:10485C008B63304BDB6A23F0C0027B685B692D49AC
:10486C001343CB622B4BDB6A23F020027B689B69E2
:10487C0028491343CB62274BDB6A264A23F01003EB
:10488C00D362244BDA6B244B13407A68D269D20082
:10489C0020491343CB631F4BDB6A1E4A43F01003C2
:1048AC00D3623B68002B06D11A4BDB6A194A43F4DE
:1048BC000023D3620FE03B68012B06D1154BDB6A5A
:1048CC00144A43F48013D36205E0124BDB6A114A9D
:1048DC0043F40013D3620F4B1B680E4A43F0806302
:1048EC001360FCF7D7FEB86008E0FCF7D3FE024675
:1048FC00BB68D31A022B01D9032306E0054B1B68B6
:10490C0003F00063002BF0D0FB7B18461037BD463C
:10491C0080BD00BF004402580700FFFF80B584B083
:10492C0000AF786039600023FB73534B9B6A03F034
:10493C000303032B01D1012399E04F4B1B684E4A13
:10494C0023F080531360FCF7A5FEB86008E0FCF779
:10495C00A1FE0246BB68D31A022B01D9032386E0C1
:10496C00454B1B6803F00053002BF0D1424B9B6A64
:10497C0023F07C727B681B681B053F4913438B62D9
:10498C007B685B68013BC3F308027B689B68013B57
:10499C005B029BB21A437B68DB68013B1B0403F48C
:1049AC00FE031A437B681B69013B1B0603F0FE43A5
:1049BC00314913430B64304BDB6A23F440627B6850
:1049CC005B692D491343CB622B4BDB6A23F40072DA
:1049DC007B689B6928491343CB62274BDB6A264AC9
:1049EC0023F48073D362244B5A6C244B13407A68A3
:1049FC00D269D200204913434B641F4BDB6A1E4A19
:104A0C0043F48073D3623B68002B06D11A4BDB6AEC
:104A1C00194A43F48003D3620FE03B68012B06D1A3
:104A2C00154BDB6A144A43F40003D36205E0124BC6
:104A3C00DB6A114A43F08073D3620F4B1B680E4A3A
:104A4C0043F080531360FCF725FEB86008E0FCF7D8
:104A5C0021FE0246BB68D31A022B01D9032306E0C0
:104A6C00054B1B6803F00053002BF0D0FB7B184662
:104A7C001037BD4680BD00BF004402580700FFFF41
:104A8C0080B582B000AF78607B68002B01D1012328
:104A9C0049E07B6893F83D30DBB2002B06D17B6894
:104AAC00002283F83C207868FCF70CF87B68022223
:104ABC0083F83D207B681A687B68043319461046DE
:104ACC0000F0A2FA7B68012283F848207B6801225F
:104ADC0083F83E207B68012283F83F207B6801220B
:104AEC0083F840207B68012283F841207B680122F7
:104AFC0083F842207B68012283F843207B680122E3
:104B0C0083F844207B68012283F845207B680122CE
:104B1C0083F846207B68012283F847207B680122BA
:104B2C0083F83D20002318460837BD4680BD80B56C
:104B3C0082B000AF78607B68002B01D1012349E083
:104B4C007B6893F83D30DBB2002B06D17B680022EA
:104B5C0083F83C20786800F041F87B68022283F8E7
:104B6C003D207B681A687B6804331946104600F0B8
:104B7C004BFA7B68012283F848207B68012283F87A
:104B8C003E207B68012283F83F207B68012283F85A
:104B9C0040207B68012283F841207B68012283F846
:104BAC0042207B68012283F843207B68012283F832
:104BBC0044207B68012283F845207B68012283F81E
:104BCC0046207B68012283F847207B68012283F80A
:104BDC003D20002318460837BD4680BD80B483B005
:104BEC0000AF786000BF0C37BD465DF8047B7047A2
:104BFC0080B586B000AFF860B9607A600023FB75B1
:104C0C00FB6893F83C30012B01D10223FFE0FB68D9
:104C1C00012283F83C207B68142B00F2F08001A267
:104C2C0052F823F0854C00080B4E00080B4E000880
:104C3C000B4E0008C54C00080B4E00080B4E00082C
:104C4C000B4E0008074D00080B4E00080B4E0008D9
:104C5C000B4E0008474D00080B4E00080B4E000889
:104C6C000B4E0008894D00080B4E00080B4E000837
:104C7C000B4E0008C94D0008FB681B68B968184644
:104C8C0000F06EFAFB681B689A69FB681B6842F0BF
:104C9C0008029A61FB681B689A69FB681B6822F022
:104CAC0004029A61FB681B689969BB681A69FB6806
:104CBC001B680A439A61A5E0FB681B68B968184633
:104CCC0000F0DEFAFB681B689A69FB681B6842F40B
:104CDC0000629A61FB681B689A69FB681B6822F486
:104CEC0080629A61FB681B689969BB681B691A0230
:104CFC00FB681B680A439A6184E0FB681B68B9680F
:104D0C00184600F047FBFB681B68DA69FB681B68F8
:104D1C0042F00802DA61FB681B68DA69FB681B6801
:104D2C0022F00402DA61FB681B68D969BB681A6956
:104D3C00FB681B680A43DA6164E0FB681B68B968AE
:104D4C00184600F0AFFBFB681B68DA69FB681B6850
:104D5C0042F40062DA61FB681B68DA69FB681B6865
:104D6C0022F48062DA61FB681B68D969BB681B6935
:104D7C001A02FB681B680A43DA6143E0FB681B6894
:104D8C00B968184600F0F8FBFB681B685A6DFB68A5
:104D9C001B6842F008025A65FB681B685A6DFB6879
:104DAC001B6822F004025A65FB681B68596DBB68CE
:104DBC001A69FB681B680A435A6523E0FB681B6889
:104DCC00B968184600F03CFCFB681B685A6DFB6820
:104DDC001B6842F400625A65FB681B685A6DFB68DD
:104DEC001B6822F480625A65FB681B68596DBB68AE
:104DFC001B691A02FB681B680A435A6502E001230F
:104E0C00FB7500BFFB68002283F83C20FB7D184635
:104E1C001837BD4680BD00BF80B584B000AF786048
:104E2C0039600023FB737B6893F83C30012B01D174
:104E3C000223DCE07B68012283F83C207B680222A1
:104E4C0083F83D207B681B689B68BB60BA686A4B23
:104E5C001340BB60BB6823F47F43BB607B681B685B
:104E6C00BA689A603B681B68644A934200F0A98058
:104E7C00624A934200F2AE80614A934200F0A180F4
:104E8C005F4A934200F2A6805E4A934200F09980FA
:104E9C005C4A934200F29E80B3F1101F00F09180A7
:104EAC00B3F1101F00F29680B3F5801F00F08980DB
:104EBC00B3F5801F00F28E80B3F5005F3ED0B3F5E2
:104ECC00005F00F28780B3F5805F00F08680B3F559
:104EDC00805F7FD8702B1AD0702B7BD8602B50D072
:104EEC00602B77D8502B3CD0502B73D8402B58D0FC
:104EFC00402B6FD8302B64D0302B6BD8202B60D04C
:104F0C00202B67D8002B5CD0102B5AD062E07B682A
:104F1C0018683B6899683B685A683B68DB6800F026
:104F2C0073FC7B681B689B68BB60BB6843F07703B2
:104F3C00BB607B681B68BA689A604FE07B68186836
:104F4C003B6899683B685A683B68DB6800F05CFC1E
:104F5C007B681B689A687B681B6842F480429A6085
:104F6C003CE07B6818683B6859683B68DB681A460C
:104F7C0000F0CCFB7B681B685021184600F026FC27
:104F8C002CE07B6818683B6859683B68DB681A46FC
:104F9C0000F0EBFB7B681B686021184600F016FCE8
:104FAC001CE07B6818683B6859683B68DB681A46EC
:104FBC0000F0ACFB7B681B684021184600F006FC37
:104FCC000CE07B681A683B681B681946104600F0B9
:104FDC00FDFB03E00123FB7300E000BF7B680122B3
:104FEC0083F83D207B68002283F83C20FB7B18462D
:104FFC001037BD4680BD00BF88FFCEFF40001000BB
:10500C00300010002000100080B485B000AF786034
:10501C0039607B681B68FB607B68474A934213D0FE
:10502C007B68B3F1804F0FD07B68444A93420BD01E
:10503C007B68434A934207D07B68424A934203D031
:10504C007B68414A934208D1FB6823F07003FB60F4
:10505C003B685B68FA681343FB607B68364A934293
:10506C0027D07B68B3F1804F23D07B68334A9342BF
:10507C001FD07B68324A93421BD07B68314A9342E3
:10508C0017D07B68304A934213D07B682F4A9342E7
:10509C000FD07B682E4A93420BD07B682D4A9342EB
:1050AC0007D07B682C4A934203D07B682B4A9342EF
:1050BC0008D1FB6823F44073FB603B68DB68FA683B
:1050CC001343FB60FB6823F080023B685B6913436E
:1050DC00FB603B689A687B68DA623B681A687B689D
:1050EC009A627B68144A93420FD07B68164A9342AB
:1050FC000BD07B68154A934207D07B68144A9342C5
:10510C0003D07B68134A934203D13B681A697B68CE
:10511C001A637B681B6843F004027B681A607B6827
:10512C0001225A617B68FA681A6000BF1437BD46C9
:10513C005DF8047B704700BF000001400004004094
:10514C0000080040000C00400004014000400140F9
:10515C00004401400048014000E0004000E40040F1
:10516C0080B487B000AF786039607B681B6A7B6164
:10517C007B681B6A23F001027B681A627B685B68A0
:10518C003B617B689B69FB60FA68374B1340FB60A3
:10519C00FB6823F00303FB603B681B68FA6813434E
:1051AC00FB607B6923F002037B613B689B687A6937
:1051BC0013437B617B682D4A93420FD07B682C4A4A
:1051CC0093420BD07B682B4A934207D07B682A4AC8
:1051DC00934203D07B68294A93420CD17B6923F01C
:1051EC0008037B613B68DB687A6913437B617B69ED
:1051FC0023F004037B617B681C4A93420FD07B68CD
:10520C001B4A93420BD07B681A4A934207D07B68A7
:10521C00194A934203D07B68184A934211D13B69D7
:10522C0023F480733B613B6923F400733B613B685F
:10523C005B693A6913433B613B689B693A69134369
:10524C003B617B683A695A607B68FA689A613B6893
:10525C005A687B685A637B687A691A6200BF1C378C
:10526C00BD465DF8047B70478FFFFEFF00000140D8
:10527C00000401400040014000440140004801404E
:10528C0080B487B000AF786039607B681B6A7B6143
:10529C007B681B6A23F010027B681A627B685B6870
:1052AC003B617B689B69FB60FA68344B1340FB6085
:1052BC00FB6823F44073FB603B681B681B02FA68B5
:1052CC001343FB607B6923F020037B613B689B6885
:1052DC001B017A6913437B617B68294A934203D093
:1052EC007B68284A93420DD17B6923F080037B6154
:1052FC003B68DB681B017A6913437B617B6923F094
:10530C0040037B617B681E4A93420FD07B681D4A29
:10531C0093420BD07B681C4A934207D07B681B4A94
:10532C00934203D07B681A4A934213D13B6923F40E
:10533C0080633B613B6923F400633B613B685B69C1
:10534C009B003A6913433B613B689B699B003A693C
:10535C0013433B617B683A695A607B68FA689A61CF
:10536C003B685A687B689A637B687A691A6200BFEB
:10537C001C37BD465DF8047B704700BFFF8FFFFEF6
:10538C000000014000040140004001400044014085
:10539C000048014080B487B000AF786039607B680A
:1053AC001B6A7B617B681B6A23F480727B681A62C0
:1053BC007B685B683B617B68DB69FB60FA68334B3D
:1053CC001340FB60FB6823F00303FB603B681B6826
:1053DC00FA681343FB607B6923F400737B613B68C1
:1053EC009B681B027A6913437B617B68284A934252
:1053FC0003D07B68274A93420DD17B6923F4006369
:10540C007B613B68DB681B027A6913437B617B69B8
:10541C0023F480637B617B681D4A93420FD07B68C9
:10542C001C4A93420BD07B681B4A934207D07B6883
:10543C001A4A934203D07B68194A934213D13B69B1
:10544C0023F480533B613B6923F400533B613B687D
:10545C005B691B013A6913433B613B689B691B0108
:10546C003A6913433B617B683A695A607B68FA6816
:10547C00DA613B685A687B68DA637B687A691A621E
:10548C0000BF1C37BD465DF8047B70478FFFFEFFE5
:10549C000000014000040140004001400044014074
:1054AC000048014080B487B000AF786039607B68F9
:1054BC001B6A3B617B681B6A23F480527B681A620F
:1054CC007B685B687B617B68DB69FB60FA68244BFB
:1054DC001340FB60FB6823F44073FB603B681B6864
:1054EC001B02FA681343FB603B6923F400533B61D6
:1054FC003B689B681B033A6913433B617B68194A01
:10550C0093420FD07B68184A93420BD07B68174AA2
:10551C00934207D07B68164A934203D07B68154AA6
:10552C00934209D17B6923F480437B613B685B69BF
:10553C009B017A6913437B617B687A695A607B684B
:10554C00FA68DA613B685A687B681A647B683A6966
:10555C001A6200BF1C37BD465DF8047B704700BF64
:10556C00FF8FFFFE0000014000040140004001409D
:10557C00004401400048014080B487B000AF78601F
:10558C0039607B681B6A3B617B681B6A23F4803241
:10559C007B681A627B685B687B617B685B6DFB6018
:1055AC00FA68214B1340FB603B681B68FA68134395
:1055BC00FB603B6923F400333B613B689B681B0435
:1055CC003A6913433B617B68184A93420FD07B685E
:1055DC00174A93420BD07B68164A934207D07B68DC
:1055EC00154A934203D07B68144A934209D17B69D4
:1055FC0023F480337B613B685B691B027A6913433C
:10560C007B617B687A695A607B68FA685A653B688B
:10561C005A687B689A657B683A691A6200BF1C37C6
:10562C00BD465DF8047B70478FFFFEFF0000014014
:10563C00000401400040014000440140004801408A
:10564C0080B487B000AF786039607B681B6A3B61BF
:10565C007B681B6A23F480127B681A627B685B6828
:10566C007B617B685B6DFB60FA68224B1340FB60CF
:10567C003B681B681B02FA681343FB603B6923F40D
:10568C0000133B613B689B681B053A6913433B6104
:10569C007B68194A93420FD07B68184A93420BD00F
:1056AC007B68174A934207D07B68164A934203D013
:1056BC007B68154A934209D17B6923F480237B6173
:1056CC003B685B699B027A6913437B617B687A69EF
:1056DC005A607B68FA685A653B685A687B68DA6579
:1056EC007B683A691A6200BF1C37BD465DF8047BC3
:1056FC00704700BFFF8FFFFE000001400004014017
:10570C0000400140004401400048014080B487B093
:10571C0000AFF860B9607A60FB681B6A7B61FB685C
:10572C001B6A23F00102FB681A62FB689B693B61F0
:10573C003B6923F0F0033B617B681B013A6913431F
:10574C003B617B6923F00A037B617A69BB68134375
:10575C007B61FB683A699A61FB687A691A6200BFDF
:10576C001C37BD465DF8047B704780B487B000AF32
:10577C00F860B9607A60FB681B6A7B61FB681B6A26
:10578C0023F01002FB681A62FB689B693B613B6962
:10579C0023F470433B617B681B033A6913433B6101
:1057AC007B6923F0A0037B61BB681B017A691343FF
:1057BC007B61FB683A699A61FB687A691A6200BF7F
:1057CC001C37BD465DF8047B7047000080B485B083
:1057DC0000AF786039607B689B68FB60FA68094BA6
:1057EC001340FB603A68FB68134343F00703FB600C
:1057FC007B68FA689A6000BF1437BD465DF8047B7D
:10580C00704700BF8FFFCFFF80B487B000AFF86048
:10581C00B9607A603B60FB689B687B617B6923F4B1
:10582C007F437B613B681A027B681A43BB68134356
:10583C007A6913437B61FB687A699A6000BF1C37F5
:10584C00BD465DF8047B704780B485B000AF7860CE
:10585C0039607B6893F83C30012B01D1022377E04F
:10586C007B68012283F83C207B68022283F83D2070
:10587C007B681B685B68FB607B681B689B68BB6014
:10588C007B681B68354A934204D07B681B68344A9A
:10589C00934208D1FB6823F47003FB603B685B68A0
:1058AC00FA681343FB60FB6823F07003FB603B68F2
:1058BC001B68FA681343FB607B681B68FA685A60C4
:1058CC007B681B68254A93422CD07B681B68B3F11C
:1058DC00804F27D07B681B68224A934222D07B687A
:1058EC001B68214A93421DD07B681B681F4A934258
:1058FC0018D07B681B681A4A934213D07B681B68CC
:10590C001B4A93420ED07B681B681A4A934209D0FB
:10591C007B681B68184A934204D07B681B68174A43
:10592C0093420CD1BB6823F08003BB603B689B683F
:10593C00BA681343BB607B681B68BA689A607B6863
:10594C00012283F83D207B68002283F83C20002351
:10595C0018461437BD465DF8047B704700000140C3
:10596C00000401400004004000080040000C00400E
:10597C00001800400040014000E0004000E40040FE
:10598C0080B582B000AF78607B68002B01D1012319
:10599C0042E07B68D3F88830002B06D17B6800226C
:1059AC0083F884207868FBF783F97B682422C3F89A
:1059BC0088207B681B681A687B681B6822F00102D0
:1059CC001A607B689B6A002B02D0786801F064FB3C
:1059DC00786800F0F5FC0346012B01D101231BE094
:1059EC007B681B685A687B681B6822F490425A607B
:1059FC007B681B689A687B681B6822F02A029A6095
:105A0C007B681B681A687B681B6842F001021A608D
:105A1C00786801F0E3FB034618460837BD4680BDA5
:105A2C0080B58AB002AFF860B9603B601346FB806A
:105A3C00FB68D3F88830202B7BD1BB68002B02D0BD
:105A4C00FB88002B01D1012374E0FB680022C3F812
:105A5C009020FB682122C3F88820FBF71BFE78619D
:105A6C00FB68FA88A3F85420FB68FA88A3F8562040
:105A7C00FB689B68B3F5805F08D1FB681B69002B42
:105A8C0004D10023FB61BB68BB6103E0BB68FB6115
:105A9C000023BB6130E03B6800937B6900228021CE
:105AAC00F86801F045FC0346002B05D0FB6820226A
:105ABC00C3F8882003233DE0FB69002B0BD1BB69A5
:105ACC001B881A46FB681B68C2F308029A62BB6902
